:100000000C94BA020C94D7020C94D7020C94D70229
:100010000C94D7020C94D7020C94D7020C94D702FC
:100020000C94D7020C94D7020C9461130C941D13FA
:100030000C94801F0C94D7020C94D7020C94D70216
:100040000C94D7020C94D7020C94D7020C94D702CC
:100050000C94D7020C9440140C94D7020C94D70241
:100060000C94D7020C94D7020C94D7020C94D702AC
:100070000C94D7020C94D7020C94D7020C94D7029C
:100080000C94D7020C94D7020C94D7020C94D7028C
:100090000C94D7020C94D7020C94D7020C94D7027C
:1000A0000C94D7020C94D7020C94D7020501098056
:1000B000A101850319012AB700150126B700950192
:1000C00075108100C0050C0901A101850419012AE0
:1000D000A002150126A002950175108100C00660DE
:1000E000FF0961A1010962150026FF00952075082E
:1000F00081020963150026FF00952075089102C052
:1001000005010906A101050719E029E715002501E8
:10011000950875018102950175088101050719008F
:1001200029FF150026FF00950675088100050819AE
:1001300001290515002501950575019102950175A7
:10014000039101C00000000000000000000000005A
:10015000000000000000000000000000000000009F
:1001600000000000000000007E0F00D4FFFFFFC76A
:100170000000007800000000000000002A2B28008A
:100180000000000000000000000000000000002946
:10019000000000002C1E3420212224342627252E86
:1001A000362D3738271E1F202122232425263333BE
:1001B000362E37381F0405060708090A0B0C0D0EEA
:1001C0000F101112131415161718191A1B1C1D2FB6
:1001D0003130232D350405060708090A0B0C0D0ED6
:1001E0000F101112131415161718191A1B1C1D2F96
:1001F0003130354C1E0F0500047F3F1F64321464FC
:100200003214783C1E1E140A05000101010101018F
:1002100001010102020202020202020203030303BD
:10022000030303030404040404040405050505058D
:10023000060606060607070707070808080809094B
:1002400009090A0A0A0B0B0B0C0C0C0D0D0D0E0EF6
:100250000E0F0F0F10101111111212131314141589
:100260001516161717181819191A1A1B1B1C1D1DFD
:100270001E1E1F2020212222232424252626272853
:1002800029292A2B2C2D2D2E2F3031323233343583
:10029000363738393A3B3C3D3E3F40414243444586
:1002A000464748494A4C4D4E4F5051535455565865
:1002B000595A5B5D5E5F616264656668696B6C6D0F
:1002C0006F7072737577787A7B7D7E808283858785
:1002D000888A8C8E8F91939596989A9C9EA0A2A3C3
:1002E000A5A7A9ABADAFB1B3B5B7BABCBEC0C2C4C8
:1002F000C6C9CBCDCFD1D4D6D8DBDDDFE2E4E7E988
:10030000EBEEF0F3F5F8FAFDFFFFAA7F554022234C
:10031000252628292A2C2D2F3032333536383A3BE2
:100320003D3E4042434547494A4C4E505153555734
:10033000595A5C5E6062646668696B6D6F71737553
:1003400077797B7D7F81838587898A8C8E90929453
:1003500096989A9C9E9FA1A3A5A7A8AAACAEAFB160
:10036000B3B4B6B8B9BBBCBEBFC1C2C3C5C6C7C9AA
:10037000CACBCCCDCED0D1D2D2D3D4D5D6D7D7D864
:10038000D9D9DADADBDBDBDCDCDCDCDCDDDDDDDDB6
:10039000DCDCDCDCDCDBDBDBDADAD9D9D8D7D7D6BE
:1003A000D5D4D3D2D2D1D0CECDCCCBCAC9C7C6C575
:1003B000C3C2C1BFBEBCBBB9B8B6B4B3B1AFAEACBB
:1003C000AAA8A7A5A3A19F9E9C9A98969492908E66
:1003D0008C8A89878583817F7D7B79777573716F3F
:1003E0006D6B6968666462605E5C5A59575553511B
:1003F000504E4C4A4947454342403E3D3B3A3836D1
:10040000353332302F2D2C2A2928262523222178F6
:100410002E782B78A8002400250026002A412100F0
:100420002200230000001E001F00200028002700DB
:10043000370000000000BC00BB00AA00A900730048
:100440005400550056004A0052004B00570050001F
:1004500051004F0000004D0000004E00570000000A
:100460004C00000000000000000000000000000040
:10047000000000000000000000000000000000007C
:10048000000000000000000000000000000000006C
:10049000000000000000000000000000000000005C
:1004A000000000000000000000000000000000004C
:1004B000000000000000000000000000000000003C
:1004C0000000000000000000000000000000090221
:1004D0005B00030100A0FA09040000010301010010
:1004E00009211101000122440007058103080001D0
:1004F000090401000203000000092111010001228A
:1005000022000705820320000107050303200001E4
:100510000904020001030000000921110100012269
:1005200032000705840320000112010002000000D0
:1005300008EDFE268A0001010200010E036E006F25
:100540000077007000610064000000220341006138
:10055000006E0064004E0020004C00610062006FDD
:10056000007200610074006F0072007900000004E6
:100570000309040011241FBECFEFDAE0DEBFCDBFB8
:1005800026E0AEEBB1E001C01D92A639B207E1F75B
:1005900011E0A0E0B1E0EEEAF1E502C005900D92B5
:1005A000AE3BB107D9F70E94A31F0C9497280C9477
:1005B0000000482F2091950690915C0657E0291382
:1005C00002C080E0089530E0529FF001539FF00D8B
:1005D0001124E35AF94F8181681306C080814813C2
:1005E00003C085818111EECF2F5F3F4F2770E7CF8A
:1005F000E8EDF0E080818E7F80831092E20010921F
:10060000DA001092E100A0EEB0E08C9181608C9352
:1006100080818F77808319BCA7EDB0E08C918E7FAD
:100620008C9380818F7E8083109244060895209160
:10063000E4003091E50095E6A9012091EC00822FBD
:10064000817020FF06C08091E80080FF06C080E036
:1006500008952091E80022FD1AC080915206882357
:1006600089F0853089F08091EB0085FD0FC02091E5
:10067000E4003091E50042175307F9F29150E1F69A
:1006800084E0089582E0089583E0089581E008956C
:100690008091540687FF13C08091E80082FF06C056
:1006A0008091E8008B778093E80004C08091520627
:1006B0008111F2CF0895809152068823D9F3809159
:1006C000E80080FFF8CF8091E8008E77ECCF982F7C
:1006D0009093E900242F762F50E0891731F0709124
:1006E000EC002091ED005091F00021FD07C09F5FCC
:1006F000973071F78093E90081E008953091EB0025
:100700003E7F3093EB003091ED003D7F3093ED0064
:100710003091EB0031603093EB007093EC0020934C
:10072000ED005093F0002091EE0027FDE0CF80E037
:100730000895B0E0A0E0EFE9F3E00C94C726C8ED1F
:10074000D0E088818F7E8883E7EDF0E08081816052
:10075000808384E082BF81E08093440688818E7F1D
:10076000888302EE10E0F80110821092DA0081EE28
:10077000C82ED12CF601108288818F7788838881DA
:100780008068888388818F7D888319BC1092520687
:1007900010925306109251061092500690EEE92ED8
:1007A000F12CF70180818B7F808388818160888331
:1007B00042E060E080E00E946703F60180818E7F66
:1007C0008083F8018081816080838081886080835C
:1007D000F70180818E7F8083888180618883CDB797
:1007E000DEB7E8E00C94E326FC0180915A06909174
:1007F0005B0686179707A0F06115710529F49091A3
:10080000E8009E779093E80090E06115710551F43F
:10081000911108C08091E80082FF34C080E0089503
:10082000BC01F2CF809152068823C1F18530C1F11D
:100830008091E80083FD30C08091E80082FDEACF1E
:100840008091E80080FFE1CF8091F3002091F200D9
:10085000382F6115710519F02830310558F091E0F5
:100860002830310509F090E02091E8002E772093A0
:10087000E800CBCF81918093F100615071092F5F27
:100880003F4FE7CF80915206882341F0853041F0F9
:100890008091E80083FFBECF81E0089582E0089553
:1008A00083E008950895089580914706089587E7A5
:1008B00097E7909301088093000888E19AE00FB6CB
:1008C000F894A895809360000FBE90936000FFCFCE
:1008D0002FB7F894609140067091410680914206CE
:1008E000909143062FBF0895A3E0B0E0EAE7F4E05B
:1008F0000C94CD2620913E0630913F0628173907EB
:10090000A1F090933F0680933E06E0913C06F09163
:100910003D06309751F024E029839B838A8306802B
:10092000F781E02DCE01019609952396E2E00C9423
:10093000E926A3E0B0E0EFE9F4E00C94CD262091A5
:100940003A0630913B0628173907A1F090933B06F1
:1009500080933A06E0913C06F0913D06309751F0C5
:1009600023E029839B838A830680F781E02DCE01D3
:10097000019609952396E2E00C94E926E0913C0665
:10098000F0913D06309729F00190F081E02D099516
:10099000089580E00895FA01811101C0FB010995D5
:1009A000089580913206982F9E7F61F48170826055
:1009B00080933206809135068F3618F08EE680934C
:1009C000350608958635B0F381708465F1CFAF9216
:1009D000BF92DF92EF92FF920F931F93CF93DF931B
:1009E000182F062FE9014F3608F04EE6E42FF0E00D
:1009F000E75FFD4F011110C0E4915E2F4E2F498338
:100A0000E8835A83DF91CF911F910F91FF90EF9070
:100A1000DF90BF90AF900895202F30E04491D42E06
:100A2000E42EF12C56E0159FC0011124EFEFF0E009
:100A3000BF010E94A926812F90E0880F991F55E5DC
:100A4000569FD001579FB00D11248A1B9B0B982FE6
:100A5000990F890F5F01A21AB30AAE9CD001AF9C17
:100A6000B00DBE9CB00D11245B2F089F8001112496
:100A7000012F11275F01A01AB10AAE9C8001AF9C23
:100A8000100DBE9C100D11245F01A81AB108A29E82
:100A9000C001A39E900DB29E900D1124892F99271D
:100AA000E81BF90BEE9DC001EF9D900DFE9D900D92
:100AB0001124E92F62307105A1F050F46115710520
:100AC00009F49DCF6130710581F0EB2F512F97CF45
:100AD0006430710569F080F06630710509F48FCFDC
:100AE000F4CFE42F4B2F592F8ACFE42F412F87CFFC
:100AF000EB2F542F492F83CF4B2F5D2DE12F7FCF2D
:100B000080E00895F894E82FE295EF70F0E031A1CD
:100B1000282F2F7081E090E001C0880F2A95EAF716
:100B2000982F9095932391A392A1892B82A37894D7
:100B3000089590910D0292FF10C041E0282F24717A
:100B4000243009F040E031E0282F2871283009F0E6
:100B500030E0431711F02CE0822793FF10C041E0F2
:100B6000282F2471243109F040E031E0282F28712A
:100B7000283109F030E0431711F02CE08227309142
:100B80000E0230FF10C051E0282F2171213009F0F2
:100B900050E041E0282F2871283009F040E0541738
:100BA00011F029E0822731FF10C041E0282F217188
:100BB000213109F040E031E0282F2871283109F077
:100BC00030E0431711F029E0822794FD877E0895D5
:100BD00082389105B9F1B0F48133910509F47DC0F3
:100BE00048F48932910509F46DC08A32910509F4FF
:100BF0007BC008958533910509F45FC08933910561
:100C000009F10895833E9105D9F138F4803E9105AC
:100C100029F1823E910579F10895863E9105D9F139
:100C2000873E910509F43EC0843E910541F520912F
:100C30000E0221FF24C080910D0284FD19C087EEB1
:100C400090E0089520910D02237009F05AC0209180
:100C50000E0223FF14C089E290E0089520910D0256
:100C600020FD38C030910E0230FF09C024FF43C080
:100C700090E080E0089520910D0222FDF7CF0895C5
:100C800020910D0222FD3AC030910E0230FD39C094
:100C900024FFF5CFEDCF20910D0223FFF0CF24FDEF
:100CA000E7CFCDCF20910D0223FD2EC030910E0253
:100CB00031FFEECF84EE90E0089520910D0225FFE4
:100CC000DECFC9CF20910D0225FD21C020910E025B
:100CD00023FFD5CF89E390E0D2CF20910D0226FFEC
:100CE000CECF8AE290E0089520910D0226FFC7CF73
:100CF00081E390E0089583EE90E0089582EE90E025
:100D0000089580EE90E0089586EE90E0089585E3E2
:100D100090E008951F93CF93DF930E94E805EC01C4
:100D2000C11580E5D807F0F5C11580E4D80708F0B3
:100D30009CC0C03ED10520F5CD3CD10508F082C055
:100D4000C83AD10578F4C53AD10508F073C0C1306E
:100D5000D10519F1209709F1C430D105F0F4D0E0A4
:100D6000C0E01BC0C33CD105D0F7C85AD0E0CC0FBF
:100D7000DD1FC05DDE4F0990D881C02DD4640DC049
:100D8000C11580E2D80708F0D1C0C11581E0D807AD
:100D900008F05AC0C83ED10510F7CE01DF91CF91BF
:100DA0001F910895C03682E5D80718F5C03482E552
:100DB000D80708F06BC0C03282E5D80708F05FC0E2
:100DC000C11582E5D80708F497C02C2F26952695E3
:100DD00080E2289F900111248C2F8370C1E0D0E025
:100DE00002C0CC0FDD1F8A95E2F7C22BD32BDD6842
:100DF000D4CFC03A82E5D80760F4C03882E5D8077E
:100E000008F459C0CF71D0E0DC2FCC27C46FD06A72
:100E1000C4CFC03C82E5D80708F462C0C03E82E57A
:100E2000D80708F09CCFDC2FCC27CC27DF71C06F10
:100E3000D06AB3CFC55AD0E0C35DDE4FC881D0E0E1
:100E4000D064ABCFD065A9CF8D2F0E949905182F04
:100E5000CE0199270E94E805C12FD0E0DC2FCC27D6
:100E6000CC27DF71C82BD92B98CFCE0199270E94B0
:100E7000E805CC27DF70C82BD92BD06A8ECFCF7175
:100E8000D0E0DC2FCC27C16FD06A87CF2C2F2695DE
:100E90002695277080E2289F900111248C2F837063
:100EA000C1E0D0E002C0CC0FDD1F8A95E2F7C22B73
:100EB000D32BDC6872CF2C2F26952695277080E2E5
:100EC000289F900111248C2F8370C1E0D0E002C0D4
:100ED000CC0FDD1F8A95E2F7C22BD32BDA685DCFEA
:100EE0008C2F8F710E949905C82FD0E0DC2FCC2762
:100EF000CC27DF71D06251CF8C2F8F710E94990562
:100F000055E0D695C7955A95E1F7CF70D0E0DC2F24
:100F1000CC27282F30E084FF05C044E0220F331F88
:100F20004A95E1F7C22BD32BD06937CF8D2F8F7124
:100F30000E949905182FCE0199270E94E805C12F1C
:100F4000D0E0DC2FCC27CC27DF71C82BD92BD2CF18
:100F50008095909145069823909345060895809139
:100F6000950690915C06981301C008958F5F877075
:100F7000FACF963080F5843070F544E0949F90016C
:100F80001124820F932F911D682F677023E096958F
:100F900087952A95E1F7FC01EE0FFF1FE80FF91F77
:100FA000E952FE4F50E040E080E0219130E0062E13
:100FB00002C0369527950A94E2F721703327042E54
:100FC00001C0220F0A94EAF7822B4F5F5F4F433034
:100FD000510559F7089580E00895963098F58430CA
:100FE00088F544E0949F90011124820F932F911D66
:100FF000282F277041E001C0440F2A95EAF723E02B
:10100000969587952A95E1F7FC01EE0FFF1FE80FF3
:10101000F91FE952FE4F90E080E070E05191DF014E
:1010200011979B01082E02C0369527950A94E2F786
:10103000217021952527242325272C930196833081
:10104000910561F7089580930C02089590910C0228
:1010500021E030E0F90101C0EE0F8A95EAF7D901ED
:1010600002C0AA0FBB1F6A95E2F7EA2B01C0220F4C
:101070004A95EAF7892F8E23E81305C0292B822F82
:101080000E942308089520952923F9CF21E030E01C
:1010900001C0220F8A95EAF7209580910C028223E5
:1010A0000E94230808959091E701809589238093F9
:1010B000E701282F277069F4891759F090910E02E3
:1010C00092FF07C08695869586950E9446081092E5
:1010D000E701089521E030E001C0220F8A95EAF788
:1010E00080910C02822B0E94230808958093F201C4
:1010F00008950F931F93CF93DF938B01EA01909193
:101100005206943061F58093E9008FEF9091E800EA
:10111000815095FD06C095ED9A95F1F7000081117B
:10112000F5CF8091E80085FF1AC00E941703811156
:1011300011C08091E80085FD06C08091E8008E779F
:101140008093E800F2CFF80181918F018093F10044
:10115000219779F78091E8008E778093E800DF91FE
:10116000CF911F910F91089543E050E0BC0184E0BE
:101170000E9479080895CF93DF93EC0148E050E096
:10118000BC0181E00E94790888E0FE01A8E4B6E095
:1011900001900D928A95E1F7DF91CF910895CF9359
:1011A000DF93C9EED0E060E0CE010E9400282196D6
:1011B000C11584E0D807B9F7DF91CF9108951F9347
:1011C000CF93DF93122F8430E0F46630D0F44430B4
:1011D000C0F498E0699FE001112450E0440F551FCE
:1011E000C40FD51F90E3899FC00DD11D1124632F1B
:1011F000CE0189960E940028612FCE018A960E9416
:101200000028DF91CF911F910895AF92BF92CF92A6
:10121000DF92EF92FF921F93CF93DF938EE0C82E61
:1012200084E0D82ED0E07601C0E014C0F50125910D
:101230003491412F6C2F8D2F0E94DF0882E0A80E81
:10124000B11C1F5F143091F788E0E80EF11CCF5FEE
:10125000C63019F0570110E0E9CFDF5F80E3C80E18
:10126000D11CD43001F7DF91CF911F91FF90EF9007
:10127000DF90CF90BF90AF900895CF93C82F6FEFBE
:10128000811163E285E290E00E9400286FEFC111B6
:1012900060E186E290E00E9400286FEFC11161E0FA
:1012A00087E290E00E940028CF91089580E00E949C
:1012B0003D0960E088E290E00E9400280E94050954
:1012C0000E94CF0881E00E943D0908950F931F936B
:1012D000CF93DF93843030F5663020F5443010F53D
:1012E00028E0629F8001112450E0440F551F040F35
:1012F000151F30E3839F000D111D1124C80189962D
:101300000E94DC27C82FD0E0DC2FCC27C8018A96AA
:101310000E94DC279E01282BC901DF91CF911F91EC
:101320000F91089590E080E0F8CF462F763040F49A
:10133000643030F4843020F4672F0E9466090895E9
:1013400090E080E00895CF92DF92FF920F931F9379
:10135000CF93DF936C0100910C028091F201082B76
:10136000C3E0D0E010E0FC2EC8010C2E02C0959521
:1013700087950A94E2F780FD0CC02197A0F7F12C25
:101380008F2DDF91CF911F910F91FF90DF90CF9024
:101390000895B6018C2F0E9495090E948A06019734
:1013A00061F3EECFCF93DF93EC010E94A309BE015E
:1013B0000E9495090E948A06DF91CF910895FC0151
:1013C00024812223C1F0808191810E94D2099295CB
:1013D0009F70963091F058F4925F9F70923058F45D
:1013E000803F19F030F4883E30F481E008959A5F30
:1013F000F4CF843FD1F380E00895883EB0F3813F7D
:10140000D1F7F3CFA6E0B0E0E8E0FAE00C94CC2608
:1014100049835A8349815A819923A1F0222391F06B
:10142000CA010E94A309182F682F89819A810E94FE
:10143000ED0769817A81812F0E9495092696E3E064
:101440000C94E826CA010E94B907182FF2CF85E252
:1014500090E00E94DC27833289F486E290E00E94CB
:10146000DC27803159F487E290E00E94DC2791E08C
:10147000813009F090E0892F8170089580E0FCCFE1
:101480008091320680FD0AC0E2E3F2E01182108210
:101490001282339653E0E23BF507C1F7809A31B3ED
:1014A0003E7F21B321604FB7F89482E392E0FC01C4
:1014B0005191CF0168E021BB000000C057FF31BB54
:1014C000550F000000C000C000C031BB00C06A95CD
:1014D00091F7F3E0823B9F0751F74FBF8FE594E010
:1014E0000197F1F700C000000895B0E0A0E0EBE73D
:1014F000FAE00C94BF26FC016280448081E0848382
:10150000EEE0F3E07490EDE8F3E0E491009135064D
:101510000695015810E0000F111F012F1127C2EB93
:10152000D3E022E3C22E22E0D22E32E3832E36E035
:10153000932EAA24AA94B12C55245A94E719EE2E7E
:10154000F12C82E0861530F08091330688838091FB
:1015500034068983411016C01B821A8296014A8183
:10156000698188810E94E704259683E0C80ED11C1A
:101570008C169D0631F70E94400ACDB7DEB7E0E138
:101580000C94DB268B818823E9F081508B83859D29
:10159000C00111246C8170E00E94A926FB01FF2785
:1015A000E25FFC4F8491E82FE719E59DC00111240B
:1015B000B7010E94A92680913506689FB0011124C9
:1015C0007A83CCCF0E94B227B5010E9400278017F2
:1015D000910724F682E0861588F40E94B227B501AF
:1015E0000E94002788830E94B22720913406269506
:1015F000622F70E00E940027280F29831A828091B1
:101600003506893C20F088EC8C838B83A7CF84310E
:10161000D8F784E1F9CFEF92FF920F931F93CF9306
:10162000DF938C01C2E3D2E0F12CE12CF80194812C
:101630006091340680913306F0E4EF16F104ECF487
:101640009923E9F09E01409135060E94E7042FEFAF
:10165000E21AF20A239680E8E816F10439F70E94AC
:10166000400AF801848190E0019681709927848373
:10167000CDB7DEB7E6E00C94E526992319F39E0179
:1016800040E0E3CFB0E0A0E0E8E4FBE00C94C32648
:10169000EC014C81042F10E09801D8010E948828A9
:1016A0009B01AC010E9453284B015C01E0E2F0E099
:1016B000E01BF10BA5E5B0E0AC019B010E945328B3
:1016C0006B017C019F01DF010E9421279B01AC017E
:1016D0000E945E289B01AC01280D391D4A1D5B1D2F
:1016E000C701B6010E946628F22E822F90E039E2EF
:1016F0003F1598F143E0249F9001112435952795DB
:10170000122F109592E3C92E92E0D92E00E085E5C4
:10171000E82EEF188E2D01FD8F2D9601412F60913F
:1017200034060E94E7040F5F53E0C50ED11C003859
:1017300089F70E94400A9C8181E0992319F0903238
:1017400019F48FEF80931A0180911A01890F8C830D
:10175000CDB7DEB7ECE00C94DF2625E530E0A9013B
:10176000481B590BCA019A01220F331F280F391F3A
:1017700037FFC4CF2F5F3F4FC1CF0F931F93CF933E
:10178000DF93C2E3D2E0FE0111821082128233960F
:1017900083E0E23BF807C1F710E000E080913002FF
:1017A000082E000C990B081719078CF1809119016C
:1017B000082E000C990B801791074CF19E01409167
:1017C000350660913406809133060E94E7040F5F6E
:1017D0001F4F23960038110509F70E94400A809197
:1017E000180190913002980F9093300220911901C6
:1017F000280F20931901121614F49F3719F48195BC
:1018000080931801DF91CF911F910F910895198254
:1018100018821A82DCCFB0E0A0E0E1E1FCE00C9499
:10182000C726FC018281DD24DA9480FD02C0DD241C
:10183000D394C2E3D2E010E000E0198218821A8249
:1018400094E0E92EF12CC12C80912F028C0D87FDA4
:101850008058082E000C990B8017910791F4809105
:1018600035068E9DA0018F9D500D112455954795ED
:10187000559547959E0160913406809133060E94EC
:10188000E704CD0CF1E0EF1AF108F1F60F5F1F4FFE
:1018900023960038110589F60E94400A80912F0294
:1018A00091E0D9120CC0811108C08FE780932F02FC
:1018B000CDB7DEB7E8E00C94E3268150F7CF90E097
:1018C00001968F779927F2CFEF92FF921F93CF93D4
:1018D000DF93EC0182E3E82E82E0F82E10E08C81A9
:1018E00097014091350660913406810F0E94E7040C
:1018F0001F5F83E0E80EF11C103889F70E94400A50
:101900009A818C8190FF08C08F5F8C83DF91CF918B
:101910001F91FF90EF9008958150F7CF909132067C
:1019200090FF0CC0E2E3F2E0818360834283339650
:1019300093E0E23BF907C1F70E94400A0895A3E053
:10194000B0E0E5EAFCE00C94CB268C0180913102FA
:1019500081110AC09E012F5F3F4F4EE66FEF0E943C
:10196000E7048A8180933102F8016481613069F073
:101970008091310240E0662361F040E0623011F472
:101980004091310280E060E004C06091310240E0AB
:1019900080E00E948E0CF801848190E0019663E063
:1019A00070E00E94002784832396E4E00C94E726ED
:1019B000A3E0B0E0EEEDFCE00C94CD269091320671
:1019C00090FF0AC09E012F5F3F4F0E94E7044B81AA
:1019D00069818A810E948E0C2396E2E00C94E926AC
:1019E000CF93DF93EC01E2E3F6E0438162818C81E7
:1019F0000E94D80C8C818F5F8C83DF91CF910895EA
:101A0000CF93DF93EC01EC81F0E0E25FFC4F449177
:101A1000E2E3F6E0628181810E94D80C8C818F5FC5
:101A20008C83DF91CF910895B0E0A0E0EAE1FDE082
:101A30000C94C32649015A016B017C010E94D10418
:101A40008401A4016A2D7B2D88E090E00E94122879
:101A500094014A2D5B2DB601C70100E20E944B277D
:101A6000622F84E290E00E940028CDB7DEB7ECE060
:101A70000C94DF26A3E0B0E0E0E4FDE00C94C22685
:101A8000F82ED62EE42EC22E9091320690FF2EC054
:101A9000E92FE695AE2FB0E0AC57BE4F8C91809306
:101AA0002C029E7F923031F59E012F5F3F4F8F2D8C
:101AB0000E94E7044B8169818A810E948E0CF0921A
:101AC0003306D0923406E0923506CC2079F020918E
:101AD000320660913606709137063F2D4D2D5E2DF2
:101AE00080913806909139060E94140D2396EDE0FE
:101AF0000C94DE26823019F4E0903506E0CF863073
:101B000019F4F0903306DBCF8930D9F38931B9F677
:101B1000E9512E2F2170722EE695F0E0E75FFC4F21
:101B2000E4910E2F10E032E3A32E32E0B32E912C7D
:101B3000812CC401880F892F881F990B91957110F2
:101B400013C08F0D95014E2D6D2D0E94E704800E60
:101B5000911E83E0A80EB11C22EBA21623E0B20670
:101B600041F70E94400AABCF2F2D281B822FEACFCE
:101B7000E2E3F6E0438128E0421B08F440E021E084
:101B8000628181810E943A0D0895E2E3F6E043818B
:101B900028E0420F08F44FEF21E0628181810E942A
:101BA0003A0D0895E2E3F6E0628128E0621B08F452
:101BB00060E021E0438181810E943A0D0895E2E3D3
:101BC000F6E0628128E0620F08F46FEF21E04381C4
:101BD00081810E943A0D0895E2E3F6E0818121E0DF
:101BE0004381628188500E943A0D0895E2E3F6E055
:101BF000818121E043816281885F0E943A0D0895CE
:101C000080913606882319F0815080933606209102
:101C1000320630913306409134065091350660917A
:101C200036067091370680913806909139060E94E9
:101C3000140D089580913606833018F48F5F8093D9
:101C40003606209132063091330640913406509189
:101C5000350660913606709137068091380690916E
:101C600039060E94140D0895E2E3F6E083E08083D4
:101C700011828FEF82838EE683831482758123E045
:101C800030E04FEF5EE660E0868197810E94140DA0
:101C90000895A2E1B0E0EFE4FEE00C94CB2691E1E0
:101CA000ECE1F1E0DE01119601900D929A95E1F7D9
:101CB000E1E0F0E0EC0FFD1FE60FF11D90819A8B43
:101CC000682F660F843018F0880F69EF680F04E6FC
:101CD00010E021E030E0AE014E5E5F4F80EE0E94EA
:101CE00035266296E4E00C94E72690910E0292FB72
:101CF000222720F9281779F080FB92F990930E02A1
:101D000060910D0270910E0284E090E00E941E2806
:101D100082E00E945308089590E080E00E94EA2744
:101D2000863E9E4F19F40E94270A089580E0089588
:101D3000809145069091F101892B8093C00190918B
:101D4000F001992391F0892B8093C00120E082EC6F
:101D500091E0FC013191CF0131112F5FF1E0883C1E
:101D60009F07B9F721111092F00148E050E068EEAA
:101D700071E080EC91E00E94CF27892BA9F088E0E8
:101D8000E0ECF1E0A8EEB1E001900D928A95E1F768
:101D9000E0913C06F0913D06309731F00280F381EE
:101DA000E02D80EC91E009950895E2ECF1E086E009
:101DB000DF011D928A95E9F790E080E00E94990486
:101DC00090E080E00E9474041092F1010E94980E4D
:101DD0000895AAE2B0E0EFEEFEE00C94CC2684E594
:101DE00096E02091F100DC012D93CD01B6E08C3519
:101DF0009B07B9F780915506833009F472C0B8F497
:101E0000813009F449C0823009F4B5C08091E800FE
:101E100083FF8DC280915406909155069A3008F048
:101E200086C2E92FF0E0E756F74D0C9414278A306C
:101E300009F490C08B3009F471C0893039F7809172
:101E40005406813219F780915806909159060097EF
:101E500011F00297D9F68091E800877F8093E8001F
:101E60008091E80082FF38C09091F3008091F200E9
:101E7000029731F48091F100813011F0863021F425
:101E80008091F100809347068091E8008B778093E2
:101E9000E8000E944803BACF80915406813A09F0C5
:101EA000B5CF8091E800877F8093E8008091580645
:101EB00090915906892B61F468E088E496E070E01F
:101EC0000E94F4038091E8008B778093E8009ECF16
:101ED00060E090E080E0F3CF809152068111C0CFA6
:101EE00095CF80915406813A09F090CF80915806A1
:101EF00090915906892B09F089CF8091E800877F5E
:101F00008093E8008091E80080FFFCCF80911B0166
:101F10008093F1008091E8008E77B9CF80915406CC
:101F2000813209F073CF8091580690915906892B20
:101F300009F06CCF8091E800877F8093E8000E94D1
:101F400048038091560680931B01109245060E941B
:101F5000D50E5CCF80915406813209F057CF809125
:101F6000E800877F8093E8000E944803809157062D
:101F7000809346064BCF80915406813A09F046CFB4
:101F80008091E800877F8093E8008091E80080FFDF
:101F9000FCCF80914606BCCF803899F0823809F09A
:101FA000C6C1809158068F70873008F0C0C18093F9
:101FB000E9008091EB0085FB882780F91092E90009
:101FC00006C08091500690915106911182609091C7
:101FD000E800977F9093E8008093F1001092F10061
:101FE0008091E8008E779FC1882309F48DC18230EB
:101FF00009F09DC180915606811190C180915806CB
:102000008F702FEF280F263008F091C18093E900E0
:102010002091EB0020FF82C1933031F48091EB00DE
:1020200080628093EB007AC19091EB009061909375
:10203000EB0021E030E001C0220F8A95EAF72093FF
:10204000EA001092EA008091EB008860EACF8111EB
:102050006EC1109156061F778091E3008078812B26
:102060008093E3008091E800877F8093E8000E94DE
:1020700048038091E80080FFFCCF8091E3008068F6
:102080008093E30082E0111183E0809352064FC1F8
:102090008058823008F04BC1209156063091570687
:1020A0002C3DE3E03E07A1F583E08A838AE2898341
:1020B0004FB7F894DE01139620E03EE051E2E32FA3
:1020C000F0E050935700E49120FF03C0E295EF70D9
:1020D0003F5FEF708E2F90E0EA30C0F0C7968D938F
:1020E0009D932F5F243159F74FBF8091E800877F80
:1020F0008093E8006AE270E0CE0101960E94F4034A
:102100008091E8008B778093E80011C1C096E7CFFB
:102110008091580690915906432F55274330510519
:1021200009F44AC078F54130510509F47AC08BE5CD
:1021300090E0EEECF4E04230510509F0F8C0209157
:10214000E800277F2093E80020915A0630915B0633
:102150008217930708F49C0140E02115310509F02E
:1021600065C0411163C08091E80082FDC9CF8091B4
:102170005206882329F2853019F28091E80083FF06
:10218000F2CFBECF4132510509F43CC04232510575
:1021900009F0CDC08330910508F0C9C0FC01EE0FF5
:1021A000FF1FEE54FE4F0190F081E02D81559E4FB0
:1021B000DC018C9190E01AC0332721303105D1F039
:1021C0002115310561F02230310509F0B0C0EBE393
:1021D000F5E0E4918E2F90E0EBE3F5E007C0EFE649
:1021E000F5E0E4918E2F90E0EFE6F5E0009709F43A
:1021F0009EC0A5CFEBE4F5E0E4918E2F90E0EBE4F8
:10220000F5E0F4CF8330910508F091C0880F991F55
:10221000FC01E854FE4F0190F081E02D89E090E050
:102220008ECF82E190E0E9E2F5E089CF809152061D
:10223000882309F465CF853009F462CF8091E800E6
:1022400083FD5ECF8091E80082FD8DCF8091E80014
:1022500080FF83CF9091F3008091F200211531052A
:1022600019F08830910550F041E0089709F040E0FE
:102270008091E8008E778093E8006FCF449140937F
:10228000F1003196215031090196E8CF803809F0EC
:102290004EC08091E800877F8093E80080915306CC
:1022A0008093F1009DCE811142C0109156061230EC
:1022B000F0F58091E800877F8093E8001093530643
:1022C0000E944803112311F084E005C08091E300CF
:1022D00087FDFACF81E08093520642E061EC81E015
:1022E0000E94670342E261EC84E00E94670342E2DD
:1022F00061EC82E00E94670342E260EC83E00E94AE
:1023000067038091520613C080915606813079F49C
:1023100081E0933009F080E0809351061092E9004B
:102320008091E800877F8093E8000E9448038091B5
:10233000E80083FF0AC08091E800877F8093E8006F
:102340008091EB0080628093EB00AA96E3E00C940E
:10235000E826109245060E94D50E2FEF84E39CE0FC
:10236000215080409040E1F700C0000088E19AE0F1
:102370000FB6F894A895809360000FBE909360000C
:10238000FFCF882321F00E94A8070E94980E08958D
:10239000882339F090914506982B909345060E942A
:1023A000980E0895882391F19CEF980F913A80F44C
:1023B000E2ECF1E028EC31E09191891303C0DF01F8
:1023C00011971C922E173F07B9F70E94980E089597
:1023D00090E2980F983050F4877091E001C0990F07
:1023E0008A95EAF7892F0E94A807EFCF9BE5980FFF
:1023F000933028F490E080E00E9499040895885A70
:102400008B3120F490E080E00E94740408950F93D3
:102410001F93CF93C82F882349F18CEF8C0F813AFB
:10242000B8F502EC11E088EC91E0F8012191C217B7
:1024300009F121E0E83CF207C9F7EFEF80E0D801AD
:102440009D918D01C91781F0EF3F19F4911101C0E1
:10245000E82F8F5F863099F7EF3F31F00E2E000C9A
:10246000FF0BE054FE4FC2830E94980ECF911F9144
:102470000F910895E2ECF1E02191C21303C0DF0156
:1024800011971C928E179F07B9F70E94980ED5CF0F
:1024900080E28C0F883068F4C77021E030E001C022
:1024A000220FCA95EAF780914506822B8093450654
:1024B000DBCFEBE5EC0FE33040F4F0E0E35DFE4F03
:1024C000808190E00E949904D1CFC85ACB3170F638
:1024D000EC2FF0E0EE0FFF1FE05DFE4F8081918159
:1024E0000E947404C3CF1F93CF93DF93182FD0E0C3
:1024F000C0E0893311F4C0E5D0E0812F0E940712BB
:10250000209739F4812F0E94D211DF91CF911F9132
:1025100008958FE99FE00197F1F700C0000021972F
:10252000EFCFCF93811111C0C2E0611101C0C3E0B0
:102530008C2F95E00E94A3096C2F75E00E949509ED
:102540000E94731280E0CF9108958130D9F7C0E0E6
:102550006111EECFC1E0ECCFA8E0B0E0E2EBF2E138
:102560000C94CD2666EE7EEF90E080E00E941E285F
:1025700060E082E090E00E94002860E083E090E06C
:102580000E9400281092F20160E074E184E090E083
:102590000E941E2860E086E090E00E9400286FEF15
:1025A00087E090E00E94002840E050E0BA0188E017
:1025B00090E00E94122860E084E290E00E940028EF
:1025C00060E087E190E00E94002860E08CE090E00D
:1025D0000E94002860E08DE090E00E9400281982AF
:1025E0001A821B821C821D821E821F82188648E06E
:1025F00050E068E170E0CE0101960E94F02740E0D3
:1026000050E0BA0180E290E00E94122880E00E942F
:102610003D090E94560940E050E0BA018FE090E089
:102620000E94122840E050E0BA0183E190E00E944D
:1026300012282896E2E00C94E9261F920F920FB61A
:102640000F9211242F933F934F935F936F937F9338
:102650008F939F93AF93BF93CF93DF93EF93FF93AA
:10266000D091E900DF708091EC00C82FC17080FD2F
:10267000C0E81092E9008091F000877F8093F0001D
:1026800078940E94E90E1092E9008091F000886031
:102690008093F000CD2BCF70C093E900FF91EF91B4
:1026A000DF91CF91BF91AF919F918F917F916F916A
:1026B0005F914F913F912F910F900FBE0F901F9000
:1026C00018951F920F920FB60F9211242F933F93DC
:1026D0004F935F936F937F938F939F93AF93BF932A
:1026E000EF93FF938091E10082FF09C08091E200A7
:1026F00082FF05C08091E1008B7F8093E100809193
:10270000DA0080FF24C08091D80080FF20C0809133
:10271000DA008E7F8093DA008091D90080FFA3C019
:1027200080E189BD82E189BD09B400FEFDCF81E071
:102730008093520680914406811109C00E94F802DC
:102740000E9499038091E20084608093E20080916E
:10275000E10080FF17C08091E20080FF13C08091EC
:10276000E2008E7F8093E2008091E200806180939E
:10277000E2008091D80080628093D80019BC85E087
:10278000809352068091E10084FF31C08091E20085
:1027900084FF2DC080E189BD82E189BD89B5982F74
:1027A000917080FFFBCF8091D8008F7D8093D800FF
:1027B0008091E1008F7E8093E1008091E2008F7E26
:1027C0008093E2008091E20081608093E20080913A
:1027D0005306882309F44DC084E08093520610927A
:1027E00045060E94D50E0E94BE048091520680913B
:1027F000E10083FF27C08091E20083FF23C0809126
:10280000E100877F8093E10082E08093520610927E
:1028100053068091E1008E7F8093E1008091E20079
:102820008E7F8093E2008091E20080618093E200DD
:1028300042E060E080E00E9467038091F0008860E1
:102840008093F000FF91EF91BF91AF919F918F9195
:102850007F916F915F914F913F912F910F900FBE9C
:102860000F901F90189519BC1092520610924406B2
:102870006ECF8091E30087FD93E090935206AFCF37
:1028800078941F921FB61F9211248F939F93AF933A
:10289000BF938091400690914106A0914206B0916D
:1028A00043060196A11DB11D8093400690934106F9
:1028B000A0934206B0934306BF91AF919F918F9131
:1028C0001F901FBE1F9018959C014FB7F8948091E0
:1028D000400690914106A0914206B09143064FBF39
:1028E000821B930B08952FB7F89480914006909126
:1028F0004106A0914206B09143062FBF08959091E2
:10290000320690FF34C09170811132C09260909372
:102910003206662391F020913206309133064091C1
:1029200034065091350660913606709137068091D5
:102930003806909139060E94140D60913206669512
:1029400070E04BE050E08DE091E00E94C227892BBF
:10295000B1F010922D0281E08093290220E0409195
:10296000350660913406809133060E943A0D089531
:102970008B3210F09465CBCF880F982BC8CF81E0B5
:1029800080932D020E947314909327028093260255
:10299000E2CF809132068695815009F48AE261E0A7
:1029A0000E947F1408958091320686958F5F8B3246
:1029B00008F081E061E00E947F1408959091320652
:1029C00090FF08C09695981728F0961718F40E9463
:1029D000D314089561E00E947F140895A8E0B0E048
:1029E000E4EFF4E10C94BF267C01DC0114968C9199
:1029F0001497882309F4B5C021E04C9111965C919D
:102A0000119712966C91129713967C9113971596C5
:102A10009C910E94020A6C01F7018581882309F4C8
:102A200033C1960137572038310508F026C51C2DD3
:102A3000103108F086C08FEF93E00E94DC278111EF
:102A400080C059EEA52EB12C111148C0FE0133965D
:102A500086E0DF011D928A95E9F74AE0442E850160
:102A60000F5F1F4FC5010E94DC2789831A828823CC
:102A700009F467C0813009F078C06501B2E0CB0E7F
:102A8000D11CC8010E94DC278A83882309F459C01D
:102A90009FEF980F933080F5E3E0AE0EB11CC601B6
:102AA0000E94DC278B83882309F44BC01C828E0193
:102AB0000F5F1F4FD8012C91222389F2213009F09A
:102AC0008EC011969C91119712968C91913009F0BD
:102AD0004EC00E5F1F4F0E9473124FC0A114F4E04E
:102AE000BF0679F1C5010E94DC27811101C0115098
:102AF0002FEFA21AB20AA8CF56018430C1F602E025
:102B000010E05601FFEFAF1ABF0AC6010E94DC2792
:102B1000E1E0F0E0EC0FFD1FE00FF11F8083882360
:102B200081F08C3741F4E2E0F0E0EC0FFD1FE00FA4
:102B3000F11F1082BCCF0F5F1F4F650107301105D9
:102B400001F78091E701877061F0D70115968C91AC
:102B5000882339F080910E0282FF03C082E00E9438
:102B600053082896E0E10C94DB265801A0CF923060
:102B700039F40E5F1F4F0E9407120F5F1F4F9ACF4D
:102B8000933029F40E5F1F4F0E94D211F6CF94307C
:102B900019F00F5F1F4FF1CF0E5F1F4F30E020E0A5
:102BA000B8016F5F7F4FF80141818053990B8A30E4
:102BB000910550F02150310900F38FE99FE0019712
:102BC000F1F700C00000F6CF429EF001439EF00DE9
:102BD00011249C012E0F3F1F842F8B01E1CFE22F88
:102BE000F0E0EC58FE4F5490822F8695869586959E
:102BF00090E0FC01EC59FE4F64902770712C022E7E
:102C000002C0759467940A94E2F7A1E06A227724DF
:102C1000FC01EC5AFE4F8490912C022E02C0959438
:102C200087940A94E2F7B1E08B229924FC01EC5BD3
:102C3000FE4FC490D12C02C0D594C7942A95E2F7D8
:102C4000E1E0CE22DD246114710419F081EE0E94CE
:102C500007128114910419F086EE0E940712852D47
:102C60000E9473128114910419F086EE0E94D21111
:102C70006114710419F081EE0E94D211C114D104C3
:102C800009F47BCF8CE227CF9091D501911116C02A
:102C9000D70115968C91B0E4CB16BEE7DB0609F49C
:102CA000AEC0E1E4CE16EEE7DE0609F0F0C38823FD
:102CB00009F4B1C081E00E946A0843CF8111E8CFD6
:102CC000FEE1CF16D10408F4E2C328E2C216D10413
:102CD000F8F693EE9C0D37E2C316D10409F490E0A8
:102CE000E091D40181E08E0F8093D401F0E0E853AD
:102CF000FE4F90838C3061F61092D5019091D201F5
:102D00002AE08091D301929F800D11249091D001EF
:102D1000F091D101929FF00D11249091CE01E0919C
:102D2000CF01929FE00D11249091CC015091CD01E3
:102D3000929F500D11249091CA014091CB01929F16
:102D4000400D11249091C8013091C901929F300D1E
:102D50001124622F0E94F426A0E18A9FB001112461
:102D6000962B9F7799838F2F622F0E94F426B0E1D4
:102D70008B9FB0011124962B9F779A838E2F622F01
:102D80000E94F426E0E18E9FB0011124962B9F73E0
:102D90009B831C82852F622F0E94F426F0E18F9F77
:102DA000B0011124962B9F739D83842F622F0E9464
:102DB000F42660E1869FA0011124942B9F739E83CB
:102DC000832F622F0E94F426A0E18A9F9001112494
:102DD000922B9F779F8304E610E027E030E0AE015E
:102DE0004F5F5F4F60E080ED0E9435260CE010E001
:102DF0008AE20E94731201501109D1F749CF88234A
:102E000009F49FCE61E083E090E00E94002881E019
:102E10000E94760896CE81E00E94460892CE80916C
:102E2000320680FF19C0282F2E7F20933206309162
:102E30003306409134065091350660913606709104
:102E4000370680913806909139060E94140D109231
:102E50002D020E94400A75CE81608093320661E0A7
:102E600086950E947F146DCE49EC54E163ED74E1C8
:102E70000E94CB0466CE43ED54E169EC74E1F8CFD7
:102E80004CEE5DE066EF7DE0F3CF46EF5DE06CEE8B
:102E90007DE0EECF42ED5DE06FED7DE0E9CF4FEDFF
:102EA0005DE062ED7DE0E4CF48EB5DE065EC7DE068
:102EB000DFCF45EC5DE068EB7DE0DACF40E05EE03F
:102EC0006AE17EE0D5CF4AE15EE060E07EE0D0CF0F
:102ED00061E081E0C6CF65E082E00E94DE1431CE81
:102EE00068E086E0FACF6EE089E0F7CF64E18FE03A
:102EF000F4CF67E185E1F1CF61E088E1B2CF62E232
:102F000089E1EBCF61E083E2ACCF6AE285E2E5CF15
:102F1000F7E7CF16FCE7DF0609F460C028E7C21622
:102F20002CE7D20609F45EC0F7018581008111818A
:102F3000882309F49FC0C8010E94A309D82E682FD6
:102F4000C8010E94ED07B8018D2D0E9495090E94CD
:102F50008A068C01882ED7011596AC901597169687
:102F60009C9092943FE093228091E7018770F1F06A
:102F7000CA2CAA20E1F0812F807F803451F080E2BA
:102F8000800F883098F0911004C0812F807E8032AD
:102F900069F080910E0282FF09C082E00E9453080E
:102FA0008091E7018770CC24C3948111C12CB12E8C
:102FB000B2942FE0B222BBE0BB1508F4C0C0EB2DE9
:102FC000F0E0ED55F74D0C94142781E00E946A085B
:102FD00043E062E081E00E942608B3CD81E00E94D8
:102FE0004608F6CF82E0FBCF33E0C3163CE7D306BA
:102FF00071F160F4C1145CE7D506D1F061E0C6164A
:103000006CE7D60609F090CF0E94A9118BE5C8168F
:103010008CE7D80669F19CE5C9169CE7D906F1F062
:10302000AAE5CA16ACE7DA0609F07ECF81E01DC03A
:10303000109245060E94D50EBFEFE4E3FCE0B150CC
:10304000E040F040E1F700C000000E9457046FEF3D
:103050007FEF90E080E00E941E28D6CF80910E0284
:1030600082FB882780F991E089270E94750E5CCF4A
:1030700080E0FBCFC8010E94B907D82E64CFE12FB2
:10308000EF70DE2E107F19F0D29490EFD922AA2093
:10309000B9F0DD2069F080E2800F883010F08110F7
:1030A00009C080914506D82AD09245060E94980E04
:1030B000802F43C08091F101D82AD092F101F6CF40
:1030C000802F0E94D211DD20D1F1005E083010F077
:1030D000811004C08D2D0E94A80706C0D094809155
:1030E000F101D822D092F1010E94980E28C0F12F50
:1030F000FF70DF2E107F103219F0D29480EFD822AB
:10310000882059F021E0821609F479C0AA2009F438
:1031100085C0992009F447C0CBCF80910E0282FD73
:103120003EC0AA20B1F1DD2039F080914506D82AB1
:10313000D09245060E94980E80E00E940712EB2D67
:10314000E850FF0B349710F40E94BE04CC20B1F07D
:103150008091E70180FD12C0D70115961C928695DB
:10316000869586950E946A08C7010E94EE14809198
:10317000E7018695869586950E94460820E0F7012E
:103180004081518162817381848195810E94020A0C
:10319000E8CC80E00E94D211DD2089F29BCFAA20EA
:1031A000A1F0911004C08D2D0E94C811C8CF31E04C
:1031B0009312C5CF8091F0019D2D9823D91609F463
:1031C000BECFD82AD092F001BACF9110B8CF8D2DB2
:1031D0000E94C1119091F0018D2D892329F08D2D30
:1031E000809589238093F0018091D6019D2D9823AD
:1031F00009F4A5CFD094D822D092D601A0CFAA208E
:1032000029F045E0491508F49ACFCDCF54E059157F
:1032100008F495CF8D2D0E94C11191CF9920D1F343
:1032200069E3861209C08FEF97EEA3E081509040CA
:10323000A040E1F700C00000802F0E94D2117FCF94
:10324000812F86958695837061F0813009F077CF64
:10325000C8019370A11002C080E090E00E94740445
:103260006ECFC8019370A11002C080E090E00E9470
:10327000990465CF812F837089F5A11060CF402F0D
:10328000429546954770440F440F802F8F70042E4F
:1032900001C0880F0A94EAF7202F207104FF07C0AD
:1032A0002FE030E001C0220F4A95EAF720951695ED
:1032B00016951370123069F050F43091F20111300C
:1032C00029F0822B83230E94760839CF832B822B0F
:1032D000FACF282B8091F2018227F5CF8695AA207C
:1032E00011F0812F8170882309F429CF402F429556
:1032F00046954770440F440F802F8F70042E01C0F5
:10330000880F0A94EAF7202F207104FF07C02FE0EE
:1033100030E001C0220F4A95EAF7209516951695E0
:103320001370123069F050F430910C02113029F012
:10333000822B83230E94230802CF832B822BFACF78
:10334000282B80910C028227F5CF1F70AA2029F02C
:10335000812F0E946A08802F27CF802F0E94C111E1
:10336000812F0E944608EBCE802FB2EF8B16B1F171
:10337000B81570F0E0EF8E16D1F0F1EF8F1691F0E6
:10338000AA2009F45CC0911093CE812F8F712AC0BE
:1033900023EF821651F134EF8312F2CF80910E02A7
:1033A00082FD2FC0812F8F71AA20D9F21BC0AA20C5
:1033B00081F044E0491508F4C2CE1F7181E090E02D
:1033C000012E01C0880F0A94EAF790910C02892718
:1033D000B1CF55E0591508F4B2CEEFCF812F8F71E0
:1033E000A110BFCF0E946A08AACE80E0AA2009F4EB
:1033F000A1CF1F7181E0012E01C0880F0A94EAF766
:1034000099CFAA2089F01F71812F0E946A088091AC
:103410000E0282FF07C068E0169FC001112483607E
:103420008093E701812FDECF81E00E94530881E085
:10343000891508F084CE82E00E94530880CE99203E
:1034400059F0893309F0F8CE9FEFA7EEB3E0915021
:10345000A040B040E1F7EECE812F8F7182CFF7E729
:10346000CF16FCE7DF0609F4B0CD28E7C2162CE73B
:10347000D20609F0B9CD82E0A9CD33E7C316D10455
:1034800009F002CC81E08093D5011092D401F701BC
:1034900085818111E4CF809145068272F601E05268
:1034A000F847E531F10508F033CDE155F74D0C94BF
:1034B0001427CF93DF938091E601807F09F04DC000
:1034C0008091E501882309F448C0E0919506509168
:1034D0005C06C091E101D091E0016091E201709140
:1034E000E30147E05E17C9F18E2F90E0E49FF00101
:1034F0001124E35AF94F2481222391F1489FF001CE
:10350000499FF00D1124DF01A35AB94F11962C9158
:1035100011972C1325C02C912D1322C015962C9198
:10352000159721111DC012962D913C91261B370B2A
:10353000283C3105A8F48091E6018F70806180936A
:10354000E601ED59F94F80818F708061808380EEB4
:1035500091E00E94EE140E94AF07DF91CF91089591
:10356000FC013196E770BECFA4E1B0E0EAEBFAE1EE
:103570000C94C3268C0186E0F801DE011F960190B1
:103580000D928A95E1F7F8018481E58090EEA92EED
:1035900091E0B92E9091E401911128C0882319F18E
:1035A000EE20F1F0C8010E94DF09F82E8823C1F057
:1035B00087E0F801D50101900D928A95E1F780919D
:1035C000E401813031F48091E0019091E1010E94A9
:1035D000D2090E94591A8F2D6496ECE00C94DF26D4
:1035E000C8010E94EE14FF24F394F5CFD080C1806F
:1035F00082809380F090E5012091E2013091E30117
:10360000A401421B530BFF2009F4D9C0483C5105CB
:1036100008F092C08823F9F29091E1018091E601CF
:10362000282F207F09F056C0C91214C09091E001E4
:10363000D91210C0E11048C08F7080618093E601FC
:1036400080EE91E00E94EE148091E601F8018683FD
:10365000F12CC1CFE11038C06C2D8D2D0E94D90204
:103660006C2D8D2D0E94D902E82E8111F1CFDF86BD
:10367000C88A8F8598890E94D209292F22952F7098
:10368000243058F49F70223088F0992399F0F80183
:103690009681907F79F4FE2C9ECF2A5F2F70223086
:1036A00068F0C8010E94EE14EF2CF5CF992311F0B9
:1036B000882389F3805E883070F3F3CF803F58F31E
:1036C000815F833070F7E7CF8091E601816080935E
:1036D000E601BECFC91207C09091E001D91203C024
:1036E000EE2009F48DC0C8010E94DF09882309F487
:1036F00077CFEE2009F474CF8091E601803288F014
:103700002091E0013091E101398728879B868A86E4
:103710009091E4019C871D868E87CE0108960E94B9
:10372000EE1487E0F801A0EEB1E001900D928A95C9
:10373000E1F70E94591A57CF9091E601292F207F77
:1037400051F480EE91E00E94EE1487E0F5011192B1
:103750008A95E9F77DCF882309F43DCF8091E10177
:103760008C1110C08091E001D8120CC0E1100AC089
:103770009683C8010E94EE1487E0F50111928A95A4
:10378000E9F729CFC8010E94DF09882309F428CF6F
:10379000EE2009F425CF8091E601803210F22091CD
:1037A000E0013091E1013A8329839C828B829091E0
:1037B000E4019D831E828F83CE010196B0CF483CE9
:1037C0005105D0F6882309F40ECFFE2CEE2009F423
:1037D00007CF8091E1018C1120C08091E001D812C7
:1037E0001CC08091E60180FD0FC0982F907F61F092
:1037F0008683903F31F0982F907F905F8F70892B58
:103800008683C8010E94EE1487E0F801A0EEB1E0C3
:1038100001900D928A95E1F7DECEC8010E94DF0982
:1038200081117FCF8091E60181608093E601C8011C
:103830000E94EE14D0CEABE1B0E0E1E2FCE10C94EA
:10384000CB264E8B5F8B688F798F8A8F9B8F192F3A
:1038500091111092F1011D8A86E0FE017696DE013B
:103860001F9601900D928A95E1F70A8D002341F091
:1038700021E04F85588969897A89C8010E94020A26
:103880000B8B1C8B87E0FE013F96DE0118960190A2
:103890000D928A95E1F7CE0108960E94B41A811123
:1038A0000CC087E0FE013896DE01119601900D9262
:1038B0008A95E1F78C8581110BC017E08091950600
:1038C00090915C06891333C06B96E4E00C94E72674
:1038D00020915C0630E0C9010196877099274091DC
:1038E00095064817190699F097E0929FD001939F8B
:1038F000B00D1124A35AB94FFE01319601900D92DB
:103900009A95E1F780935C060E94AF07D6CF10929C
:1039100045060E94D50E10925C061092950687E02F
:10392000E0EEF1E0DF011D928A95E9F7C6CF819FB5
:10393000C0011124835A994F0E94B41A882321F29E
:103940008091950690E0019687709927809395065F
:10395000B5CFADE0B0E0EFEAFCE10C94BF268E01FC
:10396000085F1F4F86E0F80111928A95E9F7A6E6F5
:10397000AA2EA1E0BA2EF12CE12CCC24C394D12C98
:10398000F50181915F018F3F09F443C0F894E82F5E
:10399000E295EF70F0E021A18F70260102C0440C87
:1039A000551C8A95E2F7C201922F982B91A392A100
:1039B0008095892382A3789400C0ECE6F1E0912CF5
:1039C00031E021912F3F09F467C0A22FA295AF707B
:1039D000B0E090968C9190E02F7002C095958795FD
:1039E0002A95E2F780FD58C0832F982A330F21E0F3
:1039F000E037F20731F7F501319780818F3F11F001
:103A00000E94820530EA3A95F1F7F801EE0DFF1DAC
:103A100090824FEFE41AF40A56E0E516F10409F03B
:103A2000AFCF46E050E0B80186E092E00E94CF2799
:103A3000892BA1F186E0F801A6E0B2E001900D9299
:103A40008A95E1F781E08093F7010E9473149093C7
:103A5000F6018093F5018091F5019091F6010E94A5
:103A600064140597F8F046E050E066E072E080E20A
:103A700092E00E94CF27C12C892B59F086E0E6E026
:103A8000F2E0A0E2B2E001900D928A95E1F7CC2439
:103A9000C3941092F70107C080E0A7CF8091F7018F
:103AA0008111D9CFC12C0E9468044B015C010E9496
:103AB00068040091020210910302209104023091E7
:103AC00005022B013C01401A510A620A730A930154
:103AD0008201093843E114072105310578F060932C
:103AE0000202709303028093040290930502809176
:103AF0000401811103C081E0809304018091FE01E3
:103B00009091FF01A0910002B091010224013501C2
:103B1000481A590A6A0A7B0AD301C2018F359140BB
:103B2000A105B10508F446C18092FE019092FF0103
:103B3000A0920002B092010208EC10E027E030E011
:103B4000AE014F5F5F4F60E080ED0E945C260E94F7
:103B5000A5268981282F30E094E0359527959A9500
:103B6000E1F727706AE08F70F82E269FF00C112481
:103B7000F092F8018A81282F30E044E035952795AE
:103B80004A95E1F727708F70E82E269FE00C1124EC
:103B9000E092F9018B81282F30E054E0359527958C
:103BA0005A95E1F723708F70D82E269FD00C1124E0
:103BB000D092FA018D81282F30E074E03595279559
:103BC0007A95E1F727708F70182F269F100D11241A
:103BD0001093FB018E81282F30E0E4E03595279586
:103BE000EA95E1F723708F70082F269F000D1124AE
:103BF0000093FC018F81282F30E0F4E03595279564
:103C0000FA95E1F723708F70269F800D1124809321
:103C1000FD0180910401882309F4D1C08D2D0E94FB
:103C2000F426182F39E060E03D1530F461E0813072
:103C300019F0823021F462E080E00E94490E8D2D5F
:103C400046EF149F800D112460E08823D9F061E0D5
:103C50008130C9F062E08230A9F063E0833091F0F6
:103C600064E0843079F065E0853061F066E08630AC
:103C700049F067E0873031F068E0883019F089302A
:103C800021F469E081E00E94490E8E2D6AE00E94D5
:103C9000F426182F82E00E94490E59E060E05E157C
:103CA00090F461E0113079F062E0123061F063E08D
:103CB000133049F064E0143031F065E0153019F04C
:103CC000163021F466E083E00E94490E8E2D96EFB7
:103CD000199F800D112460E08823D9F061E08130C4
:103CE000C1F062E08230A9F063E0833091F064E0DB
:103CF000843079F065E0853061F066E0863049F027
:103D000067E0873031F068E0883021F0893021F4B5
:103D100069E088E00E94490E8F2D6AE00E94F42637
:103D2000182F89E00E94490EE9E060E0EF1590F459
:103D300061E0113079F062E0123061F063E013303D
:103D400049F064E0143031F065E0153019F01630B8
:103D500021F466E08AE00E94490E8F2DF6EF1F9F46
:103D6000800D112460E0882309F4A2C061E0813055
:103D700009F49EC062E0823009F49AC063E08330A7
:103D800009F496C064E0843009F492C065E085309F
:103D900009F48EC066E0863009F48AC067E0873097
:103DA00009F486C068E0883009F482C069E089308F
:103DB00009F47EC08C2D2D96E0E10C94DB26802F3B
:103DC0000E94F426F82E6FE080E00E94490E60E029
:103DD0000A3028F044244394F41004C061E081E0E8
:103DE0000E94490E26EFF29E000D112460E0002390
:103DF000D9F061E00130C1F062E00230A9F063E087
:103E0000033091F064E0043079F065E0053061F052
:103E100066E0063049F067E0073031F068E00830CE
:103E200019F0093021F469E082E00E94490E812FE7
:103E30006AE00E94F426082F83E00E94490E6AE09F
:103E400088E00E94490E60E01A3048F061E00130DD
:103E500031F062E0023019F0033021F463E089E0D0
:103E60000E94490E36EF039F100D112460E01123CC
:103E7000D9F061E01130C1F062E01230A9F063E0E6
:103E8000133091F064E0143079F065E0153061F0A2
:103E900066E0163049F067E0173031F068E018301E
:103EA00019F0193021F469E08AE00E94490E6FE0B0
:103EB0008BE00E94490E7ECFA6E0B0E0E2E6FFE193
:103EC0000C94CB260E9473148C018091F301909185
:103ED000F4018017910781F019821A820E947314ED
:103EE000682F49815A81792F80E090E00E941B1C45
:103EF0001093F4010093F3012696E4E00C94E72676
:103F00001F921FB61F9211248F939F93AF93BF935D
:103F10008091400690914106A0914206B0914306DF
:103F20004196A11DB11D8093400690934106A09338
:103F30004206B0934306BF91AF919F918F911F901E
:103F40001FBE1F901895CDB7DEB7A6970FB6F89491
:103F5000DEBF0FBECDBF85B7806885BF85B78068DF
:103F600085BF84B7877F84BF0FB6F894A8958091EA
:103F70006000886180936000109260000FBE80E84E
:103F800090E00FB6F89480936100909361000FBEAB
:103F900080E895E09093BF018093BE010E94F802F3
:103FA0000E9499038091E20084608093E2007894FB
:103FB000809152068823A1F01091E9001F70909122
:103FC000EC00892F817090FD80E8182B1092E90099
:103FD0008091E80083FD0E94E90E1F701093E900B4
:103FE00082E084BD93E095BD9AEF97BD80936E000B
:103FF0000E94270A811102C00E94560982E0809324
:104000001C0242E851E090E8892E91E0992E24E8C4
:10401000E22E21E0F22E84019A0161E070E0D901E4
:104020008D919D01E82FE295EF70F0E0B1A08F70C7
:104030006B0101C0CC0C8A95EAF79C2D90959B21D1
:1040400091A382A18C2982A3F80181918F01E82F8D
:10405000E295EF70F0E0B1A08F706B0101C0CC0C65
:104060008A95EAF79C2D90959B2191A382A18C299A
:1040700082A3EA16FB0699F68FE891E00197F1F723
:1040800000C0000010911C026DE172E0FB018E2F58
:10409000861B811708F454C006E611E08CE6E82E72
:1040A00081E0F82EF80181918F018F3F11F00E947D
:1040B0008205E016F106B1F787E90E94820584E3E4
:1040C0000E94820587E60E94820586E60E9482059C
:1040D00086E0E0E2F2E0DF01282F1D922A95E9F761
:1040E000E6E0F2E0DF011D928A95E9F70E948C0E6E
:1040F000811102C00E94AC1282E090E00E94DC2795
:104100008093100284E090E00E94EA2790930E02D0
:1041100080930D020E94A91CEFE3FCE93197F1F7AF
:1041200000C000000E94A91C8091200280FF31C0C5
:104130006FEF7FEF90E080E00E941E280E945704FE
:10414000DA012D91AD01822F82958F7090E0DC0114
:1041500090968C9190E02F7002C0959587952A9546
:10416000E2F78170D4019D914D01292F22952F7086
:1041700030E0D90190962C9130E09F7002C03595C7
:1041800027959A95E2F790E020FD92E0892B8193A4
:104190007ECF83E090E00E94DC270E947608809129
:1041A0000F02811173C00E948C0E811104C00E9405
:1041B000AC120E94340E88E090E00E94E4274B018C
:1041C0005C0184E290E00E94DC27282F30E040E090
:1041D00050E060E070E080E090E000E20E94302774
:1041E000282939294A295B2920933206309333063E
:1041F0004093340650933506609336067093370625
:1042000080933806909339062E7F89F50E94340EEC
:1042100088E090E00E94E4276B017C0184E290E05A
:104220000E94DC27282F30E040E050E060E070E0A2
:1042300080E090E00E943027B22FA32FF42FE52FCB
:104240005B0197018601BC29A12BFE29E32BB093CA
:104250003206A0933306F0933406E093350660935C
:104260003606B092370680933806909339060E943E
:10427000D10410922D028091320680FF04C060E0CC
:1042800086950E947F1481E080930F020E942E2564
:1042900081E2898324E630E041E050E0BE016F5FB7
:1042A0007F4F80EE0E9414261982F12C04E610E064
:1042B00021E030E0AE014F5F5F4F6F2D80EE0E9436
:1042C0003526F394F0E1FF12F1CF81E8898324E6EB
:1042D00030E041E050E0BE016F5F7F4F80EE0E9412
:1042E000142680EA898324E630E041E050E0BE01F4
:1042F0006F5F7F4F80EE0E94142610E0812F806E4A
:10430000898324E630E041E050E0BE016F5F7F4FDB
:1043100080EE0E9414266AE081E00E94490E6BE064
:1043200082E00E94490E6CE083E00E94490E6DE03D
:1043300088E00E94490E6DE089E00E94490E60E02D
:104340008AE00E94490E6AE08BE00E94490E2FEF3E
:1043500088EF95E1215080409040E1F700C00000D7
:104360001F5F173059F6AFEFBDE3E9E4A150B0404D
:10437000E040E1F700C0000085E091E090933D0649
:1043800080933C0617E1E12E12E0F12EBB24B3949A
:1043900002E0C02ED12C0E94A91CA1E18A2EA2E02D
:1043A0009A2EB0E26B2EB2E07B2ED301F4019191F4
:1043B0008D91EE16FF06A9F19817C9F310E0D3010D
:1043C0000D913D01F40181914F01801721F1482E9B
:1043D0004026A12C55245394842D8521A1F0A9A217
:1043E0001AA30E9473149CA38BA3BDA291E0802FFB
:1043F000852109F490E09EA349A15AA16BA17CA15B
:104400008DA10E941B1CA394550CF4E0AF12E4CFC5
:10441000F401319700831F5F163089F60E9468040B
:1044200004C09813CBCF0E945C1F80912D0288237B
:10443000D1F180912C02E0913206E695E81BE093E1
:104440002802823009F07DC0F0E0EB5FFD4FE4917F
:104450000E2F10E0F0E08F2EFDE09F2E80912902BC
:10446000882361F0109229020E947314909327020E
:104470008093260210922B0210922A020E9473143B
:10448000E0912602F09127028E1B9F0B8F3F9F47E2
:1044900050F4E00FF11FF0932702E093260286E22A
:1044A00092E0F401099580911702882361F010923F
:1044B000170280912D02811106C08091320660E0C2
:1044C00086950E947F14A12C712C80911C02A81645
:1044D00008F4A3C071100E9468040E94BE04909169
:1044E0001F02891721F080931F020E9468048091A7
:1044F0005206843009F04FCF83E08093E900809129
:10450000E80082FF48CF8091E80090E085FF06C078
:104510000E941703882309F4ECC091E08091E80021
:104520008B778093E800992309F435CF8981EFEFE9
:10453000E80FE33108F004C1F0E0EC53F74D0C94C0
:104540001427863059F4F0E0EE5FFD4FE4910E2F12
:1045500010E0E0EF8E2EECE09E2E80CF893061F4EB
:10456000E695F0E0E150FE4FE4910E2F10E074E686
:10457000872E7CE0972E72CF8F3061F4E695F0E0C5
:10458000E450FE4FE4910E2F10E06BE0862E6CE0BD
:10459000962E64CF853159F4F0E0E750FE4FE49158
:1045A0000E2F10E05DEB852E5BE0952E57CF08E2D5
:1045B00010E022E4822E2BE0922E883109F44ECFB7
:1045C000833249F4E7EFF1E0059114914FE9842E2D
:1045D0004CE0942E43CF04EF11E09BE0892E9BE04A
:1045E000992E843209F43ACF853281F48E2F63E01C
:1045F0000E94F426E92FF0E0EC50FE4FE4910E2FDC
:1046000010E035E7832E3AE0932E28CF00ED17E037
:1046100082E5882E84E0982E21CF8A2C912CF401FB
:10462000EE57FE4F8081E82FE295EF70F0E0E0A1B9
:10463000F0E08F7002C0F595E7958A95E2F7E1709A
:10464000D401A058BE4F2C91A22FA295AF70B0E01C
:1046500090968C9190E02F7002C0959587952A9541
:10466000E2F780FD44C080E08E2BD401A35EBD4FF5
:10467000EC919E2F93708917C1F1EE0FEE0FE82B8E
:10468000EC93EF70F0E0E059FE4F8401065E1D4FA1
:104690008081D8019C91890F8C9320E082305CF05E
:1046A000F401E85EFD4F80818F5F808360E08A2D9A
:1046B0000E94911221E0F80180818F3F5CF4F401A7
:1046C000E85EFD4F80818150808361E08A2D0E94E9
:1046D000911221E0D8018C91082E000C990BB601A3
:1046E0000E940027F8018083722AA394EECE82E014
:1046F000BBCF00E210E0CE0101964C018091E800B2
:1047000085FD0AC08091E8008B778093E8000E94C5
:104710001703882399F301CF8091F100D4018D9381
:104720004D010150110951F7F8CE1A828CE08B83AC
:104730001BC08A81823009F488C128F4813061F07D
:104740008FEF898311C08330C1F08430C9F71B8299
:104750001C821D821E8208C00E9468040E941A27C3
:104760006B837C838D839E8340E250E0BE016F5F4C
:104770007F4F82E00E9479080ECE2B81822F90E03D
:10478000FE013496245E8630910570F7DC01A05E50
:10479000BD4F3C91319301962813F5CFE5CF8A8127
:1047A000823081F0853061F68091320680FF15C03D
:1047B000809132068E7F8093320610922D020E94E5
:1047C000400AD2CF6B817C818D819E810E941A2705
:1047D00088E290E00E940028C7CF81608093320673
:1047E00060E086950E947F14BFCF4C816B818A81E7
:1047F0000E9466099827892798279E838D83B4CFC6
:104800002D813E813227232732274C816B818A817B
:104810000E94DF08A9CF0E940509A6CF9A81923095
:1048200009F08ECF8830D9F1893009F463C08B81CB
:10483000823009F1A8F4813009F096CF8C81BEE670
:104840008B9FC00111246FEF70E00E94A926462FB4
:1048500020E060913406809133060E943A0D84CFA7
:104860008330C9F0843009F07FCF20E040913506D5
:104870006D818C81F2CF8C81882309F499CF80914E
:10488000320681608093320660E086950E947F1434
:1048900060E08C81A7CF8C818093360665CF8B81B9
:1048A0008230E1F078F4813009F05ECF80913506F6
:1048B000EFEF8E9FC00111246EE670E00E94A926E2
:1048C0006C8352CF833099F0843009F04DCF8091C2
:1048D00033068C83809134068D8346CF80913206D7
:1048E00080FF03C086958C833FCF80E0FCCF809112
:1048F0003606F9CF209132063091330640913406C6
:1049000050913506609136067091370680913806D1
:10491000909139060E94140D27CF80E18A8324CF1D
:1049200083E08A8387E103CF0A811B811027012757
:104930001027CE0101963C018C80DC01A80DB11D31
:104940004D01C80187519F4F8614970409F40CCF7D
:104950000731B3E01B0750F40E94DC27F301848386
:104960000F5F1F4FBFEF6B1A7B0AEBCFD30114967B
:104970001C92F6CF0A811B81102701271027FE0108
:1049800031963F018C80800E912E911CC801875179
:104990009F4F8016910609F4E7CE0731F3E01F0719
:1049A00028F4D30114966C910E940028BFEF6B1A73
:1049B0007B0A0F5F1F4FEACF0E94CF08D5CE84E05D
:1049C000ADCF0A811B81102701271027FE013196E8
:1049D0003F018C80CF01880D911D4C01C801899643
:1049E0008614970409F4C0CE003C110558F40E94C7
:1049F000DC27D30114968C930F5F1F4FFFEF6F1AC4
:104A00007F0AECCFF3011482F7CF0A811B811027B4
:104A100001271027CE0101963C018C80800E912E3B
:104A2000911CC80189968016910609F49DCE003C20
:104A3000110528F4D30114966C910E940028BFEF51
:104A40006B1A7B0A0F5F1F4FECCF88E290E00E9449
:104A5000DC271B821C821D828E8386CE1092B900B9
:104A60008CE08093B8000895B0E0A0E0EAE3F5E2BE
:104A70000C94C426B82EEB010E9473146C01EE2432
:104A8000E394F12CC431D10560F025E0E22EF12C45
:104A9000CF3FDC0731F0CE0164E170E00E94A9262F
:104AA0007B0184EAA82E94E8992E1092BC00A09273
:104AB000BC000E9473148C018091BC0087FF0DC064
:104AC0008091B900887F8830F9F08091B900887FA3
:104AD0008031D1F00FEF1FEF08C0C8010E946414AD
:104AE000E816F90648F70EEF1FEFCF3FDC07E9F2B3
:104AF000C6010E946414C817D907B8F6C801CDB71B
:104B0000DEB7EBE00C94E026B092BB009092BC00C4
:104B10000E9473148C018091BC0087FF0AC08091B1
:104B2000B900887F883111F08034A1F610E000E0F0
:104B3000E5CFC8010E946414E816F90660F7D3CFE8
:104B40000F931F93CF93DF93EB018093BB0084E817
:104B50008093BC000E9473148C018091BC0087FF7D
:104B600011C02091B900287F81E090E0283211F433
:104B700090E080E0919581959109DF91CF911F910F
:104B80000F910895CF3FDC0741F3C8010E946414E0
:104B9000C817D90710F78EEF9FEFEFCF0F931F9332
:104BA000CF93DF93EC0184EC8093BC000E947314DC
:104BB0008C018091BC0087FF08C08091BB0090E011
:104BC000DF91CF911F910F910895CF3FDC0789F3BB
:104BD000C8010E946414C817D90758F78EEF9FEFD9
:104BE000EFCF0F931F93CF93DF93EC0184E8809373
:104BF000BC000E9473148C018091BC0087FF08C028
:104C00008091BB0090E0DF91CF911F910F910895AB
:104C1000CF3FDC0789F3C8010E946414C817D90785
:104C200058F78EEF9FEFEFCFB0E0A0E0EAE1F6E2B9
:104C30000C94C7266B018A017901B9010E943425C1
:104C4000E6010C0D1D1DC017D10711F097FF08C01C
:104C500024E92093BC00CDB7DEB7E8E00C94E3264E
:104C6000B70189910E94A025EECFB0E0A0E0EBE370
:104C7000F6E20C94C726C62F6A017901B8010E949A
:104C8000342597FD0CC0B8018C2F0E94A025E601A9
:104C9000EC0CFD1CCE15DF0511F097FF08C024E9D0
:104CA0002093BC00CDB7DEB7E8E00C94E326B80152
:104CB00089910E94A025EECFB0E0A0E0E2E6F6E206
:104CC0000C94C726F82EE62EEA016901B8010E946D
:104CD000342597FD15C0B8018E2D0E94A02597FDA3
:104CE0000FC0B8018F2D81600E943425F12CE12C7A
:104CF00021E0C21AD108EC14FD04E0F497FF0DC0C6
:104D000024E92093BC001816190614F490E080E002
:104D1000CDB7DEB7E8E00C94E326C8010E94CE25AB
:104D200097FD04C0FE01EE0DFF1D80832FEFE21AF8
:104D3000F20AE1CF97FDE4CFC8010E94F12597FD6B
:104D4000DFCFCC0DDD1D8883DBCF84E98093BC00F1
:104D50000895AA1BBB1B51E107C0AA1FBB1FA617C2
:104D6000B70710F0A61BB70B881F991F5A95A9F714
:104D700080959095BC01CD0108952F923F924F925E
:104D80005F926F927F928F929F92AF92BF92CF92DB
:104D9000DF92EF92FF920F931F93CF93DF93CDB7E4
:104DA000DEB7CA1BDB0B0FB6F894DEBF0FBECDBF5C
:104DB00009942A88398848885F846E847D848C842D
:104DC0009B84AA84B984C884DF80EE80FD800C8136
:104DD0001B81AA81B981CE0FD11D0FB6F894DEBF19
:104DE0000FBECDBFED010895991B79E004C0991F56
:104DF000961708F0961B881F7A95C9F78095089535
:104E000097FB072E16F4009407D077FD09D00E9477
:104E1000A92607FC05D03EF4909581959F4F0895F3
:104E2000709561957F4F0895EE0FFF1F0590F491E7
:104E3000E02D0994692796276927782787277827FF
:104E400008950E948828332312F48A1B9B0B0C942C
:104E50002B270E948828B7FF0895821B930B089583
:104E6000002E083090F0982F872F762F652F542F23
:104E7000432F322F22270850F4CF220F331F441F15
:104E8000551F661F771F881F991F0A95B2F7002DBF
:104E9000089597FD1094002E083098F00850232FA5
:104EA000342F452F562F672F782F892F912DF4CF30
:104EB0001594979587957795679557954795379565
:104EC00027950A95AAF71124002D08958F929F9295
:104ED000AF92BF92CF92DF92EF92FF92CF93DF9388
:104EE000EC01688179818A819B8161157105810559
:104EF000910521F464E279ED8BE597E02DE133EF44
:104F000041E050E00E94342849015A019B01AC0164
:104F1000A7EAB1E40E9453286B017C01ACEEB4EF28
:104F2000A50194010E946128DC01CB018C0D9D1D1F
:104F3000AE1DBF1DB7FF03C00197A109B04888830C
:104F40009983AA83BB839F77DF91CF91FF90EF90E6
:104F5000DF90CF90BF90AF909F908F9008950E9468
:104F60006627089580E091E00E9466270895B0E0EA
:104F7000A0E08093000190930101A0930201B093FF
:104F800003010895FC014150504030F00190061695
:104F9000D1F73197CF010895882799270895FB010C
:104FA000DC0104C08D910190801921F441505040E2
:104FB000C8F7881B990B0895F999FECF92BD81BD62
:104FC000F89A992780B50895A6E1B0E044E050E052
:104FD0000C942628A8E1B0E042E050E00C9426288A
:104FE000DC01A40FB51F4150504048F0CB01840FA5
:104FF000951F2E910E94012841505040D0F70895EE
:10500000262FF999FECF92BD81BDF89A019700B481
:10501000021639F01FBA20BD0FB6F894FA9AF99A21
:105020000FBE08950396272F0E9401280E94002892
:10503000252F0E940128242F0C9401280196272F48
:105040000E9401280C940028DC01CB01FC01F99995
:10505000FECF06C0F2BDE1BDF89A319600B40D92C4
:1050600041505040B8F70895052E97FB1EF4009468
:105070000E944B2857FD07D00E94662807FC03D0EA
:105080004EF40C944B2850954095309521953F4F08
:105090004F4F5F4F089590958095709561957F4F24
:1050A0008F4F9F4F08950E948828A59F900DB49F11
:1050B000900DA49F800D911D11240895B7FF0C94AD
:1050C00053280E945328821B930B0895A1E21A2EA5
:1050D000AA1BBB1BFD010DC0AA1FBB1FEE1FFF1F9C
:1050E000A217B307E407F50720F0A21BB30BE40BEC
:1050F000F50B661F771F881F991F1A9469F7609533
:105100007095809590959B01AC01BD01CF010895EC
:10511000A29FB001B39FC001A39F700D811D1124F8
:10512000911DB29F700D811D1124911D0895F89459
:10513000FFCFCC0FF40F9711F40F971127104810E1
:105140009711461153113F183F18771877182019F7
:105150009F189F189F183A19A519B419B4190F1759
:1051600034173B17401745174A174F17541759174D
:105170005E17631768176B17701773177617791711
:105180007C177F178217851795239923CF23F52343
:1051900000240B240E240E240E24A023A0238D24EF
:0E51A00090249424BA24DC24DF24E124052585
:1051AE0001000000015404BB085304B40801191A8D
:1051BE001B1C1D1E1F202122010201013F065B4FF9
:1051CE00666D7D077F6F40767938738000818283AC
:1051DE00E200E900EA00B500B600B700CD00830199
:1051EE00CC008A019201940121022302240225029D
:1051FE00260227022A02B300B4006F0070009F013E
:10520E00CB019F02A002969495C636FF973467662F
:10521E0000FF0100010000FFFF0000010001FF0080
:10522E00F6F7F4F500010202020206060609090964
:10523E000909090F0F0F0F0F0F1515151819191949
:10524E001919191919191923242525252525254438
:0E525E0022320001DE00AC00E004F904190564
:00000001FF
