:100000000C94BA020C94D7020C94D7020C94D70229
:100010000C94D7020C94D7020C94D7020C94D702FC
:100020000C94D7020C94D7020C944F1B0C940B1B0E
:100030000C94902E0C94D7020C94D7020C94D702F7
:100040000C94D7020C94D7020C94D7020C94D702CC
:100050000C94D7020C942E1C0C94D7020C94D7024B
:100060000C94D7020C94D7020C94D7020C94D702AC
:100070000C94D7020C94D7020C94D7020C94D7029C
:100080000C94D7020C94D7020C94D7020C94D7028C
:100090000C94D7020C94D7020C94D7020C94D7027C
:1000A0000C94D7020C94D7020C94D7020501098056
:1000B000A101850319012AB700150126B700950192
:1000C00075108100C0050C0901A101850419012AE0
:1000D000A002150126A002950175108100C00660DE
:1000E000FF0961A1010962150026FF00952075082E
:1000F00081020963150026FF00952075089102C052
:1001000005010906A101050719E029E715002501E8
:10011000950875018102950175088101050719008F
:1001200029FF150026FF00950675088100050819AE
:1001300001290515002501950575019102950175A7
:10014000039101C00000000000000000000000005A
:10015000000000000000000000000000000000009F
:1001600000000000000000007E0F00D4FFFFFFC76A
:100170000000007800000000000000002A2B28008A
:100180000000000000000000000000000000002946
:10019000000000002C1E3420212224342627252E86
:1001A000362D3738271E1F202122232425263333BE
:1001B000362E37381F0405060708090A0B0C0D0EEA
:1001C0000F101112131415161718191A1B1C1D2FB6
:1001D0003130232D350405060708090A0B0C0D0ED6
:1001E0000F101112131415161718191A1B1C1D2F96
:1001F0003130354C1E0F0500047F3F1F64321464FC
:100200003214783C1E1E140A05000101010101018F
:1002100001010102020202020202020203030303BD
:10022000030303030404040404040405050505058D
:10023000060606060607070707070808080809094B
:1002400009090A0A0A0B0B0B0C0C0C0D0D0D0E0EF6
:100250000E0F0F0F10101111111212131314141589
:100260001516161717181819191A1A1B1B1C1D1DFD
:100270001E1E1F2020212222232424252626272853
:1002800029292A2B2C2D2D2E2F3031323233343583
:10029000363738393A3B3C3D3E3F40414243444586
:1002A000464748494A4C4D4E4F5051535455565865
:1002B000595A5B5D5E5F616264656668696B6C6D0F
:1002C0006F7072737577787A7B7D7E808283858785
:1002D000888A8C8E8F91939596989A9C9EA0A2A3C3
:1002E000A5A7A9ABADAFB1B3B5B7BABCBEC0C2C4C8
:1002F000C6C9CBCDCFD1D4D6D8DBDDDFE2E4E7E988
:10030000EBEEF0F3F5F8FAFDFFFFAA7F554022234C
:10031000252628292A2C2D2F3032333536383A3BE2
:100320003D3E4042434547494A4C4E505153555734
:10033000595A5C5E6062646668696B6D6F71737553
:1003400077797B7D7F81838587898A8C8E90929453
:1003500096989A9C9E9FA1A3A5A7A8AAACAEAFB160
:10036000B3B4B6B8B9BBBCBEBFC1C2C3C5C6C7C9AA
:10037000CACBCCCDCED0D1D2D2D3D4D5D6D7D7D864
:10038000D9D9DADADBDBDBDCDCDCDCDCDDDDDDDDB6
:10039000DCDCDCDCDCDBDBDBDADAD9D9D8D7D7D6BE
:1003A000D5D4D3D2D2D1D0CECDCCCBCAC9C7C6C575
:1003B000C3C2C1BFBEBCBBB9B8B6B4B3B1AFAEACBB
:1003C000AAA8A7A5A3A19F9E9C9A98969492908E66
:1003D0008C8A89878583817F7D7B79777573716F3F
:1003E0006D6B6968666462605E5C5A59575553511B
:1003F000504E4C4A4947454342403E3D3B3A3836D1
:10040000353332302F2D2C2A2928262523222178F6
:100410002E782B78A8002400250026002A412100F0
:100420002200230000001E001F00200028002700DB
:10043000370000000000BC00BB00AA00A900730048
:100440005400550056004A0052004B00570050001F
:1004500051004F0000004D0000004E00570000000A
:100460004C00000000000000000000000000000040
:10047000000000000000000000000000000000007C
:10048000000000000000000000000000000000006C
:10049000000000000000000000000000000000005C
:1004A000000000000000000000000000000000004C
:1004B000000000000000000000000000000000003C
:1004C0000000000000000000000000000000090221
:1004D0005B00030100A0FA09040000010301010010
:1004E00009211101000122440007058103080001D0
:1004F000090401000203000000092111010001228A
:1005000022000705820320000107050303200001E4
:100510000904020001030000000921110100012269
:1005200032000705840320000112010002000000D0
:1005300008EDFE268A0001010200010E036E006F25
:100540000077007000610064000000220341006138
:10055000006E0064004E0020004C00610062006FDD
:10056000007200610074006F0072007900000004E6
:100570000309040011241FBECFEFDAE0DEBFCDBFB8
:1005800026E0ACEAB1E001C01D92A438B207E1F761
:1005900011E0A0E0B1E0ECEEFEE602C005900D92A5
:1005A000AC3AB107D9F70E94B32E0C9436370C94AD
:1005B0000000482F2091830690914A0657E02913A6
:1005C00002C080E0089530E0529FF001539FF00D8B
:1005D0001124E55BF94F8181681306C080814813BF
:1005E00003C085818111EECF2F5F3F4F2770E7CF8A
:1005F000E8EDF0E080818E7F80831092E20010921F
:10060000DA001092E100A0EEB0E08C9181608C9352
:1006100080818F77808319BCA7EDB0E08C918E7FAD
:100620008C9380818F7E8083109232060895209172
:10063000E4003091E50095E6A9012091EC00822FBD
:10064000817020FF06C08091E80080FF06C080E036
:1006500008952091E80022FD1AC080914006882369
:1006600089F0853089F08091EB0085FD0FC02091E5
:10067000E4003091E50042175307F9F29150E1F69A
:1006800084E0089582E0089583E0089581E008956C
:100690008091420687FF13C08091E80082FF06C068
:1006A0008091E8008B778093E80004C08091400639
:1006B0008111F2CF0895809140068823D9F380916B
:1006C000E80080FFF8CF8091E8008E77ECCF982F7C
:1006D0009093E900242F762F50E0891731F0709124
:1006E000EC002091ED005091F00021FD07C09F5FCC
:1006F000973071F78093E90081E008953091EB0025
:100700003E7F3093EB003091ED003D7F3093ED0064
:100710003091EB0031603093EB007093EC0020934C
:10072000ED005093F0002091EE0027FDE0CF80E037
:100730000895B0E0A0E0EFE9F3E00C946635C8ED71
:10074000D0E088818F7E8883E7EDF0E08081816052
:10075000808384E082BF81E08093320688818E7F2F
:10076000888302EE10E0F80110821092DA0081EE28
:10077000C82ED12CF601108288818F7788838881DA
:100780008068888388818F7D888319BC1092400699
:100790001092410610923F0610923E0690EEE92E0E
:1007A000F12CF70180818B7F808388818160888331
:1007B00042E060E080E00E946703F60180818E7F66
:1007C0008083F8018081816080838081886080835C
:1007D000F70180818E7F8083888180618883CDB797
:1007E000DEB7E8E00C948235FC01809148069091D8
:1007F000490686179707A0F06115710529F49091B5
:10080000E8009E779093E80090E06115710551F43F
:10081000911108C08091E80082FF34C080E0089503
:10082000BC01F2CF809140068823C1F18530C1F12F
:100830008091E80083FD30C08091E80082FDEACF1E
:100840008091E80080FFE1CF8091F3002091F200D9
:10085000382F6115710519F02830310558F091E0F5
:100860002830310509F090E02091E8002E772093A0
:10087000E800CBCF81918093F100615071092F5F27
:100880003F4FE7CF80914006882341F0853041F00B
:100890008091E80083FFBECF81E0089582E0089553
:1008A00083E008950895089580913506089587E7B7
:1008B00097E7909301088093000888E19AE00FB6CB
:1008C000F894A895809360000FBE90936000FFCFCE
:1008D0002FB7F89460912E0670912F068091300604
:1008E000909131062FBF0895A3E0B0E0EAE7F4E06D
:1008F0000C946C3520912C0630912D062817390761
:10090000A1F090932D0680932C06E0912A06F09199
:100910002B06309751F024E029839B838A8306803D
:10092000F781E02DCE01019609952396E2E00C9423
:100930008835A3E0B0E0EFE9F4E00C946C35209149
:1009400028063091290628173907A1F09093290627
:1009500080932806E0912A06F0912B06309751F0FB
:1009600023E029839B838A830680F781E02DCE01D3
:10097000019609952396E2E00C948835E0912A06C9
:10098000F0912B06309729F00190F081E02D099528
:10099000089580E00895FA01811101C0FB010995D5
:1009A000089521E030E0A90102C0440F551F8A9547
:1009B000E2F7CA0120911C02662339F0822B809352
:1009C0001C0281E080931902089580958223F7CF5D
:1009D00080912006982F9E7F61F4817082608093C1
:1009E0002006809123068F3618F08EE6809323062A
:1009F00008958635B0F381708465F1CFAF92BF92D0
:100A0000DF92EF92FF920F931F93CF93DF93182FF4
:100A1000062FE9014F3608F04EE6E42FF0E0E75FDD
:100A2000FD4F011110C0E4915E2F4E2F4983E883E2
:100A30005A83DF91CF911F910F91FF90EF90DF903C
:100A4000BF90AF900895202F30E04491D42EE42E33
:100A5000F12C56E0159FC0011124EFEFF0E0BF012B
:100A60000E944835812F90E0880F991F55E5569FC9
:100A7000D001579FB00D11248A1B9B0B982F990F03
:100A8000890F5F01A21AB30AAE9CD001AF9CB00DD2
:100A9000BE9CB00D11245B2F089F80011124012FF3
:100AA00011275F01A01AB10AAE9C8001AF9C100D06
:100AB000BE9C100D11245F01A81AB108A29EC001AE
:100AC000A39E900DB29E900D1124892F9927E81BAB
:100AD000F90BEE9DC001EF9D900DFE9D900D112430
:100AE000E92F62307105A1F050F46115710509F428
:100AF0009DCF6130710581F0EB2F512F97CF64307E
:100B0000710569F080F06630710509F48FCFF4CF7C
:100B1000E42F4B2F592F8ACFE42F412F87CFEB2F74
:100B2000542F492F83CF4B2F5D2DE12F7FCF80E0B6
:100B30000895F894E82FE295EF70F0E031A1282FA6
:100B40002F7081E090E001C0880F2A95EAF7982F76
:100B50009095932391A392A1892B82A378940895D1
:100B60009091F30192FF10C041E0282F24712430AE
:100B700009F040E031E0282F2871283009F030E0FA
:100B8000431711F02CE0822793FF10C041E0282F7B
:100B90002471243109F040E031E0282F28712831F8
:100BA00009F030E0431711F02CE082273091F40176
:100BB00030FF10C051E0282F2171213009F050E0A2
:100BC00041E0282F2871283009F040E0541711F037
:100BD00029E0822731FF10C041E0282F2171213107
:100BE00009F040E031E0282F2871283109F030E089
:100BF000431711F029E0822794FD877E08958238FB
:100C00009105B9F1B0F48133910509F47DC048F440
:100C10008932910509F46DC08A32910509F47BC0CF
:100C200008958533910509F45FC08933910509F171
:100C30000895833E9105D9F138F4803E910529F15C
:100C4000823E910579F10895863E9105D9F1873E5E
:100C5000910509F43EC0843E910541F52091F401CF
:100C600021FF24C08091F30184FD19C087EE90E03C
:100C700008952091F301237009F05AC02091F401E6
:100C800023FF14C089E290E008952091F30120FD34
:100C900038C03091F40130FF09C024FF43C090E018
:100CA00080E008952091F30122FDF7CF089520916F
:100CB000F30122FD3AC03091F40130FD39C024FF28
:100CC000F5CFEDCF2091F30123FFF0CF24FDE7CF47
:100CD000CDCF2091F30123FD2EC03091F40131FFDF
:100CE000EECF84EE90E008952091F30125FFDECF52
:100CF000C9CF2091F30125FD21C02091F40123FFEC
:100D0000D5CF89E390E0D2CF2091F30126FFCECF5B
:100D10008AE290E008952091F30126FFC7CF81E396
:100D200090E0089583EE90E0089582EE90E00895BB
:100D300080EE90E0089586EE90E0089585E390E0DF
:100D400008951F93CF93DF930E94FF05EC01C11517
:100D500080E5D807F0F5C11580E4D80708F09CC0FD
:100D6000C03ED10520F5CD3CD10508F082C0C83A7F
:100D7000D10578F4C53AD10508F073C0C130D1056A
:100D800019F1209709F1C430D105F0F4D0E0C0E0AA
:100D90001BC0C33CD105D0F7C85AD0E0CC0FDD1F33
:100DA000C25EDE4F0990D881C02DD4640DC0C1153C
:100DB00080E2D80708F0D1C0C11581E0D80708F05B
:100DC0005AC0C83ED10510F7CE01DF91CF911F91D7
:100DD0000895C03682E5D80718F5C03482E5D807F3
:100DE00008F06BC0C03282E5D80708F05FC0C115BB
:100DF00082E5D80708F497C02C2F2695269580E227
:100E0000289F900111248C2F8370C1E0D0E002C094
:100E1000CC0FDD1F8A95E2F7C22BD32BDD68D4CF30
:100E2000C03A82E5D80760F4C03882E5D80708F4F4
:100E300059C0CF71D0E0DC2FCC27C46FD06AC4CFAB
:100E4000C03C82E5D80708F462C0C03E82E5D807FE
:100E500008F09CCFDC2FCC27CC27DF71C06FD06A85
:100E6000B3CFC55AD0E0C55EDE4FC881D0E0D064B4
:100E7000ABCFD065A9CF8D2F0E94B005182FCE0122
:100E800099270E94FF05C12FD0E0DC2FCC27CC276B
:100E9000DF71C82BD92B98CFCE0199270E94FF056F
:100EA000CC27DF70C82BD92BD06A8ECFCF71D0E082
:100EB000DC2FCC27C16FD06A87CF2C2F26952695A3
:100EC000277080E2289F900111248C2F8370C1E04D
:100ED000D0E002C0CC0FDD1F8A95E2F7C22BD32BE6
:100EE000DC6872CF2C2F26952695277080E2289FEC
:100EF000900111248C2F8370C1E0D0E002C0CC0F90
:100F0000DD1F8A95E2F7C22BD32BDA685DCF8C2FD9
:100F10008F710E94B005C82FD0E0DC2FCC27CC27E2
:100F2000DF71D06251CF8C2F8F710E94B00555E0D8
:100F3000D695C7955A95E1F7CF70D0E0DC2FCC2736
:100F4000282F30E084FF05C044E0220F331F4A956C
:100F5000E1F7C22BD32BD06937CF8D2F8F710E9431
:100F6000B005182FCE0199270E94FF05C12FD0E0B0
:100F7000DC2FCC27CC27DF71C82BD92BD2CF809583
:100F800090913306982390933306089580918306B9
:100F900090914A06981301C008958F5F8770FACF29
:100FA000963080F5843070F544E0949F90011124D0
:100FB000820F932F911D682F677023E09695879578
:100FC0002A95E1F7FC01EE0FFF1FE80FF91FEC5324
:100FD000FE4F50E040E080E0219130E0062E02C05C
:100FE000369527950A94E2F721703327042E01C025
:100FF000220F0A94EAF7822B4F5F5F4F433051056F
:1010000059F7089580E00895963098F5843088F572
:1010100044E0949F90011124820F932F911D282F5B
:10102000277041E001C0440F2A95EAF723E0969526
:1010300087952A95E1F7FC01EE0FFF1FE80FF91FD6
:10104000EC53FE4F90E080E070E05191DF0111978A
:101050009B01082E02C0369527950A94E2F721706D
:1010600021952527242325272C930196833091054C
:1010700061F708958093DF010895CF93C82F61E051
:101080008111682F617080E00E94D104C1FB662746
:1010900060F9C11101C060E081E00E94D104C2FB8F
:1010A000662760F9C11101C060E082E00E94D104AE
:1010B000C3FB662760F9C11101C060E083E00E94B4
:1010C000D1048C2FCF9108950E943D088093F201A6
:1010D00008959091F20121E030E0F90101C0EE0F96
:1010E0008A95EAF7D90102C0AA0FBB1F6A95E2F7F9
:1010F000EA2B01C0220F4A95EAF7892F8E23E813C5
:1011000005C0292B822F0E94640808952095292369
:10111000F9CF21E030E001C0220F8A95EAF720954F
:101120008091F20182230E94640808959091D40175
:10113000809589238093D401282F277069F489171B
:1011400059F09091F40192FF07C086958695869597
:101150000E9489081092D401089521E030E001C076
:10116000220F8A95EAF78091F201822B0E9464088F
:101170000895CF93DF9393E0899FE00111249E01AE
:10118000205E3D4F40E060E080E00E94FE049E0152
:101190002D5D3D4F40E060E080E00E94FE049E0136
:1011A0002A5D3D4F40E060E080E00E94FE049E0129
:1011B000205B3D4F4FEF6FEF85E50E94FE049E01DF
:1011C0002D5A3D4F4FEF6FEF85E50E94FE049E01C3
:1011D0002A5A3D4F4FEF6FEF85E50E94FE049E01B6
:1011E00020583D4F4FEF6FEF85E50E94FE049E01B2
:1011F0002D573D4F40E060E080E00E94FE049E01DC
:101200002A573D4F4FEF6FEF85E50E94FE049E0188
:1012100020553D4F4FEF6FEF85E50E94FE049E0184
:101220002D543D4F4FEF6FEF85E50E94FE049E0168
:101230002A543D4F4FEF6FEF85E50E94FE049E015B
:1012400020523D4F40E060E080E00E94FE049E019D
:101250002D513D4F40E060E080E00E94FE049E0181
:101260002A513D4F4FEF6FEF85E50E94FE049E012E
:10127000205F3C4F40E060E080E00E94FE049E0161
:101280002D5E3C4F40E060E080E00E94FE049E0145
:101290002A5E3C4F4FEF6FEF85E50E94FE049E01F2
:1012A000205C3C4F40E060E080E00E94FE049E0134
:1012B0002D5B3C4F40E060E080E00E94FE049E0118
:1012C0002A5B3C4F4FEF6FEF85E50E94FE049E01C5
:1012D00020593C4F40E060E080E00E94FE049E0107
:1012E0002D583C4F40E060E080E00E94FE049E01EB
:1012F0002A583C4F40E060E080E00E94FE04DF910D
:10130000CF910895CF93DF9393E0899FE00111245B
:101310009E01205E3D4F40E060E080E00E94FE04C0
:101320009E012D5D3D4F40E060E080E00E94FE04A4
:101330009E012A5D3D4F40E060E080E00E94FE0497
:101340009E01205B3D4F40E060E080E00E94FE0493
:101350009E012D5A3D4F4FEF6FEF85E50E94FE0431
:101360009E012A5A3D4F40E060E080E00E94FE046A
:101370009E0120583D4F4FEF6FEF85E50E94FE0420
:101380009E012D573D4F40E060E080E00E94FE044A
:101390009E012A573D4F4FEF6FEF85E50E94FE04F7
:1013A0009E0120553D4F40E060E080E00E94FE0439
:1013B0009E012D543D4F4FEF6FEF85E50E94FE04D7
:1013C0009E012A543D4F40E060E080E00E94FE0410
:1013D0009E0120523D4F4FEF6FEF85E50E94FE04C6
:1013E0009E012D513D4F40E060E080E00E94FE04F0
:1013F0009E012A513D4F4FEF6FEF85E50E94FE049D
:101400009E01205F3C4F4FEF6FEF85E50E94FE0489
:101410009E012D5E3C4F40E060E080E00E94FE04B3
:101420009E012A5E3C4F4FEF6FEF85E50E94FE0460
:101430009E01205C3C4F40E060E080E00E94FE04A2
:101440009E012D5B3C4F4FEF6FEF85E50E94FE0440
:101450009E012A5B3C4F40E060E080E00E94FE0479
:101460009E0120593C4F40E060E080E00E94FE0475
:101470009E012D583C4F40E060E080E00E94FE0459
:101480009E012A583C4F40E060E080E00E94FE044C
:10149000DF91CF910895CF93DF9393E0899FE0018F
:1014A00011249E01205E3D4F40E060E080E00E94FC
:1014B000FE049E012D5D3D4F40E060E080E00E9413
:1014C000FE049E012A5D3D4F40E060E080E00E9406
:1014D000FE049E01205B3D4F4FEF6FEF85E50E94BC
:1014E000FE049E012D5A3D4F4FEF6FEF85E50E94A0
:1014F000FE049E012A5A3D4F4FEF6FEF85E50E9493
:10150000FE049E0120583D4F40E060E080E00E94D4
:10151000FE049E012D573D4F40E060E080E00E94B8
:10152000FE049E012A573D4F4FEF6FEF85E50E9465
:10153000FE049E0120553D4F40E060E080E00E94A7
:10154000FE049E012D543D4F40E060E080E00E948B
:10155000FE049E012A543D4F4FEF6FEF85E50E9438
:10156000FE049E0120523D4F40E060E080E00E947A
:10157000FE049E012D513D4F4FEF6FEF85E50E9418
:10158000FE049E012A513D4F40E060E080E00E9451
:10159000FE049E01205F3C4F40E060E080E00E943E
:1015A000FE049E012D5E3C4F4FEF6FEF85E50E94DC
:1015B000FE049E012A5E3C4F40E060E080E00E9415
:1015C000FE049E01205C3C4F40E060E080E00E9411
:1015D000FE049E012D5B3C4F4FEF6FEF85E50E94AF
:1015E000FE049E012A5B3C4F40E060E080E00E94E8
:1015F000FE049E0120593C4F40E060E080E00E94E4
:10160000FE049E012D583C4F40E060E080E00E94C7
:10161000FE049E012A583C4F40E060E080E00E94BA
:10162000FE04DF91CF910895CF93DF9393E0899FDC
:10163000E00111249E01205E3D4F40E060E080E02B
:101640000E94FE049E012D5D3D4F40E060E080E081
:101650000E94FE049E012A5D3D4F40E060E080E074
:101660000E94FE049E01205B3D4F40E060E080E070
:101670000E94FE049E012D5A3D4F4FEF6FEF85E50E
:101680000E94FE049E012A5A3D4F4FEF6FEF85E501
:101690000E94FE049E0120583D4F4FEF6FEF85E5FD
:1016A0000E94FE049E012D573D4F40E060E080E027
:1016B0000E94FE049E012A573D4F40E060E080E01A
:1016C0000E94FE049E0120553D4F4FEF6FEF85E5D0
:1016D0000E94FE049E012D543D4F4FEF6FEF85E5B4
:1016E0000E94FE049E012A543D4F40E060E080E0ED
:1016F0000E94FE049E0120523D4F4FEF6FEF85E5A3
:101700000E94FE049E012D513D4F40E060E080E0CC
:101710000E94FE049E012A513D4F4FEF6FEF85E579
:101720000E94FE049E01205F3C4F4FEF6FEF85E566
:101730000E94FE049E012D5E3C4F40E060E080E090
:101740000E94FE049E012A5E3C4F4FEF6FEF85E53D
:101750000E94FE049E01205C3C4F40E060E080E07F
:101760000E94FE049E012D5B3C4F4FEF6FEF85E51D
:101770000E94FE049E012A5B3C4F40E060E080E056
:101780000E94FE049E0120593C4F40E060E080E052
:101790000E94FE049E012D583C4F40E060E080E036
:1017A0000E94FE049E012A583C4F40E060E080E029
:1017B0000E94FE04DF91CF910895CF93DF9393E0D1
:1017C000899FE00111249E01205E3D4F40E060E0D2
:1017D00080E00E94FE049E012D5D3D4F40E060E0F0
:1017E00080E00E94FE049E012A5D3D4F40E060E0E3
:1017F00080E00E94FE049E01205B3D4F4FEF6FEFA3
:1018000085E50E94FE049E012D5A3D4F4FEF6FEF7C
:1018100085E50E94FE049E012A5A3D4F4FEF6FEF6F
:1018200085E50E94FE049E0120583D4F4FEF6FEF6B
:1018300085E50E94FE049E012D573D4F40E060E08B
:1018400080E00E94FE049E012A573D4F40E060E088
:1018500080E00E94FE049E0120553D4F4FEF6FEF48
:1018600085E50E94FE049E012D543D4F4FEF6FEF22
:1018700085E50E94FE049E012A543D4F40E060E051
:1018800080E00E94FE049E0120523D4F40E060E057
:1018900080E00E94FE049E012D513D4F40E060E03B
:1018A00080E00E94FE049E012A513D4F4FEF6FEFF2
:1018B00085E50E94FE049E01205F3C4F40E060E011
:1018C00080E00E94FE049E012D5E3C4F40E060E0FF
:1018D00080E00E94FE049E012A5E3C4F4FEF6FEFB6
:1018E00085E50E94FE049E01205C3C4F4FEF6FEFA8
:1018F00085E50E94FE049E012D5B3C4F4FEF6FEF8C
:1019000085E50E94FE049E012A5B3C4F40E060E0BA
:1019100080E00E94FE049E0120593C4F40E060E0C0
:1019200080E00E94FE049E012D583C4F40E060E0A4
:1019300080E00E94FE049E012A583C4F40E060E097
:1019400080E00E94FE04DF91CF910895CF93DF9352
:1019500093E0899FE00111249E01205E3D4F40E00D
:1019600060E080E00E94FE049E012D5D3D4F40E05E
:1019700060E080E00E94FE049E012A5D3D4F40E051
:1019800060E080E00E94FE049E01205B3D4F4FEF2F
:101990006FEF85E50E94FE049E012D5A3D4F40E009
:1019A00060E080E00E94FE049E012A5A3D4F4FEF06
:1019B0006FEF85E50E94FE049E0120583D4F4FEFDA
:1019C0006FEF85E50E94FE049E012D573D4F40E0DC
:1019D00060E080E00E94FE049E012A573D4F4FEFD9
:1019E0006FEF85E50E94FE049E0120553D4F4FEFAD
:1019F0006FEF85E50E94FE049E012D543D4F40E0AF
:101A000060E080E00E94FE049E012A543D4F4FEFAB
:101A10006FEF85E50E94FE049E0120523D4F4FEF7F
:101A20006FEF85E50E94FE049E012D513D4F4FEF63
:101A30006FEF85E50E94FE049E012A513D4F4FEF56
:101A40006FEF85E50E94FE049E01205F3C4F40E061
:101A500060E080E00E94FE049E012D5E3C4F40E06D
:101A600060E080E00E94FE049E012A5E3C4F4FEF42
:101A70006FEF85E50E94FE049E01205C3C4F40E034
:101A800060E080E00E94FE049E012D5B3C4F40E040
:101A900060E080E00E94FE049E012A5B3C4F4FEF15
:101AA0006FEF85E50E94FE049E0120593C4F40E007
:101AB00060E080E00E94FE049E012D583C4F40E013
:101AC00060E080E00E94FE049E012A583C4F40E006
:101AD00060E080E00E94FE04DF91CF910895CF93F3
:101AE000DF9393E0899FE00111249E01205E3D4F2A
:101AF00040E060E080E00E94FE049E012D5D3D4FCD
:101B000040E060E080E00E94FE049E012A5D3D4FBF
:101B100040E060E080E00E94FE049E01205B3D4FBB
:101B20004FEF6FEF85E50E94FE049E012D5A3D4F59
:101B30004FEF6FEF85E50E94FE049E012A5A3D4F4C
:101B40004FEF6FEF85E50E94FE049E0120583D4F48
:101B500040E060E080E00E94FE049E012D573D4F72
:101B600040E060E080E00E94FE049E012A573D4F65
:101B70004FEF6FEF85E50E94FE049E0120553D4F1B
:101B800040E060E080E00E94FE049E012D543D4F45
:101B90004FEF6FEF85E50E94FE049E012A543D4FF2
:101BA00040E060E080E00E94FE049E0120523D4F34
:101BB00040E060E080E00E94FE049E012D513D4F18
:101BC00040E060E080E00E94FE049E012A513D4F0B
:101BD0004FEF6FEF85E50E94FE049E01205F3C4FB2
:101BE00040E060E080E00E94FE049E012D5E3C4FDC
:101BF00040E060E080E00E94FE049E012A5E3C4FCF
:101C00004FEF6FEF85E50E94FE049E01205C3C4F84
:101C10004FEF6FEF85E50E94FE049E012D5B3C4F68
:101C20004FEF6FEF85E50E94FE049E012A5B3C4F5B
:101C30004FEF6FEF85E50E94FE049E0120593C4F57
:101C400040E060E080E00E94FE049E012D583C4F81
:101C500040E060E080E00E94FE049E012A583C4F74
:101C600040E060E080E00E94FE04DF91CF910895A3
:101C7000CF93DF9393E0899FE00111249E01205EC2
:101C80003D4F40E060E080E00E94FE049E012D5D3B
:101C90003D4F40E060E080E00E94FE049E012A5D2E
:101CA0003D4F40E060E080E00E94FE049E01205B2A
:101CB0003D4F40E060E080E00E94FE049E012D5A0E
:101CC0003D4F4FEF6FEF85E50E94FE049E012A5ABB
:101CD0003D4F40E060E080E00E94FE049E012058FD
:101CE0003D4F4FEF6FEF85E50E94FE049E012D579B
:101CF0003D4F40E060E080E00E94FE049E012A57D4
:101D00003D4F4FEF6FEF85E50E94FE049E01205589
:101D10003D4F40E060E080E00E94FE049E012D54B3
:101D20003D4F40E060E080E00E94FE049E012A54A6
:101D30003D4F4FEF6FEF85E50E94FE049E0120525C
:101D40003D4F40E060E080E00E94FE049E012D5186
:101D50003D4F4FEF6FEF85E50E94FE049E012A5133
:101D60003D4F40E060E080E00E94FE049E01205F65
:101D70003C4F4FEF6FEF85E50E94FE049E012D5E04
:101D80003C4F40E060E080E00E94FE049E012A5E3D
:101D90003C4F40E060E080E00E94FE049E01205C39
:101DA0003C4F4FEF6FEF85E50E94FE049E012D5BD7
:101DB0003C4F4FEF6FEF85E50E94FE049E012A5BCA
:101DC0003C4F4FEF6FEF85E50E94FE049E012059C6
:101DD0003C4F40E060E080E00E94FE049E012D58F0
:101DE0003C4F40E060E080E00E94FE049E012A58E3
:101DF0003C4F40E060E080E00E94FE04DF91CF9124
:101E00000895CF93DF9393E0899FE00111249E0111
:101E1000205E3D4F40E060E080E00E94FE049E01B5
:101E20002D5D3D4F40E060E080E00E94FE049E0199
:101E30002A5D3D4F40E060E080E00E94FE049E018C
:101E4000205B3D4F40E060E080E00E94FE049E0188
:101E50002D5A3D4F4FEF6FEF85E50E94FE049E0126
:101E60002A5A3D4F40E060E080E00E94FE049E015F
:101E700020583D4F4FEF6FEF85E50E94FE049E0115
:101E80002D573D4F4FEF6FEF85E50E94FE049E01F9
:101E90002A573D4F40E060E080E00E94FE049E0132
:101EA00020553D4F40E060E080E00E94FE049E012E
:101EB0002D543D4F4FEF6FEF85E50E94FE049E01CC
:101EC0002A543D4F40E060E080E00E94FE049E0105
:101ED00020523D4F40E060E080E00E94FE049E0101
:101EE0002D513D4F4FEF6FEF85E50E94FE049E019F
:101EF0002A513D4F40E060E080E00E94FE049E01D8
:101F0000205F3C4F40E060E080E00E94FE049E01C4
:101F10002D5E3C4F4FEF6FEF85E50E94FE049E0162
:101F20002A5E3C4F40E060E080E00E94FE049E019B
:101F3000205C3C4F40E060E080E00E94FE049E0197
:101F40002D5B3C4F4FEF6FEF85E50E94FE049E0135
:101F50002A5B3C4F40E060E080E00E94FE049E016E
:101F600020593C4F40E060E080E00E94FE049E016A
:101F70002D583C4F40E060E080E00E94FE049E014E
:101F80002A583C4F40E060E080E00E94FE04DF9170
:101F9000CF910895CF93DF9393E0899FE0011124BF
:101FA0009E01205E3D4F40E060E080E00E94FE0424
:101FB0009E012D5D3D4F40E060E080E00E94FE0408
:101FC0009E012A5D3D4F40E060E080E00E94FE04FB
:101FD0009E01205B3D4F40E060E080E00E94FE04F7
:101FE0009E012D5A3D4F4FEF6FEF85E50E94FE0495
:101FF0009E012A5A3D4F40E060E080E00E94FE04CE
:102000009E0120583D4F4FEF6FEF85E50E94FE0483
:102010009E012D573D4F40E060E080E00E94FE04AD
:102020009E012A573D4F4FEF6FEF85E50E94FE045A
:102030009E0120553D4F4FEF6FEF85E50E94FE0456
:102040009E012D543D4F40E060E080E00E94FE0480
:102050009E012A543D4F4FEF6FEF85E50E94FE042D
:102060009E0120523D4F4FEF6FEF85E50E94FE0429
:102070009E012D513D4F40E060E080E00E94FE0453
:102080009E012A513D4F4FEF6FEF85E50E94FE0400
:102090009E01205F3C4F4FEF6FEF85E50E94FE04ED
:1020A0009E012D5E3C4F40E060E080E00E94FE0417
:1020B0009E012A5E3C4F4FEF6FEF85E50E94FE04C4
:1020C0009E01205C3C4F40E060E080E00E94FE0406
:1020D0009E012D5B3C4F4FEF6FEF85E50E94FE04A4
:1020E0009E012A5B3C4F40E060E080E00E94FE04DD
:1020F0009E0120593C4F40E060E080E00E94FE04D9
:102100009E012D583C4F40E060E080E00E94FE04BC
:102110009E012A583C4F40E060E080E00E94FE04AF
:10212000DF91CF9108950F931F93CF93DF938B018E
:10213000EA0190914006943061F58093E9008FEFB9
:102140009091E800815095FD06C095ED9A95F1F7C4
:1021500000008111F5CF8091E80085FF1AC00E9430
:102160001703811111C08091E80085FD06C08091A0
:10217000E8008E778093E800F2CFF80181918F011B
:102180008093F100219779F78091E8008E77809312
:10219000E800DF91CF911F910F91089543E050E047
:1021A000BC0184E00E9493100895CF93DF93EC016B
:1021B00048E050E0BC0181E00E94931088E0FE01FD
:1021C000A6E3B6E001900D928A95E1F7DF91CF91F9
:1021D0000895CF93DF93C9EED0E060E0CE010E9476
:1021E0009F362196C11584E0D807B9F7DF91CF91CA
:1021F00008951F93CF93DF93122F8430E0F466305D
:10220000D0F44430C0F498E0699FE001112450E01C
:10221000440F551FC40FD51F90E3899FC00DD11DDA
:102220001124632FCE0189960E949F36612FCE0123
:102230008A960E949F36DF91CF911F910895AF92A9
:10224000BF92CF92DF92EF92FF921F93CF93DF93D3
:102250008EE0C82E84E0D82ED0E07601C0E014C015
:10226000F50125913491412F6C2F8D2F0E94F9108B
:1022700082E0A80EB11C1F5F143091F788E0E80ED1
:10228000F11CCF5FC63019F0570110E0E9CFDF5FD6
:1022900080E3C80ED11CD43001F7DF91CF911F919C
:1022A000FF90EF90DF90CF90BF90AF900895CF93C5
:1022B000C82F6FEF811163E285E290E00E949F36A4
:1022C0006FEFC11160E186E290E00E949F366FEFF0
:1022D000C11161E087E290E00E949F36CF9108959E
:1022E00080E00E94571160E088E290E00E949F36F3
:1022F0000E941F110E94E91081E00E945711089569
:102300000F931F93CF93DF93843030F5663020F521
:10231000443010F528E0629F8001112450E0440F02
:10232000551F040F151F30E3839F000D111D11244D
:10233000C80189960E947B36C82FD0E0DC2FCC27BD
:10234000C8018A960E947B369E01282BC901DF9125
:10235000CF911F910F91089590E080E0F8CF462F24
:10236000763040F4643030F4843020F4672F0E94DB
:102370008011089590E080E00895CF92DF92FF925F
:102380000F931F93CF93DF936C010091F201809123
:10239000DF01082BC3E0D0E010E0FC2EC8010C2EBA
:1023A00002C0959587950A94E2F780FD0CC02197AD
:1023B000A0F7F12C8F2DDF91CF911F910F91FF90FE
:1023C000DF90CF900895B6018C2F0E94AF110E942C
:1023D000A106019761F3EECFCF93DF93EC010E944A
:1023E000BD11BE010E94AF110E94A106DF91CF91E5
:1023F0000895FC0124812223C1F0808191810E94F3
:10240000EC1192959F70963091F058F4925F9F7006
:10241000923058F4803F19F030F4883E30F481E077
:1024200008959A5FF4CF843FD1F380E00895883E09
:10243000B0F3813FD1F7F3CFA6E0B0E0E2E2F2E102
:102440000C946B3549835A8349815A819923A1F0B1
:10245000222391F0CA010E94BD11182F682F898193
:102460009A810E94040869817A81812F0E94AF11AC
:102470002696E3E00C948735CA010E94D007182FF6
:10248000F2CF85E290E00E947B36833289F486E2C7
:1024900090E00E947B36803159F487E290E00E9400
:1024A0007B3691E0813009F090E0892F81700895AA
:1024B00080E0FCCF8091200680FD0AC0E0E2F2E0DF
:1024C000118210821282339653E0E03AF507C1F789
:1024D000809A31B33E7F21B321604FB7F89480E2F8
:1024E00092E0FC015191CF0168E021BB000000C0E7
:1024F00057FF31BB550F000000C000C000C031BB0A
:1025000000C06A9591F7F3E0803A9F0751F74FBFFB
:102510008FE594E00197F1F700C000000895B0E066
:10252000A0E0E5E9F2E10C945E35FC0162804480B4
:1025300081E08483EEE0F3E07490EDE8F3E0E49171
:10254000009123060695015810E0000F111F012F7E
:102550001127C0EAD3E020E2C22E22E0D22E30E2E0
:10256000832E36E0932EAA24AA94B12C55245A9493
:10257000E719EE2EF12C82E0861530F080912106CD
:102580008883809122068983411016C01B821A829B
:1025900096014A81698188810E94FE04259683E024
:1025A000C80ED11C8C169D0631F70E945A12CDB769
:1025B000DEB7E0E10C947A358B818823E9F0815015
:1025C0008B83859DC00111246C8170E00E94483589
:1025D000FB01FF27E25FFC4F8491E82FE719E59D9F
:1025E000C0011124B7010E94483580912306689FDD
:1025F000B00111247A83CCCF0E945136B5010E94DC
:102600009F358017910724F682E0861588F40E9492
:102610005136B5010E949F3588830E945136209122
:1026200022062695622F70E00E949F35280F29838D
:102630001A8280912306893C20F088EC8C838B835E
:10264000A7CF8431D8F784E1F9CFEF92FF920F93AF
:102650001F93CF93DF938C01C0E2D2E0F12CE12CE9
:10266000F80194816091220680912106F0E4EF1632
:10267000F104ECF49923E9F09E01409123060E94B5
:10268000FE042FEFE21AF20A239680E8E816F1041E
:1026900039F70E945A12F801848190E00196817006
:1026A00099278483CDB7DEB7E6E00C94843599236F
:1026B00019F39E0140E0E3CFB0E0A0E0E2E6F3E1F1
:1026C0000C946235EC014C81042F10E09801D80184
:1026D0000E9427379B01AC010E94F2364B015C013E
:1026E000E0E2F0E0E01BF10BA5E5B0E0AC019B01FE
:1026F0000E94F2366B017C019F01DF010E94C03510
:102700009B01AC010E94FD369B01AC01280D391DD7
:102710004A1D5B1DC701B6010E940537F22E822FAC
:1027200090E039E23F1598F143E0249F9001112495
:1027300035952795122F109590E2C92E92E0D92E4B
:1027400000E085E5E82EEF188E2D01FD8F2D960116
:10275000412F609122060E94FE040F5F53E0C50ED8
:10276000D11C003889F70E945A129C8181E099237C
:1027700019F0903219F48FEF8093190180911901AB
:10278000890F8C83CDB7DEB7ECE00C947E3525E560
:1027900030E0A901481B590BCA019A01220F331FCF
:1027A000280F391F37FFC4CF2F5F3F4FC1CF0F9383
:1027B0001F93CF93DF93C0E2D2E0FE01118210821B
:1027C0001282339683E0E03AF807C1F710E000E0A8
:1027D00080911E02082E000C990B081719078CF126
:1027E00080911801082E000C990B801791074CF16D
:1027F0009E014091230660912206809121060E944D
:10280000FE040F5F1F4F23960038110509F70E9441
:102810005A128091170190911E02980F90931E02F8
:1028200020911801280F20931801121614F49F37D5
:1028300019F4819580931701DF91CF911F910F912A
:102840000895198218821A82DCCFB0E0A0E0EBE292
:10285000F4E10C946635FC018281DD24DA9480FD7C
:1028600002C0DD24D394C0E2D2E010E000E019827F
:1028700018821A8294E0E92EF12CC12C80911D025D
:102880008C0D87FD8058082E000C990B801791073E
:1028900091F4809123068E9DA0018F9D500D1124EF
:1028A00055954795559547959E01609122068091D3
:1028B00021060E94FE04CD0CF1E0EF1AF108F1F6BA
:1028C0000F5F1F4F23960038110589F60E945A1298
:1028D00080911D0291E0D9120CC0811108C08FE7D0
:1028E00080931D02CDB7DEB7E8E00C9482358150AD
:1028F000F7CF90E001968F779927F2CFEF92FF9272
:102900001F93CF93DF93EC0180E2E82E82E0F82E54
:1029100010E08C8197014091230660912206810F7F
:102920000E94FE041F5F83E0E80EF11C103889F757
:102930000E945A129A818C8190FF08C08F5F8C830D
:10294000DF91CF911F91FF90EF9008958150F7CFC5
:102950009091200690FF0CC0E0E2F2E0818360835A
:102960004283339693E0E03AF907C1F70E945A1286
:102970000895A3E0B0E0EFEBF4E10C946A358C012C
:1029800080911F0281110AC09E012F5F3F4F4EE6CA
:102990006FEF0E94FE048A8180931F02F801648118
:1029A000613069F080911F0240E0662361F040E0F1
:1029B000623011F440911F0280E060E004C0609139
:1029C0001F0240E080E00E94A814F801848190E09A
:1029D000019663E070E00E949F3584832396E4E0D3
:1029E0000C948635A3E0B0E0E8EFF4E10C946C358C
:1029F0009091200690FF0AC09E012F5F3F4F0E94DA
:102A0000FE044B8169818A810E94A8142396E2E02A
:102A10000C948835CF93DF93EC01E0E2F6E043813C
:102A200062818C810E94F2148C818F5F8C83DF9194
:102A3000CF910895CF93DF93EC01EC81F0E0E25F5A
:102A4000FC4F4491E0E2F6E0628181810E94F21441
:102A50008C818F5F8C83DF91CF910895B0E0A0E0EF
:102A6000E4E3F5E10C94623549015A016B017C0104
:102A70000E94E8048401A4016A2D7B2D88E090E087
:102A80000E94B13694014A2D5B2DB601C70100E2C8
:102A90000E94EA35622F84E290E00E949F36CDB713
:102AA000DEB7ECE00C947E35A3E0B0E0EAE5F5E1BA
:102AB0000C946135F82ED62EE42EC22E909120066D
:102AC00090FF2EC0E92FE695AE2FB0E0AE58BE4F76
:102AD0008C9180931A029E7F923031F59E012F5F78
:102AE0003F4F8F2D0E94FE044B8169818A810E9495
:102AF000A814F0922106D0922206E0922306CC2060
:102B000079F02091200660912406709125063F2DD2
:102B10004D2D5E2D80912606909127060E942E1540
:102B20002396EDE00C947D35823019F4E090230675
:102B3000E0CF863019F4F0902106DBCF8930D9F34D
:102B40008931B9F6E9512E2F2170722EE695F0E009
:102B5000E75FFC4FE4910E2F10E030E2A32E32E04D
:102B6000B32E912C812CC401880F892F881F990BBB
:102B70009195711013C08F0D95014E2D6D2D0E94F2
:102B8000FE04800E911E83E0A80EB11C20EAA2165E
:102B900023E0B20641F70E945A12ABCF2F2D281B1B
:102BA000822FEACFE0E2F6E0438128E0421B08F4FE
:102BB00040E021E0628181810E9454150895E0E2A5
:102BC000F6E0438128E0420F08F44FEF21E06281F4
:102BD00081810E9454150895E0E2F6E0628128E0C8
:102BE000621B08F460E021E0438181810E9454155A
:102BF0000895E0E2F6E0628128E0620F08F46FEFEA
:102C000021E0438181810E9454150895E0E2F6E0BD
:102C1000818121E04381628188500E94541508958A
:102C2000E0E2F6E0818121E043816281885F0E94D9
:102C30005415089580912406882319F081508093BB
:102C400024062091200630912106409122065091C1
:102C500023066091240670912506809126069091A6
:102C600027060E942E15089580912406833018F4BB
:102C70008F5F809324062091200630912106409199
:102C800022065091230660912406709125068091BA
:102C90002606909127060E942E150895E0E2F6E0A0
:102CA00083E0808311828FEF82838EE68383148298
:102CB000758123E030E04FEF5EE660E0868197812A
:102CC0000E942E1508959091F40192FB222720F97D
:102CD000281779F080FB92F99093F4016091F30149
:102CE0007091F40184E090E00E94BD3682E00E9481
:102CF0009608089590E080E00E948936863E9E4FB7
:102D000019F40E944112089580E0089580913306DD
:102D10009091DE01892B8093AE019091DD01992382
:102D200091F0892B8093AE0120E080EB91E0FC01D3
:102D30003191CF0131112F5FF1E0863B9F07B9F749
:102D400021111092DD0148E050E065ED71E08EEA5E
:102D500091E00E946E36892BA9F088E0EEEAF1E05E
:102D6000A5EDB1E001900D928A95E1F7E0912A0678
:102D7000F0912B06309731F00280F381E02D8EEA3E
:102D800091E009950895E0EBF1E086E0DF011D9206
:102D90008A95E9F790E080E00E94990490E080E055
:102DA0000E9474041092DE010E9486160895AAE221
:102DB000B0E0EDEDF6E10C946B3582E496E0209105
:102DC000F100DC012D93CD01B6E08A349B07B9F701
:102DD00080914306833009F472C0B8F4813009F45D
:102DE00049C0823009F4B5C08091E80083FF8DC2EC
:102DF00080914206909143069A3008F086C2E92FEE
:102E0000F0E0E85CF84C0C94B3358A3009F490C0DB
:102E10008B3009F471C0893039F7809142068132D4
:102E200019F78091460690914706009711F0029796
:102E3000D9F68091E800877F8093E8008091E800D0
:102E400082FF38C09091F3008091F200029731F434
:102E50008091F100813011F0863021F48091F100F1
:102E6000809335068091E8008B778093E8000E947C
:102E70004803BACF80914206813A09F0B5CF8091DC
:102E8000E800877F8093E80080914606909147068E
:102E9000892B61F468E086E396E070E00E94F40319
:102EA0008091E8008B778093E8009ECF60E090E00F
:102EB00080E0F3CF809140068111C0CF95CF809103
:102EC0004206813A09F090CF8091460690914706DC
:102ED000892B09F089CF8091E800877F8093E800F3
:102EE0008091E80080FFFCCF80911A018093F1006F
:102EF0008091E8008E77B9CF80914206813209F047
:102F000073CF8091460690914706892B09F06CCFCC
:102F10008091E800877F8093E8000E9448038091B9
:102F2000440680931A01109233060E94C3165CCFA8
:102F300080914206813209F057CF8091E800877F67
:102F40008093E8000E9448038091450680933406F0
:102F50004BCF80914206813A09F046CF8091E8003C
:102F6000877F8093E8008091E80080FFFCCF80910C
:102F70003406BCCF803899F0823809F0C6C1809100
:102F800046068F70873008F0C0C18093E9008091B9
:102F9000EB0085FB882780F91092E90006C080913C
:102FA0003E0690913F06911182609091E800977FD4
:102FB0009093E8008093F1001092F1008091E80076
:102FC0008E779FC1882309F48DC1823009F09DC19D
:102FD00080914406811190C1809146068F702FEF39
:102FE000280F263008F091C18093E9002091EB0072
:102FF00020FF82C1933031F48091EB008062809396
:10300000EB007AC19091EB0090619093EB0021E08E
:1030100030E001C0220F8A95EAF72093EA0010926F
:10302000EA008091EB008860EACF81116EC11091B7
:1030300044061F778091E3008078812B8093E30022
:103040008091E800877F8093E8000E944803809188
:10305000E80080FFFCCF8091E30080688093E3006C
:1030600082E0111183E0809340064FC18058823086
:1030700008F04BC120914406309145062C3DE3E019
:103080003E07A1F583E08A838AE289834FB7F894EB
:10309000DE01139620E03EE051E2E32FF0E0509392
:1030A0005700E49120FF03C0E295EF703F5FEF709F
:1030B0008E2F90E0EA30C0F0C7968D939D932F5FDE
:1030C000243159F74FBF8091E800877F8093E80053
:1030D0006AE270E0CE0101960E94F4038091E8005C
:1030E0008B778093E80011C1C096E7CF80914606A8
:1030F00090914706432F55274330510509F44AC0A4
:1031000078F54130510509F47AC08BE590E0EEEC9A
:10311000F4E04230510509F0F8C02091E800277F23
:103120002093E800209148063091490682179307C2
:1031300008F49C0140E02115310509F065C04111FA
:1031400063C08091E80082FDC9CF8091400688234A
:1031500029F2853019F28091E80083FFF2CFBECFCB
:103160004132510509F43CC04232510509F0CDC04D
:103170008330910508F0C9C0FC01EE0FFF1FE05637
:10318000FE4F0190F081E02D83569E4FDC018C9123
:1031900090E01AC0332721303105D1F021153105D7
:1031A00061F02230310509F0B0C0EBE3F5E0E491C5
:1031B0008E2F90E0EBE3F5E007C0EFE6F5E0E49159
:1031C0008E2F90E0EFE6F5E0009709F49EC0A5CFC2
:1031D000EBE4F5E0E4918E2F90E0EBE4F5E0F4CF42
:1031E0008330910508F091C0880F991FFC01EA55C2
:1031F000FE4F0190F081E02D89E090E08ECF82E1DA
:1032000090E0E9E2F5E089CF80914006882309F457
:1032100065CF853009F462CF8091E80083FD5ECFF1
:103220008091E80082FD8DCF8091E80080FF83CF00
:103230009091F3008091F2002115310519F088304A
:10324000910550F041E0089709F040E08091E800D6
:103250008E778093E8006FCF44914093F1003196D0
:10326000215031090196E8CF803809F04EC0809195
:10327000E800877F8093E800809141068093F10009
:103280009DCE811142C0109144061230F0F580911C
:10329000E800877F8093E800109341060E9448036E
:1032A000112311F084E005C08091E30087FDFACF7F
:1032B00081E08093400642E061EC81E00E94670378
:1032C00042E261EC84E00E94670342E261EC82E04A
:1032D0000E94670342E260EC83E00E9467038091F2
:1032E000400613C080914406813079F481E0933028
:1032F00009F080E080933F061092E9008091E80099
:10330000877F8093E8000E9448038091E80083FF54
:103310000AC08091E800877F8093E8008091EB00ED
:1033200080628093EB00AA96E3E00C9487351092BC
:1033300033060E94C3162FEF84E39CE021508040A7
:103340009040E1F700C0000088E19AE00FB6F894E1
:10335000A895809360000FBE90936000FFCF8823F4
:1033600021F00E94BF070E9486160895882339F035
:1033700090913306982B909333060E9486160895F9
:10338000882391F19CEF980F913A80F4E0EBF1E003
:1033900026EB31E09191891303C0DF0111971C9254
:1033A0002E173F07B9F70E948616089590E2980FEE
:1033B000983050F4877091E001C0990F8A95EAF730
:1033C000892F0E94BF07EFCF9BE5980F933028F419
:1033D00090E080E00E9499040895885A8B3120F48F
:1033E00090E080E00E94740408950F931F93CF93A0
:1033F000C82F882349F18CEF8C0F813AB8F500EB88
:1034000011E086EB91E0F8012191C21709F121E06A
:10341000E63BF207C9F7EFEF80E0D8019D918D01FF
:10342000C91781F0EF3F19F4911101C0E82F8F5FA8
:10343000863099F7EF3F31F00E2E000CFF0BE2556E
:10344000FE4FC2830E948616CF911F910F9108955F
:10345000E0EBF1E02191C21303C0DF0111971C9250
:103460008E179F07B9F70E948616D5CF80E28C0F82
:10347000883068F4C77021E030E001C0220FCA959F
:10348000EAF780913306822B80933306DBCFEBE59E
:10349000EC0FE33040F4F0E0E55EFE4F808190E019
:1034A0000E949904D1CFC85ACB3170F6EC2FF0E0CE
:1034B000EE0FFF1FE25EFE4F808191810E94740437
:1034C000C3CF1F93CF93DF93182FD0E0C0E0893391
:1034D00011F4C0E5D0E0812F0E94F519209739F44E
:1034E000812F0E94C019DF91CF911F9108958FE91C
:1034F0009FE00197F1F700C000002197EFCFCF9335
:10350000811111C0C2E0611101C0C3E08C2F95E0B0
:103510000E94BD116C2F75E00E94AF110E94611ACC
:1035200080E0CF9108958130D9F7C0E06111EECFEE
:10353000C1E0ECCFA8E0B0E0E0EAFAE10C946C3531
:1035400066EE7EEF90E080E00E94BD3660E082E0B3
:1035500090E00E949F3660E083E090E00E949F36FA
:103560001092DF0160E074E184E090E00E94BD36DB
:1035700060E086E090E00E949F366FEF87E090E089
:103580000E949F3640E050E0BA0188E090E00E943F
:10359000B13660E084E290E00E949F3660E087E10F
:1035A00090E00E949F3660E08CE090E00E949F36A1
:1035B00060E08DE090E00E949F3619821A821B82A3
:1035C0001C821D821E821F82188648E050E068E13E
:1035D00070E0CE0101960E948F3640E050E0BA01C3
:1035E00080E290E00E94B13680E00E9457110E9474
:1035F000701140E050E0BA018FE090E00E94B136D7
:1036000040E050E0BA0183E190E00E94B136289694
:10361000E2E00C9488351F920F920FB60F9211249E
:103620002F933F934F935F936F937F938F939F93CA
:10363000AF93BF93CF93DF93EF93FF93D091E900C4
:10364000DF708091EC00C82FC17080FDC0E810923F
:10365000E9008091F000877F8093F00078940E94C9
:10366000D7161092E9008091F00088608093F000F6
:10367000CD2BCF70C093E900FF91EF91DF91CF91F7
:10368000BF91AF919F918F917F916F915F914F917A
:103690003F912F910F900FBE0F901F9018951F9282
:1036A0000F920FB60F9211242F933F934F935F9376
:1036B0006F937F938F939F93AF93BF93EF93FF93FA
:1036C0008091E10082FF09C08091E20082FF05C085
:1036D0008091E1008B7F8093E1008091DA0080FF90
:1036E00024C08091D80080FF20C08091DA008E7FB6
:1036F0008093DA008091D90080FFA3C080E189BD6A
:1037000082E189BD09B400FEFDCF81E080934006CF
:1037100080913206811109C00E94F8020E9499032B
:103720008091E20084608093E2008091E10080FF5C
:1037300017C08091E20080FF13C08091E2008E7F6D
:103740008093E2008091E20080618093E2008091AA
:10375000D80080628093D80019BC85E08093400631
:103760008091E10084FF31C08091E20084FF2DC090
:1037700080E189BD82E189BD89B5982F917080FF74
:10378000FBCF8091D8008F7D8093D8008091E1009D
:103790008F7E8093E1008091E2008F7E8093E20033
:1037A0008091E20081608093E2008091410688234D
:1037B00009F44DC084E080934006109233060E94C5
:1037C000C3160E94BE04809140068091E10083FFF1
:1037D00027C08091E20083FF23C08091E100877FB2
:1037E0008093E10082E08093400610924106809130
:1037F000E1008E7F8093E1008091E2008E7F8093D4
:10380000E2008091E20080618093E20042E060E0AB
:1038100080E00E9467038091F00088608093F00050
:10382000FF91EF91BF91AF919F918F917F916F9198
:103830005F914F913F912F910F900FBE0F901F906E
:10384000189519BC10924006109232066ECF8091E6
:10385000E30087FD93E090934006AFCF78941F92EA
:103860001FB61F9211248F939F93AF93BF938091A4
:103870002E0690912F06A0913006B0913106019648
:10388000A11DB11D80932E0690932F06A0933006A4
:10389000B0933106BF91AF919F918F911F901FBE42
:1038A0001F9018959C014FB7F89480912E06909127
:1038B0002F06A0913006B09131064FBF821B930BAB
:1038C00008952FB7F89480912E0690912F06A0911D
:1038D0003006B09131062FBF08959091200690FFD9
:1038E00034C09170811132C092609093200666239B
:1038F00091F02091200630912106409122065091AE
:1039000023066091240670912506809126069091E9
:1039100027060E942E1560912006669570E04BE008
:1039200050E08CE091E00E946136892BB1F010925A
:103930001B0281E08093160220E0409123066091F3
:103940002206809121060E94541508958B3210F0B2
:103950009465CBCF880F982BC8CF81E080931B0252
:103960000E94611C9093140280931302E2CF809115
:1039700020068695815009F48AE261E00E946D1C60
:1039800008958091200686958F5F8B3208F081E044
:1039900061E00E946D1C08959091200690FF08C080
:1039A0009695981728F0961718F40E94C11C089550
:1039B00061E00E946D1C0895A8E0B0E0E2EEFCE139
:1039C0000C945E357C01DC0114968C91149788234D
:1039D00009F4B5C021E04C9111965C9111971296B3
:1039E0006C91129713967C91139715969C910E9457
:1039F0001C126C01F7018581882309F433C19601FB
:103A000037572038310510F00C9484291C2D1031C3
:103A100008F086C08FEF93E00E947B36811180C052
:103A200059EEA52EB12C111148C0FE01339686E047
:103A3000DF011D928A95E9F74AE0442E85010F5F68
:103A40001F4FC5010E947B3689831A82882309F49F
:103A500067C0813009F077C06501B2E0CB0ED11CA0
:103A6000C8010E947B368A83882309F459C09FEFDE
:103A7000980F933080F5E3E0AE0EB11CC6010E94B2
:103A80007B368B83882309F44BC01C828E010F5F29
:103A90001F4FD8012C91222389F2213009F08DC0CB
:103AA00011969C91119712968C91913009F04DC00E
:103AB0000E5F1F4F0E94611A4EC0A114F4E0BF06B2
:103AC00079F1C5010E947B36811101C011502FEFA1
:103AD000A21AB20AA8CF56018430C1F602E010E063
:103AE0005601FFEFAF1ABF0AC6010E947B36E1E024
:103AF000F0E0EC0FFD1FE00FF11F8083882381F0C1
:103B00008C3741F4E2E0F0E0EC0FFD1FE00FF11F15
:103B10001082BCCF0F5F1F4F65010730110501F701
:103B20008091D401877059F0F7018581882339F09D
:103B30008091F40182FF03C082E00E9496082896DB
:103B4000E0E10C947A355801A1CF923039F40E5F40
:103B50001F4F0E94F5190F5F1F4F9BCF933029F421
:103B60000E5F1F4F0E94C019F6CF943019F00F5FFF
:103B70001F4FF1CF0E5F1F4F30E020E0B8016F5FA5
:103B80007F4FF80141818053990B8A30910550F0A5
:103B90002150310900F38FE99FE00197F1F700C050
:103BA0000000F6CF429EF001439EF00D11249C01CF
:103BB0002E0F3F1F842F8B01E1CFE22FF0E0EC5856
:103BC000FE4F5490822F86958695869590E0FC0155
:103BD000EC59FE4F64902770712C022E02C0759430
:103BE00067940A94E2F7A1E06A227724FC01EC5A78
:103BF000FE4F8490912C022E02C0959487940A94D3
:103C0000E2F7B1E08B229924FC01EC5BFE4FC490FB
:103C1000D12C02C0D594C7942A95E2F7E1E0CE22D8
:103C2000DD246114710419F081EE0E94F5198114EC
:103C3000910419F086EE0E94F519852D0E94611AF3
:103C40008114910419F086EE0E94C0196114710468
:103C500019F081EE0E94C019C114D10409F47BCF80
:103C60008CE228CF9091F901992309F4BFC081110A
:103C7000A6C0FEE1CF16D10410F40C94952928E2D9
:103C8000C216D10408F09BC093EE9C0D37E2C31618
:103C9000D10409F490E0E091C20181E08E0F80939D
:103CA000C201F0E0EA54FE4F90838C3009F087C0E7
:103CB0001092F9011092F80181E08093FA0190913D
:103CC000C0012AE08091C101929F800D1124909142
:103CD000BE01F091BF01929FF00D11249091BC01A3
:103CE000E091BD01929FE00D11249091BA01509195
:103CF000BB01929F500D11249091B8014091B901E0
:103D0000929F400D11249091B6013091B701929F7E
:103D1000300D1124622F0E949335A0E18A9FB001DB
:103D20001124962B9F7799838F2F622F0E949335B2
:103D3000B0E18B9FB0011124962B9F779A838E2F31
:103D4000622F0E949335E0E18E9FB0011124962BE3
:103D50009F739B831C82852F622F0E949335F0E115
:103D60008F9FB0011124962B9F739D83842F622F08
:103D70000E94933560E1869FA0011124942B9F73CC
:103D80009E83832F622F0E949335A0E18A9F90012A
:103D90001124922B9F779F8304E610E027E030E008
:103DA000AE014F5F5F4F60E080ED0E94D4340CE0C5
:103DB00010E08AE20E94611A01501109D1F7D7017F
:103DC00015968C91B0E4CB16BEE7DB0609F452C71A
:103DD000E1E4CE16EEE7DE0611F00C949529882377
:103DE00009F456C781E00E94AD089ACE96012E5183
:103DF00031092A30310548F0B6E0CB16D10429F05C
:103E0000E7E3CE16D10409F013C79091F8019111A0
:103E10000FC7882311F40C94A8298091EB0181111C
:103E200086C381E08093EB0120E232E04FEF6FEF39
:103E30008BE20E94FE0423E232E04FEF6FEF8BE251
:103E40000E94FE0426E232E040E060E080E00E9452
:103E5000FE0429E232E040E060E080E00E94FE04DF
:103E60002CE232E04FEF6FEF8BE20E94FE042FE274
:103E700032E04FEF6FEF8BE20E94FE0422E332E06C
:103E800040E060E080E00E94FE0425E332E040E094
:103E900060E080E00E94FE0428E332E04FEF6FEF25
:103EA0008BE20E94FE042BE332E04FEF6FEF8BE2D8
:103EB0000E94FE042EE332E040E060E080E00E94D9
:103EC000FE0421E432E040E060E080E00E94FE0475
:103ED00024E432E04FEF6FEF8BE20E94FE0427E410
:103EE00032E04FEF6FEF8BE20E94FE042AE432E0F3
:103EF00040E060E080E00E94FE042DE432E040E01B
:103F000060E080E00E94FE0420E532E04FEF6FEFBA
:103F10008BE20E94FE0423E532E040E060E080E0B6
:103F20000E94FE0426E532E040E060E080E00E946E
:103F3000FE0429E532E04FEF6FEF8BE20E94FE04B2
:103F40002CE532E04FEF6FEF8BE20E94FE042FE58D
:103F500032E040E060E080E00E94FE0422E632E0D1
:103F600040E060E080E00E94FE0425E632E046E9A1
:103F70006EED8DE40E94FE0428E632E046E96EED27
:103F80008DE40E94FE042BE632E040E060E080E039
:103F90000E94FE042EE632E040E060E080E00E94F5
:103FA000FE0421E732E04FEF6FEF8BE20E94FE0448
:103FB00024E732E04FEF6FEF8BE20E94FE0427E729
:103FC00032E040E060E080E00E94FE042AE732E058
:103FD00040E060E080E00E94FE042DE732E04FEF19
:103FE0006FEF8BE20E94FE0420E832E040E060E0E8
:103FF00080E00E94FE0423E832E040E060E080E0E0
:104000000E94FE0426E832E04FEF6FEF8BE20E9441
:10401000FE0429E832E04FEF6FEF8BE20E94FE04CE
:104020002CE832E040E060E080E00E94FE042FE8EF
:1040300032E040E060E080E00E94FE0422E932E0ED
:104040004FEF6FEF8BE20E94FE0425E932E046E974
:104050006EED8DE40E94FE0428E932E046E96EED43
:104060008DE40E94FE042BE932E040E060E080E055
:104070000E94FE042EE932E04FEF6FEF8BE20E94C8
:10408000FE0421EA32E04FEF6FEF8BE20E94FE0464
:1040900024EA32E040E060E080E00E94FE0427EA8B
:1040A00032E040E060E080E00E94FE042AEA32E074
:1040B0004FEF6FEF8BE20E94FE042DEA32E04FEFEC
:1040C0006FEF8BE20E94FE0420EB32E040E060E004
:1040D00080E00E94FE0423EB32E04FEF6FEF8BE2B3
:1040E0000E94FE0426EB32E04FEF6FEF8BE20E945E
:1040F000FE0429EB32E040E060E080E00E94FE0434
:104100002CEB32E040E060E080E00E94FE042FEB08
:1041100032E046E96EED8DE40E94FE0422EC32E0CE
:1041200046E96EED8DE40E94FE0425EC32E046E99E
:104130006EED8DE40E94FE0428EC32E046E96EED5F
:104140008DE40E94FE042BEC32E046E96EED8DE436
:104150000E94FE042EEC32E046E96EED8DE40E94F2
:10416000FE0421ED32E040E060E080E00E94FE04C9
:1041700024ED32E040E060E080E00E94FE0427EDA4
:1041800032E04FEF6FEF8BE20E94FE042AED32E047
:104190004FEF6FEF8BE20E94FE042DED32E040E026
:1041A00060E080E00E94FE0420EE32E04FEF6FEF0F
:1041B0008BE20E94FE0423EE32E04FEF6FEF8BE2C2
:1041C0000E94FE0426EE32E040E060E080E00E94C3
:1041D000FE0429EE32E040E060E080E00E94FE0450
:1041E0002CEE32E04FEF6FEF8BE20E94FE042FEED9
:1041F00032E046E96EED8DE40E94FE0422EF32E0EB
:1042000046E96EED8DE40E94FE0425EF32E046E9BA
:104210006EED8DE40E94FE0428EF32E046E96EED7B
:104220008DE40E94FE042BEF32E046E96EED8DE452
:104230000E94FE042EEF32E046E96EED8DE40E940E
:10424000FE0421E033E040E060E080E00E94FE04F4
:1042500024E033E04FEF6FEF8BE20E94FE0427E093
:1042600033E04FEF6FEF8BE20E94FE042AE033E071
:1042700040E060E080E00E94FE042DE033E040E09A
:1042800060E080E00E94FE0420E133E04FEF6FEF3A
:104290008BE20E94FE0423E133E040E060E080E036
:1042A0000E94FE0426E133E040E060E080E00E94EE
:1042B000FE0429E133E04FEF6FEF8BE20E94FE0432
:1042C0002CE133E04FEF6FEF8BE20E94FE042FE111
:1042D00033E040E060E080E00E94FE0422E233E050
:1042E00040E060E080E00E94FE0425E233E046E921
:1042F0006EED8DE40E94FE0428E233E046E96EEDA7
:104300008DE40E94FE042BE233E040E060E080E0B8
:104310000E94FE042EE233E040E060E080E00E9474
:10432000FE0421E333E04FEF6FEF8BE20E94FE04C7
:1043300024E333E04FEF6FEF8BE20E94FE0427E3AC
:1043400033E040E060E080E00E94FE042AE333E0D6
:1043500040E060E080E00E94FE042DE333E04FEF98
:104360006FEF8BE20E94FE0420E433E040E060E067
:1043700080E00E94FE0423E433E040E060E080E05F
:104380000E94FE0426E433E04FEF6FEF8BE20E94C1
:10439000FE0429E433E04FEF6FEF8BE20E94FE044E
:1043A0002CE433E040E060E080E00E94FE042FE473
:1043B00033E040E060E080E00E94FE0422E533E06C
:1043C0004FEF6FEF8BE20E94FE0425E533E046E9F4
:1043D0006EED8DE40E94FE0428E533E046E96EEDC3
:1043E0008DE40E94FE042BE533E040E060E080E0D5
:1043F0000E94FE042EE533E04FEF6FEF8BE20E9448
:10440000FE0421E633E04FEF6FEF8BE20E94FE04E3
:1044100024E633E040E060E080E00E94FE0427E60E
:1044200033E040E060E080E00E94FE042AE633E0F2
:104430004FEF6FEF8BE20E94FE042DE633E04FEF6B
:104440006FEF8BE20E94FE0420E733E040E060E083
:1044500080E00E94FE0423E733E04FEF6FEF8BE232
:104460000E94FE0426E733E04FEF6FEF8BE20E94DD
:10447000FE0429E733E040E060E080E00E94FE04B3
:104480002CE733E040E060E080E00E94FE042FE78C
:1044900033E04FEF6FEF8BE20E94FE0422E833E03F
:1044A0004FEF6FEF8BE20E94FE0425E833E040E01F
:1044B00060E080E00E94FE0428E833E040E060E035
:1044C00080E00E94FE042BE833E04FEF6FEF8BE2B9
:1044D0000E94FE042EE833E04FEF6FEF8BE20E9464
:1044E000FE0421E933E040E060E080E00E94FE0449
:1044F00024E933E040E060E080E00E94FE0427E928
:1045000033E04FEF6FEF8BE20E94FE042AE933E0C5
:104510004FEF6FEF8BE20E94FE042DE933E040E0A5
:1045200060E080E00E94FE040E945A1248CC109283
:10453000EB0120E232E040E060E080E00E94FE0417
:1045400023E232E040E060E080E00E94FE0426E2E8
:1045500032E04FEF6FEF8BE20E94FE0429E232E07F
:104560004FEF6FEF8BE20E94FE042CE232E040E05E
:1045700060E080E00E94FE042FE232E040E060E074
:1045800080E00E94FE0422E332E04FEF6FEF8BE207
:104590000E94FE0425E332E04FEF6FEF8BE20E94B2
:1045A000FE0428E332E040E060E080E00E94FE0488
:1045B0002BE332E040E060E080E00E94FE042EE366
:1045C00032E04FEF6FEF8BE20E94FE0421E432E015
:1045D0004FEF6FEF8BE20E94FE0424E432E040E0F4
:1045E00060E080E00E94FE0427E432E040E060E00A
:1045F00080E00E94FE042AE432E04FEF6FEF8BE28E
:104600000E94FE042DE432E04FEF6FEF8BE20E9438
:10461000FE0420E532E040E060E080E00E94FE041D
:1046200023E532E04FEF6FEF8BE20E94FE0426E5B8
:1046300032E04FEF6FEF8BE20E94FE0429E532E09B
:1046400040E060E080E00E94FE042CE532E040E0C3
:1046500060E080E00E94FE042FE532E04FEF6FEF54
:104660008BE20E94FE0422E632E04FEF6FEF8BE216
:104670000E94FE0425E632E046E96EED8DE40E94DC
:10468000FE0428E632E046E96EED8DE40E94FE0469
:104690002BE632E04FEF6FEF8BE20E94FE042EE636
:1046A00032E04FEF6FEF8BE20E94FE0421E732E031
:1046B00040E060E080E00E94FE0424E732E040E059
:1046C00060E080E00E94FE0427E732E04FEF6FEFEA
:1046D0008BE20E94FE042AE732E04FEF6FEF8BE29D
:1046E0000E94FE042DE732E040E060E080E00E949E
:1046F000FE0420E832E04FEF6FEF8BE20E94FE04F1
:1047000023E832E04FEF6FEF8BE20E94FE0426E8D1
:1047100032E040E060E080E00E94FE0429E832E000
:1047200040E060E080E00E94FE042CE832E04FEFC1
:104730006FEF8BE20E94FE042FE832E04FEF6FEF45
:104740008BE20E94FE0422E932E040E060E080E07B
:104750000E94FE0425E932E046E96EED8DE40E94F8
:10476000FE0428E932E046E96EED8DE40E94FE0485
:104770002BE932E04FEF6FEF8BE20E94FE042EE94F
:1047800032E040E060E080E00E94FE0421EA32E096
:1047900040E060E080E00E94FE0424EA32E04FEF57
:1047A0006FEF8BE20E94FE0427EA32E04FEF6FEFDB
:1047B0008BE20E94FE042AEA32E040E060E080E002
:1047C0000E94FE042DEA32E040E060E080E00E94BA
:1047D000FE0420EB32E04FEF6FEF8BE20E94FE040D
:1047E00023EB32E040E060E080E00E94FE0426EB34
:1047F00032E040E060E080E00E94FE0429EB32E01D
:104800004FEF6FEF8BE20E94FE042CEB32E04FEF94
:104810006FEF8BE20E94FE042FEB32E046E96EED73
:104820008DE40E94FE0422EC32E046E96EED8DE458
:104830000E94FE0425EC32E046E96EED8DE40E9414
:10484000FE0428EC32E046E96EED8DE40E94FE04A1
:104850002BEC32E046E96EED8DE40E94FE042EEC76
:1048600032E046E96EED8DE40E94FE0421ED32E077
:104870004FEF6FEF8BE20E94FE0424ED32E04FEF2A
:104880006FEF8BE20E94FE0427ED32E040E060E033
:1048900080E00E94FE042AED32E040E060E080E02B
:1048A0000E94FE042DED32E04FEF6FEF8BE20E948D
:1048B000FE0420EE32E040E060E080E00E94FE0472
:1048C00023EE32E040E060E080E00E94FE0426EE4D
:1048D00032E04FEF6FEF8BE20E94FE0429EE32E0F0
:1048E0004FEF6FEF8BE20E94FE042CEE32E040E0CF
:1048F00060E080E00E94FE042FEE32E046E96EEDBB
:104900008DE40E94FE0422EF32E046E96EED8DE474
:104910000E94FE0425EF32E046E96EED8DE40E9430
:10492000FE0428EF32E046E96EED8DE40E94FE04BD
:104930002BEF32E046E96EED8DE40E94FE042EEF8F
:1049400032E046E96EED8DE40E94FE0421E033E0A2
:104950004FEF6FEF8BE20E94FE0424E033E040E073
:1049600060E080E00E94FE0427E033E040E060E089
:1049700080E00E94FE042AE033E04FEF6FEF8BE20D
:104980000E94FE042DE033E04FEF6FEF8BE20E94B8
:10499000FE0420E133E040E060E080E00E94FE049D
:1049A00023E133E04FEF6FEF8BE20E94FE0426E13C
:1049B00033E04FEF6FEF8BE20E94FE0429E133E01A
:1049C00040E060E080E00E94FE042CE133E040E043
:1049D00060E080E00E94FE042FE133E04FEF6FEFD4
:1049E0008BE20E94FE0422E233E04FEF6FEF8BE296
:1049F0000E94FE0425E233E046E96EED8DE40E945C
:104A0000FE0428E233E046E96EED8DE40E94FE04E8
:104A10002BE233E04FEF6FEF8BE20E94FE042EE2B9
:104A200033E04FEF6FEF8BE20E94FE0421E333E0AF
:104A300040E060E080E00E94FE0424E333E040E0D8
:104A400060E080E00E94FE0427E333E04FEF6FEF69
:104A50008BE20E94FE042AE333E04FEF6FEF8BE21C
:104A60000E94FE042DE333E040E060E080E00E941D
:104A7000FE0420E433E04FEF6FEF8BE20E94FE0470
:104A800023E433E04FEF6FEF8BE20E94FE0426E455
:104A900033E040E060E080E00E94FE0429E433E07F
:104AA00040E060E080E00E94FE042CE433E04FEF41
:104AB0006FEF8BE20E94FE042FE433E04FEF6FEFC5
:104AC0008BE20E94FE0422E533E040E060E080E0FB
:104AD0000E94FE0425E533E046E96EED8DE40E9478
:104AE000FE0428E533E046E96EED8DE40E94FE0405
:104AF0002BE533E04FEF6FEF8BE20E94FE042EE5D3
:104B000033E040E060E080E00E94FE0421E633E014
:104B100040E060E080E00E94FE0424E633E04FEFD6
:104B20006FEF8BE20E94FE0427E633E04FEF6FEF5A
:104B30008BE20E94FE042AE633E040E060E080E081
:104B40000E94FE042DE633E040E060E080E00E9439
:104B5000FE0420E733E04FEF6FEF8BE20E94FE048C
:104B600023E733E040E060E080E00E94FE0426E7B7
:104B700033E040E060E080E00E94FE0429E733E09B
:104B80004FEF6FEF8BE20E94FE042CE733E04FEF14
:104B90006FEF8BE20E94FE042FE733E040E060E01D
:104BA00080E00E94FE0422E833E040E060E080E024
:104BB0000E94FE0425E833E04FEF6FEF8BE20E9486
:104BC000FE0428E833E04FEF6FEF8BE20E94FE0413
:104BD0002BE833E040E060E080E00E94FE042EE835
:104BE00033E040E060E080E00E94FE0421E933E031
:104BF0004FEF6FEF8BE20E94FE0424E933E04FEFAA
:104C00006FEF8BE20E94FE0427E933E040E060E0B2
:104C100080E00E94FE042AE933E040E060E080E0AA
:104C20000E94FE042DE933E04FEF6FEF8BE27ACC68
:104C3000FCE2CF16F8E7DF0609F091C3882309F4F8
:104C4000BEC881E08093F8011092EB011092FA0146
:104C50006CC3EBE2CE16E8E7DE0609F0B0C88823A5
:104C600009F463C31092F8011092EB0181E0809384
:104C7000FA015BC3882311F40C94901D61E083E07A
:104C800090E00E949F3681E00E943A080C94901DAB
:104C900081E00E9489080C94901D8091200680FF7D
:104CA0001AC0282F2E7F2093200630912106409194
:104CB000220650912306609124067091250680916A
:104CC0002606909127060E942E1510921B020E9424
:104CD0005A120C94901D81608093200661E08695A5
:104CE0000E946D1C0C94901D47EB5CE161EC7CE133
:104CF0000E94CB040C94901D41EC5CE167EB7CE1DD
:104D0000F7CF46E056E160E176E1F2CF40E156E1CF
:104D100066E076E1EDCF4CEE55E169EF75E1E8CF65
:104D200049EF55E16CEE75E1E3CF42ED55E16FEDF2
:104D300075E1DECF4FED55E162ED75E1D9CF4AE186
:104D400056E164E376E1D4CF44E356E16AE176E1EB
:104D5000CFCF61E081E0C4CF65E082E00E94CC1C4F
:104D60000C94901D68E086E0F9CF6EE089E0F6CF04
:104D700064E18FE0F3CF67E185E1F0CF61E088E1A6
:104D8000AFCF62E289E1EACF61E083E2A9CF6AE2D4
:104D900085E2E4CFB7E7CB16BCE7DB0609F460C0D9
:104DA000E8E7CE16ECE7DE0609F460C0D7011596F9
:104DB0008C9115970D911C91882309F48DC0C80121
:104DC0000E94BD11D82E682FC8010E940408B801A6
:104DD0008D2D0E94AF110E94A1068C01882EF70133
:104DE000A580968092943FE093228091D4018770B1
:104DF000F1F0CA2CAA20E1F0812F807F803451F09D
:104E000080E2800F883098F0911004C0812F807E5E
:104E1000803269F08091F40182FF09C082E00E9433
:104E200096088091D4018770CC24C3948111C12C41
:104E3000B12EB2942FE0B222FBE0FB1508F4B1C012
:104E4000EB2DF0E0EE5BF84C0C94B33581E00E9462
:104E5000AD0843E062E081E00E9469080C94901D77
:104E600081E00E948908F5CF82E0F1CF82E0F9CF9E
:104E70005BE5C5165CE7D50669F16CE5C6166CE71F
:104E8000D606F1F08AE5C8168CE7D80609F08ECF71
:104E900081E01DC0109233060E94C3169FEFA4E369
:104EA000BCE09150A040B040E1F700C000000E947B
:104EB00057046FEF7FEF90E080E00E94BD3622C282
:104EC0008091F40182FB882780F991E089270E9474
:104ED00063166CCF80E0FBCFC8010E94D007D82EAC
:104EE00076CF212F2F70D22E107F19F0D29490EF11
:104EF000D922AA20B9F0DD2069F080E2800F883045
:104F000010F0811009C080913306D82AD092330660
:104F10000E948616802F43C08091DE01D82AD0924D
:104F2000DE01F6CF802F0E94C019DD20D1F1005E96
:104F3000083010F0811004C08D2D0E94BF0706C0FC
:104F4000D0948091DE01D822D092DE010E94861694
:104F500028C0312F3F70D32E107F103219F0D29419
:104F600080EFD822882059F041E0841609F47BC0F4
:104F7000AA2009F487C0992009F449C0CBCF8091B9
:104F8000F40182FD40C0AA20C1F1DD2039F08091FA
:104F90003306D82AD09233060E94861680E00E94FB
:104FA000F5194B2D4850550B4430510510F40E9413
:104FB000BE04CC20B1F08091D40180FD12C0D70195
:104FC00015961C928695869586950E94AD08C70118
:104FD0000E94DC1C8091D4018695869586950E945E
:104FE000890820E0F70140815181628173818481C9
:104FF00095810E941C120C949F1D80E00E94C01994
:10500000DD2079F299CFAA20A1F0911004C08D2D56
:105010000E94B619C6CF51E09512C3CF8091DD0131
:105020009D2D9823D91609F4BCCFD82AD092DD0142
:10503000B8CF9110B6CF8D2D0E94AF199091DD01A0
:105040008D2D892329F08D2D809589238093DD0175
:105050008091C3019D2D982309F4A3CFD094D82229
:10506000D092C3019ECFAA2029F065E0691508F40B
:1050700098CFCDCF84E0891508F493CF8D2D0E9471
:10508000AF198FCF9920D1F399E3891209C0AFEFFF
:10509000B7EEE3E0A150B040E040E1F700C000000F
:1050A000802F0E94C0197DCF812F869586958370B1
:1050B00061F0813009F075CFC8019370A11002C072
:1050C00080E090E00E9474046CCFC8019370A1103E
:1050D00002C080E090E00E94990463CF812F83702A
:1050E00089F5A1105ECF402F429546954770440F39
:1050F000440F802F8F70042E01C0880F0A94EAF7A6
:10510000202F207104FF07C02FE030E001C0220FE4
:105110004A95EAF72095169516951370123069F0A6
:1051200050F43091DF01113029F0822B83230E944B
:105130003A0837CF832B822BFACF282B8091DF01BF
:105140008227F5CF8695AA2011F0812F81708823C0
:1051500009F427CF402F429546954770440F440FDE
:10516000802F8F70042E01C0880F0A94EAF7202F39
:10517000207104FF07C02FE030E001C0220F4A95E4
:10518000EAF72095169516951370123069F050F4D1
:105190003091F201113029F0822B83230E946408A0
:1051A00000CF832B822BFACF282B8091F20182270C
:1051B000F5CF1F70AA2029F0812F0E94AD08802F03
:1051C00027CF802F0E94AF19812F0E948908E9CE36
:1051D000802FF2EF8F16B1F1F81570F020EF8216E4
:1051E000D1F031EF831691F0AA2009F45CC0911040
:1051F00091CE812F8F712AC043EF841651F154EF65
:105200008512F2CF8091F40182FD2FC0812F8F7122
:10521000AA20D9F21BC0AA2081F064E0691508F425
:10522000C0CE1F7181E090E0012E01C0880F0A946A
:10523000EAF79091F2018927B1CF85E0891508F44A
:10524000B0CEEFCF812F8F71A110BFCF0E94AD08DC
:10525000A8CE80E0AA2009F4A1CF1F7181E0012E21
:1052600001C0880F0A94EAF799CFAA2089F01F712C
:10527000812F0E94AD088091F40182FF07C0A8E051
:105280001A9FC001112483608093D401812FDECF47
:1052900081E00E949608B1E0B91508F082CE82E064
:1052A0000E9496087ECE992059F0893309F0F8CEF5
:1052B000EFEFF7EE23E0E150F0402040E1F7EECED3
:1052C000812F8F7182CFF7E7CF16FCE7DF0609F455
:1052D000BDCD28E7C2162CE7D20609F4C5CDF3E010
:1052E000CF16FCE7DF0609F4E4CD08F0C1CDC11408
:1052F0003CE7D30609F4CECD41E0C4164CE7D40612
:1053000009F054CD0E94971933E7C316D10411F068
:105310000C94321E81E08093F8018093F901109281
:10532000FA011092C2011092EB01D70115968C91EF
:105330008111C9CF809133068272F601E052F8479D
:10534000E531F10508F026CDE25BF84C0C94B3355D
:105350004CE2C41648E7D40611F40C94DF1E2DE28B
:10536000C21628E7D20609F469CC3EE2C31638E734
:10537000D30609F463CC4FE2C41648E7D40609F417
:105380005DCC50E3C51658E7D50609F457CC61E368
:10539000C61668E7D60609F451CC92E3C91698E719
:1053A000D90609F44BCCA3E3CA16A8E7DA0609F438
:1053B00045CCB4E3CB16B8E7DB0609F04ACC811143
:1053C00040CCB3CFCF93DF938091D301807F09F09E
:1053D0004DC08091D201882309F448C0E091830632
:1053E00050914A06C091CE01D091CD016091CF017C
:1053F0007091D00147E05E17C9F18E2F90E0E49FD5
:10540000F0011124E55BF94F2481222391F1489F9B
:10541000F001499FF00D1124DF01A55BB94F1196F2
:105420002C9111972C1325C02C912D1322C0159669
:105430002C91159721111DC012962D913C91261B80
:10544000370B283C3105A8F48091D3018F7080611F
:105450008093D301EF5AF94F80818F7080618083F0
:105460008DEC91E00E94DC1C0E94C607DF91CF9179
:105470000895FC013196E770BECFA4E1B0E0E3E40B
:10548000FAE20C9462358C0186E0F801DE011F9689
:1054900001900D928A95E1F7F8018481E5809DECF9
:1054A000A92E91E0B92E9091D101911128C08823A5
:1054B00019F1EE20F1F0C8010E94F911F82E8823AD
:1054C000C1F087E0F801D50101900D928A95E1F7CE
:1054D0008091D101813031F48091CD019091CE0144
:1054E0000E94EC110E94E2298F2D6496ECE00C944E
:1054F0007E35C8010E94DC1CFF24F394F5CFD080D8
:10550000C18082809380F090D2012091CF013091B0
:10551000D001A401421B530BFF2009F4D9C0483C21
:10552000510508F092C08823F9F29091CE01809144
:10553000D301282F207F09F056C0C91214C09091C2
:10554000CD01D91210C0E11048C08F7080618093E6
:10555000D3018DEC91E00E94DC1C8091D301F80115
:105560008683F12CC1CFE11038C06C2D8D2D0E94A7
:10557000D9026C2D8D2D0E94D902E82E8111F1CF18
:10558000DF86C88A8F8598890E94EC11292F229581
:105590002F70243058F49F70223088F0992399F0AE
:1055A000F8019681907F79F4FE2C9ECF2A5F2F70B0
:1055B000223068F0C8010E94DC1CEF2CF5CF992343
:1055C00011F0882389F3805E883070F3F3CF803F39
:1055D00058F3815F833070F7E7CF8091D30181600A
:1055E0008093D301BECFC91207C09091CD01D912CB
:1055F00003C0EE2009F48DC0C8010E94F911882370
:1056000009F477CFEE2009F474CF8091D301803272
:1056100088F02091CD013091CE01398728879B8673
:105620008A869091D1019C871D868E87CE0108962F
:105630000E94DC1C87E0F801ADECB1E001900D9216
:105640008A95E1F70E94E22957CF9091D301292F43
:10565000207F51F48DEC91E00E94DC1C87E0F50185
:1056600011928A95E9F77DCF882309F43DCF809187
:10567000CE018C1110C08091CD01D8120CC0E11068
:105680000AC09683C8010E94DC1C87E0F5011192D4
:105690008A95E9F729CFC8010E94F911882309F4F6
:1056A00028CFEE2009F425CF8091D301803210F26B
:1056B0002091CD013091CE013A8329839C828B8247
:1056C0009091D1019D831E828F83CE010196B0CF30
:1056D000483C5105D0F6882309F40ECFFE2CEE206D
:1056E00009F407CF8091CE018C1120C08091CD01AB
:1056F000D8121CC08091D30180FD0FC0982F907FDD
:1057000061F08683903F31F0982F907F905F8F708B
:10571000892B8683C8010E94DC1C87E0F801ADEC70
:10572000B1E001900D928A95E1F7DECEC8010E94AA
:10573000F91181117FCF8091D30181608093D301D2
:10574000C8010E94DC1CD0CEABE1B0E0EAEAFBE28B
:105750000C946A354E8B5F8B688F798F8A8F9B8F05
:10576000192F91111092DE011D8A86E0FE017696B6
:10577000DE011F9601900D928A95E1F70A8D0023B4
:1057800041F021E04F85588969897A89C8010E94D2
:105790001C120B8B1C8B87E0FE013F96DE011896D6
:1057A00001900D928A95E1F7CE0108960E943D2A5C
:1057B00081110CC087E0FE013896DE011196019040
:1057C0000D928A95E1F78C8581110BC017E08091CD
:1057D000830690914A06891333C06B96E4E00C94DB
:1057E000863520914A0630E0C901019687709927D5
:1057F000409183064817190699F097E0929FD001CF
:10580000939FB00D1124A55BB94FFE013196019015
:105810000D929A95E1F780934A060E94C607D6CF6B
:10582000109233060E94C31610924A061092830605
:1058300087E0EDECF1E0DF011D928A95E9F7C6CF34
:10584000819FC0011124855B994F0E943D2A8823C6
:1058500021F28091830690E00196877099278093CA
:105860008306B5CFADE0B0E0E8E3FCE20C94603530
:105870008E01085F1F4F86E0F80111928A95E9F7C3
:10588000A4E5CA2EA1E0DA2EF12CE12CAA24A394DF
:10589000B12C8EE5882E81E0982EF60181916F0162
:1058A0008F3F09F442C0F894E82FE295EF70F0E0E2
:1058B00021A18F70A50102C0440F551F8A95E2F700
:1058C000CA01922F982B91A392A18095892382A33C
:1058D000789400C0EAE5F1E0712C31E021912F3F8E
:1058E00009F466C0A22FA295AF70B0E090968C919B
:1058F00090E02F7002C0959587952A95E2F780FD7C
:1059000057C0832F782A330F8E169F0639F7F6017A
:10591000319780818F3F11F00E94990550EA5A9586
:10592000F1F7F801EE0DFF1D70828FEFE81AF80A0B
:10593000E6E0EE16F10409F0B0CF46E050E0B80121
:105940008CEE91E00E946E36892BA1F186E0F80181
:10595000ACEEB1E001900D928A95E1F781E0809381
:10596000E4010E94611C9093E3018093E201809125
:10597000E2019091E3010E94521C0597F8F046E085
:1059800050E06CEE71E08DE092E00E946E36C12C2A
:10599000892B59F086E0ECEEF1E0ADE0B2E0019049
:1059A0000D928A95E1F7CC24C3941092E40107C0CC
:1059B00080E0A8CF8091E4018111D9CFC12C0E9451
:1059C00068042091FA01222309F4DBC02091F6013A
:1059D0003091F701AB01421B530B9A0121343F4137
:1059E00008F4CFC07093F7016093F6011092EB01B9
:1059F00008EC10E027E030E0AE014F5F5F4F60E061
:105A000080ED0E94FB340E9444358981282F30E0CC
:105A100094E0359527959A95E1F7922F97702AE0B3
:105A20008F70929F800D11248093E5013A81832F1E
:105A300090E044E0959587954A95E1F787703F702F
:105A4000F32E829FF00C1124F092E6013B81832F0C
:105A500090E054E0959587955A95E1F783703F70F3
:105A6000E32E829FE00C1124E092E7018D81482F04
:105A700050E064E0559547956A95E1F747708F705F
:105A8000429F800D11248093E8018E81482F50E0C1
:105A900074E0559547957A95E1F743708F70429F72
:105AA000800D11248093E9018F81482F50E0E4E0BC
:105AB00055954795EA95E1F743708F70429F800DA9
:105AC00011248093EA018E2D622F0E949335982E27
:105AD00036EF0E2D839F000D11248F2D0E949335DC
