:100000000C94AD020C94F4020C94F4020C94F402DF
:100010000C94F4020C94F4020C94F4020C94F40288
:100020000C94F4020C94F4020C94F9180C94B51886
:100030000C94392E0C94F4020C94F4020C94F402F7
:100040000C94F4020C94F4020C94F4020C94F40258
:100050000C94F4020C94D2190C94F4020C94F40253
:100060000C94F4020C94F4020C94F4020C94F40238
:100070000C94F4020C94F4020C94F4020C94F40228
:100080000C94F4020C94F4020C94F4020C94F40218
:100090000C94F4020C94F4020C94F4020C94F40208
:1000A0000C94F4020C94F4020C94F40205010980FF
:1000B000A101850319012AB700150126B700950192
:1000C00075108100C0050C0901A101850419012AE0
:1000D000A002150126A002950175108100C00660DE
:1000E000FF0961A1010962150026FF00952075082E
:1000F00081020963150026FF00952075089102C052
:1001000005010906A101050719E029E715002501E8
:10011000950875018102950175088101050719008F
:1001200029FF150026FF00950675088100050819AE
:10013000012905950575019102950175039101C08D
:1001400000000000000000000000000000000000AF
:10015000000000000000000000000000000000009F
:10016000000000007E0F00D4FFFFFFC700000078F2
:1001700000000000000000002A2B28000000000002
:100180000000000000000000000000290000000046
:100190002C1E3420212224342627252E362D3738B4
:1001A000271E1F202122232425263333362E3738BD
:1001B0001F0405060708090A0B0C0D0E0F1011127B
:1001C000131415161718191A1B1C1D2F3130232D47
:1001D000350405060708090A0B0C0D0E0F10111245
:1001E000131415161718191A1B1C1D2F3130354CF6
:1001F0001E0F057F3F1F643214643214783C1E1EAC
:10020000140A0500010101010101010101020202BC
:1002100002020202020203030303030303030404B2
:10022000040404040405050505050606060606077C
:100230000707070708080808090909090A0A0A0B35
:100240000B0B0C0C0C0D0D0D0E0E0E0F0F0F1010D6
:10025000111111121213131414151516161717185D
:100260001819191A1A1B1B1C1D1D1E1E1F202021C8
:100270002222232424252626272829292A2B2C2D0F
:100280002D2E2F30313232333435363738393A3B30
:100290003C3D3E3F404142434445464748494A4C25
:1002A0004D4E4F50515354555658595A5B5D5E5FF1
:1002B000616264656668696B6C6D6F707273757787
:1002C000787A7B7D7E8082838587888A8C8E8F91E9
:1002D000939596989A9C9EA0A2A3A5A7A9ABADAF13
:1002E000B1B3B5B7BABCBEC0C2C4C6C9CBCDCFD1FD
:1002F000D4D6D8DBDDDFE2E4E7E9EBEEF0F3F5F8A6
:10030000FAFDFFFFAA7F55402223252628292A2C03
:100310002D2F3032333536383A3B3D3E404243454F
:1003200047494A4C4E5051535557595A5C5E60628A
:10033000646668696B6D6F71737577797B7D7F819A
:10034000838587898A8C8E90929496989A9C9E9F9A
:10035000A1A3A5A7A8AAACAEAFB1B3B4B6B8B9BBB8
:10036000BCBEBFC1C2C3C5C6C7C9CACBCCCDCED027
:10037000D1D2D2D3D4D5D6D7D7D8D9D9DADADBDB14
:10038000DBDCDCDCDCDCDDDDDDDDDCDCDCDCDCDBAB
:10039000DBDBDADAD9D9D8D7D7D6D5D4D3D2D2D1F4
:1003A000D0CECDCCCBCAC9C7C6C5C3C2C1BFBEBCE7
:1003B000BBB9B8B6B4B3B1AFAEACAAA8A7A5A3A158
:1003C0009F9E9C9A98969492908E8C8A898785831A
:1003D000817F7D7B79777573716F6D6B69686664FA
:1003E00062605E5C5A5957555351504E4C4A4947CA
:1003F000454342403E3D3B3A3836353332302F2D6F
:100400002C2A292826252322AB005D5DCD5CAE0079
:100410002400250026002A4121002200230000009C
:100420001E001F00200028002700370000000000E9
:10043000CA5CC95CAA00A9007300540055005600AC
:100440004A0052004B005700500051004F0000007E
:100450004D0000004E00280000004C00000000008D
:10046000000000000000000000000000000000008C
:10047000000000000000000000000000000000007C
:10048000000000000000000000000000000000006C
:10049000000000000000000000000000000000005C
:1004A000000000000000000000000000000000004C
:1004B000000000000000000000000000000000003C
:1004C000000000000000000009025B00030100A022
:1004D000FA090400000103010100092111010001D2
:1004E0002240000705810308000A090401000203F5
:1004F00000000009211101000122220007058203EA
:100500002000010705030320000109040200010384
:1005100000000009211101000122320007058403B7
:1005200020000A1201000200000008EDFE268A01E8
:1005300000010200010E036E006F00770070006181
:1005400000640000000E0355004E005200450041BB
:10055000004C000000040309040011241FBECFEF6B
:10056000DAE0DEBFCDBF04B603FE27C080917F0670
:1005700090918006A0918106B09182068730904BC1
:10058000A740B04BD1F410927F06109280061092D3
:1005900081061092820614BE84B7877F84BF0FB68F
:1005A000F894A89580916000886180936000109213
:1005B00060000FBEE0E0F8E3099526E0ACEBB1E0A7
:1005C00001C01D92AF37B207E1F711E0A0E0B1E042
:1005D000E6E0FEE602C005900D92AC3BB107D9F70C
:1005E0000E94602E0C94CA360C940000E8EDF0E0F6
:1005F00080818E7F80831092E2001092DA00109248
:10060000E100A0EEB0E08C9181608C9380818F77C7
:10061000808319BCA7EDB0E08C918E7F8C93808194
:100620008F7E80831092670608952091E4003091B8
:10063000E50095E6A9012091EC00822F817020FF52
:1006400006C08091E80080FF06C080E008952091F8
:10065000E80022FD1AC080917406882389F0853055
:1006600089F08091EB0085FD0FC02091E40030916E
:10067000E50042175307F9F29150E1F684E008953E
:1006800082E0089583E0089581E00895EF92FF925B
:100690000F931F93CF937C018B010E941503C82FEA
:1006A000811117C08091E80085FD0BC08091E800A2
:1006B0008E778093E8000E941503882399F3C82F52
:1006C00008C0F70181917F018093F1000150110969
:1006D00049F78C2FCF911F910F91FF90EF900895C4
:1006E0008091760687FF13C08091E80082FF06C0E4
:1006F0008091E8008B778093E80004C080917406B5
:100700008111F2CF0895809174068823D9F38091E6
:10071000E80080FFF8CF8091E8008E77ECCF982F2B
:100720009093E900242F762F50E0891731F07091D3
:10073000EC002091ED005091F00021FD07C09F5F7B
:10074000973071F78093E90081E008953091EB00D4
:100750003E7F3093EB003091ED003D7F3093ED0014
:100760003091EB0031603093EB007093EC002093FC
:10077000ED005093F0002091EE0027FDE0CF80E0E7
:100780000895CF92DF92EF92FF920F931F93CF9332
:10079000DF93C8EDD0E088818F7E8883E7EDF0E0BD
:1007A00080818160808384E082BF81E080936706DE
:1007B00088818E7F888302EE10E0F801108210920B
:1007C000DA0081EEC82ED12CF601108288818F7755
:1007D000888388818068888388818F7D888319BC1D
:1007E000109274061092750610927306109272069B
:1007F00090EEE92EF12CF70180818B7F8083888138
:100800008160888342E060E080E00E948F03F6010F
:1008100080818E7F8083F8018081816080838081E8
:1008200088608083F70180818E7F808388818061EA
:100830008883DF91CF911F910F91FF90EF90DF9010
:10084000CF900895FC0180917C0690917D068617DB
:100850009707A0F06115710529F49091E8009E7743
:100860009093E80090E06115710551F4911108C072
:100870008091E80082FF34C080E00895BC01F2CF8F
:10088000809174068823C1F18530C1F18091E80020
:1008900083FD30C08091E80082FDEACF8091E800BE
:1008A00080FFE1CF8091F3002091F200382F611595
:1008B000710519F02830310558F091E028303105E4
:1008C00009F090E02091E8002E772093E800CBCF4C
:1008D00081918093F100615071092F5F3F4FE7CF05
:1008E00080917406882341F0853041F08091E800C2
:1008F00083FFBECF81E0089582E0089583E00895EC
:1009000008950895089580916906089587E797E707
:10091000909301088093000888E19AE00FB6F8945C
:10092000A895809360000FBE90936000FFCF2FB713
:10093000F8946091600670916106809162069091D2
:1009400063062FBF089520915D0630915E0628173B
:10095000390771F090935E0680935D06E0915B0627
:10096000F0915C06309721F00084F185E02D099428
:1009700008952091590630915A062817390771F0C9
:1009800090935A0680935906E0915B06F0915C06BD
:10099000309721F00680F781E02D09940895E091C9
:1009A0005B06F0915C06309721F00190F081E02D1C
:1009B000099480E00895FA01811101C0FB010994B6
:1009C00080915406982F9E7F61F48170826080939D
:1009D0005406809157068F3618F08EE6809357069E
:1009E00008958235B0F381708065F1CFAF92BF92E8
:1009F000DF92EF92FF920F931F93CF93DF93182F05
:100A0000062FE9014F3608F04EE6E42FF0E0ED5FE7
:100A1000FD4F011110C0E4915E2F4E2F4983E883F2
:100A20005A83DF91CF911F910F91FF90EF90DF904C
:100A3000BF90AF900895202F30E04491D42EE42E43
:100A4000F12C56E0159FC0011124EFEFF0E0BF013B
:100A50000E946835812F90E0880F991F55E5569FB9
:100A6000D001579FB00D11248A1B9B0B982F990F13
:100A7000890F5F01A21AB30AAE9CD001AF9CB00DE2
:100A8000BE9CB00D11245B2F089F80011124012F03
:100A900011275F01A01AB10AAE9C8001AF9C100D16
:100AA000BE9C100D11245F01A81AB108A29EC001BE
:100AB000A39E900DB29E900D1124892F9927E81BBB
:100AC000F90BEE9DC001EF9D900DFE9D900D112440
:100AD000E92F62307105A1F050F46115710509F438
:100AE0009DCF6130710581F0EB2F512F97CF64308E
:100AF000710569F080F06630710509F48FCFF4CF8D
:100B0000E42F4B2F592F8ACFE42F412F87CFEB2F84
:100B1000542F492F83CF4B2F5D2DE12F7FCF80E0C6
:100B20000895F894E82FE295EF70F0E031A1282FB6
:100B30002F7081E090E001C0880F2A95EAF7982F86
:100B40009095932391A392A1892B82A378940895E1
:100B50009091220292FF06C0282F28712830F9F4C4
:100B6000877F846093FF06C0282F28712831F1F415
:100B7000877E84612091230220FF06C0382F3871C0
:100B80003830D9F4877F816021FF06C0282F287173
:100B90002831D1F4877E816194FD877E0895282FC6
:100BA00024712430F9F68B7F8860DCCF282F2471E4
:100BB000243101F78B7E8861DDCF382F31713130E0
:100BC00019F78E7F8860E0CF282F2171213121F71E
:100BD0008E7E8861E1CFCF93DF93EC01823891055F
:100BE00081F1B0F58133910509F491C020F5893286
:100BF000910509F485C08A9709F490C0C11521E5D3
:100C0000D20708F0AAC0C11530E5D30708F0F2C03A
:100C1000CF3BD10508F089C0C83AD10508F0DFC044
:100C2000C53AD10508F0D3C0C430D105F8F4C130BD
:100C3000D105E1F040C08533910509F45AC0C99748
:100C4000E9F680912202837089F0C0EED0E00EC0F8
:100C5000833E910599F170F4803E910501F1823E49
:100C6000910561F68091220282FD21C0CE01DF91C3
:100C7000CF910895863E910561F1873E910571F10E
:100C8000843E910509F0BACF8091230281FFEECF17
:100C900080912202C7EED0E084FD0DC0E7CF8091A5
:100CA000220280FDF7C09091230290FFDFCFC3EEB8
:100CB000D0E084FFDBCFD0E0C0E0D8CF809122022B
:100CC00082FDEBC09091230290FDBFCF84FFCECF79
:100CD000F2CF8091220283FDDDCFC8CF8091220226
:100CE00083FDDEC09091230291FFF0CFC4EED0E0EF
:100CF000BDCF8091220285FFB9CFC9E2D0E0B6CF47
:100D00008091220285FFB2CFC5E3D0E0AFCF8091C2
:100D1000220286FFABCFCAE2D0E0A8CF80912202A8
:100D200086FFA4CFC1E3D0E0A1CFC11540E2D40734
:100D300060F4C11581E0D80708F098CFCE01815E3C
:100D40009109079708F492CFB6CFC11590E4D9075F
:100D500008F4B1CFDF70D06A89CFC11524E5D2077E
:100D600078F4C11533E5D30708F072C0C11542E528
:100D7000D40708F05CC0DC2FCC27C16FD06A76CFD7
:100D8000C1158AE5D80778F4C11599E5D90708F0A7
:100D900073C0C11528E5D20708F48DCFDC2FCC270E
:100DA000C06FD06A63CFCE0190568115904208F093
:100DB00082CF8D2F8F710E94A80590E0982F8827F1
:100DC00088279F719C012C2BE901D0624FCFC55A17
:100DD000D0E0CE5CDE4FC881D0E0D06447CFC85AA7
:100DE000D0E0CC0FDD1FCB5CDE4F0990D881C02D49
:100DF000D4643CCFCE0164E0969587956A95E1F77F
:100E000083702C2F26952695237040E2249F900115
:100E10001124382B8C2F8370C1E0D0E002C0CC0F9E
:100E2000DD1F8A95E2F7C22BD32BDC681FCFCE01E2
:100E30008370992721E030E002C0220F331F8A958A
:100E4000E2F7C695C69580E2C89FE0011124EBCF7A
:100E5000CE018370992721E030E002C0220F331FBA
:100E60008A95E2F7C695C69590E2C99FE0011124E4
:100E7000C22BD32BDA68FACE8C2F8F700E94A80574
:100E800034E0D695C7953A95E1F7CF709C2FEC01E9
:100E9000D069ECCEC9E3D0E0E9CEC2EED0E0E6CE38
:100EA000C6EED0E0E3CE8091160290911502892B18
:100EB00090911402892B8093BE01E0915B06F09122
:100EC0005C06309731F00280F381E02D8EEB91E0EB
:100ED00009940895809113029091E201981301C042
:100EE00008958F5F8770FACF990F990F890F982F08
:100EF000977086958695869523E0829FF001112450
:100F0000ED52FE4F50E040E080E0219130E0092EAC
:100F100002C0369527950A94E2F721703327042EF4
:100F200001C0220F0A94EAF7822B4F5F5F4F4330D4
:100F3000510559F70895990F990F890F982F9770B8
:100F400041E001C0440F9A95EAF78695869586950B
:100F500093E0899FF0011124ED52FE4F30E020E034
:100F600070E05191DF011197CB01022E02C09695DE
:100F700087950A94E2F781708195852784238527D8
:100F80008C932F5F3F4F2330310559F7089590E040
:100F900080E00E94B90490E080E00E94A3041092D7
:100FA0001502109214020C945307809317020C94AC
:100FB000C707882341F0809590911602892380937A
:100FC00016020C9453070895882339F09091160265
:100FD000982B909316020C94530708958823B1F12F
:100FE0009CEF980F913A70F4E0ECF1E09191891345
:100FF00003C0DF0111971C9241E0E63CF407B1F712
:101000000C94530790E2980F983088F4877021E091
:1010100030E0A90102C0440F551F8A95E2F7CA01CA
:10102000809590911602892380931602E9CF9BE563
:10103000980F933020F490E080E00C94B904885A23
:10104000873120F490E080E00C94A30408950F937E
:101050001F93CF93C82F882309F469C08CEF8C0F9E
:10106000813AB0F500EC11E086EC91E0F8012191B5
:10107000C21701F121E0E63CF207C9F7EFEF80E08B
:10108000D8019D918D01C91781F0EF3F19F491119D
:1010900001C0E82F8F5F863099F7EF3F31F00E2EB9
:1010A000000CFF0BE254FE4FC283CF911F910F91B2
:1010B0000C945307E0ECF1E02191C21303C0DF016F
:1010C00011971C928E179F07B9F70E945307D6CF2E
:1010D00080E28C0F883068F4C77021E030E001C0F6
:1010E000220FCA95EAF780911602822B809316028E
:1010F000DCCFEBE5EC0FE33050F4F0E0EE5CFE4FBC
:10110000808190E0CF911F910F910C94B904C85A3F
:10111000C73168F4EC2FF0E0EE0FFF1FEB5CFE4FE1
:1011200080819181CF911F910F910C94A304CF9155
:101130001F910F910895CF93DF9393E0899FE00172
:1011400011249E012C5A3D4F40E060E080E00E9457
:10115000F6049E01295A3D4F40E060E080E00E9485
:10116000F6049E01265A3D4F40E060E080E00E9478
:10117000F6049E012C573D4F4FEF6FEF85E50E941F
:10118000F6049E0129573D4F4FEF6FEF85E50E9412
:10119000F6049E0126573D4F4FEF6FEF85E50E9405
:1011A000F6049E012C543D4F4FEF6FEF85E50E94F2
:1011B000F6049E0129543D4F40E060E080E00E942B
:1011C000F6049E0126543D4F4FEF6FEF85E50E94D8
:1011D000F6049E012C513D4F4FEF6FEF85E50E94C5
:1011E000F6049E0129513D4F4FEF6FEF85E50E94B8
:1011F000F6049E0126513D4F4FEF6FEF85E50E94AB
:10120000F6049E012C5E3C4F40E060E080E00E94CE
:10121000F6049E01295E3C4F40E060E080E00E94C1
:10122000F6049E01265E3C4F4FEF6FEF85E50E946E
:10123000F6049E012C5B3C4F40E060E080E00E94A1
:10124000F6049E01295B3C4F40E060E080E00E9494
:10125000F6049E01265B3C4F4FEF6FEF85E50E9441
:10126000F6049E012C583C4F40E060E080E00E9474
:10127000F6049E0129583C4F40E060E080E00E9467
:10128000F6049E0126583C4F4FEF6FEF85E50E9414
:10129000F6049E012C553C4F40E060E080E00E9447
:1012A000F6049E0129553C4F40E060E080E00E943A
:1012B000F6049E0126553C4F40E060E080E0DF915F
:1012C000CF910C94F604CF93DF9393E0899FE001D4
:1012D00011249E012C5A3D4F40E060E080E00E94C6
:1012E000F6049E01295A3D4F40E060E080E00E94F4
:1012F000F6049E01265A3D4F40E060E080E00E94E7
:10130000F6049E012C573D4F40E060E080E00E94D3
:10131000F6049E0129573D4F4FEF6FEF85E50E9480
:10132000F6049E0126573D4F40E060E080E00E94B9
:10133000F6049E012C543D4F4FEF6FEF85E50E9460
:10134000F6049E0129543D4F40E060E080E00E9499
:10135000F6049E0126543D4F4FEF6FEF85E50E9446
:10136000F6049E012C513D4F40E060E080E00E9479
:10137000F6049E0129513D4F4FEF6FEF85E50E9426
:10138000F6049E0126513D4F40E060E080E00E945F
:10139000F6049E012C5E3C4F4FEF6FEF85E50E94F7
:1013A000F6049E01295E3C4F40E060E080E00E9430
:1013B000F6049E01265E3C4F4FEF6FEF85E50E94DD
:1013C000F6049E012C5B3C4F4FEF6FEF85E50E94CA
:1013D000F6049E01295B3C4F40E060E080E00E9403
:1013E000F6049E01265B3C4F4FEF6FEF85E50E94B0
:1013F000F6049E012C583C4F40E060E080E00E94E3
:10140000F6049E0129583C4F4FEF6FEF85E50E948F
:10141000F6049E0126583C4F40E060E080E00E94C8
:10142000F6049E012C553C4F40E060E080E00E94B5
:10143000F6049E0129553C4F40E060E080E00E94A8
:10144000F6049E0126553C4F40E060E080E0DF91CD
:10145000CF910C94F604CF93DF9393E0899FE00142
:1014600011249E012C5A3D4F40E060E080E00E9434
:10147000F6049E01295A3D4F40E060E080E00E9462
:10148000F6049E01265A3D4F40E060E080E00E9455
:10149000F6049E012C573D4F4FEF6FEF85E50E94FC
:1014A000F6049E0129573D4F4FEF6FEF85E50E94EF
:1014B000F6049E0126573D4F4FEF6FEF85E50E94E2
:1014C000F6049E012C543D4F40E060E080E00E9415
:1014D000F6049E0129543D4F40E060E080E00E9408
:1014E000F6049E0126543D4F4FEF6FEF85E50E94B5
:1014F000F6049E012C513D4F40E060E080E00E94E8
:10150000F6049E0129513D4F40E060E080E00E94DA
:10151000F6049E0126513D4F4FEF6FEF85E50E9487
:10152000F6049E012C5E3C4F40E060E080E00E94AB
:10153000F6049E01295E3C4F4FEF6FEF85E50E9458
:10154000F6049E01265E3C4F40E060E080E00E9491
:10155000F6049E012C5B3C4F40E060E080E00E947E
:10156000F6049E01295B3C4F4FEF6FEF85E50E942B
:10157000F6049E01265B3C4F40E060E080E00E9464
:10158000F6049E012C583C4F40E060E080E00E9451
:10159000F6049E0129583C4F4FEF6FEF85E50E94FE
:1015A000F6049E0126583C4F40E060E080E00E9437
:1015B000F6049E012C553C4F40E060E080E00E9424
:1015C000F6049E0129553C4F40E060E080E00E9417
:1015D000F6049E0126553C4F40E060E080E0DF913C
:1015E000CF910C94F604CF93DF9393E0899FE001B1
:1015F00011249E012C5A3D4F40E060E080E00E94A3
:10160000F6049E01295A3D4F40E060E080E00E94D0
:10161000F6049E01265A3D4F40E060E080E00E94C3
:10162000F6049E012C573D4F40E060E080E00E94B0
:10163000F6049E0129573D4F4FEF6FEF85E50E945D
:10164000F6049E0126573D4F4FEF6FEF85E50E9450
:10165000F6049E012C543D4F4FEF6FEF85E50E943D
:10166000F6049E0129543D4F40E060E080E00E9476
:10167000F6049E0126543D4F40E060E080E00E9469
:10168000F6049E012C513D4F4FEF6FEF85E50E9410
:10169000F6049E0129513D4F4FEF6FEF85E50E9403
:1016A000F6049E0126513D4F40E060E080E00E943C
:1016B000F6049E012C5E3C4F4FEF6FEF85E50E94D4
:1016C000F6049E01295E3C4F40E060E080E00E940D
:1016D000F6049E01265E3C4F4FEF6FEF85E50E94BA
:1016E000F6049E012C5B3C4F4FEF6FEF85E50E94A7
:1016F000F6049E01295B3C4F40E060E080E00E94E0
:10170000F6049E01265B3C4F4FEF6FEF85E50E948C
:10171000F6049E012C583C4F40E060E080E00E94BF
:10172000F6049E0129583C4F4FEF6FEF85E50E946C
:10173000F6049E0126583C4F40E060E080E00E94A5
:10174000F6049E012C553C4F40E060E080E00E9492
:10175000F6049E0129553C4F40E060E080E00E9485
:10176000F6049E0126553C4F40E060E080E0DF91AA
:10177000CF910C94F604CF93DF9393E0899FE0011F
:1017800011249E012C5A3D4F40E060E080E00E9411
:10179000F6049E01295A3D4F40E060E080E00E943F
:1017A000F6049E01265A3D4F40E060E080E00E9432
:1017B000F6049E012C573D4F4FEF6FEF85E50E94D9
:1017C000F6049E0129573D4F4FEF6FEF85E50E94CC
:1017D000F6049E0126573D4F4FEF6FEF85E50E94BF
:1017E000F6049E012C543D4F4FEF6FEF85E50E94AC
:1017F000F6049E0129543D4F40E060E080E00E94E5
:10180000F6049E0126543D4F40E060E080E00E94D7
:10181000F6049E012C513D4F4FEF6FEF85E50E947E
:10182000F6049E0129513D4F4FEF6FEF85E50E9471
:10183000F6049E0126513D4F40E060E080E00E94AA
:10184000F6049E012C5E3C4F40E060E080E00E9488
:10185000F6049E01295E3C4F40E060E080E00E947B
:10186000F6049E01265E3C4F4FEF6FEF85E50E9428
:10187000F6049E012C5B3C4F40E060E080E00E945B
:10188000F6049E01295B3C4F40E060E080E00E944E
:10189000F6049E01265B3C4F4FEF6FEF85E50E94FB
:1018A000F6049E012C583C4F4FEF6FEF85E50E94E8
:1018B000F6049E0129583C4F4FEF6FEF85E50E94DB
:1018C000F6049E0126583C4F40E060E080E00E9414
:1018D000F6049E012C553C4F40E060E080E00E9401
:1018E000F6049E0129553C4F40E060E080E00E94F4
:1018F000F6049E0126553C4F40E060E080E0DF9119
:10190000CF910C94F604CF93DF9393E0899FE0018D
:1019100011249E012C5A3D4F40E060E080E00E947F
:10192000F6049E01295A3D4F40E060E080E00E94AD
:10193000F6049E01265A3D4F40E060E080E00E94A0
:10194000F6049E012C573D4F4FEF6FEF85E50E9447
:10195000F6049E0129573D4F40E060E080E00E9480
:10196000F6049E0126573D4F4FEF6FEF85E50E942D
:10197000F6049E012C543D4F4FEF6FEF85E50E941A
:10198000F6049E0129543D4F40E060E080E00E9453
:10199000F6049E0126543D4F4FEF6FEF85E50E9400
:1019A000F6049E012C513D4F4FEF6FEF85E50E94ED
:1019B000F6049E0129513D4F40E060E080E00E9426
:1019C000F6049E0126513D4F4FEF6FEF85E50E94D3
:1019D000F6049E012C5E3C4F4FEF6FEF85E50E94B1
:1019E000F6049E01295E3C4F4FEF6FEF85E50E94A4
:1019F000F6049E01265E3C4F4FEF6FEF85E50E9497
:101A0000F6049E012C5B3C4F40E060E080E00E94C9
:101A1000F6049E01295B3C4F40E060E080E00E94BC
:101A2000F6049E01265B3C4F4FEF6FEF85E50E9469
:101A3000F6049E012C583C4F40E060E080E00E949C
:101A4000F6049E0129583C4F40E060E080E00E948F
:101A5000F6049E0126583C4F4FEF6FEF85E50E943C
:101A6000F6049E012C553C4F40E060E080E00E946F
:101A7000F6049E0129553C4F40E060E080E00E9462
:101A8000F6049E0126553C4F40E060E080E0DF9187
:101A9000CF910C94F604CF93DF9393E0899FE001FC
:101AA00011249E012C5A3D4F40E060E080E00E94EE
:101AB000F6049E01295A3D4F40E060E080E00E941C
:101AC000F6049E01265A3D4F40E060E080E00E940F
:101AD000F6049E012C573D4F4FEF6FEF85E50E94B6
:101AE000F6049E0129573D4F4FEF6FEF85E50E94A9
:101AF000F6049E0126573D4F4FEF6FEF85E50E949C
:101B0000F6049E012C543D4F40E060E080E00E94CE
:101B1000F6049E0129543D4F40E060E080E00E94C1
:101B2000F6049E0126543D4F4FEF6FEF85E50E946E
:101B3000F6049E012C513D4F40E060E080E00E94A1
:101B4000F6049E0129513D4F4FEF6FEF85E50E944E
:101B5000F6049E0126513D4F40E060E080E00E9487
:101B6000F6049E012C5E3C4F40E060E080E00E9465
:101B7000F6049E01295E3C4F40E060E080E00E9458
:101B8000F6049E01265E3C4F4FEF6FEF85E50E9405
:101B9000F6049E012C5B3C4F40E060E080E00E9438
:101BA000F6049E01295B3C4F40E060E080E00E942B
:101BB000F6049E01265B3C4F4FEF6FEF85E50E94D8
:101BC000F6049E012C583C4F4FEF6FEF85E50E94C5
:101BD000F6049E0129583C4F4FEF6FEF85E50E94B8
:101BE000F6049E0126583C4F4FEF6FEF85E50E94AB
:101BF000F6049E012C553C4F40E060E080E00E94DE
:101C0000F6049E0129553C4F40E060E080E00E94D0
:101C1000F6049E0126553C4F40E060E080E0DF91F5
:101C2000CF910C94F604CF93DF9393E0899FE0016A
:101C300011249E012C5A3D4F40E060E080E00E945C
:101C4000F6049E01295A3D4F40E060E080E00E948A
:101C5000F6049E01265A3D4F40E060E080E00E947D
:101C6000F6049E012C573D4F40E060E080E00E946A
:101C7000F6049E0129573D4F4FEF6FEF85E50E9417
:101C8000F6049E0126573D4F40E060E080E00E9450
:101C9000F6049E012C543D4F4FEF6FEF85E50E94F7
:101CA000F6049E0129543D4F40E060E080E00E9430
:101CB000F6049E0126543D4F4FEF6FEF85E50E94DD
:101CC000F6049E012C513D4F40E060E080E00E9410
:101CD000F6049E0129513D4F40E060E080E00E9403
:101CE000F6049E0126513D4F4FEF6FEF85E50E94B0
:101CF000F6049E012C5E3C4F40E060E080E00E94D4
:101D0000F6049E01295E3C4F4FEF6FEF85E50E9480
:101D1000F6049E01265E3C4F40E060E080E00E94B9
:101D2000F6049E012C5B3C4F4FEF6FEF85E50E9460
:101D3000F6049E01295B3C4F40E060E080E00E9499
:101D4000F6049E01265B3C4F40E060E080E00E948C
:101D5000F6049E012C583C4F4FEF6FEF85E50E9433
:101D6000F6049E0129583C4F4FEF6FEF85E50E9426
:101D7000F6049E0126583C4F4FEF6FEF85E50E9419
:101D8000F6049E012C553C4F40E060E080E00E944C
:101D9000F6049E0129553C4F40E060E080E00E943F
:101DA000F6049E0126553C4F40E060E080E0DF9164
:101DB000CF910C94F604CF93DF9393E0899FE001D9
:101DC00011249E012C5A3D4F40E060E080E00E94CB
:101DD000F6049E01295A3D4F40E060E080E00E94F9
:101DE000F6049E01265A3D4F40E060E080E00E94EC
:101DF000F6049E012C573D4F40E060E080E00E94D9
:101E0000F6049E0129573D4F4FEF6FEF85E50E9485
:101E1000F6049E0126573D4F40E060E080E00E94BE
:101E2000F6049E012C543D4F4FEF6FEF85E50E9465
:101E3000F6049E0129543D4F4FEF6FEF85E50E9458
:101E4000F6049E0126543D4F40E060E080E00E9491
:101E5000F6049E012C513D4F40E060E080E00E947E
:101E6000F6049E0129513D4F4FEF6FEF85E50E942B
:101E7000F6049E0126513D4F40E060E080E00E9464
:101E8000F6049E012C5E3C4F40E060E080E00E9442
:101E9000F6049E01295E3C4F4FEF6FEF85E50E94EF
:101EA000F6049E01265E3C4F40E060E080E00E9428
:101EB000F6049E012C5B3C4F40E060E080E00E9415
:101EC000F6049E01295B3C4F4FEF6FEF85E50E94C2
:101ED000F6049E01265B3C4F40E060E080E00E94FB
:101EE000F6049E012C583C4F40E060E080E00E94E8
:101EF000F6049E0129583C4F4FEF6FEF85E50E9495
:101F0000F6049E0126583C4F40E060E080E00E94CD
:101F1000F6049E012C553C4F40E060E080E00E94BA
:101F2000F6049E0129553C4F40E060E080E00E94AD
:101F3000F6049E0126553C4F40E060E080E0DF91D2
:101F4000CF910C94F604CF93DF9393E0899FE00147
:101F500011249E012C5A3D4F40E060E080E00E9439
:101F6000F6049E01295A3D4F40E060E080E00E9467
:101F7000F6049E01265A3D4F40E060E080E00E945A
:101F8000F6049E012C573D4F40E060E080E00E9447
:101F9000F6049E0129573D4F4FEF6FEF85E50E94F4
:101FA000F6049E0126573D4F40E060E080E00E942D
:101FB000F6049E012C543D4F4FEF6FEF85E50E94D4
:101FC000F6049E0129543D4F40E060E080E00E940D
:101FD000F6049E0126543D4F4FEF6FEF85E50E94BA
:101FE000F6049E012C513D4F4FEF6FEF85E50E94A7
:101FF000F6049E0129513D4F40E060E080E00E94E0
:10200000F6049E0126513D4F4FEF6FEF85E50E948C
:10201000F6049E012C5E3C4F4FEF6FEF85E50E946A
:10202000F6049E01295E3C4F40E060E080E00E94A3
:10203000F6049E01265E3C4F4FEF6FEF85E50E9450
:10204000F6049E012C5B3C4F4FEF6FEF85E50E943D
:10205000F6049E01295B3C4F40E060E080E00E9476
:10206000F6049E01265B3C4F4FEF6FEF85E50E9423
:10207000F6049E012C583C4F40E060E080E00E9456
:10208000F6049E0129583C4F4FEF6FEF85E50E9403
:10209000F6049E0126583C4F40E060E080E00E943C
:1020A000F6049E012C553C4F40E060E080E00E9429
:1020B000F6049E0129553C4F40E060E080E00E941C
:1020C000F6049E0126553C4F40E060E080E0DF9141
:1020D000CF910C94F6048093640670936606609327
:1020E0006506809174068430F9F48093E9008FEFDF
:1020F0009091E800815095FD06C095ED9A95F1F715
:1021000000008111F5CF8091E80085FF0DC050E0FF
:1021100040E063E070E084E696E00E944603809130
:10212000E8008E778093E8000895BC0184E00C9469
:102130006B10BC0183E00C946B10CF93DF93EC0128
:1021400081E08093E9008FEF9091E800815095FD48
:1021500006C095ED9A95F1F700008111F5CF8091B9
:10216000E80085FF14C050E040E068E070E0CE0178
:102170000E9446038091E8008E778093E80088E013
:10218000FE01AAE6B6E001900D928A95E1F7DF9193
:10219000CF9108951F93CF93DF93182FEB010E94E7
:1021A0002708209731F4812FDF91CF911F910C9454
:1021B000EE078FE99FE00197F1F700C0000021973B
:1021C000F0CFCF93DF93C7EED0E060E0CE010E9466
:1021D00033362196C11584E0D807B9F7DF91CF9146
:1021E00008956F927F928F929F92AF92BF92CF92FB
:1021F000DF92EF92FF920F931F93CF93DF9388E0CC
:10220000C82E84E0D82E0FE510E0E801E0973601F3
:102210001CC0F50185909490692DC7010E9433364A
:10222000682DC70101960E94333682E0A80EB11CCA
:1022300082E0E80EF11CCE15DF0559F788E0680E44
:10224000711C28960C171D0731F07E0188E0E81AF2
:10225000F1085301DECF005D1F4F80E3C80ED11C93
:102260000F3181E0180789F6DF91CF911F910F910F
:10227000FF90EF90DF90CF90BF90AF909F908F90A6
:102280007F906F900895CF93C82F6FEF811162E216
:1022900083E290E00E9433366FEFC11161E084E287
:1022A00090E00E9433366FEFC11163E285E290E067
:1022B000CF910C94333680E00E94431160E086E2B7
:1022C00090E00E9433360E94F1100E94E11081E0FC
:1022D0000C9443110F931F93CF93DF9328E0629FD9
:1022E000E001112450E0440F551FC40FD51F30E307
:1022F000839FC00DD11D1124CE0187960E941F36E9
:10230000082F10E0102F0027CE0188960E941F365C
:102310009801282BC901DF91CF911F910F9108954A
:10232000462F843038F4763028F4643018F4672F60
:102330000C946A1190E080E00895CF92DF92FF92B2
:102340000F931F93CF93DF936C0100917E068091D2
:102350001702082BC7E0D0E010E0FC2EC8010C2EBD
:1023600002C0959587950A94E2F780FD0CC02197ED
:10237000A0F7F12C8F2DDF91CF911F910F91FF903E
:10238000DF90CF900895B6018C2F0E9490110E948B
:10239000EB05019761F3EECFCF93DF93EC010E9441
:1023A0009D11BE010E949011DF91CF910C94EB051D
:1023B000FC01808191810E94CC11292F2F70929570
:1023C0009F7092509E3078F4E92FF0E0E453F94C7E
:1023D0000C949C35803F19F020F4883E20F481E075
:1023E0000895843FE1F380E00895883EC0F3813F83
:1023F000D1F7F5CF822F869586958695089583E24D
:1024000090E00E941F36823289F484E290E00E94BC
:102410001F36813059F485E290E00E941F3691E02A
:10242000833209F090E0892F8170089580E0FCCF1D
:10243000CF9384E090E00E941F36C82F82E290E0A4
:102440000E941F36982F8C2FCF91089580915406AB
:1024500080FD0AC0E4E5F2E0118210821282339618
:1024600053E0E43DF507C1F7809A31B33E7F21B3D5
:1024700021604FB7F89484E592E0FC015191CF01BF
:1024800068E021BB000000C057FF31BB550F0000C2
:1024900000C000C000C031BB00C06A9591F7F3E0F6
:1024A000843D9F0751F74FBF8FE594E00197F1F707
:1024B00000C0000008958F929F92AF92BF92CF927A
:1024C000DF92EF92FF920F931F93CF93DF93FC0164
:1024D000A280848081E08483E8E0F3E0B490E7E8C0
:1024E000F3E0E491C4EDD3E054E5E52E52E0F52E9F
:1024F000CC24CA94D12C99249A94EB190E2F10E075
:1025000042E04A1530F08091550688838091560646
:10251000898381101EC01B821A8297014A816981BA
:1025200088810E94F604259643E0E40EF11C86E0C3
:10253000C435D80729F7DF91CF911F910F91FF90F4
:10254000EF90DF90CF90BF90AF909F908F900C94C2
:1025500026128B818823E9F081508B83899DC001ED
:1025600011246C8170E00E946835FB01FF27E85F51
:10257000FC4F8491E82FEB19E99DC0011124B801AB
:102580000E94683580915706689FB00111247A83B4
:10259000C4CF0E94F535209157062695215840E278
:1025A000249F90011124232F3327821793070CF0C7
:1025B000B4CF82E08A1588F40E94F535B6010E94F6
:1025C000883588830E94F535209156062695622F1E
:1025D00070E00E948835280F29831A82809157065F
:1025E000843108F484E18C838B8397CFEF92FF9240
:1025F0000F931F93CF93DF938C01C4E5D2E0F12CAE
:10260000E12CF80194816091560680915506F0E422
:10261000EF16F104FCF49923F9F09E01409157065E
:102620000E94F6042FEFE21AF20A239680E8E816D9
:10263000F10439F70E942612F801848190E0019696
:10264000817099278483DF91CF911F910F91FF9023
:10265000EF900895992309F39E0140E0E1CF0F9395
:102660001F93CF93DF93C4E5D2E0FE011182108265
:102670001282339683E0E43DF807C1F710E000E0F2
:1026800080915302082E000C990B081719078CF142
:1026900080913001082E000C990B801791074CF1A6
:1026A0009E014091570660915606809155060E9402
:1026B000F6040F5F1F4F23960038110509F70E949B
:1026C000261280912F0190915302980F90935302FC
:1026D00020913001280F20933001121614F49F37F7
:1026E00019F4819580932F01DF91CF911F910F9164
:1026F0000895198218821A82DCCFCF92DF92EF926E
:10270000FF920F931F93CF93DF93FC018281DD240F
:10271000DA9480FD02C0DD24D394C4E5D2E010E059
:1027200000E0198218821A8294E0E92EF12CC12C63
:10273000809152028C0D87FD8058082E000C990B59
:102740008017910791F4809157068E9DA0018F9D6F
:10275000500D112455954795559547959E016091CB
:102760005606809155060E94F604CD0CF1E0EF1A52
:10277000F108F1F60F5F1F4F23960038110589F617
:102780000E9426128091520291E0D91210C081114C
:102790000CC08FE780935202DF91CF911F910F9170
:1027A000FF90EF90DF90CF9008958150F3CF90E0AD
:1027B00001968F779927EECFEF92FF921F93CF93D9
:1027C000DF93EC0184E5E82E82E0F82E10E08C81A6
:1027D00097014091570660915606810F0E94F604BA
:1027E0001F5F83E0E80EF11C103889F70E94261263
:1027F0009A818C8190FF08C08F5F8C83DF91CF918D
:102800001F91FF90EF9008958150F7CF909154065B
:1028100090FF0CC0E4E5F2E081836083428333964D
:1028200093E0E43DF907C1F70C9426120895CF9385
:10283000DF9300D00F92CDB7DEB79091540690FF92
:102840000AC09E012F5F3F4F0E94F6044B816981B1
:102850008A810E9406140F900F900F90DF91CF9104
:102860000895CF93DF93EC01E4E5F6E043816281C4
:102870008C810E9417148C818F5F8C83DF91CF91A4
:102880000895CF93DF93EC01EC81F0E0E85FFC4F1B
:102890004491E4E5F6E0628181810E9417148C8105
:1028A0008F5F8C83DF91CF910895CF92DF92EF926B
:1028B000FF926B017C010E94E004B701A60188E051
:1028C00090E0FF90EF90DF90CF900C9445367F9290
:1028D0008F929F92AF92BF92CF92DF92EF92FF9230
:1028E0000F931F93CF93DF9300D00F92CDB7DEB736
:1028F000182FD62E042FC22E9091540690FF29C077
:10290000E92FE695AE2FB0E0AD57BE4F8C91809386
:102910004F029E7F923071F59E012F5F3F4F812FB6
:102920000E94F6044B8169818A810E9406141093EB
:102930005506D092560600935706CC2051F0609170
:1029400054067091550680915606909157060E9444
:1029500055140F900F900F90DF91CF911F910F9111
:10296000FF90EF90DF90CF90BF90AF909F908F90AF
:102970007F900895823019F400915706D8CF8630A1
:1029800019F410915506D3CF8930D9F3883179F6EF
:10299000E8512E2F2170722EE695F0E0ED5FFC4F8E
:1029A00085909490992434E5E32E32E0F32EB12CF7
:1029B000A12CC501880F892F881F990B9195711043
:1029C00013C0810F9701402F6D2D0E94F604A80CB3
:1029D000B91C83E0E80EF11C24EDE21623E0F206B8
:1029E00041F70E942612A3CF212F281B822FEACF66
:1029F000E4E5F6E0438128E0421B08F440E021E0F2
:102A0000628181810C946714E4E5F6E0438128E05B
:102A1000420F08F44FEF21E0628181810C9467142A
:102A2000E4E5F6E0628128E0621B08F460E021E062
:102A3000438181810C946714E4E5F6E0628128E02B
:102A4000620F08F46FEF21E0438181810C946714D9
:102A5000E4E5F6E0818121E04381628188500C94B5
:102A60006714E4E5F6E0818121E043816281885FBB
:102A70000C94671480915806882319F08150809334
:102A800058066091540670915506809156069091B3
:102A900057060C94551480915806833018F48F5FB4
:102AA00080935806609154067091550680915606A1
:102AB000909157060C945514E4E5F6E083E080838A
:102AC00011828FEF82838EE683831482608171810D
:102AD000828193810C94551410921602E0ECF1E07F
:102AE00086E0DF011D928A95E9F70C94C7071F93D2
:102AF000CF93DF93CDB7DEB7AA970FB6F894DEBFBA
:102B00000FBECDBF86E796E02091F100DC012D934A
:102B1000CD01B6E08E379B07B9F7809177068330F9
:102B200009F472C0B8F4813009F449C0823009F464
:102B3000B3C08091E80083FF8BC2809176069091AC
:102B400077069A3008F084C2E92FF0E0E652F94C9B
:102B50000C949C358A3009F48EC08B3009F471C016
:102B6000893039F780917606813219F780917A069B
:102B700090917B06009711F00297D9F68091E800BA
:102B8000877F8093E8008091E80082FF38C09091B1
:102B9000F3008091F200029731F48091F1008130CE
:102BA00011F0863021F48091F100809369068091C4
:102BB000E8008B778093E8000E947003BACF809181
:102BC0007606813A09F0B5CF8091E800877F80933F
:102BD000E80080917A0690917B06892B61F468E089
:102BE0008AE696E070E00E9422048091E8008B77EC
:102BF0008093E8009ECF60E090E080E0F3CF80918A
:102C000074068111C0CF95CF80917606813A09F084
:102C100090CF80917A0690917B06892B09F089CF1D
:102C20008091E800877F8093E8008091E80080FF32
:102C3000FCCF809131018093F1008091E8008E7784
:102C4000B9CF80917606813209F073CF80917A06F0
:102C500090917B06892B09F06CCF8091E800877FEB
:102C60008093E8000E947003809178068093310180
:102C70000E946C155ECF80917606813209F059CFA3
:102C80008091E800877F8093E8000E947003809124
:102C90007906809368064DCF80917606813A09F0D7
:102CA00048CF8091E800877F8093E8008091E8001A
:102CB00080FFFCCF80916806BECF803899F08238C3
:102CC00009F0C6C180917A068F70873008F0C0C1C4
:102CD0008093E9008091EB0085FB882780F91092B2
:102CE000E90006C08091720690917306911182608E
:102CF0009091E800977F9093E8008093F100109204
:102D0000F1008091E8008E779FC1882309F48DC17E
:102D1000823009F09DC180917806811190C1809127
:102D20007A068F702FEF280F263008F091C180931C
:102D3000E9002091EB0020FF82C1933031F48091B3
:102D4000EB0080628093EB007AC19091EB00906180
:102D50009093EB0021E030E001C0220F8A95EAF762
:102D60002093EA001092EA008091EB008860EACF9D
:102D700081116EC1109178061F778091E3008078F1
:102D8000812B8093E3008091E800877F8093E800A7
:102D90000E9470038091E80080FFFCCF8091E300E7
:102DA00080688093E30082E0111183E080937406D1
:102DB0004FC18058823008F04BC120917806309185
:102DC00079062C3DE3E03E07A1F583E08A838AE2A1
:102DD00089834FB7F894DE01139620E03EE051E27C
:102DE000E32FF0E050935700E49120FF03C0E295F9
:102DF000EF703F5FEF708E2F90E0EA30C0F0C79623
:102E00008D939D932F5F243159F74FBF8091E80038
:102E1000877F8093E8006AE270E0CE0101960E940D
:102E200022048091E8008B778093E80011C1C0965E
:102E3000E7CF80917A0690917B06432F5527433048
:102E4000510509F44AC078F54130510509F47AC0BA
:102E50008BE590E0E8ECF4E04230510509F0F8C071
:102E60002091E800277F2093E80020917C06309194
:102E70007D068217930708F49C0140E02115310577
:102E800009F065C0411163C08091E80082FDC9CF9F
:102E900080917406882329F2853019F28091E80028
:102EA00083FFF2CFBECF4132510509F43CC042321C
:102EB000510509F0CDC08330910508F0C9C0FC016F
:102EC000EE0FFF1FE155FE4F0190F081E02D84557C
:102ED0009E4FDC018C9190E01AC0332721303105E0
:102EE000D1F02115310561F02230310509F0B0C073
:102EF000E5E3F5E0E4918E2F90E0E5E3F5E007C02F
:102F0000E5E5F5E0E4918E2F90E0E5E5F5E000974A
:102F100009F49EC0A5CFE5E4F5E0E4918E2F90E0A2
:102F2000E5E4F5E0F4CF8330910508F091C0880F17
:102F3000991FFC01EB54FE4F0190F081E02D89E0D8
:102F400090E08ECF82E190E0E3E2F5E089CF8091DE
:102F50007406882309F465CF853009F462CF809127
:102F6000E80083FD5ECF8091E80082FD8DCF8091E7
:102F7000E80080FF83CF9091F3008091F20021154B
:102F8000310519F08830910550F041E0089709F0BB
:102F900040E08091E8008E778093E8006FCF449105
:102FA0004093F1003196215031090196E8CF8038E5
:102FB00009F04EC08091E800877F8093E8008091FF
:102FC00075068093F1009DCE811142C01091780664
:102FD0001230F0F58091E800877F8093E80010932D
:102FE00075060E947003112311F084E005C08091E2
:102FF000E30087FDFACF81E08093740642E061EC44
:1030000081E00E948F0342E261EC84E00E948F0322
:1030100042E261EC82E00E948F0342E260EC83E0D6
:103020000E948F038091740613C0809178068130CE
:1030300079F481E0933009F080E080937306109278
:10304000E9008091E800877F8093E8000E94700388
:103050008091E80083FF0AC08091E800877F809319
:10306000E8008091EB0080628093EB00AA960FB697
:10307000F894DEBF0FBECDBFDF91CF911F910895B1
:1030800069EE7EEF90E080E00E94513660E082E0E1
:1030900090E00E94333660E083E090E00E94333697
:1030A0001092170260E084E090E00E94333660E006
:1030B00082E290E00E94333660E085E090E00E947A
:1030C000333660E086E090E00E9433366FEF87E0B1
:1030D00090E00E94333640E050E0BA0188E090E092
:1030E0000E94453660E08DE090E00E94333640E07B
:1030F00050E0BA0188E190E00E94453660E087E147
:1031000090E00E94333640E050E0BA018CE190E05C
:103110000E94453670E060E080E290E00E94513607
:1031200040E050E0BA0188E190E00E94453680E03E
:103130000E9443110E945B1140E050E0BA018FE011
:1031400090E00E94453640E050E0BA0183E190E013
:103150000C94453690E080E00E942D36893E9E4FCB
:1031600011F40C94FF1180E008951F920F920FB696
:103170000F9211242F933F934F935F936F937F93FD
:103180008F939F93AF93BF93CF93DF93EF93FF936F
:10319000D091E900DF708091EC00C82FC17080FDF4
:1031A000C0E81092E9008091F000877F8093F000E2
:1031B00078940E9477151092E9008091F000886061
:1031C0008093F000CD2BCF70C093E900FF91EF9179
:1031D000DF91CF91BF91AF919F918F917F916F912F
:1031E0005F914F913F912F910F900FBE0F901F90C5
:1031F00018951F920F920FB60F9211242F933F93A1
:103200004F935F936F937F938F939F93AF93BF93EE
:10321000EF93FF938091E10082FF09C08091E2006B
:1032200082FF05C08091E1008B7F8093E100809157
:10323000DA0080FF24C08091D80080FF20C08091F8
:10324000DA008E7F8093DA008091D90080FF9DC0E4
:1032500080E189BD82E189BD09B400FEFDCF81E036
:103260008093740680916706811109C00E94F6025E
:103270000E94C1038091E20084608093E20080910B
:10328000E10080FF17C08091E20080FF13C08091B1
:10329000E2008E7F8093E2008091E2008061809363
:1032A000E2008091D80080628093D80019BC85E04C
:1032B000809374068091E10084FF2BC08091E2002E
:1032C00084FF27C080E189BD82E189BD89B5982F3F
:1032D000917080FFFBCF8091D8008F7D8093D800C4
:1032E0008091E1008F7E8093E1008091E2008F7EEB
:1032F0008093E2008091E20081608093E2008091FF
:103300007506882309F447C084E080937406809191
:1033100074068091E10083FF27C08091E20083FF63
:1033200023C08091E100877F8093E10082E0809359
:103330007406109275068091E1008E7F8093E10003
:103340008091E2008E7F8093E2008091E2008061B4
:103350008093E20042E060E080E00E948F03809171
:10336000F00088608093F000FF91EF91BF91AF91E2
:103370009F918F917F916F915F914F913F912F918D
:103380000F900FBE0F901F90189519BC10927406E5
:103390001092670674CF8091E30087FD93E09093CD
:1033A0007406B5CF78941F921FB61F9211248F9385
:1033B0009F93AF93BF938091600690916106A09117
:1033C0006206B09163060196A11DB11D809360064F
:1033D00090936106A0936206B0936306BF91AF918C
:1033E0009F918F911F901FBE1F9018959C014FB702
:1033F000F8948091600690916106A0916206B09168
:1034000063064FBF821B930B08952FB7F8948091EA
:10341000600690916106A0916206B09163062FBF8D
:1034200008959091540690FF3DC09170811129C07C
:10343000926090935406662351F060915406709107
:10344000550680915606909157060E94551460913A
:103450005406669570E04BE050E084E291E00E94F3
:103460000536892BA9F01092500281E080934C021E
:1034700020E04091570660915606809155060C94C5
:103480006714893210F09065D4CF880F982BD1CF74
:1034900081E0809350020E94051A90934A02809323
:1034A0004902E3CF089521E030E0A90102C0440FB2
:1034B000551F8A95E2F7CA0120915102662369F0EF
:1034C000822B8093510280915002811109C080911A
:1034D000540660E086950C94111A80958223F1CFF2
:1034E0000895CF93C82F61E08111682F617080E04B
:1034F0000E94531AC1FB662760F9C11101C060E048
:1035000081E00E94531AC2FB662760F9C11101C015
:1035100060E082E00E94531AC3FB662760F9C11184
:1035200001C060E083E00E94531A8C2FCF91089570
:103530000E94711A80937E060C94C70780917E06C4
:10354000982F9670963019F488600C94981A877F9B
:10355000FCCF21E030E001C0220F8A95EAF72095E8
:1035600080917E0682230C94981A21E030E001C0FD
:10357000220F8A95EAF780917E06822B0C94981A86
:10358000809154068695815009F488E261E00C949C
:10359000111A8091540686958F5F893208F081E078
:1035A00061E00C94111A9091540690FF07C0969513
:1035B000981720F0961710F40C94C91A61E00C9437
:1035C000111A5F926F927F928F929F92AF92BF92E9
:1035D000CF92DF92EF92FF920F931F93CF93DF93DF
:1035E00000D000D000D00F92CDB7DEB76C01FC0147
:1035F00083819481892B39F08081918189238F3F48
:1036000011F00C94802827960FB6F894DEBF0FBEF9
:10361000CDBFDF91CF911F910F91FF90EF90DF9081
:10362000CF90BF90AF909F908F907F906F905F9062
:1036300008950E949D11182F682F89819A810E94F8
:103640009B0769817A81812F0E9490117C01F6018C
:103650008281882311F40C947028970122513F45F0
:103660002031310510F00C94F8278FEF93E00E9481
:103670001F361EEE1E0D97EEA92EB12C8111C3CF61
:1036800011113CC01C821B82662463948AE0582E70
:1036900085010F5F1F4FC5010E941F3689831A8263
:1036A000882309F4B0CF9FEF980F9330B0F58A8349
:1036B000698232E0A30EB11CC8010E941F368B83C1
:1036C000882309F4A0CFAE014F5F5F4F7A01F70165
:1036D00020812223E9F2213009F05EC091818281AC
:1036E0009130E9F4F2E0EF0EF11C70E060E0893314
:1036F00011F460E570E00E94CA1018C0A114F4E053
:10370000BF0609F480CFC5010E941F36811101C098
:1037100011502FEFA21AB20AB3CF5801D4CF923072
:1037200049F422E0E20EF11C0E9427082FEFE21A72
:10373000F20ACDCF933031F432E0E30EF11C0E9457
:10374000EE07F4CF943021F04FEFE41AF40AEECFF5
:1037500052E0E50EF11C30E020E0B7016F5F7F4FD3
:10376000F70141818053990B8A30910550F0215027
:103770003109E0F28FE99FE00197F1F700C0000006
:10378000F6CF529EF001539EF00D11249C012E0F96
:103790003F1F842F7B01E1CFE22FF0E0E059FE4F85
:1037A0007490822F86958695869590E0FC01E05A6C
:1037B000FE4FC4902770D12C022E02C0D594C7941E
:1037C0000A94E2F7A1E0CA22DD24FC01E05BFE4F8F
:1037D000049110E0022E02C0159507950A94E2F7B5
:1037E00001701127FC01E05CFE4F8490912C02C017
:1037F000959487942A95E2F7E1E08E229924C114EA
:10380000D10419F081EE0E9427080115110519F065
:1038100086EE0E942708F9E370E060E07F1202C0A4
:1038200060E570E0872D0E94CA10012B19F086EE2A
:103830000E94EE07CD2819F081EE0E94EE0789283C
:1038400009F474CF70E060E08CE255CF81E00E9413
:10385000B51A03C081E00E94A91A0E949E1AD3CE15
:1038600082E0F5CF90913002992309F4BFC0811115
:10387000A7C04EE1E416F10410F40C941B2858E2A2
:10388000E516F10408F09CC093EE9E0D67E2E61683
:10389000F10409F490E0E091D20181E08E0F809371
:1038A000D201F0E0EA53FE4F90838C3009F088C0DB
:1038B0001092300210922F0281E080933102909199
:1038C000D0012AE08091D101929F800D1124909126
:1038D000CE01F091CF01929FF00D11249091CC0177
:1038E000E091CD01929FE00D11249091CA01509179
:1038F000CB01929F500D11249091C8014091C901B4
:10390000929F400D11249091C6013091C701929F62
:10391000300D1124622F0E947C35A0E18A9FB001F6
:103920001124962B9F7799838F2F622F0E947C35CD
:10393000F0E18F9FB0011124962B9F779A838E2FF1
:10394000622F0E947C35A0E18A9FB0011124962B42
:103950009F739B831C82852F622F0E947C35E0E140
:103960008E9FB0011124962B9F739D83842F622F0D
:103970000E947C35F0E18F9FA0011124942B9F734E
:103980009E83832F0E947C3540E1849F9001112407
:10399000922B9F779F8304E610E027E030E0AE0192
:1039A0004F5F5F4F60E080ED0E94E8340CE010E074
:1039B00070E060E08AE20E94CA1001501109C1F76C
:1039C000F6018281F5EAEF16FDE5FF0609F453C71B
:1039D00026EAE2162DE5F20611F00C941B28882346
:1039E00009F457C781E00E94B51A0DCE97012E51F8
:1039F00031092A30310548F056E0E516F10429F086
:103A000067E3E616F10409F00AC790912F029111BD
:103A100006C7882311F40C94932880912102811108
:103A200086C381E08093210224E532E04FEF60E01D
:103A300080E00E94F60427E532E04FEF60E080E08E
:103A40000E94F6042AE532E04FEF60E080E00E9439
:103A5000F6042DE532E040E060E080E00E94F604EC
:103A600020E632E04FEF60E080E00E94F60423E6BB
:103A700032E04FEF60E080E00E94F60426E632E09C
:103A80004FEF60E080E00E94F60429E632E040E07B
:103A900060E080E00E94F6042CE632E040E060E066
:103AA00080E00E94F6042FE632E040E060E080E033
:103AB0000E94F60422E732E04FEF60E080E00E94CF
:103AC000F60425E732E04FEF60E080E00E94F60464
:103AD00028E732E04FEF60E080E00E94F6042BE739
:103AE00032E04FEF60E080E00E94F6042EE732E023
:103AF0004FEF60E080E00E94F60421E832E04FEFF3
:103B000060E080E00E94F60424E832E04FEF60E0DD
:103B100080E00E94F60427E832E04FEF60E080E0AA
:103B20000E94F6042AE832E040E060E080E00E9473
:103B3000F6042DE832E04FEF66E684E80E94F604D2
:103B400020E932E040E060E080E00E94F60423E9F2
:103B500032E040E060E080E00E94F60426E932E0D6
:103B600040E060E080E00E94F60429E932E04FEF97
:103B700066E684E80E94F6042CE932E04FEF66E640
:103B800084E80E94F6042FE932E040E060E080E043
:103B90000E94F60422EA32E04FEF60E080E00E94EB
:103BA000F60425EA32E04FEF60E080E00E94F60480
:103BB00028EA32E04FEF60E080E00E94F6042BEA52
:103BC00032E04FEF60E080E00E94F6042EEA32E03F
:103BD0004FEF60E080E00E94F60421EB32E04FEF0F
:103BE00060E080E00E94F60424EB32E04FEF60E0FA
:103BF00080E00E94F60427EB32E04FEF60E080E0C7
:103C00000E94F6042AEB32E040E060E080E00E948F
:103C1000F6042DEB32E04FEF66E684E80E94F604EE
:103C200020EC32E04FEF66E684E80E94F60423ECD5
:103C300032E04FEF66E684E80E94F60426EC32E0BC
:103C40004FEF66E684E80E94F60429EC32E04FEF7D
:103C500066E684E80E94F6042CEC32E04FEF66E65C
:103C600084E80E94F6042FEC32E040E060E080E05F
:103C70000E94F60422ED32E04FEF60E080E00E9407
:103C8000F60425ED32E04FEF60E080E00E94F6049C
:103C900028ED32E04FEF60E080E00E94F6042BED6B
:103CA00032E04FEF60E080E00E94F6042EED32E05B
:103CB0004FEF60E080E00E94F60421EE32E04FEF2B
:103CC00060E080E00E94F60424EE32E04FEF60E016
:103CD00080E00E94F60427EE32E040E060E080E001
:103CE0000E94F6042AEE32E04FEF66E684E80E9476
:103CF000F6042DEE32E040E060E080E00E94F60441
:103D000020EF32E04FEF66E684E80E94F60423EFEE
:103D100032E04FEF66E684E80E94F60426EF32E0D8
:103D20004FEF66E684E80E94F60429EF32E040E0B7
:103D300060E080E00E94F6042CEF32E04FEF66E690
:103D400084E80E94F6042FEF32E04FEF66E684E845
:103D50000E94F60422E033E040E060E080E00E9450
:103D6000F60425E033E04FEF60E080E00E94F604C7
:103D700028E033E04FEF60E080E00E94F6042BE0A3
:103D800033E04FEF60E080E00E94F6042EE033E085
:103D90004FEF60E080E00E94F60421E133E04FEF56
:103DA00060E080E00E94F60424E133E04FEF60E041
:103DB00080E00E94F60427E133E040E060E080E02C
:103DC0000E94F6042AE133E04FEF66E684E80E94A1
:103DD000F6042DE133E04FEF66E684E80E94F60436
:103DE00020E233E04FEF66E684E80E94F60423E227
:103DF00033E040E060E080E00E94F60426E233E039
:103E00004FEF66E684E80E94F60429E233E04FEFC4
:103E100066E684E80E94F6042CE233E04FEF66E6A3
:103E200084E80E94F6042FE233E04FEF66E684E870
:103E30000E94F60422E333E040E060E080E00E946C
:103E4000F60425E333E040E060E080E00E94F60401
:103E500028E333E040E060E080E00E94F6042BE3DA
:103E600033E04FEF60E080E00E94F6042EE333E0A1
:103E70004FEF60E080E00E94F60421E433E04FEF72
:103E800060E080E00E94F60424E433E04FEF60E05D
:103E900080E00E94F60427E433E040E060E080E048
:103EA0000E94F6042AE433E04FEF66E684E80E94BD
:103EB000F6042DE433E04FEF66E684E80E94F60452
:103EC00020E533E040E060E080E00E94F60423E576
:103ED00033E04FEF66E684E80E94F60426E533E01F
:103EE00040E060E080E00E94F60429E533E04FEF17
:103EF00066E684E80E94F6042CE533E04FEF66E6C0
:103F000084E80E94F6042FE533E04FEF66E684E88C
:103F10000E94F60422E633E04FEF66E684E80E9452
:103F2000F60425E633E04FEF66E684E80E94F604E7
:103F300028E633E04FEF66E684E80E94F6042BE6BD
:103F400033E040E060E080E00E94F6042EE633E0DB
:103F50004FEF60E080E00E94F60421E733E04FEF8E
:103F600060E080E00E94F60424E733E04FEF60E079
:103F700080E00E94F60427E733E04FEF60E080E046
:103F80000E94F6042AE733E040E060E080E00E940F
:103F9000F6042DE733E04FEF66E684E80E94F6046E
:103FA00020E833E04FEF66E684E80E94F60423E859
:103FB00033E04FEF66E684E80E94F60426E833E03B
:103FC0004FEF66E684E80E94F60429E833E04FEFFD
:103FD00066E684E80E94F6042CE833E04FEF66E6DC
:103FE00084E80E94F6042FE833E040E060E080E0DF
:103FF0000E94F60422E933E04FEF66E684E80E946F
:10400000F60425E933E04FEF66E684E80E94F60403
:1040100028E933E04FEF66E684E80E94F6042BE9D6
:1040200033E040E060E080E00E94F6042EE933E0F7
:104030004FEF60E080E00E94F60421EA33E04FEFAA
:1040400060E080E00E94F60424EA33E04FEF60E095
:1040500080E00E94F60427EA33E04FEF60E080E062
:104060000E94F6042AEA33E04FEF60E080E00E940D
:10407000F6042DEA33E040E060E080E00E94F604C0
:1040800020EB33E040E060E080E00E94F60423EBA8
:1040900033E040E060E080E00E94F60426EB33E08D
:1040A00040E060E080E00E94F60429EB33E040E06D
:1040B00060E080E00E94F6042CEB33E040E060E03A
:1040C00080E00E94F6042FEB33E04FEF66E684E8D1
:1040D0000E94F60422EC33E04FEF66E684E80E948B
:1040E000F60425EC33E04FEF66E684E80E94F60420
:1040F00028EC33E04FEF66E684E80E94F6042BECF0
:1041000033E04FEF66E684E80E94F6042EEC33E0DD
:1041100040E060E080E00E94F60421ED33E04FEFE4
:1041200060E080E00E94F6040E94261249CC1092C2
:10413000210224E532E04FEF60E080E00E94F604C7
:1041400027E532E04FEF60E080E00E94F6042AE5C8
:1041500032E04FEF60E080E00E94F6042DE532E0AF
:1041600040E060E080E00E94F60420E632E04FEF9D
:1041700060E080E00E94F60423E632E04FEF60E06A
:1041800080E00E94F60426E632E04FEF60E080E037
:104190000E94F60429E632E040E060E080E00E9400
:1041A000F6042CE632E040E060E080E00E94F60495
:1041B0002FE632E040E060E080E00E94F60422E773
:1041C00032E04FEF60E080E00E94F60425E732E045
:1041D0004FEF60E080E00E94F60428E732E04FEF06
:1041E00060E080E00E94F6042BE732E04FEF60E0F1
:1041F00080E00E94F6042EE732E04FEF60E080E0BE
:104200000E94F60421E832E04FEF60E080E00E9477
:10421000F60424E832E04FEF60E080E00E94F6040C
:1042200027E832E04FEF60E080E00E94F6042AE8E1
:1042300032E040E060E080E00E94F6042DE832E0E9
:104240004FEF66E684E80E94F60420E932E040E0A1
:1042500060E080E00E94F60423E932E040E060E0A4
:1042600080E00E94F60426E932E040E060E080E071
:104270000E94F60429E932E04FEF66E684E80E94E6
:10428000F6042CE932E04FEF66E684E80E94F6047B
:104290002FE932E040E060E080E00E94F60422EA8C
:1042A00032E04FEF60E080E00E94F60425EA32E061
:1042B0004FEF60E080E00E94F60428EA32E040E040
:1042C00060E080E00E94F6042BEA32E040E060E02B
:1042D00080E00E94F6042EEA32E04FEF60E080E0DA
:1042E0000E94F60421EB32E04FEF60E080E00E9494
:1042F000F60424EB32E04FEF60E080E00E94F60429
:1043000027EB32E04FEF60E080E00E94F6042AEBFA
:1043100032E040E060E080E00E94F6042DEB32E005
:104320004FEF66E684E80E94F60420EC32E04FEF9F
:1043300066E684E80E94F60423EC32E04FEF66E67E
:1043400084E80E94F60426EC32E04FEF66E684E84B
:104350000E94F60429EC32E04FEF66E684E80E9402
:10436000F6042CEC32E04FEF66E684E80E94F60497
:104370002FEC32E040E060E080E00E94F60422EDA5
:1043800032E04FEF60E080E00E94F60425ED32E07D
:1043900040E060E080E00E94F60428ED32E04FEF5C
:1043A00066E684E80E94F6042BED32E04FEF66E605
:1043B00084E80E94F6042EED32E040E060E080E008
:1043C0000E94F60421EE32E04FEF60E080E00E94B0
:1043D000F60424EE32E04FEF60E080E00E94F60445
:1043E00027EE32E040E060E080E00E94F6042AEE32
:1043F00032E04FEF66E684E80E94F6042DEE32E0EC
:1044000040E060E080E00E94F60420EF32E04FEFF1
:1044100066E684E80E94F60423EF32E04FEF66E69A
:1044200084E80E94F60426EF32E04FEF66E684E867
:104430000E94F60429EF32E040E060E080E00E9454
:10444000F6042CEF32E04FEF66E684E80E94F604B3
:104450002FEF32E04FEF66E684E80E94F60422E098
:1044600033E040E060E080E00E94F60425E033E0C5
:104470004FEF66E684E80E94F60428E033E04FEF51
:1044800066E684E80E94F6042BE033E040E060E05A
:1044900080E00E94F6042EE033E04FEF60E080E021
:1044A0000E94F60421E133E04FEF60E080E00E94DB
:1044B000F60424E133E04FEF60E080E00E94F60470
:1044C00027E133E040E060E080E00E94F6042AE16A
:1044D00033E04FEF66E684E80E94F6042DE133E016
:1044E0004FEF66E684E80E94F60420E233E04FEFE7
:1044F00066E684E80E94F60423E233E040E060E0F0
:1045000080E00E94F60426E233E04FEF66E684E89E
:104510000E94F60429E233E04FEF66E684E80E9449
:10452000F6042CE233E04FEF66E684E80E94F604DE
:104530002FE233E04FEF66E684E80E94F60422E3C0
:1045400033E040E060E080E00E94F60425E333E0E1
:104550004FEF66E684E80E94F60428E333E040E08B
:1045600060E080E00E94F6042BE333E04FEF60E070
:1045700080E00E94F6042EE333E04FEF60E080E03D
:104580000E94F60421E433E04FEF60E080E00E94F7
:10459000F60424E433E04FEF60E080E00E94F6048C
:1045A00027E433E040E060E080E00E94F6042AE483
:1045B00033E04FEF66E684E80E94F6042DE433E032
:1045C0004FEF66E684E80E94F60420E533E040E021
:1045D00060E080E00E94F60423E533E04FEF66E6FA
:1045E00084E80E94F60426E533E040E060E080E0E5
:1045F0000E94F60429E533E04FEF66E684E80E9466
:10460000F6042CE533E04FEF66E684E80E94F604FA
:104610002FE533E04FEF66E684E80E94F60422E6D9
:1046200033E040E060E080E00E94F60425E633E0FD
:104630004FEF66E684E80E94F60428E633E040E0A7
:1046400060E080E00E94F6042BE633E04FEF60E08C
:1046500080E00E94F6042EE633E04FEF60E080E059
:104660000E94F60421E733E04FEF60E080E00E9413
:10467000F60424E733E04FEF60E080E00E94F604A8
:1046800027E733E04FEF60E080E00E94F6042AE77E
:1046900033E040E060E080E00E94F6042DE733E084
:1046A0004FEF66E684E80E94F60420E833E04FEF1F
:1046B00066E684E80E94F60423E833E04FEF66E6FE
:1046C00084E80E94F60426E833E04FEF66E684E8CB
:1046D0000E94F60429E833E04FEF66E684E80E9482
:1046E000F6042CE833E04FEF66E684E80E94F60417
:1046F0002FE833E040E060E080E00E94F60422E929
:1047000033E04FEF66E684E80E94F60425E933E0E3
:104710004FEF66E684E80E94F60428E933E040E0C3
:1047200060E080E00E94F6042BE933E04FEF60E0A8
:1047300080E00E94F6042EE933E04FEF60E080E075
:104740000E94F60421EA33E04FEF60E080E00E942F
:10475000F60424EA33E04FEF60E080E00E94F604C4
:1047600027EA33E04FEF60E080E00E94F6042AEA97
:1047700033E04FEF60E080E00E94F6042DEA33E082
:1047800040E060E080E00E94F60420EB33E040E08F
:1047900060E080E00E94F60423EB33E040E060E05C
:1047A00080E00E94F60426EB33E040E060E080E029
:1047B0000E94F60429EB33E040E060E080E00E94D4
:1047C000F6042CEB33E040E060E080E00E94F60469
:1047D0002FEB33E04FEF66E684E80E94F60422EC0C
:1047E00033E04FEF66E684E80E94F60425EC33E000
:1047F0004FEF66E684E80E94F60428EC33E040E0E0
:1048000060E080E00E94F6042BEC33E04FEF60E0C4
:1048100080E00E94F6042EEC33E04FEF7ACC9EEC61
:10482000E9169CE5F90609F085C4882309F4C8C88F
:1048300081E080932F021092210210923102FBC37B
:104840009DECE9169CE5F90609F0BAC8882309F43D
:10485000F2C380E197E290932E0280932D02109292
:104860002C0210922B0210922F021092210281E052
:1048700080933102E0C3882311F40C94031B61E0A0
:1048800083E090E00E94333681E00E94D5070C94CB
:10489000031B81E00E94A91A0C94031B31E6E31666
:1048A0003DE5F30609F4DEC38091160282726CECDA
:1048B000E6166CE5F60609F40BC208F07DC1E6ECDD
:1048C000EE16ECE5FE0609F4EFC108F049C123EC51
:1048D000E2162CE5F20609F4DDC108F030C142EC25
:1048E000E4164CE5F40609F4ACC1E114FCE5FF065E
:1048F00009F405C22EEDE2162CE5F20609F40CC20D
:10490000F60100811181992309F40AC2C8010E94AD
:104910009D11F82E682FC8010E949B07B8018F2DAA
:104920000E9490110E94EB05182FB82EF6012281EB
:104930004581342F32953F70892F82958F70E82EF4
:10494000F12C8C3008F024C2F701EC51F94C0C9496
:104950009C3580912202806126E0E2162CE5F20669
:1049600009F4A9C080912202886037E0E3163CE593
:10497000F30608F4A0C08091220280629CC080915E
:1049800022028D7F4CE0E4164CE5F40609F493C056
:1049900078F4809122028C606AE0E6166CE5F606F7
:1049A00009F489C008F49CC0809122028E7F83C0E4
:1049B00080912202877F9EE0E9169CE5F90609F4C2
:1049C0007AC0809122028B7FAFE0EA16ACE5FA064E
:1049D00008F471C0809122028F7E6DC0ECEFEE165C
:1049E000ECE5FE0609F482C0A0F524E1E2162CE510
:1049F000F20609F493C098F442E1E4164CE5F4069B
:104A000009F47CC0809122028F7B53E1E5165CE5BE
:104A1000F50608F450C080912202837F4CC06AEFF3
:104A2000E6166CE5F60609F44DC008F051C095E1B4
:104A3000E9169CE5F90609F042C38091220282FB47
:104A4000992790F921E0922790FB82F990FB83F956
:104A500032C0E114ADE5FA0609F456C0A0F4809125
:104A600023028360FEEFEF16FCE5FF0671F18091F3
:104A700023028D7F2FEFE2162CE5F20630F18091B4
:104A800023028C7F22C032E0E3163DE5F30609F4F1
:104A900054C008F44CC051E6E5165DE5F50609F092
:104AA0000EC390912202892F8F7E94FF806103C0F4
:104AB0008091220281608093220201C380912202B0
:104AC0008460F9CF80912302816080932302F7C232
:104AD000809123028260F9CF809122028064EBCF23
:104AE0000E946C15809122028068E5CF809123029C
:104AF0008E7FEBCF809122028F7DDDCF0E946C15DF
:104B0000809122028F77D7CF80912302982F9095A2
:104B100091708E7F892B90FB81F9D7CF0E946C1505
:104B200090912202892F97FB87F98058C4CF61E0CA
:104B30008EE090E00E943336C2C260E0F9CF54ECC0
:104B4000E5165CE5F50609F4AAC065ECE6166CE529
:104B5000F60609F0CACE48E255E161E375E117C0F7
:104B6000A9ECEA16ACE5FA0609F4A8C0A0F4F7EC43
:104B7000EF16FCE5FF0609F49CC04CE155E160E14D
:104B800075E128ECE2162CE5F20609F0AECE0E94A3
:104B9000DB040C94031B3AECE3163CE5F30609F442
:104BA00092C04BECE4164CE5F40609F09ECE4AE3C5
:104BB00055E16BE475E1EBCF51EDE5165CE5F506EB
:104BC00009F494C0D0F48EECE8168CE5F80609F4EC
:104BD00087C008F482C0EFECEE16ECE5FE0609F49F
:104BE00082C06EE089E0F0EDEF16FCE5FF0609F00B
:104BF0007CCE0E94D31A0C94031B24EDE2162CE504
:104C0000F20609F479C070F442EDE4164CE5F406BE
:104C100009F46FC053EDE5165CE5F50611F40C944C
:104C2000031B63CE65EDE6166CE5F60611F40C94F5
:104C3000031B8DE5E816F80609F057CE68E283E21B
:104C4000D8CF8091540680FF1CC08E7F809354067D
:104C500060915406709155068091560690915706C2
:104C60000E945514109250029FEFA0E7E2E091508D
:104C7000A040E040E1F700C000000E9426120C9422
:104C8000031B81608093540661E086950E94111A8F
:104C90000C94031B40EC5AE169EC7AE178CF49ECC3
:104CA0005AE160EC7AE173CF41E355E168E275E1E6
:104CB0006ECF40E155E16CE175E169CF48EF54E119
:104CC00064E075E164CF44E055E168EF74E15FCFE3
:104CD0004BE455E16AE375E15ACF61E081E0D6CF5C
:104CE00065E082E086CF68E086E083CF64E18FE014
:104CF00080CF67E185E17DCF61E288E17ACF0E94D4
:104D00006C153FEF44E35CE0315040405040E1F728
:104D100000C000000E9486040E9440180C94031BEF
:104D2000C8010E947407F82EF9CD092F0F70907FEB
:104D300011F00295007F812F2223C9F0002369F032
:104D400090E2910F983010F011110BC08091160273
:104D5000082B009316020E945307812F0E942708F8
:104D600017C080911502082B00931502F4CF0E9402
:104D7000EE07002369F00095105E183010F0B110B6
:104D800014C0809116020823009316020E94530754
:104D900038E0E31AF10844E0E416F10410F00C9452
:104DA000031B0E94CF040C94031B8091150208235F
:104DB00000931502EBCF892F8F70907F903211F006
:104DC0008295807FF1E0BF120CC0222329F036309B
:104DD000F8F60E94E407DCCF3530D0F60E94D90700
:104DE000D7CF222341F03323A1F340FFB6CF4F703A
:104DF000F6014583EECF332389F3193349F4FFEFEE
:104E000027EE33E0F15020403040E1F700C00000D1
:104E1000812F0E94EE07BCCF892F869586958370DF
:104E200061F0813009F0B4CF812F9370211102C05D
:104E300090E080E00E94A304ABCF812F93702111FA
:104E400002C090E080E00E94B904A2CF892F837055
:104E5000A1F521119DCF812F829586958770880FAE
:104E6000880F412F4F70082E01C0440F0A94EAF7B3
:104E7000212F207114FF07C02FE030E001C0220F66
:104E80008A95EAF72095969596959370923081F0E1
:104E9000822F842B933030F480911702913029F0C7
:104EA000242B82230E94D50773CF842B822BFACF29
:104EB000242B809117028227F5CF8695222311F0AB
:104EC000892F8170882309F463CF812F829586957D
:104ED0008770880F880F412F4F70082E01C0440F34
:104EE0000A94EAF7212F207114FF07C02FE030E069
:104EF00001C0220F8A95EAF72095969596959370B2
:104F0000923081F0822F842B933030F480917E0692
:104F1000913029F0242B82230E94981A39CF842BB8
:104F2000822BFACF242B80917E068227F5CF092F82
:104F30000F70222329F0802F0E94B51A812F49CFAC
:104F4000812F0E94D907802F0E94A91A21CF812F7B
:104F500041EF141789F1411750F050EF1517B9F0D0
:104F60002223B1F13111F9CE892F8F7129C062EF5F
:104F7000161749F1A3EF1A13F3CF80E0222361F251
:104F80009F7181E001C0880F9A95EAF7C5CF22236F
:104F900079F0353008F0FCCE292F2F7181E090E0B8
:104FA00001C0880F2A95EAF790917E068927B4CF31
:104FB000363008F0EDCEF0CF892F8F71222321F209
:104FC0000E94B51AE5CE892F8F712223C9F3BCCF79
:104FD000332359F0893309F01BCFEFEFF7EE23E0CD
:104FE000E150F0402040E1F711CF892F8F71ACCF15
:104FF00050E1E5165FE5F50611F40C94261C61E11D
:10500000E6166FE5F60611F40C94301C33E7E31650
:10501000F10411F00C94321C882311F40C94321C0E
:1050200081E080932F02809330021092310210921F
:10503000D20110922102F6019281992309F460CCE9
:10504000F3E0EF16FDE5FF0608F028CC2AEFE216A4
:105050002CE5F20638F4970122503C452431310505
:1050600008F022CC0E94181290932302809322020F
:1050700040E1E4164CE5F40609F43CCD08F0AECC72
:1050800068E0E6166CE5F60609F426CD08F077CC64
:1050900094E0E9169CE5F90609F410CD08F059CC26
:1050A000E2E0EE16ECE5FE0609F402CD8091220264
:1050B0008260F3E0EF16FCE5FF0609F4FCCC60919A
:1050C00022021091230284E090E00E943336612F87
:1050D00082E290E00E9433360E946C150C94031B10
:1050E00090E1E9169FE5F90611F40C942A1CA1E160
:1050F000EA16AFE5FA0609F089CF82E00C942B1C82
:1051000085E0DE01119601900D928A95E1F7F60196
:10511000228189819A8121110C94191B0E947407A4
:10512000182F0C94211BFEECEF16FCE5FF0611F482
:105130000C94E01CAFECEA16ACE5FA0609F475CB6A
:10514000E0EDEE16ECE5FE0609F46FCBF1EDEF169F
:10515000FCE5FF0609F469CB22EDE2162CE5F20628
:1051600009F463CB33EDE3163CE5F30609F45DCBBC
:1051700044EDE4164CE5F40609F457CB55EDE5167D
:105180005CE5F50609F451CB6DE5E616F60609F087
:1051900057CB81114DCB4FCF1F93CF93DF9380918E
:1051A000E101807FA9F48091DE01882389F080915C
:1051B0001302D091E2016091DC017091DD01A091B8
:1051C000DF01B091E001C62FC72316E0D81304C059
:1051D000DF91CF911F91089590E0109711F0CF3F8C
:1051E00019F401968770F2CF189F9001199F300D26
:1051F0001124F901ED51FE4F41814713F2CF408157
:105200004613EFCF42814111ECCF438154814A1BB9
:105210005B0B483C510528F78091E1018F7080615C
:105220008093E101F901E851FE4F80818F70806128
:1052300080838CED91E00E94E11ADF91CF911F9164
:105240000C946A07AF92BF92CF92DF92EF92FF92D7
:105250000F931F93CF93DF93CDB7DEB761970FB650
:10526000F894DEBF0FBECDBF8C0185E0F801DE01F2
:105270001D9601900D928A95E1F7F801E2808CED80
:10528000A82E81E0B82E6091DF017091E0016115D8
:10529000710509F432C19091DC014091DD01892F43
:1052A00084238F3F09F429C120813181C380D480B8
:1052B000F090DE01F601E61BF70BFF2009F4E8C0D1
:1052C0008091E101582F507FE83CF10508F0ABC018
:1052D000511177C0FE2C431321C092131FC0E1105F
:1052E0001DC08F7080618093E101C5010E94E11AA9
:1052F0008091E101F80185838F2D61960FB6F894B6
:10530000DEBF0FBECDBFDF91CF911F910F91FF90F8
:10531000EF90DF90CF90BF90AF900895CD2829F007
:10532000822F83238F3F09F003C180E0F82FF170B3
:10533000DF2E80FF3CC0809113024091E20156E0D5
:10534000841315C02D873E878D859E850E94CC11C4
:10535000292F22952F702230F0F0243018F59F70FD
:10536000F1F0F8019581907FD1F4D12C1EC090E02E
:10537000589FF001599FF00D1124ED51FE4F6181AE
:10538000361306C06081261303C06281E6120FC087
:1053900001968770D5CF9F7011F0882331F3805E1E
:1053A000883018F3C8010E94E11AFD2CA5CFEE2029
:1053B00009F4A2CF8091E10181608093E101F12C99
:1053C0009BCF431306C0921304C0F801EE2009F4EA
:1053D00079C0C8010E94D811882309F1EE20F9F0A4
:1053E0008091E101803270F02091DC013091DD018B
:1053F00038872F831986DB86CA868C87CE0107966D
:105400000E94E11A86E0F801ACEDB1E001900D9246
:105410008A95E1F70E94CC28FF24F3946DCFC80150
:105420000E94E11AF9CF51110AC08CED91E00E945F
:10543000E11A86E0F50111928A95E9F7C0CF43138E
:105440000FC092130DC0E1100BC0F8018583C80195
:105450000E94E11A86E0F50111928A95E9F74CCF96
:10546000C8010E94D8118823D1F2EE20C1F28091A8
:10547000E101803238F22091DC013091DD013A8384
:1054800029831B82DD82CC828E83CE010196B8CF28
:10549000E83CF105F8F6FE2CEE2009F243131FC09C
:1054A00092131DC08091E10180FD10C0982F907F64
:1054B00069F0F8018583903F31F0982F907F905FDD
:1054C0008F70892B8583C8010E94E11A86E0F8015C
:1054D000ACEDB1E001900D928A95E1F70DCFC801D6
:1054E0000E94D81181118ECF8091E101816080935B
:1054F000E101C8010E94E11AFFCEEE2009F48FCF2E
:10550000C8010E94D811F82E882309F488CF86E0BC
:10551000F801ACEDB1E001900D928A95E1F7809130
:10552000DC019091DD010E94CC110E94CC28E4CED8
:1055300081E08E25FBCE1F93CF93DF93CDB7DEB7EF
:1055400067970FB6F894DEBF0FBECDBF4B8B5C8B59
:105550006D8B7E8B8F8B6111109215021A8A198ABE
:1055600085E0FE017396DE011D9601900D928A95ED
:10557000E1F786E0FE013D96DE01179601900D925F
:105580008A95E1F7CE0107960E942229882389F0A7
:1055900016E0809113029091E201891349C0679649
:1055A0000FB6F894DEBF0FBECDBFDF91CF911F9134
:1055B000089586E0FE013796DE01119601900D9266
:1055C0008A95E1F78A859B85892B11F38F819885D0
:1055D00089238F3FE9F22091E20130E0C901019671
:1055E00087709927409113024817190671F40E9499
:1055F0006C151092E2011092130286E0ECEDF1E0DE
:10560000DF011D928A95E9F7C3CF96E0929FD00102
:10561000939FB00D1124AD51BE4FFE013196019004
:105620000D929A95E1F78093E2010E946A07B0CF4C
:10563000819FC00111248D519E4F0E9422298823F1
:1056400009F4ADCF8091130290E0019687709927FD
:10565000809313029ECF4F925F926F927F928F92B0
:105660009F92AF92BF92CF92DF92EF92FF920F93F1
:105670001F93CF93DF93CDB7DEB72D970FB6F89476
:10568000DEBF0FBECDBF7E0148E0E40EF11C86E018
:10569000F70111928A95E9F7B3E6CB2EB1E0DB2E44
:1056A00010E000E0AA24A394B12CF60181916F01CF
:1056B0008F3F09F443C0F894E82FE295EF70F0E0D3
:1056C00021A18F70A50102C0440F551F8A95E2F7F2
:1056D000CA01922F982B91A392A18095892382A32E
:1056E000789400C0E9E6F1E0912C31E021912F3F60
:1056F00009F46DC0A22FA295AF70B0E090968C9186
:1057000090E02F7002C0959587952A95E2F780FD6D
:105710005EC0832F982A330F51E0ED36F50731F73D
:10572000F601319780818F3F11F00E94910580EA48
:105730008A95F1F7F701E00FF11F90820F5F1F4F7D
:105740000630110509F0B1CF46E050E0B70184E220
:1057500092E00E941236CC24C394009709F4C12C25
:10576000892BB9F186E0FE013896A4E2B2E00190FF
:105770000D928A95E1F781E080931A020E94051A42
:105780009093190280931802809118029091190247
:105790000E94F619059708F1809124028093430234
:1057A00080912502809344028091260280934502D5
:1057B00080912702809346028091280280934702BD
:1057C000809129028093480210921A0206C080E05C
:1057D000A1CF80911A028111D7CF80911D019091A4
:1057E0001E01892B41F080911B0190911A018923A0
:1057F0008F3F09F024C28091220190912301892BCF
:1058000041F080911F019091200189238F3F09F081
:10581000FCC18091130190911401892B41F080917A
:1058200011019091100189238F3F09F0D4C180911B
:10583000180190911901892B41F0809116019091E6
:10584000150189238F3F09F0ACC180913102882373
:1058500009F4E3C080912D0290912E0220912B0239
:1058600030912C02FC01E21BF30B9F0121343F41DC
:1058700008F4D3C090932C0280932B021092210243
:1058800008EC10E027E030E0AE014F5F5F4F60E0D2
:1058900080ED0E9415350E9464358981282F30E003
:1058A00094E0359527959A95E1F7922F97702AE025
:1058B0008F70929F800D112480931B023A81832F59
:1058C00090E044E0959587954A95E1F787703F70A1
:1058D000F32E829FF00C1124F0921C023B81832F47
:1058E00090E054E0959587955A95E1F783703F7065
:1058F000E32E829FE00C1124E0921D028D81482F3F
:1059000050E064E0559547956A95E1F747708F70D0
:10591000429F800D112480931E028E81482F50E0FB
:1059200074E0559547957A95E1F743708F70429FE3
:10593000800D112480931F028F81482F50E0E4E0F6
:1059400055954795EA95E1F743708F70429F800D1A
:105950001124809320028E2D622F0E947C35782E98
:1059600036EF0E2D839F000D11248F2D0E947C3564
:10597000D82E1F2D839F100D11244090320250907D
:10598000330260903402F4E5AF2EF2E0BF2EA4EDB6
:105990008A2EA3E09A2E9501442D652D862D0E9416
:1059A000F60443E0A40EB11C8A149B04A1F759E04D
:1059B0005E1508F450C080E00E94A30F011159C089
:1059C00084E00E94A30FF9E0FF1508F489C089E084
:1059D0000E94A30F1111AEC08DE00E94A30F2CEC0A
:1059E00032E04FEF60E080E00E94F6042CEF32E0FE
:1059F0004FEF60E080E00E94F60429E233E04FEFD1
:105A000060E080E00E94F60429E533E04FEF60E0BB
:105A100080E00E94F6040E9426120E949704709370
:105A20002E0260932D028C2D2D960FB6F894DEBFBA
:105A30000FBECDBFDF91CF911F910F91FF90EF90DF
:105A4000DF90CF90BF90AF909F908F907F906F909E
:105A50005F904F90089581E0781204C080E00E942A
:105A6000DB0EACCFE2E07E12A9CF80E00E94130EE5
:105A7000A5CF013021F484E00E94DB0EA4CF0230D8
:105A800021F484E00E94130E9ECF033021F484E0C1
:105A90000E944B0D98CF043021F484E00E94830CC7
:105AA00092CF053021F484E00E94BB0B8CCF0630EE
:105AB00021F484E00E94F30A86CF073021F484E0C9
:105AC0000E942B0A80CF083021F484E00E946309F1
:105AD0007ACF093009F077CF84E00E949B0873CF1A
