:100000000C94AD020C94F4020C94F4020C94F402DF
:100010000C94F4020C94F4020C94F4020C94F40288
:100020000C94F4020C94F4020C9488110C94441176
:100030000C94881E0C94F4020C94F4020C94F402B8
:100040000C94F4020C94F4020C94F4020C94F40258
:100050000C94F4020C9461120C94F4020C94F402CB
:100060000C94F4020C94F4020C94F4020C94F40238
:100070000C94F4020C94F4020C94F4020C94F40228
:100080000C94F4020C94F4020C94F4020C94F40218
:100090000C94F4020C94F4020C94F4020C94F40208
:1000A0000C94F4020C94F4020C94F40205010980FF
:1000B000A101850319012AB700150126B700950192
:1000C00075108100C0050C0901A101850419012AE0
:1000D000A002150126A002950175108100C00660DE
:1000E000FF0961A1010962150026FF00952075082E
:1000F00081020963150026FF00952075089102C052
:1001000005010906A101050719E029E715002501E8
:10011000950875018102950175088101050719008F
:1001200029FF150026FF00950675088100050819AE
:10013000012905950575019102950175039101C08D
:1001400000000000000000000000000000000000AF
:10015000000000000000000000000000000000009F
:10016000000000007E0F00D4FFFFFFC700000078F2
:1001700000000000000000002A2B28000000000002
:100180000000000000000000000000290000000046
:100190002C1E3420212224342627252E362D3738B4
:1001A000271E1F202122232425263333362E3738BD
:1001B0001F0405060708090A0B0C0D0E0F1011127B
:1001C000131415161718191A1B1C1D2F3130232D47
:1001D000350405060708090A0B0C0D0E0F10111245
:1001E000131415161718191A1B1C1D2F3130354CF6
:1001F0001E0F057F3F1F643214643214783C1E1EAC
:10020000140A0500010101010101010101020202BC
:1002100002020202020203030303030303030404B2
:10022000040404040405050505050606060606077C
:100230000707070708080808090909090A0A0A0B35
:100240000B0B0C0C0C0D0D0D0E0E0E0F0F0F1010D6
:10025000111111121213131414151516161717185D
:100260001819191A1A1B1B1C1D1D1E1E1F202021C8
:100270002222232424252626272829292A2B2C2D0F
:100280002D2E2F30313232333435363738393A3B30
:100290003C3D3E3F404142434445464748494A4C25
:1002A0004D4E4F50515354555658595A5B5D5E5FF1
:1002B000616264656668696B6C6D6F707273757787
:1002C000787A7B7D7E8082838587888A8C8E8F91E9
:1002D000939596989A9C9EA0A2A3A5A7A9ABADAF13
:1002E000B1B3B5B7BABCBEC0C2C4C6C9CBCDCFD1FD
:1002F000D4D6D8DBDDDFE2E4E7E9EBEEF0F3F5F8A6
:10030000FAFDFFFFAA7F55402223252628292A2C03
:100310002D2F3032333536383A3B3D3E404243454F
:1003200047494A4C4E5051535557595A5C5E60628A
:10033000646668696B6D6F71737577797B7D7F819A
:10034000838587898A8C8E90929496989A9C9E9F9A
:10035000A1A3A5A7A8AAACAEAFB1B3B4B6B8B9BBB8
:10036000BCBEBFC1C2C3C5C6C7C9CACBCCCDCED027
:10037000D1D2D2D3D4D5D6D7D7D8D9D9DADADBDB14
:10038000DBDCDCDCDCDCDDDDDDDDDCDCDCDCDCDBAB
:10039000DBDBDADAD9D9D8D7D7D6D5D4D3D2D2D1F4
:1003A000D0CECDCCCBCAC9C7C6C5C3C2C1BFBEBCE7
:1003B000BBB9B8B6B4B3B1AFAEACAAA8A7A5A3A158
:1003C0009F9E9C9A98969492908E8C8A898785831A
:1003D000817F7D7B79777573716F6D6B69686664FA
:1003E00062605E5C5A5957555351504E4C4A4947CA
:1003F000454342403E3D3B3A3836353332302F2D6F
:100400002C2A292826252322AE0054005500560008
:10041000240025002600574121002200230000006F
:100420001E001F00200028002700370000000000E9
:10043000AC00AB00AA00A90073000000000000009F
:100440004A0052004B000000500051004F000000D5
:100450004D0000004E00280000004C00000000008D
:10046000000000000000000000000000000000008C
:10047000000000000000000000000000000000007C
:10048000000000000000000000000000000000006C
:10049000000000000000000000000000000000005C
:1004A000000000000000000000000000000000004C
:1004B000000000000000000000000000000000003C
:1004C000000000000000000009025B00030100A022
:1004D000FA090400000103010100092111010001D2
:1004E0002240000705810308000A090401000203F5
:1004F00000000009211101000122220007058203EA
:100500002000010705030320000109040200010384
:1005100000000009211101000122320007058403B7
:1005200020000A1201000200000008EDFE268A01E8
:1005300000010200010E036E006F00770070006181
:1005400000640000000E0355004E005200450041BB
:10055000004C000000040309040011241FBECFEF6B
:10056000DAE0DEBFCDBF04B603FE27C080917B0674
:1005700090917C06A0917D06B0917E068730904BCD
:10058000A740B04BD1F410927B0610927C061092DB
:100590007D0610927E0614BE84B7877F84BF0FB697
:1005A000F894A89580916000886180936000109213
:1005B00060000FBEE0E0F8E3099526E0AAEBB1E0A9
:1005C00001C01D92AB37B207E1F711E0A0E0B1E046
:1005D000E2EBFEE402C005900D92AA3BB107D9F709
:1005E0000E94AF1E0C9420270C940000E8EDF0E070
:1005F00080818E7F80831092E2001092DA00109248
:10060000E100A0EEB0E08C9181608C9380818F77C7
:10061000808319BCA7EDB0E08C918E7F8C93808194
:100620008F7E80831092630608952091E4003091BC
:10063000E50095E6A9012091EC00822F817020FF52
:1006400006C08091E80080FF06C080E008952091F8
:10065000E80022FD1AC080917006882389F0853059
:1006600089F08091EB0085FD0FC02091E40030916E
:10067000E50042175307F9F29150E1F684E008953E
:1006800082E0089583E0089581E00895EF92FF925B
:100690000F931F93CF937C018B010E941503C82FEA
:1006A000811117C08091E80085FD0BC08091E800A2
:1006B0008E778093E8000E941503882399F3C82F52
:1006C00008C0F70181917F018093F1000150110969
:1006D00049F78C2FCF911F910F91FF90EF900895C4
:1006E0008091720687FF13C08091E80082FF06C0E8
:1006F0008091E8008B778093E80004C080917006B9
:100700008111F2CF0895809170068823D9F38091EA
:10071000E80080FFF8CF8091E8008E77ECCF982F2B
:100720009093E900242F762F50E0891731F07091D3
:10073000EC002091ED005091F00021FD07C09F5F7B
:10074000973071F78093E90081E008953091EB00D4
:100750003E7F3093EB003091ED003D7F3093ED0014
:100760003091EB0031603093EB007093EC002093FC
:10077000ED005093F0002091EE0027FDE0CF80E0E7
:100780000895CF92DF92EF92FF920F931F93CF9332
:10079000DF93C8EDD0E088818F7E8883E7EDF0E0BD
:1007A00080818160808384E082BF81E080936306E2
:1007B00088818E7F888302EE10E0F801108210920B
:1007C000DA0081EEC82ED12CF601108288818F7755
:1007D000888388818068888388818F7D888319BC1D
:1007E000109270061092710610926F0610926E06AB
:1007F00090EEE92EF12CF70180818B7F8083888138
:100800008160888342E060E080E00E948F03F6010F
:1008100080818E7F8083F8018081816080838081E8
:1008200088608083F70180818E7F808388818061EA
:100830008883DF91CF911F910F91FF90EF90DF9010
:10084000CF900895FC0180917806909179068617E3
:100850009707A0F06115710529F49091E8009E7743
:100860009093E80090E06115710551F4911108C072
:100870008091E80082FF34C080E00895BC01F2CF8F
:10088000809170068823C1F18530C1F18091E80024
:1008900083FD30C08091E80082FDEACF8091E800BE
:1008A00080FFE1CF8091F3002091F200382F611595
:1008B000710519F02830310558F091E028303105E4
:1008C00009F090E02091E8002E772093E800CBCF4C
:1008D00081918093F100615071092F5F3F4FE7CF05
:1008E00080917006882341F0853041F08091E800C6
:1008F00083FFBECF81E0089582E0089583E00895EC
:1009000008950895089580916506089587E797E70B
:10091000909301088093000888E19AE00FB6F8945C
:10092000A895809360000FBE90936000FFCF2FB713
:10093000F89460915C0670915D0680915E069091DE
:100940005F062FBF08952091590630915A06281747
:10095000390771F090935A0680935906E091570633
:10096000F0915806309721F00084F185E02D09942C
:10097000089520915506309156062817390771F0D1
:100980009093560680935506E0915706F0915806CD
:10099000309721F00680F781E02D09940895E091C9
:1009A0005706F0915806309721F00190F081E02D24
:1009B000099480E00895FA01811101C0FB010994B6
:1009C00080915006982F9E7F61F4817082608093A1
:1009D0005006809153068F3618F08EE680935306AA
:1009E00008958235B0F381708065F1CFAF92BF92E8
:1009F000DF92EF92FF920F931F93CF93DF93182F05
:100A0000062FE9014F3608F04EE6E42FF0E0ED5FE7
:100A1000FD4F011110C0E4915E2F4E2F4983E883F2
:100A20005A83DF91CF911F910F91FF90EF90DF904C
:100A3000BF90AF900895202F30E04491D42EE42E43
:100A4000F12C56E0159FC0011124EFEFF0E0BF013B
:100A50000E94BE25812F90E0880F991F55E5569F73
:100A6000D001579FB00D11248A1B9B0B982F990F13
:100A7000890F5F01A21AB30AAE9CD001AF9CB00DE2
:100A8000BE9CB00D11245B2F089F80011124012F03
:100A900011275F01A01AB10AAE9C8001AF9C100D16
:100AA000BE9C100D11245F01A81AB108A29EC001BE
:100AB000A39E900DB29E900D1124892F9927E81BBB
:100AC000F90BEE9DC001EF9D900DFE9D900D112440
:100AD000E92F62307105A1F050F46115710509F438
:100AE0009DCF6130710581F0EB2F512F97CF64308E
:100AF000710569F080F06630710509F48FCFF4CF8D
:100B0000E42F4B2F592F8ACFE42F412F87CFEB2F84
:100B1000542F492F83CF4B2F5D2DE12F7FCF80E0C6
:100B20000895F894E82FE295EF70F0E031A1282FB6
:100B30002F7081E090E001C0880F2A95EAF7982F86
:100B40009095932391A392A1892B82A378940895E1
:100B50009091280292FF06C0282F28712830F9F4BE
:100B6000877F846093FF06C0282F28712831F1F415
:100B7000877E84612091290220FF06C0382F3871BA
:100B80003830D9F4877F816021FF06C0282F287173
:100B90002831D1F4877E816194FD877E0895282FC6
:100BA00024712430F9F68B7F8860DCCF282F2471E4
:100BB000243101F78B7E8861DDCF382F31713130E0
:100BC00019F78E7F8860E0CF282F2171213121F71E
:100BD0008E7E8861E1CFCF93DF93EC01823891055F
:100BE00081F1B0F58133910509F491C020F5893286
:100BF000910509F485C08A9709F490C0C11521E5D3
:100C0000D20708F0AAC0C11530E5D30708F0F2C03A
:100C1000CF3BD10508F089C0C83AD10508F0DFC044
:100C2000C53AD10508F0D3C0C430D105F8F4C130BD
:100C3000D105E1F040C08533910509F45AC0C99748
:100C4000E9F680912802837089F0C0EED0E00EC0F2
:100C5000833E910599F170F4803E910501F1823E49
:100C6000910561F68091280282FD21C0CE01DF91BD
:100C7000CF910895863E910561F1873E910571F10E
:100C8000843E910509F0BACF8091290281FFEECF11
:100C900080912802C7EED0E084FD0DC0E7CF80919F
:100CA000280280FDF7C09091290290FFDFCFC3EEAC
:100CB000D0E084FFDBCFD0E0C0E0D8CF8091280225
:100CC00082FDEBC09091290290FDBFCF84FFCECF73
:100CD000F2CF8091280283FDDDCFC8CF809128021A
:100CE00083FDDEC09091290291FFF0CFC4EED0E0E9
:100CF000BDCF8091280285FFB9CFC9E2D0E0B6CF41
:100D00008091280285FFB2CFC5E3D0E0AFCF8091BC
:100D1000280286FFABCFCAE2D0E0A8CF809128029C
:100D200086FFA4CFC1E3D0E0A1CFC11540E2D40734
:100D300060F4C11581E0D80708F098CFCE01815E3C
:100D40009109079708F492CFB6CFC11590E4D9075F
:100D500008F4B1CFDF70D06A89CFC11524E5D2077E
:100D600078F4C11533E5D30708F072C0C11542E528
:100D7000D40708F05CC0DC2FCC27C16FD06A76CFD7
:100D8000C1158AE5D80778F4C11599E5D90708F0A7
:100D900073C0C11528E5D20708F48DCFDC2FCC270E
:100DA000C06FD06A63CFCE0190568115904208F093
:100DB00082CF8D2F8F710E94A80590E0982F8827F1
:100DC00088279F719C012C2BE901D0624FCFC55A17
:100DD000D0E0C05DDE4FC881D0E0D06447CFC85AB4
:100DE000D0E0CC0FDD1FCD5CDE4F0990D881C02D47
:100DF000D4643CCFCE0164E0969587956A95E1F77F
:100E000083702C2F26952695237040E2249F900115
:100E10001124382B8C2F8370C1E0D0E002C0CC0F9E
:100E2000DD1F8A95E2F7C22BD32BDC681FCFCE01E2
:100E30008370992721E030E002C0220F331F8A958A
:100E4000E2F7C695C69580E2C89FE0011124EBCF7A
:100E5000CE018370992721E030E002C0220F331FBA
:100E60008A95E2F7C695C69590E2C99FE0011124E4
:100E7000C22BD32BDA68FACE8C2F8F700E94A80574
:100E800034E0D695C7953A95E1F7CF709C2FEC01E9
:100E9000D069ECCEC9E3D0E0E9CEC2EED0E0E6CE38
:100EA000C6EED0E0E3CE8091150290911402892B1A
:100EB00090911302892B8093BC01E0915706F09129
:100EC0005806309731F00280F381E02D8CEB91E0F1
:100ED00009940895809112029091E101981301C044
:100EE00008958F5F8770FACF990F990F890F982F08
:100EF000977086958695869523E0829FF001112450
:100F0000EE52FE4F50E040E080E0219130E0092EAB
:100F100002C0369527950A94E2F721703327042EF4
:100F200001C0220F0A94EAF7822B4F5F5F4F4330D4
:100F3000510559F70895990F990F890F982F9770B8
:100F400041E001C0440F9A95EAF78695869586950B
:100F500093E0899FF0011124EE52FE4F30E020E033
:100F600070E05191DF011197CB01022E02C09695DE
:100F700087950A94E2F781708195852784238527D8
:100F80008C932F5F3F4F2330310559F7089590E040
:100F900080E00E94B90490E080E00E94A3041092D7
:100FA0001402109213020C94530780937A060C9447
:100FB000C70780917A06982F9670963019F488604A
:100FC0000C94D507877FFCCF21E030E001C0220FD1
:100FD0008A95EAF7209580917A0682230C94D507AA
:100FE00021E030E001C0220F8A95EAF780917A066D
:100FF000822B0C94D507809316020C94C707882384
:1010000041F08095909115028923809315020C94EC
:1010100053070895882339F090911502982B9093E7
:1010200015020C94530708958823B1F19CEF980F93
:10103000913A70F4EEEBF1E09191891303C0DF0176
:1010400011971C9241E0E43CF407B1F70C9453076C
:1010500090E2980F983088F4877021E030E0A90181
:1010600002C0440F551F8A95E2F7CA0180959091FE
:101070001502892380931502E9CF9BE5980F9330E1
:1010800020F490E080E00C94B904885A873120F471
:1010900090E080E00C94A30408950F931F93CF93E6
:1010A000C82F882309F469C08CEF8C0F813AB0F502
:1010B0000EEB11E084EC91E0F8012191C21701F1EF
:1010C00021E0E43CF207C9F7EFEF80E0D8019D9101
:1010D0008D01C91781F0EF3F19F4911101C0E82F7C
:1010E0008F5F863099F7EF3F31F00E2E000CFF0B2B
:1010F000E454FE4FC283CF911F910F910C9453077C
:10110000EEEBF1E02191C21303C0DF0111971C92B5
:101110008E179F07B9F70E945307D6CF80E28C0F36
:10112000883068F4C77021E030E001C0220FCA9512
:10113000EAF780911502822B80931502DCCFEBE554
:10114000EC0FE33050F4F0E0E05DFE4F808190E082
:10115000CF911F910F910C94B904C85AC73168F40C
:10116000EC2FF0E0EE0FFF1FED5CFE4F80819181D0
:10117000CF911F910F910C94A304CF911F910F91C8
:101180000895809360067093620660936106809173
:1011900070068430F9F48093E9008FEF9091E800B5
:1011A000815095FD06C095ED9A95F1F700008111EB
:1011B000F5CF8091E80085FF0DC050E040E063E08E
:1011C00070E080E696E00E9446038091E8008E770A
:1011D0008093E8000895BC0184E00C94C108BC0130
:1011E00083E00C94C108CF93DF93EC0181E08093FE
:1011F000E9008FEF9091E800815095FD06C095EDD4
:101200009A95F1F700008111F5CF8091E80085FFF4
:1012100014C050E040E068E070E0CE010E94460358
:101220008091E8008E778093E80088E0FE01A6E6D2
:10123000B6E001900D928A95E1F7DF91CF91089584
:101240001F93CF93DF93182FEB010E944D08209737
:1012500031F4812FDF91CF911F910C9414088FE905
:101260009FE00197F1F700C000002197F0CFCF93E6
:10127000DF93C7EED0E060E0CE010E948926219680
:10128000C11584E0D807B9F7DF91CF9108956F9227
:101290007F928F929F92AF92BF92CF92DF92EF9206
:1012A000FF920F931F93CF93DF9388E0C82E84E0C3
:1012B000D82E0FE510E0E801E09736011CC0F501DB
:1012C00085909490692DC7010E948926682DC701D9
:1012D00001960E94892682E0A80EB11C82E0E80EE9
:1012E000F11CCE15DF0559F788E0680E711C2896B1
:1012F0000C171D0731F07E0188E0E81AF108530150
:10130000DECF005D1F4F80E3C80ED11C0F3181E09E
:10131000180789F6DF91CF911F910F91FF90EF9001
:10132000DF90CF90BF90AF909F908F907F906F9005
:101330000895CF93C82F6FEF811162E283E290E0AE
:101340000E9489266FEFC11161E084E290E00E9463
:1013500089266FEFC11163E285E290E0CF910C9492
:10136000892680E00E94990960E086E290E00E9470
:1013700089260E9447090E94370981E00C94990947
:101380000F931F93CF93DF9328E0629FE001112416
:1013900050E0440F551FC40FD51F30E3839FC00D8D
:1013A000D11D1124CE0187960E947526082F10E0CA
:1013B000102F0027CE0188960E9475269801282BB1
:1013C000C901DF91CF911F910F910895462F84306D
:1013D00038F4763028F4643018F4672F0C94C00980
:1013E00090E080E00895CF92DF92FF920F931F93D9
:1013F000CF93DF936C0100917A0680911602082B3F
:10140000C7E0D0E010E0FC2EC8010C2E02C095957C
:1014100087950A94E2F780FD0CC02197A0F7F12C84
:101420008F2DDF91CF911F910F91FF90DF90CF9083
:101430000895B6018C2F0E94E6090E94EB050197E2
:1014400061F3EECFCF93DF93EC010E94F309BE016D
:101450000E94E609DF91CF910C94EB05FC0180819D
:1014600091810E94220A292F2F7092959F7092508D
:101470009E3078F4E92FF0E0EE5DF84D0C94F22503
:10148000803F19F020F4883E20F481E00895843FE5
:10149000E1F380E00895883EC0F3813FD1F7F5CFB6
:1014A000822F869586958695089583E290E00E9426
:1014B0007526823289F484E290E00E94752681309C
:1014C00059F485E290E00E94752691E0833209F09C
:1014D00090E0892F8170089580E0FCCFCF9384E065
:1014E00090E00E947526C82F82E290E00E94752647
:1014F000982F8C2FCF9108958091500680FD0AC0BF
:10150000E0E5F2E0118210821282339653E0E03D72
:10151000F507C1F7809A31B33E7F21B321604FB701
:10152000F89480E592E0FC015191CF0168E021BB85
:10153000000000C057FF31BB550F000000C000C0C5
:1015400000C031BB00C06A9591F7F3E0803D9F0772
:1015500051F74FBF8FE594E00197F1F700C000000D
:1015600008958F929F92AF92BF92CF92DF92EF92A7
:10157000FF920F931F93CF93DF93FC01A28084808F
:1015800081E08483E8E0F3E0B490E7E8F3E0E491FD
:10159000C0EDD3E050E5E52E52E0F52ECC24CA9400
:1015A000D12C99249A94EB190E2F10E042E04A15A1
:1015B00030F0809151068883809152068983811092
:1015C0001EC01B821A8297014A81698188810E940C
:1015D000F604259643E0E40EF11C86E0C035D807FA
:1015E00029F7DF91CF911F910F91FF90EF90DF903E
:1015F000CF90BF90AF909F908F900C947C0A8B817E
:101600008823E9F081508B83899DC00111246C816E
:1016100070E00E94BE25FB01FF27E85FFC4F84912C
:10162000E82FEB19E99DC0011124B8010E94BE25E5
:1016300080915306689FB00111247A83C4CF0E9421
:101640004B26209153062695215840E2249F900175
:101650001124232F3327821793070CF0B4CF82E095
:101660008A1588F40E944B26B6010E94DE258883E5
:101670000E944B26209152062695622F70E00E9410
:10168000DE25280F29831A8280915306843108F4BD
:1016900084E18C838B8397CFEF92FF920F931F93FC
:1016A000CF93DF938C01C0E5D2E0F12CE12CF8015F
:1016B00094816091520680915106F0E4EF16F10496
:1016C000FCF49923F9F09E01409153060E94F60420
:1016D0002FEFE21AF20A239680E8E816F10439F7B0
:1016E0000E947C0AF801848190E00196817099271C
:1016F0008483DF91CF911F910F91FF90EF90089518
:10170000992309F39E0140E0E1CF0F931F93CF93FC
:10171000DF93C0E5D2E0FE0111821082128233967F
:1017200083E0E03DF807C1F710E000E080914F0250
:10173000082E000C990B081719078CF180911D01D8
:10174000082E000C990B801791074CF19E014091D7
:10175000530660915206809151060E94F6040F5F75
:101760001F4F23960038110509F70E947C0A8091CB
:101770001C0190914F02980F90934F0220911D01F0
:10178000280F20931D01121614F49F3719F4819528
:1017900080931C01DF91CF911F910F9108951982C1
:1017A00018821A82DCCFCF92DF92EF92FF920F93D2
:1017B0001F93CF93DF93FC018281DD24DA9480FDB7
:1017C00002C0DD24D394C0E5D2E010E000E019822D
:1017D00018821A8294E0E92EF12CC12C80914E02DD
:1017E0008C0D87FD8058082E000C990B80179107EF
:1017F00091F4809153068E9DA0018F9D500D112470
:1018000055954795559547959E0160915206809153
:1018100051060E94F604CD0CF1E0EF1AF108F1F642
:101820000F5F1F4F23960038110589F60E947C0A2E
:1018300080914E0291E0D91210C081110CC08FE747
:1018400080934E02DF91CF911F910F91FF90EF9007
:10185000DF90CF9008958150F3CF90E001968F777D
:101860009927EECFEF92FF921F93CF93DF93EC0176
:1018700080E5E82E82E0F82E10E08C8197014091FF
:10188000530660915206810F0E94F6041F5F83E0A9
:10189000E80EF11C103889F70E947C0A9A818C812D
:1018A00090FF08C08F5F8C83DF91CF911F91FF90D5
:1018B000EF9008958150F7CF9091500690FF0CC0A3
:1018C000E0E5F2E0818360834283339693E0E03D7C
:1018D000F907C1F70C947C0A0895CF93DF9300D0E9
:1018E0000F92CDB7DEB79091500690FF0AC09E01CF
:1018F0002F5F3F4F0E94F6044B8169818A810E94CD
:101900005C0C0F900F900F90DF91CF910895CF93C3
:10191000DF93EC01E0E5F6E0438162818C810E9477
:101920006D0C8C818F5F8C83DF91CF910895CF9365
:10193000DF93EC01EC81F0E0E85FFC4F4491E0E5DF
:10194000F6E0628181810E946D0C8C818F5F8C83B7
:10195000DF91CF910895CF92DF92EF92FF926B01CA
:101960007C010E94E004B701A60188E090E0FF90AE
:10197000EF90DF90CF900C949B267F928F929F9256
:10198000AF92BF92CF92DF92EF92FF920F931F938D
:10199000CF93DF9300D00F92CDB7DEB7182FD62E9E
:1019A000042FC22E9091500690FF29C0E92FE69592
:1019B000AE2FB0E0AF57BE4F8C9180934B029E7F0D
:1019C000923071F59E012F5F3F4F812F0E94F604E8
:1019D0004B8169818A810E945C0C10935106D092E0
:1019E000520600935306CC2051F06091500670913E
:1019F000510680915206909153060E94AB0C0F90B5
:101A00000F900F90DF91CF911F910F91FF90EF906A
:101A1000DF90CF90BF90AF909F908F907F90089570
:101A2000823019F400915306D8CF863019F4109102
:101A30005106D3CF8930D9F3883179F6E8512E2F6A
:101A40002170722EE695F0E0ED5FFC4F859094904A
:101A5000992430E5E32E32E0F32EB12CA12CC50100
:101A6000880F892F881F990B9195711013C0810FD2
:101A70009701402F6D2D0E94F604A80CB91C83E03D
:101A8000E80EF11C20EDE21623E0F20641F70E9479
:101A90007C0AA3CF212F281B822FEACFE0E5F6E0B6
:101AA000438128E0421B08F440E021E0628181810B
:101AB0000C94BD0CE0E5F6E0438128E0420F08F409
:101AC0004FEF21E0628181810C94BD0CE0E5F6E0EE
:101AD000628128E0621B08F460E021E0438181819B
:101AE0000C94BD0CE0E5F6E0628128E0620F08F49A
:101AF0006FEF21E0438181810C94BD0CE0E5F6E0BD
:101B0000818121E04381628188500C94BD0CE0E525
:101B1000F6E0818121E043816281885F0C94BD0CF5
:101B200080915406882319F0815080935406609167
:101B300050067091510680915206909153060C9474
:101B4000AB0C80915406833018F48F5F8093540659
:101B50006091500670915106809152069091530603
:101B60000C94AB0CE0E5F6E083E0808311828FEF0C
:101B700082838EE683831482608171818281938166
:101B80000C94AB0C0F931F93CF93DF93CDB7DEB7BD
:101B900062970FB6F894DEBF0FBECDBF91E1EFE1C3
:101BA000F1E0DE01119601900D929A95E1F7E1E0E6
:101BB000F0E0EC0FFD1FE60FF11D90819A8B682F6E
:101BC000660F843018F0880F69EF680F04E610E0A4
:101BD00021E030E0AE014E5E5F4F80EE0E943E2578
:101BE00062960FB6F894DEBF0FBECDBFDF91CF91E6
:101BF0001F910F91089510921502EEEBF1E086E02F
:101C0000DF011D928A95E9F70C94C7071F93CF93C4
:101C1000DF93CDB7DEB7AA970FB6F894DEBF0FBE3D
:101C2000CDBF82E796E02091F100DC012D93CD013C
:101C3000B6E08A379B07B9F780917306833009F4C1
:101C400072C0B8F4813009F449C0823009F4B3C0DD
:101C50008091E80083FF8BC2809172069091730699
:101C60009A3008F084C2E92FF0E0E05DF84D0C9462
:101C7000F2258A3009F48EC08B3009F471C08930A6
:101C800039F780917206813219F78091760690912A
:101C90007706009711F00297D9F68091E800877FC8
:101CA0008093E8008091E80082FF38C09091F300B3
:101CB0008091F200029731F48091F100813011F0AF
:101CC000863021F48091F100809365068091E800D0
:101CD0008B778093E8000E947003BACF80917206E0
:101CE000813A09F0B5CF8091E800877F8093E800C2
:101CF0008091760690917706892B61F468E086E6FC
:101D000096E070E00E9422048091E8008B77809337
:101D1000E8009ECF60E090E080E0F3CF8091700615
:101D20008111C0CF95CF80917206813A09F090CF92
:101D30008091760690917706892B09F089CF809162
:101D4000E800877F8093E8008091E80080FFFCCF67
:101D500080911E018093F1008091E8008E77B9CFC9
:101D600080917206813209F073CF8091760690914E
:101D70007706892B09F06CCF8091E800877F8093EC
:101D8000E8000E9470038091740680931E010E94F7
:101D9000FB0D5ECF80917206813209F059CF8091A0
:101DA000E800877F8093E8000E94700380917506A9
:101DB000809364064DCF80917206813A09F048CF36
:101DC0008091E800877F8093E8008091E80080FFA1
:101DD000FCCF80916406BECF803899F0823809F03C
:101DE000C6C1809176068F70873008F0C0C180939D
:101DF000E9008091EB0085FB882780F91092E900CB
:101E000006C080916E0690916F069111826090914C
:101E1000E800977F9093E8008093F1001092F10022
:101E20008091E8008E779FC1882309F48DC18230AC
:101E300009F09DC180917406811190C18091760650
:101E40008F702FEF280F263008F091C18093E900A2
:101E50002091EB0020FF82C1933031F48091EB00A0
:101E600080628093EB007AC19091EB009061909337
:101E7000EB0021E030E001C0220F8A95EAF72093C1
:101E8000EA001092EA008091EB008860EACF8111AD
:101E90006EC1109174061F778091E3008078812BCA
:101EA0008093E3008091E800877F8093E8000E94A0
:101EB00070038091E80080FFFCCF8091E300806890
:101EC0008093E30082E0111183E0809370064FC19C
:101ED0008058823008F04BC120917406309175060D
:101EE0002C3DE3E03E07A1F583E08A838AE2898303
:101EF0004FB7F894DE01139620E03EE051E2E32F65
:101F0000F0E050935700E49120FF03C0E295EF709A
:101F10003F5FEF708E2F90E0EA30C0F0C7968D9350
:101F20009D932F5F243159F74FBF8091E800877F41
:101F30008093E8006AE270E0CE0101960E942204DC
:101F40008091E8008B778093E80011C1C096E7CFBD
:101F50008091760690917706432F5527433051059F
:101F600009F44AC078F54130510509F47AC08BE58F
:101F700090E0E8ECF4E04230510509F0F8C020911F
:101F8000E800277F2093E8002091780630917906B9
:101F90008217930708F49C0140E02115310509F0F0
:101FA00065C0411163C08091E80082FDC9CF809176
:101FB0007006882329F2853019F28091E80083FFAA
:101FC000F2CFBECF4132510509F43CC04232510537
:101FD00009F0CDC08330910508F0C9C0FC01EE0FB7
:101FE000FF1FE355FE4F0190F081E02D86559E4F77
:101FF000DC018C9190E01AC0332721303105D1F0FB
:102000002115310561F02230310509F0B0C0E5E35A
:10201000F5E0E4918E2F90E0E5E3F5E007C0E5E51B
:10202000F5E0E4918E2F90E0E5E5F5E0009709F406
:102030009EC0A5CFE5E4F5E0E4918E2F90E0E5E4C5
:10204000F5E0F4CF8330910508F091C0880F991F17
:10205000FC01ED54FE4F0190F081E02D89E090E00D
:102060008ECF82E190E0E3E2F5E089CF80917006C7
:10207000882309F465CF853009F462CF8091E800A8
:1020800083FD5ECF8091E80082FD8DCF8091E800D6
:1020900080FF83CF9091F3008091F20021153105EC
:1020A00019F08830910550F041E0089709F040E0C0
:1020B0008091E8008E778093E8006FCF4491409341
:1020C000F1003196215031090196E8CF803809F0AE
:1020D0004EC08091E800877F8093E8008091710670
:1020E0008093F1009DCE811142C010917406123090
:1020F000F0F58091E800877F8093E80010937106E7
:102100000E947003112311F084E005C08091E30068
:1021100087FDFACF81E08093700642E061EC81E0B8
:102120000E948F0342E261EC84E00E948F0342E24E
:1021300061EC82E00E948F0342E260EC83E00E9447
:102140008F038091700613C080917406813079F4FA
:1021500081E0933009F080E080936F061092E900EF
:102160008091E800877F8093E8000E94700380914F
:10217000E80083FF0AC08091E800877F8093E80031
:102180008091EB0080628093EB00AA960FB6F894E2
:10219000DEBF0FBECDBFDF91CF911F91089569EED5
:1021A0007EEF90E080E00E94A72660E082E090E071
:1021B0000E94892660E083E090E00E9489261092C8
:1021C000160260E084E090E00E94892660E082E2EE
:1021D00090E00E94892660E085E090E00E948926D8
:1021E00060E086E090E00E9489266FEF87E090E053
:1021F0000E94892640E050E0BA0188E090E00E9409
:102200009B2660E08DE090E00E94892640E050E04F
:10221000BA0188E190E00E949B2660E087E190E0AF
:102220000E94892640E050E0BA018CE190E00E94D3
:102230009B2670E060E080E290E00E94A72640E0EC
:1022400050E0BA0188E190E00E949B2680E00E9465
:1022500099090E94B10940E050E0BA018FE090E096
:102260000E949B2640E050E0BA0183E190E00C948C
:102270009B2690E080E00E948326893E9E4F11F4C9
:102280000C94550A80E008951F920F920FB60F929A
:1022900011242F933F934F935F936F937F938F936B
:1022A0009F93AF93BF93CF93DF93EF93FF93D0911F
:1022B000E900DF708091EC00C82FC17080FDC0E89C
:1022C0001092E9008091F000877F8093F00078946D
:1022D0000E94060E1092E9008091F00088608093C1
:1022E000F000CD2BCF70C093E900FF91EF91DF910B
:1022F000CF91BF91AF919F918F917F916F915F919E
:102300004F913F912F910F900FBE0F901F901895F6
:102310001F920F920FB60F9211242F933F934F935A
:102320005F936F937F938F939F93AF93BF93EF933D
:10233000FF938091E10082FF09C08091E20082FF5B
:1023400005C08091E1008B7F8093E1008091DA00ED
:1023500080FF24C08091D80080FF20C08091DA00E7
:102360008E7F8093DA008091D90080FF9DC080E14C
:1023700089BD82E189BD09B400FEFDCF81E0809373
:10238000700680916306811109C00E94F6020E94C6
:10239000C1038091E20084608093E2008091E100BB
:1023A00080FF17C08091E20080FF13C08091E2009F
:1023B0008E7F8093E2008091E20080618093E20052
:1023C0008091D80080628093D80019BC85E080930A
:1023D00070068091E10084FF2BC08091E20084FFB1
:1023E00027C080E189BD82E189BD89B5982F9170B0
:1023F00080FFFBCF8091D8008F7D8093D8008091A3
:10240000E1008F7E8093E1008091E2008F7E8093D7
:10241000E2008091E20081608093E2008091710689
:10242000882309F447C084E0809370068091700689
:102430008091E10083FF27C08091E20083FF23C0E9
:102440008091E100877F8093E10082E080937006B5
:10245000109271068091E1008E7F8093E10080915F
:10246000E2008E7F8093E2008091E20080618093A1
:10247000E20042E060E080E00E948F038091F00083
:1024800088608093F000FF91EF91BF91AF919F9191
:102490008F917F916F915F914F913F912F910F900D
:1024A0000FBE0F901F90189519BC109270061092D5
:1024B000630674CF8091E30087FD93E090937006EC
:1024C000B5CF78941F921FB61F9211248F939F93BC
:1024D000AF93BF9380915C0690915D06A0915E06DC
:1024E000B0915F060196A11DB11D80935C0690938B
:1024F0005D06A0935E06B0935F06BF91AF919F917A
:102500008F911F901FBE1F9018959C014FB7F89494
:1025100080915C0690915D06A0915E06B0915F0689
:102520004FBF821B930B08952FB7F89480915C06E0
:1025300090915D06A0915E06B0915F062FBF089551
:102540009091500690FF3DC09170811129C092601A
:1025500090935006662351F0609150067091510699
:1025600080915206909153060E94AB0C60915006E8
:10257000669570E04BE050E081E191E00E945B26BF
:10258000892BA9F010924C0281E08093480220E050
:102590004091530660915206809151060C94BD0CF7
:1025A000893210F09065D4CF880F982BD1CF81E07D
:1025B00080934C020E9494129093460280934502AD
:1025C000E3CF0895809150068695815009F488E202
:1025D00061E00C94A0128091500686958F5F89323D
:1025E00008F081E061E00C94A0129091500690FFF9
:1025F00007C09695981720F0961710F40C94EB12DC
:1026000061E00C94A0125F926F927F928F929F92E2
:10261000AF92BF92CF92DF92EF92FF920F931F93F0
:10262000CF93DF9300D000D000D00F92CDB7DEB7AC
:102630006C01FC0183819481892B31F0808191812F
:1026400089238F3F09F014C627960FB6F894DEBF92
:102650000FBECDBFDF91CF911F910F91FF90EF90F3
:10266000DF90CF90BF90AF909F908F907F906F90B2
:102670005F9008950E94F309182F682F89819A812D
:102680000E949B0769817A81812F0E94E6097C0163
:10269000F6018281882309F4DDC5970122513F4567
:1026A0002031310508F069C58FEF93E00E9475264F
:1026B0001EEE1E0D97EEA92EB12C8111C5CF111162
:1026C0003CC01C821B82662463948AE0582E8501DC
:1026D0000F5F1F4FC5010E94752689831A828823C8
:1026E00009F4B2CF9FEF980F9330B0F58A836982D7
:1026F00032E0A30EB11CC8010E9475268B8388238B
:1027000009F4A2CFAE014F5F5F4F7A01F70120813C
:102710002223E9F2213009F05EC09181828191305B
:10272000E9F4F2E0EF0EF11C70E060E0893311F49F
:1027300060E570E00E94200918C0A114F4E0BF0613
:1027400009F482CFC5010E947526811101C0115084
:102750002FEFA21AB20AB3CF5801D4CF923049F466
:1027600022E0E20EF11C0E944D082FEFE21AF20A5D
:10277000CDCF933031F432E0E30EF11C0E94140807
:10278000F4CF943021F04FEFE41AF40AEECF52E088
:10279000E50EF11C30E020E0B7016F5F7F4FF701DD
:1027A00041818053990B8A30910550F021503109B5
:1027B000E0F28FE99FE00197F1F700C00000F6CF4B
:1027C000529EF001539EF00D11249C012E0F3F1FCD
:1027D000842F7B01E1CFE22FF0E0E059FE4F7490AF
:1027E000822F86958695869590E0FC01E05AFE4FF3
:1027F0000491277010E0022E02C0159507950A94E7
:10280000E2F701701127FC01E05BFE4FC490D12C70
:10281000022E02C0D594C7940A94E2F7A1E0CA221E
:10282000DD24FC01E05CFE4F8490912C02C0959465
:1028300087942A95E2F7E1E08E229924011511058B
:1028400019F081EE0E944D08C114D10419F086EEF2
:102850000E944D08F9E370E060E07F1202C060E57D
:1028600070E0872D0E942009CD2819F086EE0E9485
:102870001408012B19F081EE0E941408892809F42C
:1028800074CF70E060E08CE255CF81E00E94F007E9
:1028900003C081E00E94E4070E94D907D5CE82E000
:1028A000F5CF9091D101911115C0F6018281F5EA21
:1028B000EF16FDE5FF0609F4AFC026EAE2162DE5A6
:1028C000F20609F073C4882309F4B2C081E00E94C3
:1028D000F007BACE8111E9CF3EE1E316F10408F426
:1028E00065C448E2E416F10400F793EE9E0D57E24A
:1028F000E516F10409F490E0E091D00181E08E0F3B
:102900008093D001F0E0EC53FE4F90838C3069F659
:102910001092D1019091CE012AE08091CF01929F37
:10292000800D11249091CC01F091CD01929FF00D7A
:1029300011249091CA01E091CB01929FE00D1124E6
:102940009091C8015091C901929F500D112490910E
:10295000C6014091C701929F400D11249091C4017E
:102960003091C501929F300D1124622F0E94D22513
:10297000A0E18A9FB0011124962B9F7799838F2F16
:10298000622F0E94D225F0E18F9FB0011124962B77
:102990009F779A838E2F622F0E94D225A0E18A9F73
:1029A000B0011124962B9F739B831C82852F622F6D
:1029B0000E94D225E0E18E9FB0011124962B9F73D7
:1029C0009D83842F622F0E94D225F0E18F9FA0016A
:1029D0001124942B9F739E83832F0E94D22540E164
:1029E000849F90011124922B9F779F8304E610E02F
:1029F00027E030E0AE014F5F5F4F60E080ED0E9466
:102A00003E250CE010E070E060E08AE20E942009C0
:102A100001501109C1F749CF882309F415CE61E0AF
:102A200083E090E00E94892681E00E94FB070CCEA3
:102A300081E00E94E40708CE31E6E3163DE5F306A7
:102A400009F4CBC38091150282726CECE6166CE53A
:102A5000F60609F405C208F07CC1E6ECEE16ECE5DA
:102A6000FE0609F4E9C108F049C123ECE2162CE5A1
:102A7000F20609F4D7C108F030C142ECE4164CE587
:102A8000F40609F4A8C1E114FCE5FF0609F4FFC14E
:102A90002EEDE2162CE5F20609F406C2F6010081DD
:102AA0001181992309F403C2C8010E94F309F82E89
:102AB000682FC8010E949B07B8018F2D0E94E6096C
:102AC0000E94EB05182FB82EF60122814581342F84
:102AD00032953F70892F82958F70E82EF12C8C30C3
:102AE00008F01DC2F701E65CF84D0C94F2258091C8
:102AF0002802806126E0E2162CE5F20609F4A9C05E
:102B000080912802886037E0E3163CE5F30608F47C
:102B1000A0C08091280280629CC0809128028D7F95
:102B20004CE0E4164CE5F40609F493C078F4809187
:102B300028028C606AE0E6166CE5F60609F489C0A6
:102B400008F49CC0809128028E7F83C08091280267
:102B5000877F9EE0E9169CE5F90609F47AC080912A
:102B600028028B7FAFE0EA16ACE5FA0608F471C0E4
:102B7000809128028F7E6DC0ECEFEE16ECE5FE062C
:102B800009F482C0A0F524E1E2162CE5F20609F46E
:102B900093C098F442E1E4164CE5F40609F47CC0D5
:102BA000809128028F7B53E1E5165CE5F50608F479
:102BB00050C080912802837F4CC06AEFE6166CE516
:102BC000F60609F44DC008F051C095E1E9169CE500
:102BD000F90609F02FC38091280282FB992790F90A
:102BE00021E0922790FB82F990FB83F932C0E11437
:102BF000ADE5FA0609F456C0A0F48091290283607D
:102C0000FEEFEF16FCE5FF0671F1809129028D7F42
:102C10002FEFE2162CE5F20630F1809129028C7F2D
:102C200022C032E0E3163DE5F30609F454C008F48F
:102C30004CC051E6E5165DE5F50609F0FBC2909142
:102C40002802892F8F7E94FF806103C08091280223
:102C5000816080932802EEC2809128028460F9CFBF
:102C600080912902816080932902E4C28091290227
:102C70008260F9CF809128028064EBCF0E94FB0D27
:102C8000809128028068E5CF809129028E7FEBCF6A
:102C9000809128028F7DDDCF0E94FB0D809128025C
:102CA0008F77D7CF80912902982F909591708E7F42
:102CB000892B90FB81F9D7CF0E94FB0D90912802C0
:102CC000892F97FB87F98058C4CF61E08EE090E0B0
:102CD0000E948926AFC260E0F9CF54ECE5165CE5AE
:102CE000F50609F4A4C065ECE6166CE5F60609F0F5
:102CF000CACE4EE75DE067E87DE017C0A9ECEA16B2
:102D0000ACE5FA0609F4A2C098F4F7ECEF16FCE57E
:102D1000FF0609F496C042E75DE066E67DE028EC38
:102D2000E2162CE5F20609F0AECE0E94DB048CCC54
:102D30003AECE3163CE5F30609F48DC04BECE416DF
:102D40004CE5F40609F09FCE40E95DE061EA7DE0E4
:102D5000ECCF51EDE5165CE5F50609F48FC0C8F43B
:102D60008EECE8168CE5F80609F482C008F47DC004
:102D7000EFECEE16ECE5FE0609F47DC06EE089E0AE
:102D8000F0EDEF16FCE5FF0609F07DCE0E94F5128E
:102D90005BCC24EDE2162CE5F20609F475C068F46C
:102DA00042EDE4164CE5F40609F46BC053EDE5166C
:102DB0005CE5F50609F448CC66CE65EDE6166CE5F3
:102DC000F60609F441CC8DE5E816F80609F05BCE6D
:102DD00068E283E2DBCF8091500680FF1BC08E7FCC
:102DE0008093500660915006709151068091520672
:102DF000909153060E94AB0C10924C029FEFA0E7FB
:102E0000E2E09150A040E040E1F700C000000E94E5
:102E10007C0A1ACC81608093500661E086950E94FE
:102E2000A01212CC42EE52E16BEE72E17ECF4BEE7D
:102E300052E162EE72E179CF47E85DE06EE77DE056
:102E400074CF46E65DE062E77DE06FCF4EE45DE083
:102E50006AE57DE06ACF4AE55DE06EE47DE065CF3E
:102E600041EA5DE060E97DE060CF61E081E0D7CFDD
:102E700065E082E08BCF68E086E088CF64E18FE098
:102E800085CF67E185E182CF61E288E17FCF0E9453
:102E9000FB0D3FEF44E35CE0315040405040E1F730
:102EA00000C000000E9486040E94CF10CDCBC80154
:102EB0000E947407F82E00CE092F0F70907F11F03A
:102EC0000295007F812F2223C9F0002369F090E250
:102ED000910F983010F011110BC080911502082B42
:102EE000009315020E945307812F0E944D0817C0BE
:102EF00080911402082B00931402F4CF0E9414084E
:102F0000002369F00095105E183010F0B11012C067
:102F1000809115020823009315020E94530738E0A0
:102F2000E31AF10844E0E416F10408F08DCB0E94A6
:102F3000CF048ACB80911402082300931402EDCFB2
:102F4000892F8F70907F903211F08295807FF1E011
:102F5000BF120CC0222329F0363008F70E940A085D
:102F6000DECF3530E0F60E94FF07D9CF222341F0B3
:102F70003323A1F340FFB8CF4F70F6014583EECF66
:102F8000332389F3193349F4FFEF27EE33E0F1508F
:102F900020403040E1F700C00000812F0E9414085B
:102FA000BECF892F86958695837061F0813009F0B8
:102FB000B6CF812F9370211102C090E080E00E9473
:102FC000A304ADCF812F9370211102C090E080E067
:102FD0000E94B904A4CF892F8370A1F521119FCF3E
:102FE000812F829586958770880F880F412F4F70AB
:102FF000082E01C0440F0A94EAF7212F207114FF14
:1030000007C02FE030E001C0220F8A95EAF7209533
:10301000969596959370923081F0822F842B933001
:1030200030F480911602913029F0242B82230E94E3
:10303000FB0775CF842B822BFACF242B80911602AD
:103040008227F5CF8695222311F0892F817088235E
:1030500009F465CF812F829586958770880F880F38
:10306000412F4F70082E01C0440F0A94EAF7212F18
:10307000207114FF07C02FE030E001C0220F8A95B5
:10308000EAF72095969596959370923081F0822F6D
:10309000842B933030F480917A06913029F0242BE0
:1030A00082230E94D5073BCF842B822BFACF242B7F
:1030B00080917A068227F5CF092F0F70222329F0FD
:1030C000802F0E94F007812F49CF812F0E94FF0798
:1030D000802F0E94E40723CF812F41EF141789F13D
:1030E000411750F050EF1517B9F02223B1F131110B
:1030F000FBCE892F8F7129C062EF161749F1A3EF1C
:103100001A13F3CF80E0222361F29F7181E001C0A6
:10311000880F9A95EAF7C5CF222379F0353008F069
:10312000FECE292F2F7181E090E001C0880F2A95F3
:10313000EAF790917A068927B4CF363008F0EFCEBF
:10314000F0CF892F8F71222321F20E94F007E7CE62
:10315000892F8F712223C9F3BCCF332359F08933D0
:1031600009F01BCFEFEFF7EE23E0E150F0402040F5
:10317000E1F711CF892F8F71ACCF50E1E5165FE5F4
:10318000F50609F482CB61E1E6166FE5F60609F46F
:1031900086CB33E7E316F10409F083CB882309F4E7
:1031A00080CB81E08093D1011092D001F601928111
:1031B000992309F473CCF3E0EF16FDE5FF0608F060
:1031C0003BCC2AEFE2162CE5F20638F497012250A8
:1031D0003C452431310508F035CC0E946E0A9093AD
:1031E00029028093280240E1E4164CE5F40609F434
:1031F0004FCD08F0C1CC68E0E6166CE5F60609F4A0
:1032000039CD08F08ACC94E0E9169CE5F90609F47A
:1032100023CD08F06CCCE2E0EE16ECE5FE0609F4F6
:1032200015CD809128028260F3E0EF16FCE5FF06E1
:1032300009F40FCD609128021091290284E090E0FA
:103240000E948926612F82E290E00E9489260E94D6
:10325000FB0DFAC990E1E9169FE5F90609F419CBCF
:10326000A1E1EA16AFE5FA0609F093CF82E012CBAE
:1032700085E0DE01119601900D928A95E1F7F60145
:10328000228189819A812111F5C90E947407182F22
:10329000F9C91F93CF93DF938091E001807FA9F458
:1032A0008091DD01882389F080911202D091E101A3
:1032B0006091DB017091DC01A091DE01B091DF0132
:1032C000C62FC72316E0D81304C0DF91CF911F91FA
:1032D000089590E0109711F0CF3F19F40196877090
:1032E000F2CF189F9001199F300D1124F901EE5172
:1032F000FE4F41814713F2CF40814613EFCF428109
:103300004111ECCF438154814A1B5B0B483C510572
:1033100028F78091E0018F7080618093E001F901CE
:10332000E951FE4F80818F70806180838BED91E049
:103330000E940313DF91CF911F910C946A07AF9203
:10334000BF92CF92DF92EF92FF920F931F93CF9392
:10335000DF93CDB7DEB761970FB6F894DEBF0FBE2F
:10336000CDBF8C0185E0F801DE011D9601900D9224
:103370008A95E1F7F801E2808BEDA82E81E0B82E66
:103380006091DE017091DF016115710509F432C1B0
:103390009091DB014091DC01892F84238F3F09F458
:1033A00029C120813181C380D480F090DD01F601F4
:1033B000E61BF70BFF2009F4E8C08091E001582FCD
:1033C000507FE83CF10508F0ABC0511177C0FE2CEE
:1033D000431321C092131FC0E1101DC08F70806184
:1033E0008093E001C5010E9403138091E001F80180
:1033F00085838F2D61960FB6F894DEBF0FBECDBFCB
:10340000DF91CF911F910F91FF90EF90DF90CF90C0
:10341000BF90AF900895CD2829F0822F83238F3F4E
:1034200009F003C180E0F82FF170DF2E80FF3CC06F
:10343000809112024091E10156E0841315C02D875E
:103440003E878D859E850E94220A292F22952F7006
:103450002230F0F0243018F59F70F1F0F8019581DA
:10346000907FD1F4D12C1EC090E0589FF001599F5D
:10347000F00D1124EE51FE4F6181361306C06081BC
:10348000261303C06281E6120FC001968770D5CF64
:103490009F7011F0882331F3805E883018F3C801E3
:1034A0000E940313FD2CA5CFEE2009F4A2CF80913A
:1034B000E00181608093E001F12C9BCF431306C0B3
:1034C000921304C0F801EE2009F479C0C8010E94EB
:1034D0002E0A882309F1EE20F9F08091E001803274
:1034E00070F02091DB013091DC0138872F83198641
:1034F000DB86CA868C87CE0107960E94031386E07E
:10350000F801ABEDB1E001900D928A95E1F70E94D0
:103510004919FF24F3946DCFC8010E940313F9CF1A
:1035200051110AC08BED91E00E94031386E0F50172
:1035300011928A95E9F7C0CF43130FC092130DC0C3
:10354000E1100BC0F8018583C8010E94031386E0D7
:10355000F50111928A95E9F74CCFC8010E942E0A15
:103560008823D1F2EE20C1F28091E001803238F25E
:103570002091DB013091DC013A8329831B82DD82BB
:10358000CC828E83CE010196B8CFE83CF105F8F6E7
:10359000FE2CEE2009F243131FC092131DC0809130
:1035A000E00180FD10C0982F907F69F0F8018583BD
:1035B000903F31F0982F907F905F8F70892B85839B
:1035C000C8010E94031386E0F801ABEDB1E0019061
:1035D0000D928A95E1F70DCFC8010E942E0A811144
:1035E0008ECF8091E00181608093E001C8010E944C
:1035F0000313FFCEEE2009F48FCFC8010E942E0ADC
:10360000F82E882309F488CF86E0F801ABEDB1E00D
:1036100001900D928A95E1F78091DB019091DC0198
:103620000E94220A0E944919E4CE81E08E25FBCE39
:103630001F93CF93DF93CDB7DEB767970FB6F8949C
:10364000DEBF0FBECDBF4B8B5C8B6D8B7E8B8F8BAC
:103650006111109214021A8A198A85E0FE0173968C
:10366000DE011D9601900D928A95E1F786E0FE013C
:103670003D96DE01179601900D928A95E1F7CE01F5
:1036800007960E949F19882389F016E08091120204
:103690009091E101891349C067960FB6F894DEBF97
:1036A0000FBECDBFDF91CF911F91089586E0FE013F
:1036B0003796DE01119601900D928A95E1F78A8581
:1036C0009B85892B11F38F81988589238F3FE9F2A0
:1036D0002091E10130E0C90101968770992740915E
:1036E00012024817190671F40E94FB0D1092E101B5
:1036F0001092120286E0EBEDF1E0DF011D928A9557
:10370000E9F7C3CF96E0929FD001939FB00D1124AB
:10371000AE51BE4FFE01319601900D929A95E1F7A0
:103720008093E1010E946A07B0CF819FC0011124FC
:103730008E519E4F0E949F19882309F4ADCF80912E
:10374000120290E0019687709927809312029ECF13
:103750004F925F926F927F928F929F92AF92BF92A1
:10376000CF92DF92EF92FF920F931F93CF93DF934D
:10377000CDB7DEB72D970FB6F894DEBF0FBECDBF25
:103780007E0128E0E20EF11C86E0F70111928A9595
:10379000E9F7A1E6CA2EA1E0DA2E10E000E0AA24A3
:1037A000A394B12C8BE6882E81E0982EF6018191AE
:1037B0006F018F3F09F442C0F894E82FE295EF7053
:1037C000F0E021A18F70250102C0440C551C8A95A0
:1037D000E2F7C201922F982B91A392A180958923A1
:1037E00082A3789400C0E7E6F1E0712C31E02191EA
:1037F0002F3F09F46CC0A22FA295AF70B0E0909655
:103800008C9190E02F7002C0959587952A95E2F7EC
:1038100080FD5DC0832F782A330F8E169F0639F7FF
:10382000F601319780818F3F11F00E94910520EAC7
:103830002A95F1F7F701E00FF11F70820F5F1F4F1C
:103840000630110509F0B2CF46E050E0B7018AE238
:1038500092E00E946826CC24C394009709F4C12CFE
:10386000892BB9F186E0FE013896AAE2B2E0019018
:103870000D928A95E1F781E0809319020E949412DB
:10388000909318028093170280911702909118026A
:103890000E948512059708F180912A0280933F02C9
:1038A00080912B028093400280912C0280934102F0
:1038B00080912D028093420280912E0280934302D8
:1038C00080912F02809344021092190206C080E07A
:1038D000A2CF809119028111D7CF0E9497044B018A
:1038E0005C010E949704009124021091250220910E
:1038F0002602309127022B013C01401A510A620A2C
:10390000730A93018201093813412105310578F0CA
:1039100060932402709325028093260290932702DD
:1039200080910401811103C081E0809304018091A2
:10393000200290912102A0912202B0912302240141
:103940003501481A590A6A0A7B0AD301C2018F3528
:103950009140A105B10508F446C1809220029092E1
:103960002102A0922202B092230208EC10E027E08C
:1039700030E0AE014F5F5F4F60E080ED0E946B254D
:103980000E94BA258981282F30E094E0359527954B
:103990009A95E1F727706AE08F70F82E269FF00C59
:1039A0001124F0921A028A81282F30E044E03595E4
:1039B00027954A95E1F727708F70E82E269FE00C37
:1039C0001124E0921B028B81282F30E054E03595C2
:1039D00027955A95E1F723708F70D82E269FD00C2B
:1039E0001124D0921C028D81282F30E074E035958F
:1039F00027957A95E1F727708F70182F269F100D65
:103A0000112410931D028E81282F30E0E4E03595BB
:103A10002795EA95E1F723708F70082F269F000DF8
:103A2000112400931E028F81282F30E0F4E0359599
:103A30002795FA95E1F723708F70269F800D11244A
:103A400080931F0280910401882309F4E4C08D2D26
:103A50000E94D225182F39E060E03D1530F461E076
:103A6000813019F0823021F462E080E00E94C20DC2
:103A70008D2D46EF149F800D112460E08823D9F02E
:103A800061E08130C9F062E08230A9F063E0833008
:103A900091F064E0843079F065E0853061F066E0B3
:103AA000863049F067E0873031F068E0883019F0FF
:103AB000893021F469E081E00E94C20D8E2D6AE018
:103AC0000E94D225182F82E00E94C20D59E060E0CA
:103AD0005E1590F461E0113079F062E0123061F02F
:103AE00063E0133049F064E0143031F065E01530E4
:103AF00019F0163021F466E083E00E94C20D8E2D8D
:103B000096EF199F800D112460E08823D9F061E0C1
:103B10008130C1F062E08230A9F063E0833091F03F
:103B200064E0843079F065E0853061F066E08630ED
:103B300049F067E0873031F068E0883021F0893063
:103B400021F469E088E00E94C20D8F2D6AE00E9496
:103B5000D225182F89E00E94C20DE9E060E0EF1540
:103B600090F461E0113079F062E0123061F063E0CE
:103B7000133049F064E0143031F065E0153019F08D
:103B8000163021F466E08AE00E94C20D8F2DF6EF18
:103B90001F9F800D112460E0882309F4B5C061E007
:103BA000813009F4B1C062E0823009F4ADC063E055
:103BB000833009F4A9C064E0843009F4A5C065E04D
:103BC000853009F4A1C066E0863009F49DC067E045
:103BD000873009F499C068E0883009F495C069E03D
:103BE000893009F491C08C2D2D960FB6F894DEBF64
:103BF0000FBECDBFDF91CF911F910F91FF90EF903E
:103C0000DF90CF90BF90AF909F908F907F906F90FC
:103C10005F904F900895802F0E94D225F82E6FE07C
:103C200080E00E94C20D60E00A3028F044244394F2
:103C3000F41004C061E081E00E94C20D26EFF29E04
:103C4000000D112460E00023D9F061E00130C1F0E3
:103C500062E00230A9F063E0033091F064E00430E8
:103C600079F065E0053061F066E0063049F067E024
:103C7000073031F068E0083019F0093021F469E0CC
:103C800082E00E94C20D812F6AE00E94D225082F97
:103C900083E00E94C20D6AE088E00E94C20D60E0ED
:103CA0001A3048F061E0013031F062E0023019F082
:103CB000033021F463E089E00E94C20D36EF039FD8
:103CC000100D112460E01123D9F061E01130C1F032
:103CD00062E01230A9F063E0133091F064E0143038
:103CE00079F065E0153061F066E0163049F067E084
:103CF000173031F068E0183019F0193021F469E01C
:103D00008AE00E94C20D6FE08BE00E94C20D6BCF73
:103D10001F921FB61F9211248F939F93AF93BF934F
:103D200080915B06811113C080915C0690915D06C5
:103D3000A0915E06B0915F064196A11DB11D8093D2
:103D40005C0690935D06A0935E06B0935F06BF91FC
:103D5000AF919F918F911F901FBE1F901895CDB767
:103D6000DEB7AB970FB6F894DEBF0FBECDBF84B7FA
:103D7000877F84BF0FB6F894A89580916000886112
:103D800080936000109260000FBE80E890E00FB654
:103D9000F89480936100909361000FBE85B78068AE
:103DA00085BF85B7806885BF8FE895E09093BB019C
:103DB0008093BA010E94F6020E94C1038091E20042
:103DC00084608093E2007894809170068823A1F04B
:103DD0001091E9001F709091EC00892F817090FD87
:103DE00080E8182B1092E9008091E80083FD0E9482
:103DF000060E1F701093E90082E084BD93E095BD2C
:103E00009AEF97BD80936E000E94550A811102C0FF
:103E10000E94B10901E611E077E6E72E71E0F72E86
:103E2000D8018D918D018F3F11F00E949105E01610
:103E3000F106B1F787E90E94910584E30E9491059C
:103E400087E60E94910586E60E94910586E0EFE3F1
:103E5000F2E0DF01282F1D922A95E9F7EAE2F2E06D
:103E6000DF011D928A95E9F70E943911811102C084
:103E70000E94CF1082E090E00E9475268093380265
:103E80000E946E0A90932902809328020E94A81B28
:103E9000EFE3FCE93197F1F700C000000E94A81B96
:103EA00080913F0280FF08C06FEF7FEF90E080E0DD
:103EB0000E94A7260E94860483E090E00E94752657
:103EC0000E94FB0780913002811133C00E9439119A
:103ED000811104C00E94CF100E94B20D88E090E0D2
:103EE0000E947D266093500670935106809352067F
:103EF000909353066E7F71F40E94B20D88E090E0BB
:103F00000E947D266093500670935106809352065E
:103F1000909353060E94E00410924C028091500648
:103F200080FF04C060E086950E94A01281E080932B
:103F3000300225E332E04DE751E06FE7A62E61E065
:103F4000B62E61E070E0D5010D915D01802F829564
:103F50008F7090E0FC01A1A10F707B01002E01C0C9
:103F6000EE0C0A94EAF7FE2DF095AF23FC01A1A315
:103F7000A2A1AE29A2A3DA011D91AD01E12FE29524
:103F8000EF70F0E0F1A01F706B01012E01C0CC0CAE
:103F90000A94EAF7EC2CE094EF20E1A2F2A0FC28CE
:103FA000F2A2DC0190968C9190E002C095958795E5
:103FB0000A95E2F78170E0A1F0E002C0F595E7957F
:103FC0001A95E2F790E0E0FD92E0892BF9018193E8
:103FD0009F01F1E8AF16F1E0BF0609F0B4CF0E94EF
:103FE000202481E2898324E630E041E050E0BE01F4
:103FF0006F5F7F4F80EE0E9417251982F12C04E637
:1040000010E021E030E0AE014F5F5F4F6F2D80EE9A
:104010000E943E25F39420E1F212F1CF81E88983DA
:1040200024E630E041E050E0BE016F5F7F4F80EE5C
:104030000E94172580EA898324E630E041E050E0C1
:10404000BE016F5F7F4F80EE0E94172510E0812F29
:10405000806E898324E630E041E050E0BE016F5F6E
:104060007F4F80EE0E9417256AE081E00E94C20D1A
:104070006BE082E00E94C20D6CE083E00E94C20D02
:104080006DE088E00E94C20D6DE089E00E94C20DE3
:1040900060E08AE00E94C20D6AE08BE00E94C20DDF
:1040A0008FEF98EFA5E181509040A040E1F700C06C
:1040B00000001F5F173059F6BFEFEDE3F9E4B15090
:1040C000E040F040E1F700C0000085E091E090930F
:1040D00058068093570658E1252E312C8FE392E045
:1040E00026E0280F2BA78091700640E4F42E00E113
:1040F00012E1853009F45AC10E94A81B81110E9467
:104100009704AFE3B2E0E9E3F2E010E000E0302F23
:104110008D919191981709F458C1292F282790E083
:10412000FF24F394422F4F2109F44AC199A33AA3E3
:104130008F2191E009F490E09BA30E94941281608A
:10414000782F9DA38CA349A15AA16BA18DA10E9498
:10415000181BF801E75CFD4F8081F826F082809102
:104160004C028823D1F180914B02E0915006E695F4
:10417000E81BE0934702823009F03EC1F0E0E150D5
:10418000FE4FE4910E2F10E037E9E32E3CE0F32ED2
:1041900080914802882361F0109248020E94941294
:1041A000909346028093450210924A02109249026F
:1041B0000E949412E0914502F09146028E1B9F0BE3
:1041C0008F3F9F4750F4E00FF11FF0934602E093BA
:1041D000450285E492E0F701099533E3E32E32E0EE
:1041E000F32EE1E3F2E04BE7842E41E0942E57E317
:1041F000452E52E0552E6DE7C62E61E0D62E7FE7A4
:10420000A72E71E0B72E25E332E0612CD9011D9174
:104210009D01110F110FD5014D915D01A42FA295A4
:10422000AF70B0E090968C9190E04F7002C0959581
:1042300087954A95E2F781709927D6016D916D01B6
:10424000A62FA295AF70B0E090964C9150E06F70A1
:1042500002C0559547956A95E2F7BA0161707727D4
:1042600040FF02C062E070E0862B812BD9011197DC
:104270008C93D4014D914D01D7019D917D018F709B
:10428000A82FB0E0A559BE4F8C91890FD7018E930E
:104290008D01082E000C990B642F70E0712C86178D
:1042A00097072CF040814F5F408377247394442715
:1042B0005527461B570B481759072CF04081415092
:1042C0004083772473940E94DE25D8018C9367285D
:1042D00031964216530609F099CF61100E94970457
:1042E0000E94CF0490913702891721F00E94CF04D9
:1042F0008093370280917006843009F0F4CE83E019
:104300008093E9008091E80082FFEDCE8091E80083
:1043100090E085FF06C00E941503882309F4C4C0FD
:1043200091E08091E8008B778093E800992309F46D
:10433000DACEE981E150E33108F02FC1F0E0EA5B29
:10434000F84D0C94F22580917006843009F110929A
:104350005B060FB6F894A895209260000FBEF0920D
:10436000600083B7817F846083BF83B7816083BF30
:104370007894889583B78E7F83BF0FB6F894A895FD
:1043800080916000886180936000109260000FBE91
:1043900080916F06882351F00E94A81BEFE3F2E0A2
:1043A000819181112EC28BA58E13FACF8091700658
:1043B000853009F4C8CF0E94FB0D0E94CF049CCE2B
:1043C0009F5FFF0C943009F0ADCE0F5F1F4F06309A
:1043D000110509F09CCE8FEF8EA38FA318A60E9423
:1043E00094128160782F9AA789A74EA15FA168A532
:1043F0008AA50E94181BB3CE863059F4F0E0E45031
:10440000FE4FE4910E2F10E027E8E22E2CE0F22E72
:10441000BFCE893061F4E695F0E0E750FE4FE491BD
:104420000E2F10E092E3E92E9CE0F92EB1CE8F30F2
:1044300061F4E695F0E0EA50FE4FE4910E2F10E0B3
:1044400083EDE82E8BE0F82EA3CE853159F4F0E011
:10445000ED50FE4FE4910E2F10E0B5E8EB2EBBE0DF
:10446000FB2E96CE04EF11E0FCE4EF2EFBE0FF2ED6
:10447000823209F48DCE833281F48E2F63E00E9464
:10448000D225E92FF0E0E051FE4FE4910E2F10E02D
:10449000A1EBEA2EAAE0FA2E7BCE00ED17E0E1E8D0
:1044A000EE2EE4E0FE2E74CE00E210E0FE01319626
:1044B0007F018091E80085FD0AC08091E8008B773C
:1044C0008093E8000E941503882399F329CF8091F7
:1044D000F100D7018D937D010150110951F720CFD3
:1044E0001A8289E08B8324C08A81823009F49FC1BB
:1044F000833061F0813009F050C00E9497040E941F
:10450000F8256B837C838D839E8312C080913F024C
:104510008B83809140028C83809141028D838091B6
:1045200042028E83809143028F8380914402888768
:1045300080917006843009F0D6CD1091E9001F708B
:104540009091EC00892F817090FD80E8182B82E01B
:104550008093E9008091E80080FF0DC050E040E0CA
:1045600060E270E0CE0101960E9446038091E8006F
:104570008E778093E8001F701093E900B4CD8A8194
:10458000823059F46B817C818D819E810E94F82557
:1045900086E290E00E948926CBCF8FEF8983C8CF37
:1045A0004C816B818A810E94C009982789279827AE
:1045B0009E838D83BDCFED80FE80FE24EF24FE24FC
:1045C0008A810B81B8E00B9F80011124E0E38E9F6C
:1045D000000D111D11248C8190E0880F991F080F88
:1045E000191F6F2DC80187960E9489266E2DC8015C
:1045F0008896D0CF0E9447099BCF8A818138C1F02D
:1046000060F4803809F094CF20E04B81609152062D
:10461000809151060E94BD0C8BCF823859F18338AE
:1046200009F086CF20E0409153066C818B81F2CF58
:1046300060E08B810E94A0129B81809150069111B5
:1046400011C08E7F8093500610924C02FFEF20E73E
:1046500082E0F15020408040E1F700C000000E945D
:104660007C0A66CF81608093500660E086950E9448
:10467000A0125ECF8B81809354065ACF8A818138F5
:1046800099F030F4803809F053CF809153062ACF47
:10469000823891F0833809F04BCF809151068B839B
:1046A000809152068C8344CF8091500680FF02C0D7
:1046B000869518CF80E016CF8091540613CF609175
:1046C00050067091510680915206909153060E94B7
:1046D000AB0C2ECF80E18A832BCF83E08A8389E1E4
:1046E00001CF0A811B81102701271027DE011196B7
:1046F0007D01CC80FD01EC0DF11D6F01C8018951D8
:104700009F4FCE14DF0409F413CF0931F3E01F07E4
:1047100058F40E947526D70114968C930F5F1F4F93
:10472000FFEFEF1AFF0AEACFF7011482F7CF0A81F1
:104730001B81102701271027CE0101966C01EC8008
:10474000E00EF12EF11CC80189519F4FE016F106D1
:1047500009F4EECE0931A3E01A0720F4F6016481D2
:104760000E948926FFEFCF1ADF0A0F5F1F4FEBCFA2
:104770000E943709DDCE84E0AECF0A811B8110276D
:1047800001271027CE0101967C01CC80DC01AC0D05
:10479000B11D6D01C8018796CE14DF0409F4C8CE9F
:1047A000003C110550F40E947526F70184830F5FC9
:1047B0001F4FBFEFEB1AFB0AEDCFD70114961C92E7
:1047C000F6CF0A811B81102701271027FE013196A1
:1047D0006F01EC80E00EF12EF11CC8018796E01607
:1047E000F10609F4A5CE003C110528F4D601149673
:1047F0006C910E948926BFEFCB1ADB0A0F5F1F4F17
:10480000ECCF09BD19BD09B400FEFDCF8091D800E1
:104810008F7D8093D8008091E00082608093E000DB
:104820008091E00081FDFCCF0E94FB0DBFCD86E2B0
:1048300090E00E9475261B821C821D828E8378CE9A
:104840001092B9008CE08093B80008959F92AF92C7
:10485000BF92CF92DF92EF92FF920F931F93CF936D
:10486000DF93B82EEB010E9494126C01EE24E394C6
:10487000F12CC431D10560F025E0E22EF12CCF3FC0
:10488000DC0731F0CE0164E170E00E94BE257B01BF
:1048900084EAA82E94E8992E1092BC00A092BC0045
:1048A0000E9494128C018091BC0087FF0DC0809102
:1048B000B900887F883039F18091B900887F8031D4
:1048C00011F10FEF1FEF09C00E949412801B910B92
:1048D0008E159F0540F30EEF1FEFCF3FDC07E1F28F
:1048E000C6010E9485128C179D07B0F2C801DF91A6
:1048F000CF911F910F91FF90EF90DF90CF90BF90DD
:10490000AF909F900895B092BB009092BC000E941F
:1049100094128C018091BC0087FF0AC08091B9007D
:10492000887F883111F0803461F610E000E0DECF3E
:104930000E949412801B910B8E159F0558F3CBCFCC
:104940000F931F93CF93DF93EB018093BB0084E819
:104950008093BC000E9494128C018091BC0087FF60
:1049600011C02091B900287F81E090E0283211F435
:1049700090E080E0919581959109DF91CF911F9111
:104980000F910895CF3FDC0741F30E949412801BE2
:10499000910B8C179D0708F38EEF9FEFEECF0F93CF
:1049A0001F93CF93DF93EC0184EC8093BC000E94B3
:1049B00094128C018091BC0087FF08C08091BB00DD
:1049C00090E0DF91CF911F910F910895CF3FDC07C9
:1049D00089F30E949412801B910B8C179D0750F352
:1049E0008EEF9FEFEECF0F931F93CF93DF93EC01EA
:1049F00084E88093BC000E9494128C018091BC00DA
:104A000087FF08C08091BB0090E0DF91CF911F919C
:104A10000F910895CF3FDC0789F30E949412801B09
:104A2000910B8C179D0750F38EEF9FEFEECFCF9237
:104A3000DF92EF92FF920F931F93CF93DF936B015F
:104A40008A017901B9010E942624E6010C0D1D1D81
:104A5000C017D10761F424E92093BC00DF91CF9106
:104A60001F910F91FF90EF90DF90CF90089597FDE9
:104A7000F2CFB70189910E94A024EACFCF92DF92B2
:104A8000EF92FF920F931F93CF93DF93C62F6A018C
:104A90007901B8010E94262497FD0CC0B8018C2F23
:104AA0000E94A024E601EC0CFD1CCE15DF0511F0E0
:104AB00097FF0CC024E92093BC00DF91CF911F9198
:104AC0000F91FF90EF90DF90CF900895B8018991FA
:104AD0000E94A024EACFCF92DF92EF92FF920F9331
:104AE0001F93CF93DF93F82EE62EEA016901B801F8
:104AF0000E94262497FD15C0B8018E2D0E94A02487
:104B000097FD0FC0B8018F2D81600E942624F12CE3
:104B1000E12C21E0C21AD108EC14FD0400F597FF46
:104B200011C024E92093BC001816190614F490E073
:104B300080E0DF91CF911F910F91FF90EF90DF9078
:104B4000CF900895C8010E94CF2497FD04C0FE01B4
:104B5000EE0DFF1D80832FEFE21AF20ADDCF97FDE5
:104B6000E0CFC8010E94F32497FDDBCFCC0DDD1D03
:104B70008883D7CF84E98093BC000895AA1BBB1B10
:104B800051E107C0AA1FBB1FA617B70710F0A61B4D
:104B9000B70B881F991F5A95A9F780959095BC016E
:104BA000CD010895991B79E004C0991F961708F06C
:104BB000961B881F7A95C9F78095089597FB072E55
:104BC00016F4009407D077FD09D00E94BE2507FC9B
:104BD00005D03EF4909581959F4F0895709561950D
:104BE0007F4F0895EE0FFF1F0590F491E02D09947B
:104BF00069279627692778278727782708958F922E
:104C00009F92AF92BF92CF92DF92EF92FF92CF939B
:104C1000DF93EC01688179818A819B81611571053F
:104C20008105910521F464E279ED8BE597E02DE1B2
:104C300033EF41E050E00E94BD2649015A019B013B
:104C4000AC01A7EAB1E40E94DC266B017C01ACEE6A
:104C5000B4EFA50194010E94EA26DC01CB018C0D82
:104C60009D1DAE1DBF1DB7FF03C00197A109B04830
:104C700088839983AA83BB839F77DF91CF91FF902D
:104C8000EF90DF90CF90BF90AF909F908F9008955E
:104C90000E94FF25089580E091E00E94FF2508957D
:104CA000B0E0A0E08093000190930101A093020185
:104CB000B09303010895FC014150504030F0019041
:104CC0000616D1F73197CF010895882799270895BF
:104CD000FB01DC0104C08D910190801921F4415049
:104CE0005040C8F7881B990B0895F999FECF92BDE3
:104CF00081BDF89A992780B50895A6E1B0E044E017
:104D000050E00C94AF26A8E1B0E042E050E00C94F3
:104D1000AF26262FF999FECF92BD81BDF89A019753
:104D200000B4021639F01FBA20BD0FB6F894FA9AF3
:104D3000F99A0FBE08950396272F0E948A260E9493
:104D40008926252F0E948A26242F0C948A260196D4
:104D5000272F0E948A260C948926DC01CB01FC01B6
:104D6000F999FECF06C0F2BDE1BDF89A319600B4C4
:104D70000D9241505040B8F70895052E97FB1EF450
:104D800000940E94D42657FD07D00E94EF2607FC0E
:104D900003D04EF40C94D42650954095309521952F
:104DA0003F4F4F4F5F4F0895909580957095619557
:104DB0007F4F8F4F9F4F08950E941127A59F900D01
:104DC000B49F900DA49F800D911D11240895B7FFED
:104DD0000C94DC260E94DC26821B930B0895A1E232
:104DE0001A2EAA1BBB1BFD010DC0AA1FBB1FEE1F65
:104DF000FF1FA217B307E407F50720F0A21BB30BB0
:104E0000E40BF50B661F771F881F991F1A9469F72B
:104E100060957095809590959B01AC01BD01CF0187
:104E20000895A29FB001B39FC001A39F700D811D83
:104E30001124911DB29F700D811D1124911D0895A3
:104E4000F894FFCF400A400A490A490A4B0A490A26
:104E5000490A490A400A400A500A490A490A500ABE
:104E6000EC0E140FB710140FB710470F680FB710E0
:104E7000661073105C175C17A017A017D1178F1757
:104E80008F178F17EB175C186C186C187022742230
:104E9000BF22D022DB22FA22FD223E235F23CD2235
:104EA000CD226A236D2371239723B823BB23BD230F
:024EB000E123FC
:104EB20001000000018304F3088204EF08EB08807C
:104EC200040118191A1B1C1D1E1F20210102013F7B
:104ED200065B4F666D7D077F6F4076793873800081
:104EE200818283E200E900EA00B500B600B700CD96
:104EF200008301CC008A0192019401210223022441
:104F0200022502260227022A02B300B4006F0070B3
:104F120000969495C636FF9734676600FF0100013C
:104F22000000FFFF0000010001FF000404F6F7F497
:104F3200F500010202020206060609090909090929
:104F42000F0F0F0F0F0F151515181818181818181E
:104F5200181818222323232323234022320001DEA0
:0A4F620000AC00DA04F304130500AC
:00000001FF
