:100000000C94CF020C9416030C9416030C94160354
:100010000C9416030C9416030C9416030C941603FC
:100020000C9416030C9416030C94BA1A0C94761ABA
:100030000C94AE2E0C9416030C9416030C94160319
:100040000C9416030C9416030C9416030C941603CC
:100050000C9416030C94D51B0C9416030C941603E5
:100060000C9416030C9416030C9416030C941603AC
:100070000C9416030C9416030C9416030C9416039C
:100080000C9416030C9416030C9416030C9416038C
:100090000C9416030C9416030C9416030C9416037C
:1000A0000C9416030C9416030C9416030631FF09E6
:1000B00074A1010975150026FF00952075088102BD
:1000C0000976150026FF00952075089102C00501EC
:1000D0000980A101850319012AB700150126B7007F
:1000E000950175108100C0050C0901A10185041955
:1000F000012AA002150126A002950175108100C0F9
:100100000660FF0961A1010962150026FF00952024
:10011000750881020963150026FF00952075089176
:1001200002C005010906A101050719E029E715002C
:100130002501950875018102950175088101050762
:10014000190029FF150026FF009506750881000596
:10015000081901290595057501910295017503910D
:1001600001C00000000000000000000000000000CE
:10017000000000000000000000000000000000007F
:100180000000000000007E0F00D4FFFFFFC700004A
:10019000007800000000000000002A2B280000006A
:1001A0000000000000000000000000000029000026
:1001B00000002C1E3420212224342627252E362D03
:1001C0003738271E1F202122232425263333362E9D
:1001D00037381F0405060708090A0B0C0D0E0F100F
:1001E0001112131415161718191A1B1C1D2F313054
:1001F000232D350405060708090A0B0C0D0E0F10F8
:100200001112131415161718191A1B1C1D2F313033
:10021000354C1E0F0500047F3F1F643214643214F6
:10022000783C1E1E140A05000101010101010101B3
:100230000102020202020202020203030303030399
:100240000303040404040404040505050505060667
:100250000606060707070707080808080909090925
:100260000A0A0A0B0B0B0C0C0C0D0D0D0E0E0E0FCB
:100270000F0F10101111111212131314141515165B
:10028000161717181819191A1A1B1B1C1D1D1E1ECC
:100290001F2020212222232424252626272829291D
:1002A0002A2B2C2D2D2E2F30313232333435363748
:1002B00038393A3B3C3D3E3F404142434445464746
:1002C00048494A4C4D4E4F50515354555658595A1F
:1002D0005B5D5E5F616264656668696B6C6D6F70C3
:1002E00072737577787A7B7D7E8082838587888A32
:1002F0008C8E8F91939596989A9C9EA0A2A3A5A769
:10030000A9ABADAFB1B3B5B7BABCBEC0C2C4C6C964
:10031000CBCDCFD1D4D6D8DBDDDFE2E4E7E9EBEE1D
:10032000F0F3F5F8FAFDFFFFAA7F554022232526BA
:1003300028292A2C2D2F3032333536383A3B3D3E92
:100340004042434547494A4C4E5051535557595ADC
:100350005C5E6062646668696B6D6F7173757779F6
:100360007B7D7F81838587898A8C8E9092949698F5
:100370009A9C9E9FA1A3A5A7A8AAACAEAFB1B3B407
:10038000B6B8B9BBBCBEBFC1C2C3C5C6C7C9CACB5C
:10039000CCCDCED0D1D2D2D3D4D5D6D7D7D8D9D927
:1003A000DADADBDBDBDCDCDCDCDCDDDDDDDDDCDC90
:1003B000DCDCDCDBDBDBDADAD9D9D8D7D7D6D5D4AD
:1003C000D3D2D2D1D0CECDCCCBCAC9C7C6C5C3C279
:1003D000C1BFBEBCBBB9B8B6B4B3B1AFAEACAAA8CE
:1003E000A7A5A3A19F9E9C9A98969492908E8C8A82
:1003F00089878583817F7D7B79777573716F6D6B5D
:100400006968666462605E5C5A5957555351504E34
:100410004C4A4947454342403E3D3B3A38363533E6
:1004200032302F2D2C2A292826252322AB005D5D72
:10043000CD5CAE002400250026002A4121002200C8
:10044000230000001E001F002000280027003700A6
:1004500000000000CA5CC95CAA00A9007300540037
:10046000550056004A0052004B0057005000510002
:100470004F0000004D0000004E00280000004C001E
:10048000000000000000000000000000000000006C
:10049000000000000000000000000000000000005C
:1004A000000000000000000000000000000000004C
:1004B000000000000000000000000000000000003C
:1004C000000000000000000000000000000000002C
:1004D000000000000000000000000000000000001C
:1004E00000000000000000000000000009027B0086
:1004F000040100A0FA090400000103010100092120
:10050000110100012240000705810308000A0904C7
:100510000100020300000009211101000122220054
:1005200007058203200001070503032000010904D9
:100530000200010300000009211101000122320024
:100540000705840320000A090403000203000000D9
:100550000921110100012222000705850320000165
:10056000070505032000011201000200000008ED4C
:10057000FE268A0100010200010E036E006F007763
:100580000070006100640000000E0355004E005230
:1005900000450041004C0000000403090400112440
:1005A0001FBECFEFDAE0DEBFCDBF04B603FE27C02B
:1005B0008091920690919306A0919406B091950631
:1005C0008730904BA740B04BD1F410929206109216
:1005D0009306109294061092950614BE84B7877FF6
:1005E00084BF0FB6F894A8958091600088618093CD
:1005F0006000109260000FBEE0E0F8E3099526E08D
:10060000A8ECB1E001C01D92A239B207E1F711E0F8
:10061000A0E0B1E0ECE0FFE602C005900D92A83C3E
:10062000B107D9F70E94D52E0C944D370C940000D9
:10063000E8EDF0E080818E7F80831092E2001092DE
:10064000DA001092E100A0EEB0E08C9181608C9312
:1006500080818F77808319BCA7EDB0E08C918E7F6D
:100660008C9380818F7E80831092770608952091ED
:10067000E4003091E50095E6A9012091EC00822F7D
:10068000817020FF06C08091E80080FF06C080E0F6
:1006900008952091E80022FD1AC0809184068823E5
:1006A00089F0853089F08091EB0085FD0FC02091A5
:1006B000E4003091E50042175307F9F29150E1F65A
:1006C00084E0089582E0089583E0089581E008952C
:1006D000EF92FF920F931F93CF937C018B010E94A7
:1006E0003703C82F811117C08091E80085FD0BC02A
:1006F0008091E8008E778093E8000E94370388237A
:1007000099F3C82F08C0F70181917F018093F10010
:100710000150110949F78C2FCF911F910F91FF9034
:10072000EF9008958091860687FF13C08091E800BE
:1007300082FF06C08091E8008B778093E80004C0B8
:10074000809184068111F2CF0895809184068823D8
:10075000D9F38091E80080FFF8CF8091E8008E7790
:10076000ECCF982F9093E900242F762F50E0891733
:1007700031F07091EC002091ED005091F00021FDDE
:1007800007C09F5F973071F78093E90081E008957B
:100790003091EB003E7F3093EB003091ED003D7FD8
:1007A0003093ED003091EB0031603093EB007093AB
:1007B000EC002093ED005093F0002091EE0027FD17
:1007C000E0CF80E00895CF92DF92EF92FF920F93F7
:1007D0001F93CF93DF93C8EDD0E088818F7E88830D
:1007E000E7EDF0E080818160808384E082BF81E07A
:1007F0008093770688818E7F888302EE10E0F8016F
:1008000010821092DA0081EEC82ED12CF6011082EF
:1008100088818F77888388818068888388818F7DAD
:10082000888319BC10928406109285061092830664
:100830001092820690EEE92EF12CF70180818B7FD9
:10084000808388818160888342E060E080E00E944C
:10085000B103F60180818E7F8083F8018081816001
:100860008083808188608083F70180818E7F808390
:10087000888180618883DF91CF911F910F91FF90D4
:10088000EF90DF90CF900895FC0180918C069091BD
:100890008D0686179707A0F06115710529F49091D0
:1008A000E8009E779093E80090E06115710551F49F
:1008B000911108C08091E80082FF34C080E0089563
:1008C000BC01F2CF809184068823C1F18530C1F14B
:1008D0008091E80083FD30C08091E80082FDEACF7E
:1008E0008091E80080FFE1CF8091F3002091F20039
:1008F000382F6115710519F02830310558F091E055
:100900002830310509F090E02091E8002E772093FF
:10091000E800CBCF81918093F100615071092F5F86
:100920003F4FE7CF80918406882341F0853041F026
:100930008091E80083FFBECF81E0089582E00895B2
:1009400083E00895089508950895809179060895A3
:1009500087E797E7909301088093000888E19AE081
:100960000FB6F894A895809360000FBE9093600036
:10097000FFCF2FB7F89460916D0670916E0680914D
:100980006F06909170062FBF089520916A063091EE
:100990006B062817390771F090936B0680936A06EF
:1009A000E0916806F0916906309721F00084F185A6
:1009B000E02D099408952091660630916706281766
:1009C000390771F09093670680936606E091680698
:1009D000F0916906309721F00680F781E02D0994A7
:1009E0000895E0916806F0916906309721F0019032
:1009F000F081E02D099480E00895FA01811101C091
:100A0000FB01099480916106982F9E7F61F48170AB
:100A1000826080936106809164068F3618F08EE6BE
:100A20008093640608958635B0F381708465F1CFB4
:100A3000AF92BF92DF92EF92FF920F931F93CF93EB
:100A4000DF93182F062FE9014F3608F04EE6E42F0A
:100A5000F0E0E95DFD4F011110C0E4915E2F4E2FD3
:100A60004983E8835A83DF91CF911F910F91FF90C3
:100A7000EF90DF90BF90AF900895202F30E0449129
:100A8000D42EE42EF12C56E0159FC0011124EFEF77
:100A9000F0E0BF010E94DC35812F90E0880F991FA4
:100AA00055E5569FD001579FB00D11248A1B9B0B13
:100AB000982F990F890F5F01A21AB30AAE9CD0013B
:100AC000AF9CB00DBE9CB00D11245B2F089F800120
:100AD0001124012F11275F01A01AB10AAE9C8001D9
:100AE000AF9C100DBE9C100D11245F01A81AB10817
:100AF000A29EC001A39E900DB29E900D1124892F3D
:100B00009927E81BF90BEE9DC001EF9D900DFE9D0E
:100B1000900D1124E92F62307105A1F050F4611598
:100B2000710509F49DCF6130710581F0EB2F512FD4
:100B300097CF6430710569F080F06630710509F473
:100B40008FCFF4CFE42F4B2F592F8ACFE42F412F93
:100B500087CFEB2F542F492F83CF4B2F5D2DE12FC4
:100B60007FCFF894E82FE295EF70F0E031A1282FC5
:100B70002F7081E090E001C0880F2A95EAF7982F46
:100B80009095932391A392A1892B82A378940895A1
:100B90009091350292FF06C0282F28712830F9F471
:100BA000877F846093FF06C0282F28712831F1F4D5
:100BB000877E84612091360220FF06C0382F38716D
:100BC0003830D9F4877F816021FF06C0282F287133
:100BD0002831D1F4877E816194FD877E0895282F86
:100BE00024712430F9F68B7F8860DCCF282F2471A4
:100BF000243101F78B7E8861DDCF382F31713130A0
:100C000019F78E7F8860E0CF282F2171213121F7DD
:100C10008E7E8861E1CFCF93DF93EC01823891051E
:100C200081F1B0F58133910509F491C020F5893245
:100C3000910509F485C08A9709F490C0C11521E592
:100C4000D20708F0AAC0C11530E5D30708F0F2C0FA
:100C5000CF3BD10508F089C0C83AD10508F0DFC004
:100C6000C53AD10508F0D3C0C430D105F8F4C1307D
:100C7000D105E1F040C08533910509F45AC0C99708
:100C8000E9F680913502837089F0C0EED0E00EC0A5
:100C9000833E910599F170F4803E910501F1823E09
:100CA000910561F68091350282FD21C0CE01DF9170
:100CB000CF910895863E910561F1873E910571F1CE
:100CC000843E910509F0BACF8091360281FFEECFC4
:100CD00080913502C7EED0E084FD0DC0E7CF809152
:100CE000350280FDF7C09091360290FFDFCFC3EE52
:100CF000D0E084FFDBCFD0E0C0E0D8CF80913502D8
:100D000082FDEBC09091360290FDBFCF84FFCECF25
:100D1000F2CF8091350283FDDDCFC8CF80913502BF
:100D200083FDDEC09091360291FFF0CFC4EED0E09B
:100D3000BDCF8091350285FFB9CFC9E2D0E0B6CFF3
:100D40008091350285FFB2CFC5E3D0E0AFCF80916F
:100D5000350286FFABCFCAE2D0E0A8CF8091350242
:100D600086FFA4CFC1E3D0E0A1CFC11540E2D407F4
:100D700060F4C11581E0D80708F098CFCE01815EFC
:100D80009109079708F492CFB6CFC11590E4D9071F
:100D900008F4B1CFDF70D06A89CFC11524E5D2073E
:100DA00078F4C11533E5D30708F072C0C11542E5E8
:100DB000D40708F05CC0DC2FCC27C16FD06A76CF97
:100DC000C1158AE5D80778F4C11599E5D90708F067
:100DD00073C0C11528E5D20708F48DCFDC2FCC27CE
:100DE000C06FD06A63CFCE0190568115904208F053
:100DF00082CF8D2F8F710E94C80590E0982F882791
:100E000088279F719C012C2BE901D0624FCFC55AD6
:100E1000D0E0C85CDE4FC881D0E0D06447CFC85A6C
:100E2000D0E0CC0FDD1FC55CDE4F0990D881C02D0E
:100E3000D4643CCFCE0164E0969587956A95E1F73E
:100E400083702C2F26952695237040E2249F9001D5
:100E50001124382B8C2F8370C1E0D0E002C0CC0F5E
:100E6000DD1F8A95E2F7C22BD32BDC681FCFCE01A2
:100E70008370992721E030E002C0220F331F8A954A
:100E8000E2F7C695C69580E2C89FE0011124EBCF3A
:100E9000CE018370992721E030E002C0220F331F7A
:100EA0008A95E2F7C695C69590E2C99FE0011124A4
:100EB000C22BD32BDA68FACE8C2F8F700E94C80514
:100EC00034E0D695C7953A95E1F7CF709C2FEC01A9
:100ED000D069ECCEC9E3D0E0E9CEC2EED0E0E6CEF8
:100EE000C6EED0E0E3CE8091240290912302892BBC
:100EF00090912202892B8093CA01E0916806F091BB
:100F00006906309731F00280F381E02D8AEC91E0A0
:100F100009940895ECECF1E09191891303C0DF018D
:100F200011971C9291E0E23DF907B1F70895ACECFE
:100F3000B1E0EFEF90E02D91821751F0EF3F19F4FF
:100F4000211101C0E92F9F5F9630A9F7EF3F09F407
:100F500008950E2E000CFF0BE653FE4F828308957A
:100F6000809121029091F001981301C008958F5F44
:100F70008770FACF990F990F890F982F97708695E0
:100F80008695869523E0829FF0011124EF51FE4F54
:100F900050E040E080E0219130E0092E02C036951B
:100FA00027950A94E2F721703327042E01C0220FFF
:100FB0000A94EAF7822B4F5F5F4F4330510559F790
:100FC0000895990F990F890F982F977041E001C0EC
:100FD000440F9A95EAF786958695869593E0899FC2
:100FE000F0011124EF51FE4F30E020E070E051910C
:100FF000DF011197CB01022E02C0969587950A94C6
:10100000E2F7817081958527842385278C932F5F54
:101010003F4F2330310559F7089590E080E00E945A
:10102000DB0490E080E00E94C5041092230210923D
:1010300022020C947307809325020C940D088823D8
:1010400041F08095909124028923809324020C948E
:1010500073070895882339F090912402982B909378
:1010600024020C9473070895882309F452C082382F
:1010700071F40E94F10481FF4CC089E30E9497073C
:101080000E94730789E30E948A070C9473078338D0
:1010900059F40E94F10480FF3CC083E50E94970749
:1010A0000E94730783E5EFCF843859F40E94F1045E
:1010B00082FF2FC087E40E9497070E94730787E48E
:1010C000E2CF9CEF980F913AF0F290E2980F9830AF
:1010D00088F4877021E030E0A90102C0440F551F59
:1010E0008A95E2F7CA018095909124028923809322
:1010F0002402CBCF9BE5980F933020F490E080E062
:101100000C94DB04885A873120F490E080E00C9442
:10111000C5040895CF93DF9393E0899FE0011124E4
:101120009E012F593D4F40E060E080E00E9418058D
:101130009E012C593D4F40E060E080E00E94180580
:101140009E0129593D4F40E060E080E00E94180573
:101150009E012F563D4F4FEF6FEF85E50E9418051A
:101160009E012C563D4F4FEF6FEF85E50E9418050D
:101170009E0129563D4F4FEF6FEF85E50E94180500
:101180009E012F533D4F4FEF6FEF85E50E941805ED
:101190009E012C533D4F40E060E080E00E94180526
:1011A0009E0129533D4F4FEF6FEF85E50E941805D3
:1011B0009E012F503D4F4FEF6FEF85E50E941805C0
:1011C0009E012C503D4F4FEF6FEF85E50E941805B3
:1011D0009E0129503D4F4FEF6FEF85E50E941805A6
:1011E0009E012F5D3C4F40E060E080E00E941805CA
:1011F0009E012C5D3C4F40E060E080E00E941805BD
:101200009E01295D3C4F4FEF6FEF85E50E94180569
:101210009E012F5A3C4F40E060E080E00E9418059C
:101220009E012C5A3C4F40E060E080E00E9418058F
:101230009E01295A3C4F4FEF6FEF85E50E9418053C
:101240009E012F573C4F40E060E080E00E9418056F
:101250009E012C573C4F40E060E080E00E94180562
:101260009E0129573C4F4FEF6FEF85E50E9418050F
:101270009E012F543C4F40E060E080E00E94180542
:101280009E012C543C4F40E060E080E00E94180535
:101290009E0129543C4F40E060E080E0DF91CF9117
:1012A0000C941805CF93DF9393E0899FE0011124FC
:1012B0009E012F593D4F40E060E080E00E941805FC
:1012C0009E012C593D4F40E060E080E00E941805EF
:1012D0009E0129593D4F40E060E080E00E941805E2
:1012E0009E012F563D4F40E060E080E00E941805CF
:1012F0009E012C563D4F4FEF6FEF85E50E9418057C
:101300009E0129563D4F40E060E080E00E941805B4
:101310009E012F533D4F4FEF6FEF85E50E9418055B
:101320009E012C533D4F40E060E080E00E94180594
:101330009E0129533D4F4FEF6FEF85E50E94180541
:101340009E012F503D4F40E060E080E00E94180574
:101350009E012C503D4F4FEF6FEF85E50E94180521
:101360009E0129503D4F40E060E080E00E9418055A
:101370009E012F5D3C4F4FEF6FEF85E50E941805F2
:101380009E012C5D3C4F40E060E080E00E9418052B
:101390009E01295D3C4F4FEF6FEF85E50E941805D8
:1013A0009E012F5A3C4F4FEF6FEF85E50E941805C5
:1013B0009E012C5A3C4F40E060E080E00E941805FE
:1013C0009E01295A3C4F4FEF6FEF85E50E941805AB
:1013D0009E012F573C4F40E060E080E00E941805DE
:1013E0009E012C573C4F4FEF6FEF85E50E9418058B
:1013F0009E0129573C4F40E060E080E00E941805C4
:101400009E012F543C4F40E060E080E00E941805B0
:101410009E012C543C4F40E060E080E00E941805A3
:101420009E0129543C4F40E060E080E0DF91CF9185
:101430000C941805CF93DF9393E0899FE00111246A
:101440009E012F593D4F40E060E080E00E9418056A
:101450009E012C593D4F40E060E080E00E9418055D
:101460009E0129593D4F40E060E080E00E94180550
:101470009E012F563D4F4FEF6FEF85E50E941805F7
:101480009E012C563D4F4FEF6FEF85E50E941805EA
:101490009E0129563D4F4FEF6FEF85E50E941805DD
:1014A0009E012F533D4F40E060E080E00E94180510
:1014B0009E012C533D4F40E060E080E00E94180503
:1014C0009E0129533D4F4FEF6FEF85E50E941805B0
:1014D0009E012F503D4F40E060E080E00E941805E3
:1014E0009E012C503D4F40E060E080E00E941805D6
:1014F0009E0129503D4F4FEF6FEF85E50E94180583
:101500009E012F5D3C4F40E060E080E00E941805A6
:101510009E012C5D3C4F4FEF6FEF85E50E94180553
:101520009E01295D3C4F40E060E080E00E9418058C
:101530009E012F5A3C4F40E060E080E00E94180579
:101540009E012C5A3C4F4FEF6FEF85E50E94180526
:101550009E01295A3C4F40E060E080E00E9418055F
:101560009E012F573C4F40E060E080E00E9418054C
:101570009E012C573C4F4FEF6FEF85E50E941805F9
:101580009E0129573C4F40E060E080E00E94180532
:101590009E012F543C4F40E060E080E00E9418051F
:1015A0009E012C543C4F40E060E080E00E94180512
:1015B0009E0129543C4F40E060E080E0DF91CF91F4
:1015C0000C941805CF93DF9393E0899FE0011124D9
:1015D0009E012F593D4F40E060E080E00E941805D9
:1015E0009E012C593D4F40E060E080E00E941805CC
:1015F0009E0129593D4F40E060E080E00E941805BF
:101600009E012F563D4F40E060E080E00E941805AB
:101610009E012C563D4F4FEF6FEF85E50E94180558
:101620009E0129563D4F4FEF6FEF85E50E9418054B
:101630009E012F533D4F4FEF6FEF85E50E94180538
:101640009E012C533D4F40E060E080E00E94180571
:101650009E0129533D4F40E060E080E00E94180564
:101660009E012F503D4F4FEF6FEF85E50E9418050B
:101670009E012C503D4F4FEF6FEF85E50E941805FE
:101680009E0129503D4F40E060E080E00E94180537
:101690009E012F5D3C4F4FEF6FEF85E50E941805CF
:1016A0009E012C5D3C4F40E060E080E00E94180508
:1016B0009E01295D3C4F4FEF6FEF85E50E941805B5
:1016C0009E012F5A3C4F4FEF6FEF85E50E941805A2
:1016D0009E012C5A3C4F40E060E080E00E941805DB
:1016E0009E01295A3C4F4FEF6FEF85E50E94180588
:1016F0009E012F573C4F40E060E080E00E941805BB
:101700009E012C573C4F4FEF6FEF85E50E94180567
:101710009E0129573C4F40E060E080E00E941805A0
:101720009E012F543C4F40E060E080E00E9418058D
:101730009E012C543C4F40E060E080E00E94180580
:101740009E0129543C4F40E060E080E0DF91CF9162
:101750000C941805CF93DF9393E0899FE001112447
:101760009E012F593D4F40E060E080E00E94180547
:101770009E012C593D4F40E060E080E00E9418053A
:101780009E0129593D4F40E060E080E00E9418052D
:101790009E012F563D4F4FEF6FEF85E50E941805D4
:1017A0009E012C563D4F4FEF6FEF85E50E941805C7
:1017B0009E0129563D4F4FEF6FEF85E50E941805BA
:1017C0009E012F533D4F4FEF6FEF85E50E941805A7
:1017D0009E012C533D4F40E060E080E00E941805E0
:1017E0009E0129533D4F40E060E080E00E941805D3
:1017F0009E012F503D4F4FEF6FEF85E50E9418057A
:101800009E012C503D4F4FEF6FEF85E50E9418056C
:101810009E0129503D4F40E060E080E00E941805A5
:101820009E012F5D3C4F40E060E080E00E94180583
:101830009E012C5D3C4F40E060E080E00E94180576
:101840009E01295D3C4F4FEF6FEF85E50E94180523
:101850009E012F5A3C4F40E060E080E00E94180556
:101860009E012C5A3C4F40E060E080E00E94180549
:101870009E01295A3C4F4FEF6FEF85E50E941805F6
:101880009E012F573C4F4FEF6FEF85E50E941805E3
:101890009E012C573C4F4FEF6FEF85E50E941805D6
:1018A0009E0129573C4F40E060E080E00E9418050F
:1018B0009E012F543C4F40E060E080E00E941805FC
:1018C0009E012C543C4F40E060E080E00E941805EF
:1018D0009E0129543C4F40E060E080E0DF91CF91D1
:1018E0000C941805CF93DF9393E0899FE0011124B6
:1018F0009E012F593D4F40E060E080E00E941805B6
:101900009E012C593D4F40E060E080E00E941805A8
:101910009E0129593D4F40E060E080E00E9418059B
:101920009E012F563D4F4FEF6FEF85E50E94180542
:101930009E012C563D4F40E060E080E00E9418057B
:101940009E0129563D4F4FEF6FEF85E50E94180528
:101950009E012F533D4F4FEF6FEF85E50E94180515
:101960009E012C533D4F40E060E080E00E9418054E
:101970009E0129533D4F4FEF6FEF85E50E941805FB
:101980009E012F503D4F4FEF6FEF85E50E941805E8
:101990009E012C503D4F40E060E080E00E94180521
:1019A0009E0129503D4F4FEF6FEF85E50E941805CE
:1019B0009E012F5D3C4F4FEF6FEF85E50E941805AC
:1019C0009E012C5D3C4F4FEF6FEF85E50E9418059F
:1019D0009E01295D3C4F4FEF6FEF85E50E94180592
:1019E0009E012F5A3C4F40E060E080E00E941805C5
:1019F0009E012C5A3C4F40E060E080E00E941805B8
:101A00009E01295A3C4F4FEF6FEF85E50E94180564
:101A10009E012F573C4F40E060E080E00E94180597
:101A20009E012C573C4F40E060E080E00E9418058A
:101A30009E0129573C4F4FEF6FEF85E50E94180537
:101A40009E012F543C4F40E060E080E00E9418056A
:101A50009E012C543C4F40E060E080E00E9418055D
:101A60009E0129543C4F40E060E080E0DF91CF913F
:101A70000C941805CF93DF9393E0899FE001112424
:101A80009E012F593D4F40E060E080E00E94180524
:101A90009E012C593D4F40E060E080E00E94180517
:101AA0009E0129593D4F40E060E080E00E9418050A
:101AB0009E012F563D4F4FEF6FEF85E50E941805B1
:101AC0009E012C563D4F4FEF6FEF85E50E941805A4
:101AD0009E0129563D4F4FEF6FEF85E50E94180597
:101AE0009E012F533D4F40E060E080E00E941805CA
:101AF0009E012C533D4F40E060E080E00E941805BD
:101B00009E0129533D4F4FEF6FEF85E50E94180569
:101B10009E012F503D4F40E060E080E00E9418059C
:101B20009E012C503D4F4FEF6FEF85E50E94180549
:101B30009E0129503D4F40E060E080E00E94180582
:101B40009E012F5D3C4F40E060E080E00E94180560
:101B50009E012C5D3C4F40E060E080E00E94180553
:101B60009E01295D3C4F4FEF6FEF85E50E94180500
:101B70009E012F5A3C4F40E060E080E00E94180533
:101B80009E012C5A3C4F40E060E080E00E94180526
:101B90009E01295A3C4F4FEF6FEF85E50E941805D3
:101BA0009E012F573C4F4FEF6FEF85E50E941805C0
:101BB0009E012C573C4F4FEF6FEF85E50E941805B3
:101BC0009E0129573C4F4FEF6FEF85E50E941805A6
:101BD0009E012F543C4F40E060E080E00E941805D9
:101BE0009E012C543C4F40E060E080E00E941805CC
:101BF0009E0129543C4F40E060E080E0DF91CF91AE
:101C00000C941805CF93DF9393E0899FE001112492
:101C10009E012F593D4F40E060E080E00E94180592
:101C20009E012C593D4F40E060E080E00E94180585
:101C30009E0129593D4F40E060E080E00E94180578
:101C40009E012F563D4F40E060E080E00E94180565
:101C50009E012C563D4F4FEF6FEF85E50E94180512
:101C60009E0129563D4F40E060E080E00E9418054B
:101C70009E012F533D4F4FEF6FEF85E50E941805F2
:101C80009E012C533D4F40E060E080E00E9418052B
:101C90009E0129533D4F4FEF6FEF85E50E941805D8
:101CA0009E012F503D4F40E060E080E00E9418050B
:101CB0009E012C503D4F40E060E080E00E941805FE
:101CC0009E0129503D4F4FEF6FEF85E50E941805AB
:101CD0009E012F5D3C4F40E060E080E00E941805CF
:101CE0009E012C5D3C4F4FEF6FEF85E50E9418057C
:101CF0009E01295D3C4F40E060E080E00E941805B5
:101D00009E012F5A3C4F4FEF6FEF85E50E9418055B
:101D10009E012C5A3C4F40E060E080E00E94180594
:101D20009E01295A3C4F40E060E080E00E94180587
:101D30009E012F573C4F4FEF6FEF85E50E9418052E
:101D40009E012C573C4F4FEF6FEF85E50E94180521
:101D50009E0129573C4F4FEF6FEF85E50E94180514
:101D60009E012F543C4F40E060E080E00E94180547
:101D70009E012C543C4F40E060E080E00E9418053A
:101D80009E0129543C4F40E060E080E0DF91CF911C
:101D90000C941805CF93DF9393E0899FE001112401
:101DA0009E012F593D4F40E060E080E00E94180501
:101DB0009E012C593D4F40E060E080E00E941805F4
:101DC0009E0129593D4F40E060E080E00E941805E7
:101DD0009E012F563D4F40E060E080E00E941805D4
:101DE0009E012C563D4F4FEF6FEF85E50E94180581
:101DF0009E0129563D4F40E060E080E00E941805BA
:101E00009E012F533D4F4FEF6FEF85E50E94180560
:101E10009E012C533D4F4FEF6FEF85E50E94180553
:101E20009E0129533D4F40E060E080E00E9418058C
:101E30009E012F503D4F40E060E080E00E94180579
:101E40009E012C503D4F4FEF6FEF85E50E94180526
:101E50009E0129503D4F40E060E080E00E9418055F
:101E60009E012F5D3C4F40E060E080E00E9418053D
:101E70009E012C5D3C4F4FEF6FEF85E50E941805EA
:101E80009E01295D3C4F40E060E080E00E94180523
:101E90009E012F5A3C4F40E060E080E00E94180510
:101EA0009E012C5A3C4F4FEF6FEF85E50E941805BD
:101EB0009E01295A3C4F40E060E080E00E941805F6
:101EC0009E012F573C4F40E060E080E00E941805E3
:101ED0009E012C573C4F4FEF6FEF85E50E94180590
:101EE0009E0129573C4F40E060E080E00E941805C9
:101EF0009E012F543C4F40E060E080E00E941805B6
:101F00009E012C543C4F40E060E080E00E941805A8
:101F10009E0129543C4F40E060E080E0DF91CF918A
:101F20000C941805CF93DF9393E0899FE00111246F
:101F30009E012F593D4F40E060E080E00E9418056F
:101F40009E012C593D4F40E060E080E00E94180562
:101F50009E0129593D4F40E060E080E00E94180555
:101F60009E012F563D4F40E060E080E00E94180542
:101F70009E012C563D4F4FEF6FEF85E50E941805EF
:101F80009E0129563D4F40E060E080E00E94180528
:101F90009E012F533D4F4FEF6FEF85E50E941805CF
:101FA0009E012C533D4F40E060E080E00E94180508
:101FB0009E0129533D4F4FEF6FEF85E50E941805B5
:101FC0009E012F503D4F4FEF6FEF85E50E941805A2
:101FD0009E012C503D4F40E060E080E00E941805DB
:101FE0009E0129503D4F4FEF6FEF85E50E94180588
:101FF0009E012F5D3C4F4FEF6FEF85E50E94180566
:102000009E012C5D3C4F40E060E080E00E9418059E
:102010009E01295D3C4F4FEF6FEF85E50E9418054B
:102020009E012F5A3C4F4FEF6FEF85E50E94180538
:102030009E012C5A3C4F40E060E080E00E94180571
:102040009E01295A3C4F4FEF6FEF85E50E9418051E
:102050009E012F573C4F40E060E080E00E94180551
:102060009E012C573C4F4FEF6FEF85E50E941805FE
:102070009E0129573C4F40E060E080E00E94180537
:102080009E012F543C4F40E060E080E00E94180524
:102090009E012C543C4F40E060E080E00E94180517
:1020A0009E0129543C4F40E060E080E0DF91CF91F9
:1020B0000C9418059FB7F894109275069FBF9091E5
:1020C0008406943009F048C02091E9002F703091C7
:1020D000EC00932F917030FD90E8922B25E0209337
:1020E000E9002091EB0020FF34C02091EE0027FF93
:1020F00030C020917406222321F02091E80025FFB2
:1021000028C01092740626E03091E80035FF14C014
:102110008093F1008091E80085FD27C08091E80060
:1021200080FFFCCF8091E8008E778093E8009F705D
:102130009093E90080E0089530918406343049F4AA
:102140003091EB0035FD05C0215041F481E08093D2
:1021500074069F709093E9008FEF0895EFE9FFE018
:102160003197F1F700C00000CFCF8FB7F89421E08E
:10217000209375068FBFDBCF809371067093730633
:1021800060937206809184068430F9F48093E900AC
:102190008FEF9091E800815095FD06C095ED9A95DE
:1021A000F1F700008111F5CF8091E80085FF0DC0A7
:1021B00050E040E063E070E081E796E00E94680351
:1021C0008091E8008E778093E8000895BC0184E058
:1021D0000C94BC10BC0183E00C94BC10CF93DF9333
:1021E000EC0181E08093E9008FEF9091E80081504D
:1021F00095FD06C095ED9A95F1F700008111F5CF98
:102200008091E80085FF14C050E040E068E070E095
:10221000CE010E9468038091E8008E778093E800E9
:1022200088E0FE01AAE7B6E001900D928A95E1F7F9
:10223000DF91CF910895CF93C82F882309F488C0E8
:102240008238C1F40E94F10481FD82C089E30E94BA
:1022500097070E9473072FEF81EE94E02150804092
:102260009040E1F700C0000089E30E948A07CF9107
:102270000C9473078338A1F40E94F10480FD68C0B8
:1022800083E50E9497070E9473072FEF81EE94E089
:10229000215080409040E1F700C0000083E5E5CF89
:1022A0008438A1F40E94F10482FD52C087E40E94A8
:1022B00097070E9473072FEF81EE94E02150804032
:1022C0009040E1F700C0000087E4CFCF8CEF8C0F87
:1022D000813A68F4ECECF1E08191C81799F121E0C2
:1022E000E23DF207C9F78C2F0E949707C0CF80E22A
:1022F0008C0F883068F4C77021E030E001C0220FF5
:10230000CA95EAF780912402822B80932402AFCFF2
:10231000EBE5EC0FE33040F4F0E0E85CFE4F808149
:1023200090E0CF910C94DB04C85AC73188F4EC2FAD
:10233000F0E0EE0FFF1FE55CFE4F80819181CF91B1
:102340000C94C5048C2F0E948A070E947307CBCF80
:10235000CF9108951F93CF93DF93182FD0E0C0E063
:10236000893311F4C0E5D0E0812F0E941B11209722
:1023700031F4812FDF91CF911F910C9434088FE9B4
:102380009FE00197F1F700C000002197F0CFCF93B5
:10239000DF93C7EED0E060E0CE010E94B636219612
:1023A000C11584E0D807B9F7DF91CF9108956F92F6
:1023B0007F928F929F92AF92BF92CF92DF92EF92D5
:1023C000FF920F931F93CF93DF938CE2C82E84E08C
:1023D000D82E0FE510E0E801E09736011CC0F501AA
:1023E00085909490692DC7010E94B636682DC7016B
:1023F00001960E94B63682E0A80EB11C82E0E80E7B
:10240000F11CCE15DF0559F788E0680E711C28967F
:102410000C171D0731F07E0188E0E81AF10853011E
:10242000DECF005D1F4F80E3C80ED11C0F3181E06D
:10243000180789F6DF91CF911F910F91FF90EF90D0
:10244000DF90CF90BF90AF909F908F907F906F90D4
:102450000895CF93C82F6FEF811161E283E290E07E
:102460000E94B6366FEFC11162E184E290E00E94F3
:10247000B6366FEFC11168E185E290E0CF910C9420
:10248000B63680E00E94291260E086E290E00E9469
:10249000B6360E94D7110E94C71181E00C94291210
:1024A0000F931F93CF93DF9328E0629FE0011124E5
:1024B00050E0440F551FC40FD51F30E3839FC00D5C
:1024C000D11D1124CE0187960E94A236082F10E05C
:1024D000102F0027CE0188960E94A2369801282B43
:1024E000C901DF91CF911F910F910895462F84303C
:1024F00038F4763028F4643018F4672F0C945012B6
:1025000090E080E00895CF92DF92FF920F931F93A7
:10251000CF93DF936C0100918E0680912502082BEA
:10252000C7E0D0E010E0FC2EC8010C2E02C095954B
:1025300087950A94E2F780FD0CC02197A0F7F12C53
:102540008F2DDF91CF911F910F91FF90DF90CF9052
:102550000895B6018C2F0E9476120E940B060197F7
:1025600061F3EECFCF93DF93EC010E948312BE01A3
:102570000E947612DF91CF910C940B06FC018081B2
:1025800091810E94B212292F2F7092959F709250C4
:102590009E3078F4E92FF0E0E15BF84C0C941036B3
:1025A000803F19F020F4883E20F481E00895843FB4
:1025B000E1F380E00895883EC0F3813FD1F7F5CF85
:1025C000822F869586958695089583E290E00E94F5
:1025D000A236813289F484E290E00E94A2368231F0
:1025E00059F485E290E00E94A23691E0883109F02A
:1025F00090E0892F8170089580E0FCCFCF9384E034
:1026000090E00E94A236C82F82E290E00E94A2369B
:10261000982F8C2FCF9108958091610680FD0AC07C
:10262000E1E6F2E0118210821282339653E0E13E3D
:10263000F507C1F7809A31B33E7F21B321604FB7D0
:10264000F89481E692E0FC015191CF0168E021BB52
:10265000000000C057FF31BB550F000000C000C094
:1026600000C031BB00C06A9591F7F3E0813E9F073F
:1026700051F74FBF8FE594E00197F1F700C00000DC
:1026800008956F927F928F929F92AF92BF92CF9256
:10269000DF92EF92FF920F931F93CF93DF93FC0192
:1026A0008280648081E08483ECE2F3E09490EBEA42
:1026B000F3E0E491C1EED3E031E6E32E32E0F32E15
:1026C00042E0C42EDD24D394AA24AA94B12C77240A
:1026D0007A94E9190E2F10E082E0881530F080918D
:1026E00062068883809163068983611020C01B8203
:1026F0001A8297014A81698188810E94180525966E
:1027000083E0E80EF11C86E0C136D80729F7DF9197
:10271000CF911F910F91FF90EF90DF90CF90BF90DE
:10272000AF909F908F907F906F900C940C138B8143
:102730008823E9F081508B83879DC00111246C812F
:1027400070E00E94DC35FB01FF27E45DFC4F8491C3
:10275000E82FE919E79DC0011124B8010E94DC357A
:1027600080916406689FB00111247A83C2CF0E94D1
:10277000783620916406269521582C9DA0012D9D28
:10278000500D1124452F5527841795070CF0B1CF14
:1027900082E0881588F40E947836B5010E94FC35E5
:1027A00088830E947836209163062695622F70E018
:1027B0000E94FC35280F29831A8280916406893C87
:1027C00020F088EC8C838B8394CF8431D8F784E11C
:1027D000F9CFEF92FF920F931F93CF93DF938C016A
:1027E000C1E6D2E0F12CE12CF801948160916306FE
:1027F00080916206F0E4EF16F104FCF49923F9F0FD
:102800009E01409164060E9418052FEFE21AF20A19
:10281000239680E8E816F10439F70E940C13F801BA
:10282000848190E00196817099278483DF91CF9114
:102830001F910F91FF90EF900895992309F39E0146
:1028400040E0E1CF8F929F92AF92BF92CF92DF9202
:10285000EF92FF920F931F93CF93DF93EC014C8184
:10286000042F10E09801D8010E943E379B01AC0173
:102870000E9409374B015C01E0E2F0E0E01BF10B44
:10288000A5E5B0E0AC019B010E9409376B017C011A
:102890009F01DF010E941D369B01AC010E9414378D
:1028A0009B01AC01280D391D4A1D5B1DC701B601F6
:1028B0000E941C37F22E822F90E039E23F15D8F1AA
:1028C00043E0249F9001112435952795122F1095F0
:1028D00091E6C92E92E0D92E00E085E5E82EEF18AA
:1028E0008E2D01FD8F2D9601412F609163060E9470
:1028F00018050F5F53E0C50ED11C003889F70E9400
:102900000C139C8181E0992319F0903219F48FEF18
:102910008093360180913601890F8C83DF91CF91AE
:102920001F910F91FF90EF90DF90CF90BF90AF90ED
:102930009F908F90089525E530E0A901481B590B21
:10294000CA019A01220F331F280F391F37FFBCCF4E
:102950002F5F3F4FB9CF0F931F93CF93DF93C1E604
:10296000D2E0FE01118210821282339683E0E13EB2
:10297000F807C1F710E000E080915F02082E000C1C
:10298000990B081719078CF180913501082E000C5E
:10299000990B801791074CF19E014091640660915C
:1029A0006306809162060E9418050F5F1F4F2396F1
:1029B0000038110509F70E940C13809134019091A1
:1029C0005F02980F90935F0220913501280F2093AA
:1029D0003501121614F49F3719F481958093340150
:1029E000DF91CF911F910F910895198218821A8259
:1029F000DCCFCF92DF92EF92FF920F931F93CF9392
:102A0000DF93FC018281DD24DA9480FD02C0DD24A5
:102A1000D394C1E6D2E010E000E0198218821A8255
:102A200094E0E92EF12CC12C80915E028C0D87FD83
:102A30008058082E000C990B8017910791F4809113
:102A400064068E9DA0018F9D500D112455954795CC
:102A5000559547959E0160916306809162060E949C
:102A60001805CD0CF1E0EF1AF108F1F60F5F1F4FDA
:102A700023960038110589F60E940C1380915E029E
:102A800091E0D91210C081110CC08FE780935E02D3
:102A9000DF91CF911F910F91FF90EF90DF90CF903A
:102AA00008958150F3CF90E001968F779927EECF6C
:102AB000EF92FF921F93CF93DF93EC0181E6E82E14
:102AC00082E0F82E10E08C819701409164066091BD
:102AD0006306810F0E9418051F5F83E0E80EF11C5A
:102AE000103889F70E940C139A818C8190FF08C0DE
:102AF0008F5F8C83DF91CF911F91FF90EF900895AE
:102B00008150F7CF9091610690FF0CC0E1E6F2E0B2
:102B1000818360834283339693E0E13EF907C1F7F6
:102B20000C940C1308950F931F93CF93DF9300D051
:102B30000F92CDB7DEB78C018091600281110AC07F
:102B40009E012F5F3F4F4EE66FEF0E9418058A816E
:102B500080936002F8016481613069F080916002C5
:102B600040E0662361F040E0623011F44091600281
:102B700080E060E004C06091600240E080E00E947C
:102B80008215F801848190E0019663E070E00E9474
:102B9000FC3584830F900F900F90DF91CF911F91A0
:102BA0000F910895CF93DF9300D00F92CDB7DEB78A
:102BB0009091610690FF0AC09E012F5F3F4F0E94D7
:102BC00018054B8169818A810E9482150F900F90B0
:102BD0000F90DF91CF910895CF93DF93EC01E1E661
:102BE000F6E0438162818C810E94D2158C818F5FD7
:102BF0008C83DF91CF910895CF93DF93EC01EC812B
:102C0000F0E0E45DFC4F4491E1E6F6E06281818111
:102C10000E94D2158C818F5F8C83DF91CF910895B4
:102C2000CF92DF92EF92FF926B017C010E9402052E
:102C3000B701A60188E090E0FF90EF90DF90CF9081
:102C40000C94C8367F928F929F92AF92BF92CF9290
:102C5000DF92EF92FF920F931F93CF93DF9300D0F9
:102C60000F92CDB7DEB7182FD62E042FC22E90911B
:102C7000610690FF29C0E92FE695AE2FB0E0A75777
:102C8000BE4F8C9180935B029E7F923071F59E01C6
:102C90002F5F3F4F812F0E9418054B8169818A81E8
:102CA0000E94821510936206D09263060093640618
:102CB000CC2051F0609161067091620680916306AC
:102CC000909164060E9410160F900F900F90DF9164
:102CD000CF911F910F91FF90EF90DF90CF90BF9019
:102CE000AF909F908F907F900895823019F400915B
:102CF0006406D8CF863019F410916206D3CF89309C
:102D0000D9F3893179F6E9512E2F2170722EE6958B
:102D1000F0E0E95DFC4F85909490992431E6E32E34
:102D200032E0F32EB12CA12CC501880F892F881F0A
:102D3000990B9195711013C0810F9701402F6D2D44
:102D40000E941805A80CB91C83E0E80EF11C21EEC6
:102D5000E21623E0F20641F70E940C13A3CF212FC5
:102D6000281B822FEACFE1E6F6E0438128E0421BF0
:102D700008F440E021E0628181810C942216E1E6B2
:102D8000F6E0438128E0420F08F44FEF21E0628132
:102D900081810C942216E1E6F6E0628128E0621B54
:102DA00008F460E021E0438181810C942216E1E681
:102DB000F6E0628128E0620F08F46FEF21E04381C2
:102DC00081810C942216E1E6F6E0818121E04381C5
:102DD000628188500C942216E1E6F6E0818121E0C0
:102DE00043816281885F0C94221680916506882356
:102DF00019F08150809365066091610670916206BA
:102E000080916306909164060C941016809165067B
:102E1000833018F48F5F809365066091610670912E
:102E2000620680916306909164060C941016E1E6A8
:102E3000F6E083E0808311828FEF82838EE68383C6
:102E4000148260817181828193810C94101610929A
:102E50002402ECECF1E086E0DF011D928A95E9F7AF
:102E60000C940D081F93CF93DF93CDB7DEB7AA97CD
:102E70000FB6F894DEBF0FBECDBF86E896E0209176
:102E8000F100DC012D93CD01B6E08E389B07B9F738
:102E900080918706833009F472C0B8F4813009F458
:102EA00049C0823009F4B3C08091E80083FF91C229
:102EB00080918606909187069A3008F08AC2E92FA1
:102EC000F0E0E35AF84C0C9410368A3009F48EC0C6
:102ED0008B3009F471C0893039F7809186068132D0
:102EE00019F780918A0690918B06009711F002974E
:102EF000D9F68091E800877F8093E8008091E80010
:102F000082FF38C09091F3008091F200029731F473
:102F10008091F100813011F0863021F48091F10030
:102F2000809379068091E8008B778093E8000E9477
:102F30009203BACF80918606813A09F0B5CF80918D
:102F4000E800877F8093E80080918A0690918B0645
:102F5000892B61F468E08AE796E070E00E944404FF
:102F60008091E8008B778093E8009ECF60E090E04E
:102F700080E0F3CF809184068111C0CF95CF8091FE
:102F80008606813A09F090CF80918A0690918B064F
:102F9000892B09F089CF8091E800877F8093E80032
:102FA0008091E80080FFFCCF809137018093F10091
:102FB0008091E8008E77B9CF80918606813209F042
:102FC00073CF80918A0690918B06892B09F06CCF84
:102FD0008091E800877F8093E8000E9492038091AF
:102FE0008806809337010E9427175ECF809186065E
:102FF000813209F059CF8091E800877F8093E80003
:103000000E94920380918906809378064DCF80912B
:103010008606813A09F048CF8091E800877F809347
:10302000E8008091E80080FFFCCF80917806BECF59
:10303000803899F0823809F0CCC180918A068F706F
:10304000873008F0C6C18093E9008091EB0085FBD2
:10305000882780F91092E90006C08091820690913D
:103060008306911182609091E800977F9093E80029
:103070008093F1001092F1008091E8008E77A5C155
:10308000882309F493C1823009F0A3C18091880696
:10309000811196C180918A068F702FEF280F2630FC
:1030A00008F097C18093E9002091EB0020FF88C1D0
:1030B000933031F48091EB0080628093EB0080C10B
:1030C0009091EB0090619093EB0021E030E001C023
:1030D000220F8A95EAF72093EA001092EA00809185
:1030E000EB008860EACF811174C1109188061F77C8
:1030F0008091E3008078812B8093E3008091E80049
:10310000877F8093E8000E9492038091E80080FF0F
:10311000FCCF8091E30080688093E30082E011118E
:1031200083E08093840655C18058823008F051C1F5
:1031300020918806309189062C3DE3E03E07A1F5F9
:1031400083E08A838AE289834FB7F894DE0113967D
:1031500020E03EE051E2E32FF0E050935700E4918D
:1031600020FF03C0E295EF703F5FEF708E2F90E07D
:10317000EA30C0F0C7968D939D932F5F243159F7A5
:103180004FBF8091E800877F8093E8006AE270E09B
:10319000CE0101960E9444048091E8008B778093D1
:1031A000E80017C1C096E7CF80918A0690918B0600
:1031B000432F55274330510509F44AC078F5413073
:1031C000510509F47AC08BE790E0ECEEF4E0423070
:1031D000510509F0FEC02091E800277F2093E80008
:1031E00020918C0630918D068217930708F49C017C
:1031F00040E02115310509F065C0411163C080919F
:10320000E80082FDC9CF80918406882329F28530A9
:1032100019F28091E80083FFF2CFBECF4132510511
:1032200009F43CC04232510509F0D3C08430910505
:1032300008F0CFC0FC01EE0FFF1FE854FE4F0190D5
:10324000F081E02D8C549E4FDC018C9190E01AC0EF
:10325000332721303105D1F02115310561F02230BD
:10326000310509F0B6C0E9E7F5E0E4918E2F90E072
:10327000E9E7F5E007C0E9E9F5E0E4918E2F90E099
:10328000E9E9F5E0009709F4A4C0A5CFE9E8F5E085
:10329000E4918E2F90E0E9E8F5E0F4CF84309105D9
:1032A00008F097C0880F991FFC01E054FE4F019071
:1032B000F081E02D89E090E08ECF82E190E0E7E6BA
:1032C000F5E089CF80918406882309F465CF8530A5
:1032D00009F462CF8091E80083FD5ECF8091E80021
:1032E00082FD8DCF8091E80080FF83CF9091F30025
:1032F0008091F2002115310519F08830910550F0C8
:1033000041E0089709F040E08091E8008E778093D3
:10331000E8006FCF44914093F1003196215031097C
:103320000196E8CF803809F054C08091E800877F8B
:103330008093E800809185068093F1009DCE8111F5
:1033400048C010918806123008F043C08091E80010
:10335000877F8093E800109385060E9492031123D3
:1033600011F084E005C08091E30087FDFACF81E091
:103370008093840642E061EC81E00E94B10342E266
:1033800061EC84E00E94B10342E261EC82E00E94C1
:10339000B10342E260EC83E00E94B10342E261ECDF
:1033A00085E00E94B1038091840613C08091880655
:1033B000813079F481E0933009F080E080938306D6
:1033C0001092E9008091E800877F8093E8000E94D6
:1033D00092038091E80083FF0AC08091E800877F14
:1033E0008093E8008091EB0080628093EB00AA96C6
:1033F0000FB6F894DEBF0FBECDBFDF91CF911F9106
:10340000089569EE7EEF90E080E00E94D43660E09F
:1034100082E090E00E94B63660E083E090E00E9497
:10342000B6361092250260E084E090E00E94B63645
:1034300060E082E290E00E94B63660E085E090E0D5
:103440000E94B63660E086E090E00E94B6366FEFEC
:1034500087E090E00E94B63640E050E0BA0188E094
:1034600090E00E94C83660E08DE090E00E94B636A1
:1034700040E050E0BA0188E190E00E94C83660E088
:1034800087E190E00E94B63640E050E0BA018CE15E
:1034900090E00E94C83670E060E080E290E00E9418
:1034A000D43640E050E0BA0188E190E00E94C8368E
:1034B00080E00E9429120E94411240E050E0BA01CF
:1034C0008FE090E00E94C83640E050E0BA0183E10E
:1034D00090E00C94C83690E080E00E94B036893EBF
:1034E0009E4F11F40C94E51280E008951F920F9204
:1034F0000FB60F9211242F933F934F935F936F93C7
:103500007F938F939F93AF93BF93CF93DF93EF936B
:10351000FF93D091E900DF708091EC00C82FC1705B
:1035200080FDC0E81092E9008091F000877F8093D1
:10353000F00078940E9432171092E9008091F00018
:1035400088608093F000CD2BCF70C093E900FF918D
:10355000EF91DF91CF91BF91AF919F918F917F912B
:103560006F915F914F913F912F910F900FBE0F90F0
:103570001F9018951F920F920FB60F9211242F9340
:103580003F934F935F936F937F938F939F93AF93EB
:10359000BF93EF93FF938091E10082FF15C080916C
:1035A000E20082FF11C08091E1008B7F8093E100F7
:1035B000209176062F5F822F62E30E94F0359923D7
:1035C00009F4B0C0209376068091DA0080FF24C011
:1035D0008091D80080FF20C08091DA008E7F809398
:1035E000DA008091D90080FFD3C080E189BD82E1FB
:1035F00089BD09B400FEFDCF81E0809384068091EF
:103600007706811109C00E9418030E94E30380918C
:10361000E20084608093E2008091E10080FF17C0A7
:103620008091E20080FF13C08091E2008E7F809342
:10363000E2008091E20080618093E2008091D800F6
:1036400080628093D80019BC85E0809384068091C5
:10365000E10084FF2BC08091E20084FF27C080E15D
:1036600089BD82E189BD89B5982F917080FFFBCF1C
:103670008091D8008F7D8093D8008091E1008F7E6B
:103680008093E1008091E2008F7E8093E200809140
:10369000E20081608093E20080918506882309F42E
:1036A0007DC084E080938406809184068091E1004F
:1036B00083FF27C08091E20083FF23C08091E10057
:1036C000877F8093E10082E08093840610928506D4
:1036D0008091E1008E7F8093E1008091E2008E7FF7
:1036E0008093E2008091E20080618093E20042E0FA
:1036F00060E080E00E94B1038091F00088608093D8
:10370000F000FF91EF91BF91AF919F918F917F91C9
:103710006F915F914F913F912F910F900FBE0F903E
:103720001F9018951092760680917506882309F4EB
:103730004BCF809184068430C1F49091E9009F7052
:103740002091EC00822F817020FD80E8892B95E08C
:103750009093E9009091EB0090FF04C09091EE00EF
:1037600097FD08C08F708093E900109275062CCFEA
:103770001092F1009091E80095FDFACF9091E80049
:1037800090FFF0CF9091E8009E779093E800EACF09
:1037900019BC10928406109277063ECF8091E30008
:1037A00087FD93E0909384067FCF78941F921FB695
:1037B0001F9211248F939F93AF93BF9380916D06B7
:1037C00090916E06A0916F06B09170060196A11DB2
:1037D000B11D80936D0690936E06A0936F06B09313
:1037E0007006BF91AF919F918F911F901FBE1F9048
:1037F00018959C014FB7F89480916D0690916E06D4
:10380000A0916F06B09170064FBF821B930B089575
:103810002FB7F89480916D0690916E06A0916F0677
:10382000B09170062FBF08950F931F93CF93DF932E
:10383000C62FD42F022FFC0182818823A1F0609330
:1038400091060E94081C9093900680938F06C77083
:1038500081E001C0880FCA95EAF7DF91CF911F91EF
:103860000F910C942A0880919106681335C08091BD
:103870008F06909190060E94F91B883C910560F597
:1038800010E21D0FCD17B9F080E28C0F883040F4A4
:10389000C77081E001C0880FCA95EAF70E941F082F
:1038A000183048F481E09D2F977001C0880F9A95D9
:1038B000EAF70E942A08802F0E94AA11183098F473
:1038C000D77081E001C0880FDA95EAF7DF91CF91D8
:1038D0001F910F910C941F08C77081E001C0880FE1
:1038E000CA95EAF7F3CFDF91CF911F910F91089519
:1038F0009091610690FF3DC09170811129C0926046
:1039000090936106662351F06091610670916206A2
:1039100080916306909164060E9410166091610682
:10392000669570E04BE050E089E291E00E948836B5
:10393000892BA9F010925C0281E08093580220E06C
:103940004091640660916306809162060C94221691
:103950008B3210F09465D4CF880F982BD1CF81E0B3
:1039600080935C020E94081C90935602809355023B
:10397000E3CF089521E030E0A90102C0440F551FB4
:103980008A95E2F7CA0120915D02662369F0822BD5
:1039900080935D0280915C02811109C08091610673
:1039A00060E086950C94781C80958223F1CF089571
:1039B000CF93C82F61E08111682F617080E00E9471
:1039C000BA1CC1FB662760F9C11101C060E081E04B
:1039D0000E94BA1CC2FB662760F9C11101C060E0F9
:1039E00082E00E94BA1CC3FB662760F9C11101C0C6
:1039F00060E083E00E94BA1C8C2FCF9108950E9452
:103A0000D81C80938E060C940D0880918E06982FFA
:103A10009670963019F488600C94FF1C877FFCCF59
:103A200021E030E001C0220F8A95EAF720958091CD
:103A30008E0682230C94FF1C21E030E001C0220F8F
:103A40008A95EAF780918E06822B0C94FF1C809158
:103A500061068695815009F48AE261E00C94781C35
:103A60008091610686958F5F8B3208F081E061E07E
:103A70000C94781C9091610690FF07C0969598175A
:103A800020F0961710F40C94301D61E00C94781C13
:103A90005F926F927F928F929F92AF92BF92CF92DE
:103AA000DF92EF92FF920F931F93CF93DF9300D09B
:103AB00000D000D00F92CDB7DEB76C01FC0183813E
:103AC0009481892B39F08081918189238F3F11F076
:103AD0000C94FF2727960FB6F894DEBF0FBECDBF1C
:103AE000DF91CF911F910F91FF90EF90DF90CF90DA
:103AF000BF90AF909F908F907F906F905F90089550
:103B00000E948312182F682F89819A810E94E107F1
:103B100069817A81812F0E9476127C01F60182816F
:103B2000882311F40C94EF27970122513F4520314F
:103B3000310510F00C9477278FEF93E00E94A236A6
:103B40001EEE1E0D97EEA92EB12C8111C3CF1111BF
:103B500036C01C821B82662463948AE0582E85013D
:103B60000F5F1F4FC5010E94A23689831A828823E6
:103B700009F4B0CF9FEF980F933080F58A83698264
:103B800032E0A30EB11CC8010E94A2368B838823A9
:103B900009F4A0CFAE014F5F5F4F7A01F70120819A
:103BA0002223E9F2213009F058C0918182819130BD
:103BB000B9F4F2E0EF0EF11C0E94AA1118C0A11492
:103BC000F4E0BF0609F486CFC5010E94A236811138
:103BD00001C011502FEFA21AB20AB9CF5801DACFA3
:103BE000923049F422E0E20EF11C0E941B11FFEF1B
:103BF000EF1AFF0AD3CF933031F432E0E30EF11C19
:103C00000E943408F4CF943021F04FEFE41AF40A04
:103C1000EECF52E0E50EF11C30E020E0B7016F5F1F
:103C20007F4FF70141818053990B8A30910550F005
:103C300021503109E0F28FE99FE00197F1F700C0D0
:103C40000000F6CF529EF001539EF00D11249C010E
:103C50002E0F3F1F842F7B01E1CFE22FF0E0EE56C5
:103C6000FE4F7490822F86958695869590E0FC0194
:103C7000EE57FE4FC4902770D12C022E02C0D5946F
:103C8000C7940A94E2F7A1E0CA22DD24FC01EE58B1
:103C9000FE4F049110E0022E02C0159507950A947C
:103CA000E2F701701127FC01EE59FE4F8490912C30
:103CB00002C0959487942A95E2F7E1E08E22992438
:103CC000C114D10419F081EE0E941B1101151105D8
:103CD00019F086EE0E941B11872D0E94AA11012B5C
:103CE00019F086EE0E943408CD2819F081EE0E946A
:103CF0003408892809F47BCF8CE25ECF81E00E94F2
:103D00001C1D03C081E00E94101D0E94051DE2CE13
:103D100082E0F5CF90913002992309F4CDC0811152
:103D2000A0C03EE1E316F10410F40C94982748E299
:103D3000E416F10408F095C093EE9E0D57E2E516E7
:103D4000F10409F490E0E091DF0181E08E0F8093AF
:103D5000DF01F0E0EE52FE4F90838C3009F081C01D
:103D6000109230029091DC012AE08091DD01929F57
:103D7000800D11249091DA01F091DB01929FF00DFA
:103D800011249091D801E091D901929FE00D112466
:103D90009091D6015091D701929F500D112490918E
:103DA000D4014091D501929F400D11249091D201F0
:103DB0003091D301929F300D1124622F0E94F03573
:103DC000A0E18A9FB0011124962B9F7799838F2FB2
:103DD000622F0E94F035F0E18F9FB0011124962BE5
:103DE0009F779A838E2F622F0E94F035A0E18A9FE1
:103DF000B0011124962B9F739B831C82852F622F09
:103E00000E94F035E0E18E9FB0011124962B9F7344
:103E10009D83842F622F0E94F035F0E18F9FA001D7
:103E20001124942B9F739E83832F0E94F03540E1D1
:103E3000849F90011124922B9F779F8304E610E0CA
:103E400027E030E0AE014F5F5F4F60E080ED0E9401
:103E50005C350CE010E08AE20E94AA1101501109C1
:103E6000D1F7A5EAEA16ADE5FA0609F40AC5E6EACD
:103E7000EE16EDE5FE0609F412C5F3EFEF16FCE5CC
:103E8000FF0609F42FC508F016C538EDE3163CE52A
:103E9000F30609F423C549EDE4164CE5F40609F4EC
:103EA0002DC557EDE5165CE5F50611F00C94982745
:103EB00026E241EE61EE0EC597012E5131092A30FE
:103EC000310548F056E0E516F10429F067E3E616FF
:103ED000F10409F0A8C490912F029111A4C4882381
:103EE00011F40C94ED288091DE01811186C381E0EC
:103EF0008093DE0121E632E04FEF60E080E00E9437
:103F0000180524E632E04FEF60E080E00E941805DB
:103F100027E632E04FEF60E080E00E9418052AE6D5
:103F200032E040E060E080E00E9418052DE632E0DB
:103F30004FEF60E080E00E94180520E732E04FEF8D
:103F400060E080E00E94180523E732E04FEF60E078
:103F500080E00E94180526E732E040E060E080E063
:103F60000E94180529E732E040E060E080E00E940E
:103F700018052CE732E040E060E080E00E94180580
:103F80002FE732E04FEF60E080E00E94180522E862
:103F900032E04FEF60E080E00E94180525E832E053
:103FA0004FEF60E080E00E94180528E832E04FEF14
:103FB00060E080E00E9418052BE832E04FEF60E0FF
:103FC00080E00E9418052EE832E04FEF60E080E0CC
:103FD0000E94180521E932E04FEF60E080E00E9486
:103FE000180524E932E04FEF60E080E00E941805F8
:103FF00027E932E040E060E080E00E9418052AE90D
:1040000032E04FEF66E684E80E9418052DE932E0C1
:1040100040E060E080E00E94180520EA32E040E0E5
:1040200060E080E00E94180523EA32E040E060E0B2
:1040300080E00E94180526EA32E04FEF66E684E849
:104040000E94180529EA32E04FEF66E684E80E94F4
:1040500018052CEA32E040E060E080E00E9418059C
:104060002FEA32E04FEF60E080E00E94180522EB7B
:1040700032E04FEF60E080E00E94180525EB32E06F
:104080004FEF60E080E00E94180528EB32E04FEF30
:1040900060E080E00E9418052BEB32E04FEF60E01B
:1040A00080E00E9418052EEB32E04FEF60E080E0E8
:1040B0000E94180521EC32E04FEF60E080E00E94A2
:1040C000180524EC32E04FEF60E080E00E94180514
:1040D00027EC32E040E060E080E00E9418052AEC26
:1040E00032E04FEF66E684E80E9418052DEC32E0DE
:1040F0004FEF66E684E80E94180520ED32E04FEFAE
:1041000066E684E80E94180523ED32E04FEF66E68C
:1041100084E80E94180526ED32E04FEF66E684E859
:104120000E94180529ED32E04FEF66E684E80E9410
:1041300018052CED32E040E060E080E00E941805B8
:104140002FED32E04FEF60E080E00E94180522EE94
:1041500032E04FEF60E080E00E94180525EE32E08B
:104160004FEF60E080E00E94180528EE32E04FEF4C
:1041700060E080E00E9418052BEE32E04FEF60E037
:1041800080E00E9418052EEE32E04FEF60E080E004
:104190000E94180521EF32E04FEF60E080E00E94BE
:1041A000180524EF32E040E060E080E00E9418054E
:1041B00027EF32E04FEF66E684E80E9418052AEF09
:1041C00032E040E060E080E00E9418052DEF32E030
:1041D0004FEF66E684E80E94180520E033E04FEFD9
:1041E00066E684E80E94180523E033E04FEF66E6B8
:1041F00084E80E94180526E033E040E060E080E0BB
:104200000E94180529E033E04FEF66E684E80E943B
:1042100018052CE033E04FEF66E684E80E941805AD
:104220002FE033E040E060E080E00E94180522E1EA
:1042300033E04FEF60E080E00E94180525E133E0B5
:104240004FEF60E080E00E94180528E133E04FEF77
:1042500060E080E00E9418052BE133E04FEF60E062
:1042600080E00E9418052EE133E04FEF60E080E02F
:104270000E94180521E233E04FEF60E080E00E94E9
:10428000180524E233E040E060E080E00E94180579
:1042900027E233E04FEF66E684E80E9418052AE241
:1042A00033E04FEF66E684E80E9418052DE233E024
:1042B0004FEF66E684E80E94180520E333E040E013
:1042C00060E080E00E94180523E333E04FEF66E6EC
:1042D00084E80E94180526E333E04FEF66E684E8A1
:1042E0000E94180529E333E04FEF66E684E80E9458
:1042F00018052CE333E04FEF66E684E80E941805CA
:104300002FE333E040E060E080E00E94180522E403
:1043100033E040E060E080E00E94180525E433E0EF
:1043200040E060E080E00E94180528E433E04FEFB1
:1043300060E080E00E9418052BE433E04FEF60E07E
:1043400080E00E9418052EE433E04FEF60E080E04B
:104350000E94180521E533E04FEF60E080E00E9405
:10436000180524E533E040E060E080E00E94180595
:1043700027E533E04FEF66E684E80E9418052AE55A
:1043800033E04FEF66E684E80E9418052DE533E040
:1043900040E060E080E00E94180520E633E04FEF47
:1043A00066E684E80E94180523E633E040E060E01A
:1043B00080E00E94180526E633E04FEF66E684E8C9
:1043C0000E94180529E633E04FEF66E684E80E9474
:1043D00018052CE633E04FEF66E684E80E941805E6
:1043E0002FE633E04FEF66E684E80E94180522E7E7
:1043F00033E04FEF66E684E80E94180525E733E0D6
:104400004FEF66E684E80E94180528E733E040E0B5
:1044100060E080E00E9418052BE733E04FEF60E09A
:1044200080E00E9418052EE733E04FEF60E080E067
:104430000E94180521E833E04FEF60E080E00E9421
:10444000180524E833E04FEF60E080E00E94180593
:1044500027E833E040E060E080E00E9418052AE8A9
:1044600033E04FEF66E684E80E9418052DE833E05C
:104470004FEF66E684E80E94180520E933E04FEF2D
:1044800066E684E80E94180523E933E04FEF66E60C
:1044900084E80E94180526E933E04FEF66E684E8D9
:1044A0000E94180529E933E04FEF66E684E80E9490
:1044B00018052CE933E040E060E080E00E94180538
:1044C0002FE933E04FEF66E684E80E94180522EA00
:1044D00033E04FEF66E684E80E94180525EA33E0F2
:1044E0004FEF66E684E80E94180528EA33E040E0D2
:1044F00060E080E00E9418052BEA33E04FEF60E0B7
:1045000080E00E9418052EEA33E04FEF60E080E083
:104510000E94180521EB33E04FEF60E080E00E943D
:10452000180524EB33E04FEF60E080E00E941805AF
:1045300027EB33E04FEF60E080E00E9418052AEBA4
:1045400033E040E060E080E00E9418052DEB33E0AE
:1045500040E060E080E00E94180520EC33E040E09D
:1045600060E080E00E94180523EC33E040E060E06A
:1045700080E00E94180526EC33E040E060E080E037
:104580000E94180529EC33E040E060E080E00E94E2
:1045900018052CEC33E04FEF66E684E80E9418051E
:1045A0002FEC33E04FEF66E684E80E94180522ED19
:1045B00033E04FEF66E684E80E94180525ED33E00E
:1045C0004FEF66E684E80E94180528ED33E04FEFD0
:1045D00066E684E80E9418052BED33E040E060E0D9
:1045E00080E00E9418052EED33E04FEF60E080E0A0
:1045F0000E9418050E940C1334CC1092DE012FE7A4
:1046000032E04FEF60E080E00E94180522E832E0DF
:104610004FEF60E080E00E94180525E832E04FEFA0
:1046200060E080E00E94180528E832E04FEF60E08B
:1046300080E00E9418052BE832E04FEF60E080E058
:104640000E9418052FEA32E04FEF60E080E00E9400
:10465000180522EB32E04FEF60E080E00E94180581
:1046600025EB32E040E060E080E00E94180528EB96
:1046700032E040E060E080E00E9418052BEB32E081
:104680004FEF60E080E00E9418052FED32E04FEF21
:1046900060E080E00E94180522EE32E040E060E039
:1046A00080E00E94180525EE32E04FEF66E684E8D0
:1046B0000E94180528EE32E04FEF66E684E80E947B
:1046C00018052BEE32E040E060E080E00E94180523
:1046D0002FE033E040E060E080E00E94180522E136
:1046E00033E04FEF66E684E80E94180525E133E0E9
:1046F0004FEF66E684E80E94180528E133E040E0C9
:1047000060E080E00E9418052BE133E04FEF60E0AD
:1047100080E00E9418052FE333E040E060E080E095
:104720000E94180522E433E04FEF66E684E80E9419
:10473000180525E433E040E060E080E00E941805C1
:1047400028E433E04FEF60E080E00E9418052BE49E
:1047500033E04FEF60E080E00E9418052FE633E081
:1047600040E060E080E00E94180522E733E04FEF70
:1047700066E684E80E94180525E733E040E060E043
:1047800080E00E94180528E733E04FEF60E080E00A
:104790000E9418052BE733E04FEF60E080E00E94B5
:1047A00018052FE933E04FEF66E684E80E9418050C
:1047B00022EA33E04FEF66E684E80E94180525EA16
:1047C00033E040E060E080E00E94180528EA33E032
:1047D0004FEF60E080E00E9418052BEA33E04FEFD6
:1047E00060E080E00E9418052FEC33E04FEF66E6B2
:1047F00084E80E94180522ED33E04FEF66E684E876
:104800000E94180525ED33E040E060E080E00E9462
:10481000180528ED33E04FEF60E080E00E941805B6
:104820002BED33E0E2CE9EECE9169CE5F90609F0AB
:10483000DBC4882309F421CB81E080932F021092FE
:10484000DE011092080174C39DECE9169CE5F9069F
:1048500009F007CB882309F46BC380E197E2A0E05D
:10486000B0E08093040190930501A0930601B093FA
:10487000070110922F021092DE0181E0809308015F
:1048800057C3F6018281882309F424C961E083E0DB
:1048900090E00E94B63681E00E941B081BC9F60119
:1048A0008281882321F081E00E941C1D13C981E0D0
:1048B0000E94101D0FC965EFE6166CE5F606D1F0F3
:1048C000A8F027E245EE66EE96EFE9169CE5F906BC
:1048D00009F02EC3C6010E94141CFCC827E245EE55
:1048E00065EEF8CF26E241EE60EEF4CF27E245EE2A
:1048F00064EEF0CF26E241EE62EEECCF28E241E03A
:10490000EFCF31E6E3163DE5F30609F42AC38091C3
:10491000240266E1E6166CE5F60609F090C38A7A91
:1049200091E009F490E09093E0018111FCC089E2EC
:104930000E9497070E947307CDC88091350280615D
:1049400026E0E2162CE5F20609F4A9C080913502B2
:10495000886037E0E3163CE5F30608F4A0C08091D8
:10496000350280629CC0809135028D7F4CE0E41658
:104970004CE5F40609F493C078F4809135028C601C
:104980006AE0E6166CE5F60609F489C008F49CC0F6
:10499000809135028E7F83C080913502877F9EE0B3
:1049A000E9169CE5F90609F47AC0809135028B7FFF
:1049B000AFE0EA16ACE5FA0608F471C08091350262
:1049C0008F7E6DC0ECEFEE16ECE5FE0609F482C0BA
:1049D000A0F524E1E2162CE5F20609F493C098F460
:1049E00042E1E4164CE5F40609F47CC080913502FE
:1049F0008F7B53E1E5165CE5F50608F450C0809125
:104A00003502837F4CC06AEFE6166CE5F60609F4C2
:104A10004DC008F051C095E1E9169CE5F90609F092
:104A2000CDC28091350282FB992790F921E092272F
:104A300090FB82F990FB83F932C0E114ADE5FA06F0
:104A400009F456C0A0F4809136028360FEEFEF16A1
:104A5000FCE5FF0671F1809136028D7F2FEFE216A3
:104A60002CE5F20630F1809136028C7F22C032E0D4
:104A7000E3163DE5F30609F454C008F44CC051E6D2
:104A8000E5165DE5F50609F099C290913502892F8A
:104A90008F7E94FF806103C0809135028160809396
:104AA00035028CC2809135028460F9CF8091360244
:104AB00081608093360282C2809136028260F9CF93
:104AC000809135028064EBCF0E94271780913502D8
:104AD0008068E5CF809136028E7FEBCF80913502E2
:104AE0008F7DDDCF0E942717809135028F77D7CF3A
:104AF00080913602982F909591708E7F892B90FB34
:104B000081F9D7CF0E94271790913502892F97FB03
:104B100087F98058C4CF61E08EE090E00E94B636FD
:104B20004DC260E0F9CF85E303CF85E385C2809174
:104B3000610680FF1CC08E7F8093610660916106D4
:104B40007091620680916306909164060E9410162F
:104B500010925C028FEF90E7A2E081509040A0405D
:104B6000E1F700C000000E940C130C946A1D8160E4
:104B70008093610661E086950E94781C0C946A1D02
:104B800047E25DE160E37DE10E94FD040C946A1D53
:104B900040E35DE167E27DE1F7CF4CEE56E163EE85
:104BA00076E1F2CF4BEC56E167ED76E1EDCF43EBEA
:104BB00056E16FEB76E1E8CF4FEB56E163EB76E140
:104BC000E3CF46E057E165EF76E1DECF61E081E0DB
:104BD000D3CF65E082E00E943A1D0C946A1D68E024
:104BE00086E0F9CF64E18FE0F6CF67E185E1F3CFAE
:104BF00062E289E1F0CF61E083E2BECF0E94271735
:104C00002FEF34E34CE0215030404040E1F700C04A
:104C100000000E94A8040E94011A0C946A1DC80199
:104C20000E94BA07F82E42C2092F0F70907F11F030
:104C30000295007F812F2223C9F0002369F090E2C2
:104C4000910F983010F011110BC080912402082BA5
:104C5000009324020E947307812F0E941B1117C02A
:104C600080912302082B00932302F4CF0E94340882
:104C7000002369F00095105E183010F0B11014C0D8
:104C8000809124020823009324020E94730738E0D5
:104C9000E31AF10844E0E416F10410F00C946A1DE4
:104CA0000E94F1040C946A1D809123020823009352
:104CB0002302EBCF892F8F70907F903211F0829575
:104CC000807FF1E0BF120CC0222329F03630F8F6C5
:104CD0000E942A08DCCF3530D0F60E941F08D7CFBB
:104CE000222341F03323A1F340FFB6CF4F70F601EA
:104CF0004583EECF332389F3193349F4FFEF27EED1
:104D000033E0F15020403040E1F700C00000812F37
:104D10000E943408BCCF892F86958695837061F0F8
:104D2000813009F0B4CF812F9370211102C090E03F
:104D300080E00E94C504ABCF812F9370211102C087
:104D400090E080E00E94DB04A2CF892F8370A1F560
:104D500021119DCF812F829586958770880F880FAE
:104D6000412F4F70082E01C0440F0A94EAF7212FFB
:104D7000207114FF07C02FE030E001C0220F8A9598
:104D8000EAF72095969596959370923081F0822F50
:104D9000842B933030F480912502913029F0242B1C
:104DA00082230E941B0873CF842B822BFACF242BE3
:104DB000809125028227F5CF8695222311F0892F35
:104DC0008170882309F463CF812F8295869587703F
:104DD000880F880F412F4F70082E01C0440F0A948E
:104DE000EAF7212F207114FF07C02FE030E001C047
:104DF000220F8A95EAF720959695969593709230B2
:104E000081F0822F842B933030F480918E06913084
:104E100029F0242B82230E94FF1C39CF842B822B64
:104E2000FACF242B80918E068227F5CF092F0F70A1
:104E3000222329F0802F0E941C1D812F49CF812F12
:104E40000E941F08802F0E94101D21CF812F41EF4B
:104E5000141789F1411750F050EF1517B9F02223BC
:104E6000B1F13111F9CE892F8F7129C062EF161778
:104E700049F1A3EF1A13F3CF80E0222361F29F716F
:104E800081E001C0880F9A95EAF7C5CF222379F017
:104E9000353008F0FCCE292F2F7181E090E001C061
:104EA000880F2A95EAF790918E068927B4CF36307D
:104EB00008F0EDCEF0CF892F8F71222321F20E94CE
:104EC0001C1DE5CE892F8F712223C9F3BCCF33235C
:104ED00059F0893309F01BCFEFEFF7EE23E0E150F3
:104EE000F0402040E1F711CF892F8F71ACCF50E116
:104EF000E5165FE5F50611F40C947E1E61E1E616F9
:104F00006FE5F60611F40C94881E23E7E216F1040F
:104F100011F00C948A1E882311F40C948A1E81E0EF
:104F200080932F02809330021092DF011092DE01F5
:104F3000F6019281992309F475C010929106F3E06D
:104F4000EF16FDE5FF0608F0DCCC2AEFE2162CE5B3
:104F5000F20638F4970122503C452431310508F01F
:104F6000D6CC0E94FE12909336028093350240E127
:104F7000E4164CE5F40609F4B1CD08F023CD68E061
:104F8000E6166CE5F60609F49BCD08F0ECCC94E04F
:104F9000E9169CE5F90609F485CD08F0CECCE2E0EF
:104FA000EE16ECE5FE0609F477CD809135028260BD
:104FB000F3E0EF16FCE5FF0609F471CD60913502D0
:104FC0001091360284E090E00E94B636612F82E2B2
:104FD00090E00E94B6360E9427170C946A1D90E15B
:104FE000E9169FE5F90611F40C94821EA1E1EA1678
:104FF000AFE5FA0609F089CF82E00C94831E85E0C4
:10500000DE01119601900D928A95E1F7F601228159
:1050100089819A8121110C94801D0E94BA07182F52
:105020000C94881DF6E1EF16FCE5FF0689F58091EA
:10503000E00181117ACD89E20E948A077BCC8272DD
:105040002CECE2162CE5F20609F4BBCD08F083C087
:1050500046ECE4164CE5F40609F49FCD08F052C086
:1050600063ECE6166CE5F60609F48ACDD0F5E2ECC1
:10507000EE16ECE5FE0609F45ACDE114ECE5FE0669
:1050800009F4BCCDFEEDEF16FCE5FF0609F4C3CD37
:10509000F60100811181992309F4C1CDC8010E9454
:1050A0008312F82E682FC8010E94E107B8018F2DE6
:1050B0000E9476120E940B06182FB82EF60122814C
:1050C0004581342F32953F70892F82958F70E82E5D
:1050D000F12C8C3008F0DBCDF701E959F84C0C9439
:1050E0001036F4ECEF16FCE5FF0609F451CD43EE63
:1050F00056E16CEE76E125ECE2162CE5F20609F4B9
:1051000043CDBBCF39ECE3163CE5F30609F44FCDB4
:1051100088F457ECE5165CE5F50609F443CD68EC38
:10512000E6166CE5F60609F0A8CF47ED56E16BEC04
:1051300076E12ACDAAECEA16ACE5FA0609F43CCDF4
:1051400045EF56E166E077E1EBECEE16ECE5FE06A6
:1051500009F41ACD92CFF1EDEF16FCE5FF0609F444
:1051600041CDB8F43EECE3163CE5F30609F431CD4D
:1051700008F42CCD5FECE5165CE5F50609F42FCDBF
:1051800060EDE6166CE5F60609F077CF6EE089E093
:1051900022CD84EDE8168CE5F80609F429CD78F4E3
:1051A000E2EDEE16ECE5FE0609F41FCD61E088E1C4
:1051B000F3EDEF16FCE5FF0609F4DECC5ECF25ED3E
:1051C000E2162CE5F20609F416CD6AE285E23DE529
:1051D000E316F30609F4FFCC50CF4EECE4164CE591
:1051E000F40611F40C943D1FAFECEA16ACE5FA0698
:1051F00009F41FCBE0EDEE16ECE5FE0609F419CB41
:10520000F1EDEF16FCE5FF0609F413CB22EDE216F3
:105210002CE5F20609F40DCB33EDE3163CE5F3067D
:1052200009F407CB44EDE4164CE5F40609F401CB90
:1052300055EDE5165CE5F50609F4FBCA6DE5E616E5
:10524000F60609F001CB8111F7CA72CE1F93CF93F6
:10525000DF938091EF01807FA9F48091EC01882396
:1052600089F080912102D091F0016091EA01709162
:10527000EB01A091ED01B091EE01C62FC72316E01E
:10528000D81304C0DF91CF911F91089590E010973B
:1052900011F0CF3F19F401968770F2CF189F90015B
:1052A000199F300D1124F901EF50FE4F4181471332
:1052B000F2CF40814613EFCF42814111ECCF4381C1
:1052C00054814A1B5B0B483C510528F78091EF0144
:1052D0008F7080618093EF01F901EA50FE4F808169
:1052E0008F70806180838AEE91E00E94481DDF917B
:1052F000CF911F910C94B007AF92BF92CF92DF92E3
:10530000EF92FF920F931F93CF93DF93CDB7DEB74A
:1053100061970FB6F894DEBF0FBECDBF8C0185E05C
:10532000F801DE011D9601900D928A95E1F7F801D2
:10533000E2808AEEA82E81E0B82E6091ED01709196
:10534000EE016115710509F432C19091EA014091B5
:10535000EB01892F84238F3F09F429C120813181FA
:10536000C380D480F090EC01F601E61BF70BFF2020
:1053700009F4E8C08091EF01582F507FE83CF10517
:1053800008F0ABC0511177C0FE2C431321C092131B
:105390001FC0E1101DC08F7080618093EF01C501B7
:1053A0000E94481D8091EF01F80185838F2D619641
:1053B0000FB6F894DEBF0FBECDBFDF91CF911F9126
:1053C0000F91FF90EF90DF90CF90BF90AF90089536
:1053D000CD2829F0822F83238F3F09F003C180E07D
:1053E000F82FF170DF2E80FF3CC0809121024091A8
:1053F000F00156E0841315C02D873E878D859E856C
:105400000E94B212292F22952F702230F0F0243002
:1054100018F59F70F1F0F8019581907FD1F4D12CAF
:105420001EC090E0589FF001599FF00D1124EF50DD
:10543000FE4F6181361306C06081261303C062816E
:10544000E6120FC001968770D5CF9F7011F08823A8
:1054500031F3805E883018F3C8010E94481DFD2C8E
:10546000A5CFEE2009F4A2CF8091EF018160809357
:10547000EF01F12C9BCF431306C0921304C0F80137
:10548000EE2009F479C0C8010E94BE12882309F1F8
:10549000EE20F9F08091EF01803270F02091EA0166
:1054A0003091EB0138872F831986DB86CA868C877B
:1054B000CE0107960E94481D86E0F801AAEEB1E0F1
:1054C00001900D928A95E1F70E942629FF24F3941A
:1054D0006DCFC8010E94481DF9CF51110AC08AEE54
:1054E00091E00E94481D86E0F50111928A95E9F746
:1054F000C0CF43130FC092130DC0E1100BC0F801D1
:105500008583C8010E94481D86E0F50111928A95A5
:10551000E9F74CCFC8010E94BE128823D1F2EE20D9
:10552000C1F28091EF01803238F22091EA0130918E
:10553000EB013A8329831B82DD82CC828E83CE01EC
:105540000196B8CFE83CF105F8F6FE2CEE2009F202
:1055500043131FC092131DC08091EF0180FD10C046
:10556000982F907F69F0F8018583903F31F0982F54
:10557000907F905F8F70892B8583C8010E94481DA2
:1055800086E0F801AAEEB1E001900D928A95E1F76C
:105590000DCFC8010E94BE1281118ECF8091EF0104
:1055A00081608093EF01C8010E94481DFFCEEE206C
:1055B00009F48FCFC8010E94BE12F82E882309F487
:1055C00088CF86E0F801AAEEB1E001900D928A95AD
:1055D000E1F78091EA019091EB010E94B2120E94E2
:1055E0002629E4CE81E08E25FBCE1F93CF93DF9357
:1055F000CDB7DEB767970FB6F894DEBF0FBECDBF4D
:105600004B8B5C8B6D8B7E8B8F8B61111092230289
:105610001A8A198A85E0FE017396DE011D960190B3
:105620000D928A95E1F786E0FE013D96DE01179620
:1056300001900D928A95E1F7CE0107960E947C2990
:10564000882389F016E0809121029091F00189135E
:1056500049C067960FB6F894DEBF0FBECDBFDF918D
:10566000CF911F91089586E0FE013796DE011196D5
:1056700001900D928A95E1F78A859B85892B11F31C
:105680008F81988589238F3FE9F22091F00130E0E6
:10569000C901019687709927409121024817190680
:1056A00071F40E9427171092F0011092210286E0F7
:1056B000EAEEF1E0DF011D928A95E9F7C3CF96E0AB
:1056C000929FD001939FB00D1124AF50BE4FFE01A9
:1056D000319601900D929A95E1F78093F0010E9426
:1056E000B007B0CF819FC00111248F509E4F0E9400
:1056F0007C29882309F4ADCF8091210290E00196A6
:1057000087709927809321029ECF4F925F926F926C
:105710007F928F929F92AF92BF92CF92DF92EF9241
:10572000FF920F931F93CF93DF93CDB7DEB72D97E3
:105730000FB6F894DEBF0FBECDBF7E0108E0E00ECD
:10574000F11C86E0F70111928A95E9F7B9E6CB2EB4
:10575000B1E0DB2E10E000E0AA24A394B12CF60106
:1057600081916F018F3F09F443C0F894E82FE295CF
:10577000EF70F0E021A18F70A50102C0440F551F0A
:105780008A95E2F7CA01922F982B91A392A1809556
:10579000892382A3789400C0EFE6F1E0912C31E0F8
:1057A00021912F3F09F46DC0A22FA295AF70B0E0F8
:1057B00090968C9190E02F7002C0959587952A95D0
:1057C000E2F780FD5EC0832F982A330F51E0E33764
:1057D000F50731F7F601319780818F3F11F00E9474
:1057E000B10580EA8A95F1F7F701E00FF11F908289
:1057F0000F5F1F4F0630110509F0B1CF46E050E0B2
:10580000B70187E392E00E949536CC24C3940097B9
:1058100009F4C12C892BB9F186E0FE013896A7E383
:10582000B2E001900D928A95E1F781E08093280221
:105830000E94081C909327028093260280912602E2
:10584000909127020E94F91B059708F18091370279
:1058500080934F02809138028093500280913902E8
:105860008093510280913A028093520280913B02D0
:105870008093530280913C0280935402109228023C
:1058800006C080E0A1CF809128028111D7CF8091FE
:10589000220190912301892B41F080912001909168
:1058A0001F0189238F3F09F03FC28091270190910A
:1058B0002801892B41F080912401909125018923B1
:1058C0008F3F09F017C28091180190911901892B1F
:1058D00041F0809116019091150189238F3F09F0C5
:1058E000EFC180911D0190911E01892B41F08091A3
:1058F0001B0190911A0189238F3F09F0C7C1809144
:105900000801882309F4FAC08091040190910501EF
:10591000A0910601B09107014091310250913202ED
:1059200060913302709134028C019D01041B150BB0
:10593000260B370BB901A80141345F4161057105A0
:1059400008F4DCC020913002222321F020912F02A4
:105950002111D4C08093310290933202A09333027C
:10596000B093340208EC10E027E030E0AE014F5F66
:105970005F4F60E080ED0E9489350E94D8358981B3
:10598000282F30E094E0359527959A95E1F7922FEE
:1059900097702AE08F70929F800D112480932902C6
:1059A0003A81832F90E044E0959587954A95E1F7F9
:1059B00087703F70F32E829FF00C1124F0922A0220
:1059C0003B81832F90E054E0959587955A95E1F7B8
:1059D00083703F70E32E829FE00C1124E0922B0233
:1059E0008D81482F50E064E0559547956A95E1F721
:1059F00047708F70429F800D112480932C028E81FE
:105A0000482F50E074E0559547957A95E1F743703B
:105A10008F70429F800D112480932D028F81482F1B
:105A200050E0E4E055954795EA95E1F743708F70B3
:105A3000429F800D112480932E028E2D622F0E9492
:105A4000F035782E36EF0E2D839F000D11248F2D0B
:105A50000E94F035D82E1F2D839F100D11244090E9
:105A60003E0250903F0260904002F1E6AF2EF2E01D
:105A7000BF2EA1EE8A2EA3E09A2E9501442D652D0E
:105A8000862D0E94180523E0A20EB11C8A149B04E7
:105A9000A1F739E03E1508F453C080E00E94920F50
:105AA00001115CC084E00E94920F89E08F1508F418
:105AB0008CC00E94920F1111B2C08DE00E94920F13
:105AC00029ED32E04FEF60E080E00E94180529E008
:105AD00033E04FEF60E080E00E94180526E333E0FA
