:100000000C94AE020C94F5020C94F5020C94F502DB
:100010000C94F5020C94F5020C94F5020C94F50284
:100020000C94F5020C94F5020C9452120C940E12DE
:100030000C9425200C94F5020C94F5020C94F50216
:100040000C94F5020C94F5020C94F5020C94F50254
:100050000C94F5020C942B130C94F5020C94F502FD
:100060000C94F5020C94F5020C94F5020C94F50234
:100070000C94F5020C94F5020C94F5020C94F50224
:100080000C94F5020C94F5020C94F5020C94F50214
:100090000C94F5020C94F5020C94F5020C94F50204
:1000A0000C94F5020C94F5020C94F50205010980FC
:1000B000A101850319012AB700150126B700950192
:1000C00075108100C0050C0901A101850419012AE0
:1000D000A002150126A002950175108100C00660DE
:1000E000FF0961A1010962150026FF00952075082E
:1000F00081020963150026FF00952075089102C052
:1001000005010906A101050719E029E715002501E8
:10011000950875018102950175088101050719008F
:1001200029FF150026FF00950675088100050819AE
:10013000012905950575019102950175039101C08D
:1001400000000000000000000000000000000000AF
:10015000000000000000000000000000000000009F
:10016000000000007E0F00D4FFFFFFC700000078F2
:1001700000000000000000002A2B28000000000002
:100180000000000000000000000000290000000046
:100190002C1E3420212224342627252E362D3738B4
:1001A000271E1F202122232425263333362E3738BD
:1001B0001F0405060708090A0B0C0D0E0F1011127B
:1001C000131415161718191A1B1C1D2F3130232D47
:1001D000350405060708090A0B0C0D0E0F10111245
:1001E000131415161718191A1B1C1D2F3130354CF6
:1001F0001E0F0500047F3F1F643214643214783CE4
:100200001E1E140A05000101010101010101010284
:1002100002020202020202020303030303030303B6
:100220000404040404040405050505050606060681
:1002300006070707070708080808090909090A0A3D
:100240000A0B0B0B0C0C0C0D0D0D0E0E0E0F0F0FE1
:10025000101011111112121313141415151616176C
:1002600017181819191A1A1B1B1C1D1D1E1E1F20DA
:1002700020212222232424252626272829292A2B27
:100280002C2D2D2E2F30313232333435363738394C
:100290003A3B3C3D3E3F4041424344454647484946
:1002A0004A4C4D4E4F50515354555658595A5B5D18
:1002B0005E5F616264656668696B6C6D6F707273B6
:1002C0007577787A7B7D7E8082838587888A8C8E1D
:1002D0008F91939596989A9C9EA0A2A3A5A7A9AB4F
:1002E000ADAFB1B3B5B7BABCBEC0C2C4C6C9CBCD41
:1002F000CFD1D4D6D8DBDDDFE2E4E7E9EBEEF0F3F3
:10030000F5F8FAFDFFFFAA7F55402223252628296C
:100310002A2C2D2F3032333536383A3B3D3E404281
:10032000434547494A4C4E5051535557595A5C5EC4
:100330006062646668696B6D6F71737577797B7DD8
:100340007F81838587898A8C8E90929496989A9CD7
:100350009E9FA1A3A5A7A8AAACAEAFB1B3B4B6B8EF
:10036000B9BBBCBEBFC1C2C3C5C6C7C9CACBCCCD51
:10037000CED0D1D2D2D3D4D5D6D7D7D8D9D9DADA2C
:10038000DBDBDBDCDCDCDCDCDDDDDDDDDCDCDCDCAC
:10039000DCDBDBDBDADAD9D9D8D7D7D6D5D4D3D2E0
:1003A000D2D1D0CECDCCCBCAC9C7C6C5C3C2C1BFBE
:1003B000BEBCBBB9B8B6B4B3B1AFAEACAAA8A7A522
:1003C000A3A19F9E9C9A98969492908E8C8A8987DE
:1003D0008583817F7D7B79777573716F6D6B6968BC
:1003E000666462605E5C5A5957555351504E4C4A90
:1003F0004947454342403E3D3B3A3836353332303B
:100400002F2D2C2A292826252322AE005400550002
:100410005600240025002600574121002200230019
:1004200000001E001F0020002800270037000000E9
:100430000000AC00AB00AA00A9007300000000009F
:1004400000004A0052004B000000500051004F00D5
:1004500000004D0000004E00280000004C0000008D
:10046000000000000000000000000000000000008C
:10047000000000000000000000000000000000007C
:10048000000000000000000000000000000000006C
:10049000000000000000000000000000000000005C
:1004A000000000000000000000000000000000004C
:1004B000000000000000000000000000000000003C
:1004C0000000000000000000000009025B000301C2
:1004D00000A0FA0904000001030101000921110133
:1004E00000012240000705810308000A09040100F9
:1004F000020300000009211101000122220007056A
:100500008203200001070503032000010904020003
:10051000010300000009211101000122320007053A
:10052000840320000A1201000200000008EDFE26EC
:100530008A0100010200010E036E006F0077007057
:10054000006100640000000E0355004E005200459B
:100550000041004C000000040309040011241FBEE8
:10056000CFEFDAE0DEBFCDBF04B603FE27C0809137
:10057000820690918306A0918406B091850687300B
:10058000904BA740B04BD1F4109282061092830694
:10059000109284061092850614BE84B7877F84BFAC
:1005A0000FB6F894A89580916000886180936000F0
:1005B000109260000FBEE0E0F8E3099526E0ACEB96
:1005C000B1E001C01D92A238B207E1F711E0A0E04E
:1005D000B1E0E2E3F2E502C005900D92AC3BB10759
:1005E000D9F70E944C200C94E0280C940000E8ED10
:1005F000F0E080818E7F80831092E2001092DA001A
:100600001092E100A0EEB0E08C9181608C9380812B
:100610008F77808319BCA7EDB0E08C918E7F8C938F
:1006200080818F7E80831092670608952091E40078
:100630003091E50095E6A9012091EC00822F8170B0
:1006400020FF06C08091E80080FF06C080E008958A
:100650002091E80022FD1AC080917406882389F059
:10066000853089F08091EB0085FD0FC02091E4007A
:100670003091E50042175307F9F29150E1F684E01A
:10068000089582E0089583E0089581E00895EF924F
:10069000FF920F931F93CF937C018B010E9416034F
:1006A000C82F811117C08091E80085FD0BC0809193
:1006B000E8008E778093E8000E941603882399F360
:1006C000C82F08C0F70181917F018093F10001508C
:1006D000110949F78C2FCF911F910F91FF90EF9047
:1006E00008958091760687FF13C08091E80082FF0D
:1006F00006C08091E8008B778093E80004C0809169
:1007000074068111F2CF0895809174068823D9F37D
:100710008091E80080FFF8CF8091E8008E77ECCFE1
:10072000982F9093E900242F762F50E0891731F00D
:100730007091EC002091ED005091F00021FD07C078
:100740009F5F973071F78093E90081E008953091C1
:10075000EB003E7F3093EB003091ED003D7F309316
:10076000ED003091EB0031603093EB007093EC00C2
:100770002093ED005093F0002091EE0027FDE0CF94
:1007800080E00895CF92DF92EF92FF920F931F9334
:10079000CF93DF93C8EDD0E088818F7E8883E7ED2B
:1007A000F0E080818160808384E082BF81E080937B
:1007B000670688818E7F888302EE10E0F801108240
:1007C0001092DA0081EEC82ED12CF60110828881B9
:1007D0008F77888388818068888388818F7D8883EC
:1007E00019BC10927406109275061092730610923E
:1007F000720690EEE92EF12CF70180818B7F8083C9
:1008000088818160888342E060E080E00E949003FC
:10081000F60180818E7F8083F801808181608083F2
:10082000808188608083F70180818E7F80838881CA
:1008300080618883DF91CF911F910F91FF90EF909E
:10084000DF90CF900895FC0180917C0690917D0609
:1008500086179707A0F06115710529F49091E800BB
:100860009E779093E80090E06115710551F4911125
:1008700008C08091E80082FF34C080E00895BC0188
:10088000F2CF809174068823C1F18530C1F1809147
:10089000E80083FD30C08091E80082FDEACF8091BE
:1008A000E80080FFE1CF8091F3002091F200382F23
:1008B0006115710519F02830310558F091E02830A4
:1008C000310509F090E02091E8002E772093E800B0
:1008D000CBCF81918093F100615071092F5F3F4F21
:1008E000E7CF80917406882341F0853041F08091F4
:1008F000E80083FFBECF81E0089582E0089583E0A1
:10090000089508950895089580916906089587E7E8
:1009100097E7909301088093000888E19AE00FB66A
:10092000F894A895809360000FBE90936000FFCF6D
:100930002FB7F8946091600670916106809162060D
:10094000909163062FBF08959C01FC0132969FEFA2
:1009500080E04191461751F09F3F19F4411101C0C9
:10096000982F8F5F8630A9F79F3F09F40895290FCC
:10097000311D97FD3A95F9016283089520915D0636
:1009800030915E062817390771F090935E068093C8
:100990005D06E0915B06F0915C06309721F00084E3
:1009A000F185E02D099408952091590630915A0659
:1009B0002817390771F090935A0680935906E091F1
:1009C0005B06F0915C06309721F00680F781E02D00
:1009D00009940895E0915B06F0915C06309721F050
:1009E0000190F081E02D099480E00895FA018111D1
:1009F00001C0FB01099480915406982F9E7F61F4F9
:100A00008170826080935406809157068F3618F06B
:100A10008EE68093570608958635B0F3817084651D
:100A2000F1CFAF92BF92DF92EF92FF920F931F939D
:100A3000CF93DF93182F062FE9014F3608F04EE6CB
:100A4000E42FF0E0EB5FFD4F011110C0E4915E2F49
:100A50004E2F4983E8835A83DF91CF911F910F91E5
:100A6000FF90EF90DF90BF90AF900895202F30E07F
:100A70004491D42EE42EF12C56E0159FC001112490
:100A8000EFEFF0E0BF010E946F27812F90E0880F09
:100A9000991F55E5569FD001579FB00D11248A1B11
:100AA0009B0B982F990F890F5F01A21AB30AAE9C76
:100AB000D001AF9CB00DBE9CB00D11245B2F089FE0
:100AC00080011124012F11275F01A01AB10AAE9CE9
:100AD0008001AF9C100DBE9C100D11245F01A81A5F
:100AE000B108A29EC001A39E900DB29E900D11244C
:100AF000892F9927E81BF90BEE9DC001EF9D900D02
:100B0000FE9D900D1124E92F62307105A1F050F483
:100B10006115710509F49DCF6130710581F0EB2FEE
:100B2000512F97CF6430710569F080F06630710500
:100B300009F48FCFF4CFE42F4B2F592F8ACFE42F16
:100B4000412F87CFEB2F542F492F83CF4B2F5D2D74
:100B5000E12F7FCF80E00895F894E82FE295EF70C1
:100B6000F0E031A1282F2F7081E090E001C0880FC4
:100B70002A95EAF7982F9095932391A392A1892B18
:100B800082A37894089590912B0292FF06C0282F9B
:100B900028712830F9F4877F846093FF06C0282FDE
:100BA00028712831F1F4877E846120912C0220FF86
:100BB00006C0382F38713830D9F4877F816021FF23
:100BC00006C0282F28712831D1F4877E816194FDD9
:100BD000877E0895282F24712430F9F68B7F886052
:100BE000DCCF282F2471243101F78B7E8861DDCF83
:100BF000382F3171313019F78E7F8860E0CF282F80
:100C00002171213121F78E7E8861E1CFCF93DF936F
:100C1000EC018238910581F1B0F58133910509F439
:100C200091C020F58932910509F485C08A9709F4AD
:100C300090C0C11521E5D20708F0AAC0C11530E562
:100C4000D30708F0F2C0CF3BD10508F089C0C83AFD
:100C5000D10508F0DFC0C53AD10508F0D3C0C430D3
:100C6000D105F8F4C130D105E1F040C085339105DC
:100C700009F45AC0C997E9F680912B02837089F074
:100C8000C0EED0E00EC0833E910599F170F4803E35
:100C9000910501F1823E910561F680912B0282FD62
:100CA00021C0CE01DF91CF910895863E910561F17B
:100CB000873E910571F1843E910509F0BACF80918C
:100CC0002C0281FFEECF80912B02C7EED0E084FD95
:100CD0000DC0E7CF80912B0280FDF7C090912C02D0
:100CE00090FFDFCFC3EED0E084FFDBCFD0E0C0E0E9
:100CF000D8CF80912B0282FDEBC090912C0290FD09
:100D0000BFCF84FFCECFF2CF80912B0283FDDDCF0A
:100D1000C8CF80912B0283FDDEC090912C0291FF01
:100D2000F0CFC4EED0E0BDCF80912B0285FFB9CFCC
:100D3000C9E2D0E0B6CF80912B0285FFB2CFC5E3E8
:100D4000D0E0AFCF80912B0286FFABCFCAE2D0E0DC
:100D5000A8CF80912B0286FFA4CFC1E3D0E0A1CF22
:100D6000C11540E2D40760F4C11581E0D80708F04E
:100D700098CFCE01815E9109079708F492CFB6CF44
:100D8000C11590E4D90708F4B1CFDF70D06A89CFDC
:100D9000C11524E5D20778F4C11533E5D30708F06F
:100DA00072C0C11542E5D40708F05CC0DC2FCC2727
:100DB000C16FD06A76CFC1158AE5D80778F4C1151E
:100DC00099E5D90708F073C0C11528E5D20708F4E2
:100DD0008DCFDC2FCC27C06FD06A63CFCE01905669
:100DE0008115904208F082CF8D2F8F710E94C3052C
:100DF00090E0982F882788279F719C012C2BE90170
:100E0000D0624FCFC55AD0E0CF5CDE4FC881D0E072
:100E1000D06447CFC85AD0E0CC0FDD1FCC5CDE4F8A
:100E20000990D881C02DD4643CCFCE0164E0969562
:100E300087956A95E1F783702C2F26952695237068
:100E400040E2249F90011124382B8C2F8370C1E045
:100E5000D0E002C0CC0FDD1F8A95E2F7C22BD32B66
:100E6000DC681FCFCE018370992721E030E002C0FB
:100E7000220F331F8A95E2F7C695C69580E2C89F78
:100E8000E0011124EBCFCE018370992721E030E0FF
:100E900002C0220F331F8A95E2F7C695C69590E2ED
:100EA000C99FE0011124C22BD32BDA68FACE8C2F14
:100EB0008F700E94C30534E0D695C7953A95E1F747
:100EC000CF709C2FEC01D069ECCEC9E3D0E0E9CE25
:100ED000C2EED0E0E6CEC6EED0E0E3CE80911802BE
:100EE00090911702892B90911602892B8093BE0155
:100EF000E0915B06F0915C06309731F00280F3815F
:100F0000E02D8EEB91E00994089580911502909167
:100F1000E401981301C008958F5F8770FACF990F8D
:100F2000990F890F982F977086958695869523E05F
:100F3000829FF0011124EB52FE4F50E040E080E030
:100F4000219130E0092E02C0369527950A94E2F7E8
:100F500021703327042E01C0220F0A94EAF7822B56
:100F60004F5F5F4F4330510559F70895990F990F1F
:100F7000890F982F977041E001C0440F9A95EAF7C6
:100F800086958695869593E0899FF0011124EB5212
:100F9000FE4F30E020E070E05191DF011197CB016E
:100FA000022E02C0969587950A94E2F7817081958A
:100FB0008527842385278C932F5F3F4F233031056E
:100FC00059F7089590E080E00E94D40490E080E01A
:100FD0000E94BE0410921702109216020C946E0723
:100FE000809381060C94E20780918106982F967079
:100FF000963019F488600C94F007877FFCCF21E0CD
:1010000030E001C0220F8A95EAF720958091810691
:1010100082230C94F00721E030E001C0220F8A9572
:10102000EAF780918106822B0C94F00780931902D5
:101030000C94E207882341F080959091180289234F
:10104000809318020C946E070895882339F09091CC
:101050001802982B909318020C946E070895882319
:10106000B1F19CEF980F913A70F4E0ECF1E09191BE
:10107000891303C0DF0111971C9241E0E63CF4079D
:10108000B1F70C946E0790E2980F983088F487704F
:1010900021E030E0A90102C0440F551F8A95E2F714
:1010A000CA01809590911802892380931802E9CF94
:1010B0009BE5980F933020F490E080E00C94D404EA
:1010C000885A873120F490E080E00C94BE040895A3
:1010D000CF93C82F882309F44EC08CEF8C0F813A30
:1010E000F8F4E0ECF1E086EC91E0DF012D91C2171D
:1010F00059F08A179B07D1F76C2F8EEB91E00E9475
:10110000A404CF910C946E072191C21303C0DF0198
:1011100011971C928E179F07B9F70E946E07ECCFAC
:1011200080E28C0F883068F4C77021E030E001C0A5
:10113000220FCA95EAF780911802822B8093180239
:10114000E0CFEBE5EC0FE33040F4F0E0EF5CFE4F76
:10115000808190E0CF910C94D404C85AC73158F4E0
:10116000EC2FF0E0EE0FFF1FEC5CFE4F80819181D1
:10117000CF910C94BE04CF91089580936406709330
:10118000660660936506809174068430F9F4809356
:10119000E9008FEF9091E800815095FD06C095ED34
:1011A0009A95F1F700008111F5CF8091E80085FF55
:1011B0000DC050E040E063E070E084E696E00E94FD
:1011C00047038091E8008E778093E8000895BC0182
:1011D00084E00C94BD08BC0183E00C94BD08CF935F
:1011E000DF93EC0181E08093E9008FEF9091E800BC
:1011F000815095FD06C095ED9A95F1F7000081119B
:10120000F5CF8091E80085FF14C050E040E068E031
:1012100070E0CE010E9447038091E8008E778093B2
:10122000E80088E0FE01AAE6B6E001900D928A95FA
:10123000E1F7DF91CF9108951F93CF93DF93182F9C
:10124000D0E0C0E0893311F4C0E5D0E0812F0E94E6
:101250006808209731F4812FDF91CF911F910C9472
:101260002F088FE99FE00197F1F700C00000219758
:10127000F0CFCF93DF93C7EED0E060E0CE010E94C5
:1012800049282196C11584E0D807B9F7DF91CF919D
:1012900008956F927F928F929F92AF92BF92CF925A
:1012A000DF92EF92FF920F931F93CF93DF938AE029
:1012B000C82E84E0D82E0FE510E0E801E097360153
:1012C0001CC0F50185909490692DC7010E944928A2
:1012D000682DC70101960E94492882E0A80EB11C22
:1012E00082E0E80EF11CCE15DF0559F788E0680EA4
:1012F000711C28960C171D0731F07E0188E0E81A52
:10130000F1085301DECF005D1F4F80E3C80ED11CF2
:101310000F3181E0180789F6DF91CF911F910F916E
:10132000FF90EF90DF90CF90BF90AF909F908F9005
:101330007F906F900895CF93C82F6FEF811162E275
:1013400083E290E00E9449286FEFC11161E084E2DE
:1013500090E00E9449286FEFC11166E185E290E0BC
:10136000CF910C94492880E00E949B0960E086E2BE
:1013700090E00E9449280E9449090E94390981E0B1
:101380000C949B090F931F93CF93DF9328E0629FE8
:10139000E001112450E0440F551FC40FD51F30E366
:1013A000839FC00DD11D1124CE0187960E94352840
:1013B000082F10E0102F0027CE0188960E943528B4
:1013C0009801282BC901DF91CF911F910F910895AA
:1013D000462F843038F4763028F4643018F4672FC0
:1013E0000C94C20990E080E00895CF92DF92FF92C2
:1013F0000F931F93CF93DF936C010091810680912F
:101400001902082BC7E0D0E010E0FC2EC8010C2E1A
:1014100002C0959587950A94E2F780FD0CC021974C
:10142000A0F7F12C8F2DDF91CF911F910F91FF909D
:10143000DF90CF900895B6018C2F0E94E8090E949A
:101440000606019761F3EECFCF93DF93EC010E9484
:10145000F509BE010E94E809DF91CF910C940606C0
:10146000FC01808191810E94240A292F2F7092957E
:101470009F7092509E3078F4E92FF0E0EE51F74DD6
:101480000C94A327803F19F020F4883E20F481E0DB
:101490000895843FE1F380E00895883EC0F3813FE2
:1014A000D1F7F5CF822F869586958695089583E2AC
:1014B00090E00E943528823289F484E290E00E9414
:1014C0003528813059F485E290E00E94352891E07A
:1014D000863109F090E0892F8170089580E0FCCF7B
:1014E000CF9384E090E00E943528C82F82E290E0FC
:1014F0000E943528982F8C2FCF9108958091540603
:1015000080FD0AC0E4E5F2E0118210821282339677
:1015100053E0E43DF507C1F7809A31B33E7F21B334
:1015200021604FB7F89484E592E0FC015191CF011E
:1015300068E021BB000000C057FF31BB550F000021
:1015400000C000C000C031BB00C06A9591F7F3E055
:10155000843D9F0751F74FBF8FE594E00197F1F766
:1015600000C0000008958F929F92AF92BF92CF92D9
:10157000DF92EF92FF920F931F93CF93DF93FC01C3
:10158000A280848081E08483EAE0F3E0B490E9E81B
:10159000F3E0E491C4EDD3E054E5E52E52E0F52EFE
:1015A000CC24CA94D12C99249A94EB190E2F10E0D4
:1015B00042E04A1530F080915506888380915606A6
:1015C000898381101EC01B821A8297014A8169811A
:1015D00088810E941105259643E0E40EF11C86E007
:1015E000C435D80729F7DF91CF911F910F91FF9054
:1015F000EF90DF90CF90BF90AF909F908F900C9422
:101600007E0A8B818823E9F081508B83899DC001FC
:1016100011246C8170E00E946F27FB01FF27E65FB9
:10162000FC4F8491E82FEB19E99DC0011124B8010A
:101630000E946F2780915706689FB00111247A831A
:10164000C4CF0E940B28209157062695215840E2CE
:10165000249F90011124232F3327821793070CF026
:10166000B4CF82E08A1588F40E940B28B6010E944C
:101670008F2788830E940B28209156062695622F7B
:1016800070E00E948F27280F29831A8280915706C5
:10169000843108F484E18C838B8397CFEF92FF929F
:1016A0000F931F93CF93DF938C01C4E5D2E0F12C0D
:1016B000E12CF80194816091560680915506F0E482
:1016C000EF16F104FCF49923F9F09E0140915706BE
:1016D0000E9411052FEFE21AF20A239680E8E8161D
:1016E000F10439F70E947E0AF801848190E00196A6
:1016F000817099278483DF91CF911F910F91FF9083
:10170000EF900895992309F39E0140E0E1CF8F9275
:101710009F92AF92BF92CF92DF92EF92FF920F9380
:101720001F93CF93DF93EC014C81042F10E09801BD
:10173000D8010E94D1289B01AC010E949C284B013A
:101740005C01E0E2F0E0E01BF10BA5E5B0E0AC01EC
:101750009B010E949C286B017C019F01DF010E947C
:10176000B0279B01AC010E94A7289B01AC01280D6A
:10177000391D4A1D5B1DC701B6010E94AF28F22E1C
:10178000822F90E039E23F15D8F143E0249F900189
:10179000112435952795122F109594E5C92E92E0C6
:1017A000D92E00E085E5E82EEF188E2D01FD8F2D56
:1017B0009601412F609156060E9411050F5F53E07C
:1017C000C50ED11C003889F70E947E0A9C8181E0F9
:1017D000992319F0903219F48FEF80931E018091B4
:1017E0001E01890F8C83DF91CF911F910F91FF9084
:1017F000EF90DF90CF90BF90AF909F908F90089523
:1018000025E530E0A901481B590BCA019A01220FB6
:10181000331F280F391F37FFBCCF2F5F3F4FB9CF82
:101820000F931F93CF93DF93C4E5D2E0FE011182A3
:1018300010821282339683E0E43DF807C1F710E08E
:1018400000E080915202082E000C990B081719072E
:101850008CF180911D01082E000C990B80179107C7
:101860004CF19E01409157066091560680915506B5
:101870000E9411050F5F1F4F23960038110509F7CD
:101880000E947E0A80911C0190915202980F9093C1
:10189000520220911D01280F20931D01121614F4ED
:1018A0009F3719F4819580931C01DF91CF911F918F
:1018B0000F910895198218821A82DCCFCF92DF929D
:1018C000EF92FF920F931F93CF93DF93FC018281DE
:1018D000DD24DA9480FD02C0DD24D394C4E5D2E097
:1018E00010E000E0198218821A8294E0E92EF12CAF
:1018F000C12C809151028C0D87FD8058082E000C60
:10190000990B8017910791F4809157068E9DA00145
:101910008F9D500D112455954795559547959E01DE
:1019200060915606809155060E941105CD0CF1E09C
:10193000EF1AF108F1F60F5F1F4F239600381105DB
:1019400089F60E947E0A8091510291E0D91210C05E
:1019500081110CC08FE780935102DF91CF911F91CD
:101960000F91FF90EF90DF90CF9008958150F3CFCB
:1019700090E001968F779927EECFEF92FF921F9319
:10198000CF93DF93EC0184E5E82E82E0F82E10E09F
:101990008C8197014091570660915606810F0E94F5
:1019A00011051F5F83E0E80EF11C103889F70E94D3
:1019B0007E0A9A818C8190FF08C08F5F8C83DF91B3
:1019C000CF911F91FF90EF9008958150F7CF9091A4
:1019D000540690FF0CC0E4E5F2E08183608342830B
:1019E000339693E0E43DF907C1F70C947E0A08951D
:1019F0000F931F93CF93DF9300D00F92CDB7DEB735
:101A00008C018091530281110AC09E012F5F3F4FCC
:101A10004EE66FEF0E9411058A8180935302F80110
:101A20006481613069F08091530240E0662361F087
:101A300040E0623011F44091530280E060E004C065
:101A40006091530240E080E00E94E70CF80184813D
:101A500090E0019663E070E00E948F2784830F90EE
:101A60000F900F90DF91CF911F910F910895CF9319
:101A7000DF9300D00F92CDB7DEB79091540690FF60
:101A80000AC09E012F5F3F4F0E9411054B81698163
:101A90008A810E94E70C0F900F900F90DF91CF91F9
:101AA0000895CF93DF93EC01E4E5F6E04381628192
:101AB0008C810E94370D8C818F5F8C83DF91CF9159
:101AC0000895CF93DF93EC01EC81F0E0E65FFC4FEB
:101AD0004491E4E5F6E0628181810E94370D8C81BA
:101AE0008F5F8C83DF91CF910895CF92DF92EF9239
:101AF000FF926B017C010E94FB04B701A60188E004
:101B000090E0FF90EF90DF90CF900C945B287F9255
:101B10008F929F92AF92BF92CF92DF92EF92FF92FD
:101B20000F931F93CF93DF9300D00F92CDB7DEB703
:101B3000182FD62E042FC22E9091540690FF29C044
:101B4000E92FE695AE2FB0E0AE57BE4F8C91809353
:101B50004E029E7F923071F59E012F5F3F4F812F85
:101B60000E9411054B8169818A810E94E70C1093C4
:101B70005506D092560600935706CC2051F060913E
:101B800054067091550680915606909157060E9412
:101B9000750D0F900F900F90DF91CF911F910F91C6
:101BA000FF90EF90DF90CF90BF90AF909F908F907D
:101BB0007F900895823019F400915706D8CF86306F
:101BC00019F410915506D3CF8930D9F3893179F6BC
:101BD000E9512E2F2170722EE695F0E0EB5FFC4F5D
:101BE00085909490992434E5E32E32E0F32EB12CC5
:101BF000A12CC501880F892F881F990B9195711011
:101C000013C0810F9701402F6D2D0E941105A80C64
:101C1000B91C83E0E80EF11C24EDE21623E0F20685
:101C200041F70E947E0AA3CF212F281B822FEACFE3
:101C3000E4E5F6E0438128E0421B08F440E021E0BF
:101C4000628181810C94870DE4E5F6E0438128E010
:101C5000420F08F44FEF21E0628181810C94870DDF
:101C6000E4E5F6E0628128E0621B08F460E021E030
:101C7000438181810C94870DE4E5F6E0628128E0E0
:101C8000620F08F46FEF21E0438181810C94870D8E
:101C9000E4E5F6E0818121E04381628188500C9483
:101CA000870DE4E5F6E0818121E043816281885F70
:101CB0000C94870D80915806882319F081508093E9
:101CC0005806609154067091550680915606909181
:101CD00057060C94750D80915806833018F48F5F69
:101CE000809358066091540670915506809156066F
:101CF000909157060C94750DE4E5F6E083E080833F
:101D000011828FEF82838EE68383148260817181DA
:101D1000828193810C94750D0F931F93CF93DF9362
:101D2000CDB7DEB762970FB6F894DEBF0FBECDBF5A
:101D300091E1E0E2F1E0DE01119601900D929A95B9
:101D4000E1F7E1E0F0E0EC0FFD1FE60FF11D9081FF
:101D50009A8B682F660F843018F0880F69EF680F30
:101D600004E610E021E030E0AE014E5E5F4F80EE11
:101D70000E94EF2662960FB6F894DEBF0FBECDBF6D
:101D8000DF91CF911F910F91089510921802E0EC0E
:101D9000F1E086E0DF011D928A95E9F70C94E207F5
:101DA0001F93CF93DF93CDB7DEB7AA970FB6F89402
:101DB000DEBF0FBECDBF86E796E02091F100DC01CB
:101DC0002D93CD01B6E08E379B07B9F7809177064A
:101DD000833009F472C0B8F4813009F449C082300C
:101DE00009F4B3C08091E80083FF8BC2809176062E
:101DF000909177069A3008F084C2E92FF0E0E05124
:101E0000F74D0C94A3278A3009F48EC08B3009F467
:101E100071C0893039F780917606813219F7809147
:101E20007A0690917B06009711F00297D9F680917F
:101E3000E800877F8093E8008091E80082FF38C047
:101E40009091F3008091F200029731F48091F100BB
:101E5000813011F0863021F48091F1008093690681
:101E60008091E8008B778093E8000E947103BACFDD
:101E700080917606813A09F0B5CF8091E800877F9E
:101E80008093E80080917A0690917B06892B61F41B
:101E900068E08AE696E070E00E9423048091E80002
:101EA0008B778093E8009ECF60E090E080E0F3CFF6
:101EB000809174068111C0CF95CF80917606813ACA
:101EC00009F090CF80917A0690917B06892B09F0DA
:101ED00089CF8091E800877F8093E8008091E800B7
:101EE00080FFFCCF80911F018093F1008091E8007A
:101EF0008E77B9CF80917606813209F073CF8091C9
:101F00007A0690917B06892B09F06CCF8091E800CE
:101F1000877F8093E8000E94710380917806809308
:101F20001F010E94C50E5ECF80917606813209F0B6
:101F300059CF8091E800877F8093E8000E94710369
:101F400080917906809368064DCF80917606813A1C
:101F500009F048CF8091E800877F8093E800809166
:101F6000E80080FFFCCF80916806BECF803899F0F2
:101F7000823809F0C6C180917A068F70873008F0E8
:101F8000C0C18093E9008091EB0085FB882780F930
:101F90001092E90006C0809172069091730691112B
:101FA00082609091E800977F9093E8008093F10021
:101FB0001092F1008091E8008E779FC1882309F488
:101FC0008DC1823009F09DC180917806811190C148
:101FD00080917A068F702FEF280F263008F091C17C
:101FE0008093E9002091EB0020FF82C1933031F40F
:101FF0008091EB0080628093EB007AC19091EB00BE
:1020000090619093EB0021E030E001C0220F8A95AF
:10201000EAF72093EA001092EA008091EB008860D2
:10202000EACF81116EC1109178061F778091E3008D
:102030008078812B8093E3008091E800877F8093F4
:10204000E8000E9471038091E80080FFFCCF80913E
:10205000E30080688093E30082E0111183E08093C5
:1020600074064FC18058823008F04BC12091780629
:10207000309179062C3DE3E03E07A1F583E08A83A9
:102080008AE289834FB7F894DE01139620E03EE0A0
:1020900051E2E32FF0E050935700E49120FF03C09A
:1020A000E295EF703F5FEF708E2F90E0EA30C0F066
:1020B000C7968D939D932F5F243159F74FBF809121
:1020C000E800877F8093E8006AE270E0CE01019625
:1020D0000E9423048091E8008B778093E80011C16F
:1020E000C096E7CF80917A0690917B06432F5527C3
:1020F0004330510509F44AC078F54130510509F4DF
:102100007AC08BE590E0EAECF4E04230510509F04A
:10211000F8C02091E800277F2093E80020917C06FA
:1021200030917D068217930708F49C0140E0211549
:10213000310509F065C0411163C08091E80082FD5E
:10214000C9CF80917406882329F2853019F28091D5
:10215000E80083FFF2CFBECF4132510509F43CC005
:102160004232510509F0CDC08330910508F0C9C055
:10217000FC01EE0FFF1FE055FE4F0190F081E02DB6
:1021800083559E4FDC018C9190E01AC0332721309B
:102190003105D1F02115310561F02230310509F00A
:1021A000B0C0E7E3F5E0E4918E2F90E0E7E3F5E0DF
:1021B00007C0E7E5F5E0E4918E2F90E0E7E5F5E074
:1021C000009709F49EC0A5CFE7E4F5E0E4918E2FD7
:1021D00090E0E7E4F5E0F4CF8330910508F091C09A
:1021E000880F991FFC01EA54FE4F0190F081E02D09
:1021F00089E090E08ECF82E190E0E5E2F5E089CFE2
:1022000080917406882309F465CF853009F462CF84
:102210008091E80083FD5ECF8091E80082FD8DCF44
:102220008091E80080FF83CF9091F3008091F200CD
:102230002115310519F08830910550F041E00897DB
:1022400009F040E08091E8008E778093E8006FCF3E
:1022500044914093F1003196215031090196E8CF25
:10226000803809F04EC08091E800877F8093E800B5
:10227000809175068093F1009DCE811142C010912E
:1022800078061230F0F58091E800877F8093E800AF
:10229000109375060E947103112311F084E005C0AC
:1022A0008091E30087FDFACF81E08093740642E0DD
:1022B00061EC81E00E94900342E261EC84E00E94C4
:1022C000900342E261EC82E00E94900342E260EC03
:1022D00083E00E9490038091740613C08091780679
:1022E000813079F481E0933009F080E080937306C7
:1022F0001092E9008091E800877F8093E8000E94B7
:1023000071038091E80083FF0AC08091E800877F15
:102310008093E8008091EB0080628093EB00AA96A6
:102320000FB6F894DEBF0FBECDBFDF91CF911F91E6
:10233000089569EE7EEF90E080E00E94672860E0FB
:1023400082E090E00E94492860E083E090E00E94F3
:1023500049281092190260E084E090E00E94492828
:1023600060E082E290E00E94492860E085E090E031
:102370000E94492860E086E090E00E9449286FEFC3
:1023800087E090E00E94492840E050E0BA0188E0F0
:1023900090E00E945B2860E08DE090E00E94492878
:1023A00040E050E0BA0188E190E00E945B2860E0E4
:1023B00087E190E00E94492840E050E0BA018CE1BA
:1023C00090E00E945B2870E060E080E290E00E9474
:1023D000672840E050E0BA0188E190E00E945B2865
:1023E00080E00E949B090E94B30940E050E0BA01DE
:1023F0008FE090E00E945B2840E050E0BA0183E16A
:1024000090E00C945B2890E080E00E944328893E95
:102410009E4F11F40C94570A80E008951F920F927A
:102420000FB60F9211242F933F934F935F936F93A7
:102430007F938F939F93AF93BF93CF93DF93EF934C
:10244000FF93D091E900DF708091EC00C82FC1703C
:1024500080FDC0E81092E9008091F000877F8093B2
:10246000F00078940E94D00E1092E9008091F00064
:1024700088608093F000CD2BCF70C093E900FF916E
:10248000EF91DF91CF91BF91AF919F918F917F910C
:102490006F915F914F913F912F910F900FBE0F90D1
:1024A0001F9018951F920F920FB60F9211242F9321
:1024B0003F934F935F936F937F938F939F93AF93CC
:1024C000BF93EF93FF938091E10082FF09C0809159
:1024D000E20082FF05C08091E1008B7F8093E100E4
:1024E0008091DA0080FF24C08091D80080FF20C056
:1024F0008091DA008E7F8093DA008091D90080FF8E
:102500009DC080E189BD82E189BD09B400FEFDCF97
:1025100081E08093740680916706811109C00E9452
:10252000F7020E94C2038091E20084608093E2007F
:102530008091E10080FF17C08091E20080FF13C00E
:102540008091E2008E7F8093E2008091E2008061C2
:102550008093E2008091D80080628093D80019BCFB
:1025600085E0809374068091E10084FF2BC0809108
:10257000E20084FF27C080E189BD82E189BD89B581
:10258000982F917080FFFBCF8091D8008F7D809332
:10259000D8008091E1008F7E8093E1008091E2007D
:1025A0008F7E8093E2008091E20081608093E20060
:1025B00080917506882309F447C084E080937406EF
:1025C000809174068091E10083FF27C08091E20032
:1025D00083FF23C08091E100877F8093E10082E048
:1025E00080937406109275068091E1008E7F80932F
:1025F000E1008091E2008E7F8093E2008091E20012
:1026000080618093E20042E060E080E00E949003FD
:102610008091F00088608093F000FF91EF91BF916E
:10262000AF919F918F917F916F915F914F913F916A
:102630002F910F900FBE0F901F90189519BC1092FC
:1026400074061092670674CF8091E30087FD93E0D3
:1026500090937406B5CF78941F921FB61F921124E1
:102660008F939F93AF93BF93809160069091610683
:10267000A0916206B09163060196A11DB11D8093E1
:10268000600690936106A0936206B0936306BF91C3
:10269000AF919F918F911F901FBE1F9018959C0125
:1026A0004FB7F8948091600690916106A091620600
:1026B000B09163064FBF821B930B08952FB7F89418
:1026C0008091600690916106A0916206B0916306C8
:1026D0002FBF08950F931F93CF93DF93C62FD42F4F
:1026E000022FFC0182818823A1F0609380060E9462
:1026F0005E1390937F0680937E06C77081E001C0D1
:10270000880FCA95EAF7DF91CF911F910F910C9432
:10271000250880918006681335C080917E069091CF
:102720007F060E944F13883C910560F510E21D0F53
:10273000CD17B9F080E28C0F883040F4C77081E08B
:1027400001C0880FCA95EAF70E941A08183048F4A9
:1027500081E09D2F977001C0880F9A95EAF70E943B
:102760002508802F0E941C09183098F4D77081E04A
:1027700001C0880FDA95EAF7DF91CF911F910F9191
:102780000C941A08C77081E001C0880FCA95EAF757
:10279000F3CFDF91CF911F910F910895909154063F
:1027A00090FF3DC09170811129C0926090935406B2
:1027B000662351F06091540670915506809156063B
:1027C000909157060E94750D60915406669570E0D1
:1027D0004BE050E081E191E00E941B28892BA9F099
:1027E00010924F0281E080934B0220E04091570607
:1027F00060915606809155060C94870D8B3210F02F
:102800009465D4CF880F982BD1CF81E080934F026D
:102810000E945E139093490280934802E3CF08958B
:10282000809154068695815009F48AE261E00C9407
:10283000CE138091540686958F5F8B3208F081E02D
:1028400061E00C94CE139091540690FF07C09695CA
:10285000981720F0961710F40C94191461E00C945A
:10286000CE135F926F927F928F929F92AF92BF92A0
:10287000CF92DF92EF92FF920F931F93CF93DF934C
:1028800000D000D000D00F92CDB7DEB76C01FC01B4
:1028900083819481892B31F08081918189238F3FBD
:1028A00009F06AC627960FB6F894DEBF0FBECDBFFB
:1028B000DF91CF911F910F91FF90EF90DF90CF901C
:1028C000BF90AF909F908F907F906F905F90089592
:1028D0000E94F509182F682F89819A810E94B607F6
:1028E00069817A81812F0E94E8097C01F601828149
:1028F000882309F433C6970122513F452031310521
:1029000008F0BDC58FEF93E00E9435281EEE1E0D26
:1029100097EEA92EB12C8111C5CF111136C01C82A2
:102920001B82662463948AE0582E85010F5F1F4F37
:10293000C5010E94352889831A82882309F4B2CF01
:102940009FEF980F933080F58A83698232E0A30E5F
:10295000B11CC8010E9435288B83882309F4A2CFBB
:10296000AE014F5F5F4F7A01F70120812223E9F228
:10297000213009F058C0918182819130B9F4F2E0A0
:10298000EF0EF11C0E941C0918C0A114F4E0BF0650
:1029900009F488CFC5010E943528811101C011506A
:1029A0002FEFA21AB20AB9CF5801DACF923049F408
:1029B00022E0E20EF11C0E946808FFEFEF1AFF0A06
:1029C000D3CF933031F432E0E30EF11C0E942F0894
:1029D000F4CF943021F04FEFE41AF40AEECF52E036
:1029E000E50EF11C30E020E0B7016F5F7F4FF7018B
:1029F00041818053990B8A30910550F02150310963
:102A0000E0F28FE99FE00197F1F700C00000F6CFF8
:102A1000529EF001539EF00D11249C012E0F3F1F7A
:102A2000842F7B01E1CFE22FF0E0E059FE4F74905C
:102A3000822F86958695869590E0FC01E05AFE4FA0
:102A4000C4902770D12C022E02C0D594C7940A944A
:102A5000E2F7A1E0CA22DD24FC01E05BFE4F049115
:102A600010E0022E02C0159507950A94E2F7017056
:102A70001127FC01E05CFE4F8490912C02C09594DC
:102A800087942A95E2F7E1E08E229924C114D104BB
:102A900019F081EE0E9468080115110519F086EE03
:102AA0000E946808872D0E941C09012B19F086EEF0
:102AB0000E942F08CD2819F081EE0E942F08892846
:102AC00009F47BCF8CE25ECF81E00E940B0803C04B
:102AD00081E00E94FF070E94F407E4CE82E0F5CF78
:102AE0009091D30191112AC035EAE3163DE5F30632
:102AF00009F4C5C046EAE4164DE5F40609F4CDC074
:102B0000F3EFEF16FCE5FF0609F4EAC008F0D1C0C8
:102B100038EDE3163CE5F30609F4DEC049EDE416B2
:102B20004CE5F40609F4E8C057EDE5165CE5F5065A
:102B300009F0BEC426E241EE61EECAC08111D4CFD5
:102B40005EE1E516F10408F4B3C468E2E616F104A8
:102B500058F693EE9E0D87E2E816F10409F490E032
:102B6000E091D20181E08E0F8093D201F0E0EA5330
:102B7000FE4F90838C3009F0B7CF1092D301909123
:102B8000D0012AE08091D101929F800D1124909173
:102B9000CE01F091CF01929FF00D11249091CC01C4
:102BA000E091CD01929FE00D11249091CA015091C6
:102BB000CB01929F500D11249091C8014091C90101
:102BC000929F400D11249091C6013091C701929FB0
:102BD000300D1124622F0E948327A0E18A9FB0014B
:102BE0001124962B9F7799838F2F622F0E94832722
:102BF000F0E18F9FB0011124962B9F779A838E2F3F
:102C0000622F0E948327A0E18A9FB0011124962B96
:102C10009F739B831C82852F622F0E948327E0E194
:102C20008E9FB0011124962B9F739D83842F622F5A
:102C30000E948327F0E18F9FA0011124942B9F73A2
:102C40009E83832F0E94832740E1849F900111245B
:102C5000922B9F779F8304E610E027E030E0AE01DF
:102C60004F5F5F4F60E080ED0E94EF260CE010E0C8
:102C70008AE20E941C0901501109D1F735CFF601F3
:102C80008281882309F40ECE61E083E090E00E9407
:102C9000492881E00E94160805CEF601828188232A
:102CA00021F081E00E940B08FDCD81E00E94FF072A
:102CB000F9CD65EFE6166CE5F606D1F0A8F027E24F
:102CC00045EE66EE96EFE9169CE5F90609F0F0C3CD
:102CD000C6010E946A13E6CD27E245EE65EEF8CF05
:102CE00026E241EE60EEF4CF27E245EE64EEF0CF4F
:102CF00026E241EE62EEECCF28E241E0EFCF31E692
:102D0000E3163DE5F30609F4ECC326E1E2162CE5F3
:102D1000F20609F00AC1809118028A7A91E009F45A
:102D200090E09093D40169E2811165E38EEB91E02C
:102D30000E94A4040E946E07B5CD80912B02806191
:102D400026E0E2162CE5F20609F4A9C080912B02D8
:102D5000886037E0E3163CE5F30608F4A0C08091F4
:102D60002B0280629CC080912B028D7F4CE0E41688
:102D70004CE5F40609F493C078F480912B028C6042
:102D80006AE0E6166CE5F60609F489C008F49CC012
:102D900080912B028E7F83C080912B02877F9EE0E3
:102DA000E9169CE5F90609F47AC080912B028B7F25
:102DB000AFE0EA16ACE5FA0608F471C080912B0288
:102DC0008F7E6DC0ECEFEE16ECE5FE0609F482C0D6
:102DD000A0F524E1E2162CE5F20609F493C098F47C
:102DE00042E1E4164CE5F40609F47CC080912B0224
:102DF0008F7B53E1E5165CE5F50608F450C0809141
:102E00002B02837F4CC06AEFE6166CE5F60609F4E8
:102E10004DC008F051C095E1E9169CE5F90609F0AE
:102E20008DC380912B0282FB992790F921E0922794
:102E300090FB82F990FB83F932C0E114ADE5FA060C
:102E400009F456C0A0F480912C028360FEEFEF16C7
:102E5000FCE5FF0671F180912C028D7F2FEFE216C9
:102E60002CE5F20630F180912C028C7F22C032E0FA
:102E7000E3163DE5F30609F454C008F44CC051E6EE
:102E8000E5165DE5F50609F059C390912B02892FEF
:102E90008F7E94FF806103C080912B0281608093BC
:102EA0002B024CC380912B028460F9CF80912C02BD
:102EB000816080932C0242C380912C028260F9CF02
:102EC00080912B028064EBCF0E94C50E80912B0273
:102ED0008068E5CF80912C028E7FEBCF80912B0212
:102EE0008F7DDDCF0E94C50E80912B028F77D7CFCB
:102EF00080912C02982F909591708E7F892B90FB5A
:102F000081F9D7CF0E94C50E90912B02892F97FB94
:102F100087F98058C4CF61E08EE090E00E94492894
:102F20000DC360E0F9CF85E343C3992359F1809144
:102F3000180282726CECE6166CE5F60609F40FC115
:102F400008F084C0E6ECEE16ECE5FE0609F4F3C0EA
:102F500008F051C023ECE2162CE5F20609F4E1C0BA
:102F6000D0F542ECE4164CE5F40609F4B5C0E114E2
:102F7000FCE5FF0609F40DC12EEDE2162CE5F20684
:102F800009F414C1F60100811181992309F411C1DA
:102F9000C8010E94F509F82E682FC8010E94B607E3
:102FA000B8018F2D0E94E8090E940606182FB82E3E
:102FB000F60122814581342F32953F70892F829509
:102FC0008F70E82EF12C8C3008F02BC1F701E65001
:102FD000F74D0C94A32754ECE5165CE5F50609F4CF
:102FE000A5C065ECE6166CE5F60609F648E45EE079
:102FF00061E57EE017C0A9ECEA16ACE5FA0609F433
:10300000A4C098F4F7ECEF16FCE5FF0609F498C0AD
:103010004CE35EE060E37EE028ECE2162CE5F2068D
:1030200009F0A5CF0E94F6043DCC3AECE3163CE54E
:10303000F30609F48FC04BECE4164CE5F40609F0F6
:1030400096CF4AE55EE06BE67EE0ECCF51EDE5160B
:103050005CE5F50609F491C0C8F48EECE8168CE541
:10306000F80609F484C008F47FC0EFECEE16ECE536
:10307000FE0609F47FC06EE089E0F0EDEF16FCE596
:10308000FF0609F074CF0E9423140CCC24EDE21645
:103090002CE5F20609F477C088F442EDE4164CE51D
:1030A000F40609F46DC061E088E153EDE5165CE5D6
:1030B000F50609F05CCF0E94CE13F4CB65EDE61661
:1030C0006CE5F60609F462C08DE5E816F80609F02D
:1030D0004ECF6AE285E2D7CF8091540680FF1BC0B5
:1030E0008E7F8093540660915406709155068091AE
:1030F0005606909157060E94750D10924F029FEF51
:10310000A0E7E2E09150A040E040E1F700C00000FD
:103110000E947E0AC7CB81608093540661E0869549
:10312000CACF40E154E169E174E17CCF49E154E167
:1031300060E174E177CF41E55EE068E47EE072CF64
:1031400040E35EE06CE37EE06DCF48E15EE064E288
:103150007EE068CF44E25EE068E17EE063CF4BE66C
:103160005EE06AE57EE05ECF61E081E0A4CF65E0ED
:1031700082E089CF68E086E086CF64E18FE083CF8C
:1031800067E185E180CF62E289E17DCF61E083E2A2
:1031900092CF0E94C50E3FEF44E35CE031504040C7
:1031A0005040E1F700C000000E9487040E9499117E
:1031B00079CBC8010E948F07F82EF2CE092F0F702D
:1031C000907F11F00295007F812F2223C9F0002308
:1031D00069F090E2910F983010F011110BC08091BE
:1031E0001802082B009318020E946E07812F0E947C
:1031F000680817C080911702082B00931702F4CFBC
:103200000E942F08002369F00095105E183010F01E
:10321000B11012C0809118020823009318020E9476
:103220006E0738E0E31AF10844E0E416F10408F010
:1032300039CB0E94EA0436CB809117020823009311
:103240001702EDCF892F8F70907F903211F0829509
:10325000807FF1E0BF120CC0222329F0363008F73E
:103260000E942508DECF3530E0F60E941A08D9CF3B
:10327000222341F03323A1F340FFB8CF4F70F60172
:103280004583EECF332389F3193349F4FFEF27EE5B
:1032900033E0F15020403040E1F700C00000812FC2
:1032A0000E942F08BECF892F86958695837061F086
:1032B000813009F0B6CF812F9370211102C090E0C8
:1032C00080E00E94BE04ADCF812F9370211102C017
:1032D00090E080E00E94D404A4CF892F8370A1F5F0
:1032E00021119FCF812F829586958770880F880F37
:1032F000412F4F70082E01C0440F0A94EAF7212F86
:10330000207114FF07C02FE030E001C0220F8A9522
:10331000EAF72095969596959370923081F0822FDA
:10332000842B933030F480911902913029F0242BB2
:1033300082230E94160875CF842B822BFACF242B70
:10334000809119028227F5CF8695222311F0892FCB
:103350008170882309F465CF812F829586958770C7
:10336000880F880F412F4F70082E01C0440F0A9418
:10337000EAF7212F207114FF07C02FE030E001C0D1
:10338000220F8A95EAF7209596959695937092303C
:1033900081F0822F842B933030F48091810691301C
:1033A00029F0242B82230E94F0073BCF842B822B11
:1033B000FACF242B809181068227F5CF092F0F7039
:1033C000222329F0802F0E940B08812F49CF812FC3
:1033D0000E941A08802F0E94FF0723CF812F41EF00
:1033E000141789F1411750F050EF1517B9F0222347
:1033F000B1F13111FBCE892F8F7129C062EF161701
:1034000049F1A3EF1A13F3CF80E0222361F29F71F9
:1034100081E001C0880F9A95EAF7C5CF222379F0A1
:10342000353008F0FECE292F2F7181E090E001C0E9
:10343000880F2A95EAF7909181068927B4CF363014
:1034400008F0EFCEF0CF892F8F71222321F20E9456
:103450000B08E7CE892F8F712223C9F3BCCF33230A
:1034600059F0893309F01BCFEFEFF7EE23E0E1507D
:10347000F0402040E1F711CF892F8F71ACCF50E1A0
:10348000E5165FE5F50609F41FCB61E1E6166FE589
:10349000F60609F423CB23E7E216F10409F020CB6A
:1034A000882309F41DCB81E08093D3011092D201CF
:1034B000F6019281992309F470C010928006F3E01E
:1034C000EF16FDE5FF0608F01ACC2AEFE2162CE510
:1034D000F20638F4970122503C452431310508F0BA
:1034E00014CC0E94700A90932C0280932B0240E12E
:1034F000E4164CE5F40609F4F1CC08F063CC68E07E
:10350000E6166CE5F60609F4DBCC08F02CCC94E06A
:10351000E9169CE5F90609F4C5CC08F00ECCE2E00A
:10352000EE16ECE5FE0609F4B7CC80912B02826022
:10353000F3E0EF16FCE5FF0609F4B1CC60912B0235
:1035400010912C0284E090E00E944928612F82E2D1
:1035500090E00E9449280E94C50EA4C990E1E91696
:103560009FE5F90609F4B4CAA1E1EA16AFE5FA0647
:1035700009F091CF82E0ADCA85E0DE01119601909D
:103580000D928A95E1F7F601228189819A812111B4
:103590009FC90E948F07182FA3C9F6E1EF16FCE51B
:1035A000FF0609F0EFCC8091D4018111BCCC89E2F7
:1035B000E0ECF1E026EC31E09191891303C0DF01EA
:1035C00011971C922E173F07B9F7B4CB1F93CF93D7
:1035D000DF938091E301807FA9F48091E00188234B
:1035E00089F080911502D091E4016091DE01709123
:1035F000DF01A091E101B091E201C62FC72316E0DF
:10360000D81304C0DF91CF911F91089590E01097D7
:1036100011F0CF3F19F401968770F2CF189F9001F7
:10362000199F300D1124F901EB51FE4F41814713D1
:10363000F2CF40814613EFCF42814111ECCF43815D
:1036400054814A1B5B0B483C510528F78091E301EC
:103650008F7080618093E301F901E651FE4F808114
:103660008F70806180838EED91E00E943114DF9134
:10367000CF911F910C948507AF92BF92CF92DF92AA
:10368000EF92FF920F931F93CF93DF93CDB7DEB7E7
:1036900061970FB6F894DEBF0FBECDBF8C0185E0F9
:1036A000F801DE011D9601900D928A95E1F7F8016F
:1036B000E2808EEDA82E81E0B82E6091E10170913C
:1036C000E2016115710509F432C19091DE0140916A
:1036D000DF01892F84238F3F09F429C120813181A3
:1036E000C380D480F090E001F601E61BF70BFF20C9
:1036F00009F4E8C08091E301582F507FE83CF105C0
:1037000008F0ABC0511177C0FE2C431321C09213B7
:103710001FC0E1101DC08F7080618093E301C5015F
:103720000E9431148091E301F80185838F2D619609
:103730000FB6F894DEBF0FBECDBFDF91CF911F91C2
:103740000F91FF90EF90DF90CF90BF90AF900895D2
:10375000CD2829F0822F83238F3F09F003C180E019
:10376000F82FF170DF2E80FF3CC080911502409150
:10377000E40156E0841315C02D873E878D859E8514
:103780000E94240A292F22952F702230F0F0243035
:1037900018F59F70F1F0F8019581907FD1F4D12C4C
:1037A0001EC090E0589FF001599FF00D1124EB517D
:1037B000FE4F6181361306C06081261303C062810B
:1037C000E6120FC001968770D5CF9F7011F0882345
:1037D00031F3805E883018F3C8010E943114FD2C4B
:1037E000A5CFEE2009F4A2CF8091E3018160809300
:1037F000E301F12C9BCF431306C0921304C0F801E0
:10380000EE2009F479C0C8010E94300A882309F12A
:10381000EE20F9F08091E301803270F02091DE011A
:103820003091DF0138872F831986DB86CA868C8723
:10383000CE0107960E94311486E0F801AEEDB1E0AA
:1038400001900D928A95E1F70E94E61AFF24F39405
:103850006DCFC8010E943114F9CF51110AC08EED0D
:1038600091E00E94311486E0F50111928A95E9F702
:10387000C0CF43130FC092130DC0E1100BC0F8016D
:103880008583C8010E94311486E0F50111928A9562
:10389000E9F74CCFC8010E94300A8823D1F2EE200C
:1038A000C1F28091E301803238F22091DE01309143
:1038B000DF013A8329831B82DD82CC828E83CE0195
:1038C0000196B8CFE83CF105F8F6FE2CEE2009F29F
:1038D00043131FC092131DC08091E30180FD10C0EF
:1038E000982F907F69F0F8018583903F31F0982FF1
:1038F000907F905F8F70892B8583C8010E9431145F
:1039000086E0F801AEEDB1E001900D928A95E1F705
:103910000DCFC8010E94300A81118ECF8091E30142
:1039200081608093E301C8010E943114FFCEEE2034
:1039300009F48FCFC8010E94300AF82E882309F4B9
:1039400088CF86E0F801AEEDB1E001900D928A9546
:10395000E1F78091DE019091DF010E94240A0E942C
:10396000E61AE4CE81E08E25FBCE1F93CF93DF9342
:10397000CDB7DEB767970FB6F894DEBF0FBECDBFE9
:103980004B8B5C8B6D8B7E8B8F8B61111092170232
:103990001A8A198A85E0FE017396DE011D96019050
:1039A0000D928A95E1F786E0FE013D96DE011796BD
:1039B00001900D928A95E1F7CE0107960E943C1B7B
:1039C000882389F016E0809115029091E401891313
:1039D00049C067960FB6F894DEBF0FBECDBFDF912A
:1039E000CF911F91089586E0FE013796DE01119672
:1039F00001900D928A95E1F78A859B85892B11F3B9
:103A00008F81988589238F3FE9F22091E40130E08E
:103A1000C901019687709927409115024817190628
:103A200071F40E94C50E1092E4011092150286E016
:103A3000EEEDF1E0DF011D928A95E9F7C3CF96E044
:103A4000929FD001939FB00D1124AB51BE4FFE0148
:103A5000319601900D929A95E1F78093E4010E94CE
:103A60008507B0CF819FC00111248B519E4F0E94CA
:103A70003C1B882309F4ADCF8091150290E001969C
:103A800087709927809315029ECF4F925F926F9215
:103A90007F928F929F92AF92BF92CF92DF92EF92DE
:103AA000FF920F931F93CF93DF93CDB7DEB72D9780
:103AB0000FB6F894DEBF0FBECDBF7E0128E0E20E48
:103AC000F11C86E0F70111928A95E9F7A2E6CA2E69
:103AD000A1E0DA2E10E000E0AA24A394B12C8CE639
:103AE000882E81E0982EF60181916F018F3F09F4B5
:103AF00042C0F894E82FE295EF70F0E021A18F70BA
:103B0000250102C0440C551C8A95E2F7C201922F90
:103B1000982B91A392A18095892382A3789400C0C9
:103B2000E8E6F1E0712C31E021912F3F09F46CC0FF
:103B3000A22FA295AF70B0E090968C9190E02F707C
:103B400002C0959587952A95E2F780FD5DC0832F89
:103B5000782A330F8E169F0639F7F6013197808148
:103B60008F3F11F00E94AC0520EA2A95F1F7F7018A
:103B7000E00FF11F70820F5F1F4F0630110509F033
:103B8000B2CF46E050E0B7018DE292E00E942828D3
:103B9000CC24C394009709F4C12C892BB9F186E099
:103BA000FE013896ADE2B2E001900D928A95E1F700
:103BB00081E080931C020E945E1390931B0280930D
:103BC0001A0280911A0290911B020E944F130597CE
:103BD00008F180912D028093420280912E02809301
:103BE000430280912F02809344028091300280939F
:103BF0004502809131028093460280913202809387
:103C0000470210921C0206C080E0A2CF80911C02E5
:103C10008111D7CF0E9498044B015C010E94980447
:103C200000912702109128022091290230912A0246
:103C30002B013C01401A510A620A730A9301820166
:103C4000093813412105310578F0609327027093FC
:103C500028028093290290932A0280910401811105
:103C600003C081E08093040180912302909124029B
:103C7000A0912502B091260224013501481A590A63
:103C80006A0A7B0AD301C2018F359140A105B105B3
:103C900008F446C18092230290922402A092250249
:103CA000B092260208EC10E027E030E0AE014F5F52
:103CB0005F4F60E080ED0E941C270E946B27898186
:103CC000282F30E094E0359527959A95E1F72770F5
:103CD0006AE08F70F82E269FF00C1124F0921D02DE
:103CE0008A81282F30E044E0359527954A95E1F701
:103CF00027708F70E82E269FE00C1124E0921E02A0
:103D00008B81282F30E054E0359527955A95E1F7BF
:103D100023708F70D82E269FD00C1124D0921F02B2
:103D20008D81282F30E074E0359527957A95E1F75D
:103D300027708F70182F269F100D112410932002CA
:103D40008E81282F30E0E4E035952795EA95E1F75C
:103D500023708F70082F269F000D112400932102DD
:103D60008F81282F30E0F4E035952795FA95E1F71B
:103D700023708F70269F800D1124809322028091E2
:103D80000401882309F4E4C08D2D0E948327182F95
:103D900039E060E03D1530F461E0813019F08230A7
:103DA00021F462E080E00E948C0E8D2D46EF149F7E
:103DB000800D112460E08823D9F061E08130C9F0E2
:103DC00062E08230A9F063E0833091F064E08430F7
:103DD00079F065E0853061F066E0863049F067E0B3
:103DE000873031F068E0883019F0893021F469E0DB
:103DF00081E00E948C0E8E2D6AE00E948327182F8E
:103E000082E00E948C0E59E060E05E1590F461E063
:103E1000113079F062E0123061F063E0133049F064
:103E200064E0143031F065E0153019F0163021F4FB
:103E300066E083E00E948C0E8E2D96EF199F800D18
:103E4000112460E08823D9F061E08130C1F062E0A4
:103E50008230A9F063E0833091F064E0843079F03F
:103E600065E0853061F066E0863049F067E08730D4
:103E700031F068E0883021F0893021F469E088E091
:103E80000E948C0E8F2D6AE00E948327182F89E0F4
:103E90000E948C0EE9E060E0EF1590F461E01130D3
:103EA00079F062E0123061F063E0133049F064E0D1
:103EB000143031F065E0153019F0163021F466E069
:103EC0008AE00E948C0E8F2DF6EF1F9F800D11242B
:103ED00060E0882309F4B5C061E0813009F4B1C025
:103EE00062E0823009F4ADC063E0833009F4A9C018
:103EF00064E0843009F4A5C065E0853009F4A1C010
:103F000066E0863009F49DC067E0873009F499C007
:103F100068E0883009F495C069E0893009F491C0FF
:103F20008C2D2D960FB6F894DEBF0FBECDBFDF915E
:103F3000CF911F910F91FF90EF90DF90CF90BF90A6
:103F4000AF909F908F907F906F905F904F9008956B
:103F5000802F0E948327F82E6FE080E00E948C0E55
:103F600060E00A3028F044244394F41004C061E077
:103F700081E00E948C0E26EFF29E000D112460E07D
:103F80000023D9F061E00130C1F062E00230A9F015
:103F900063E0033091F064E0043079F065E00530CF
:103FA00061F066E0063049F067E0073031F068E024
:103FB000083019F0093021F469E082E00E948C0E8B
:103FC000812F6AE00E948327082F83E00E948C0ED5
:103FD0006AE088E00E948C0E60E01A3048F061E0F0
:103FE000013031F062E0023019F0033021F463E077
:103FF00089E00E948C0E36EF039F100D112460E0C3
:104000001123D9F061E01130C1F062E01230A9F063
:1040100063E0133091F064E0143079F065E015301E
:1040200061F066E0163049F067E0173031F068E083
:10403000183019F0193021F469E08AE00E948C0EE2
:104040006FE08BE00E948C0E6BCF1F921FB61F9209
:1040500011248F939F93AF93BF9380915F0681113B
:1040600013C08091600690916106A0916206B091A4
:1040700063064196A11DB11D809360069093610671
:10408000A0936206B0936306BF91AF919F918F9109
:104090001F901FBE1F901895CDB7DEB7AB970FB618
:1040A000F894DEBF0FBECDBF84B7877F84BF0FB645
:1040B000F894A895809160008861809360001092C8
:1040C00060000FBE80E890E00FB6F8948093610026
:1040D000909361000FBE85B7806885BF85B7806803
:1040E00085BF8AEA95E09093BD018093BC010E9450
:1040F000F7020E94C2038091E20084608093E20094
:104100007894809174068823A1F01091E9001F70C3
:104110009091EC00892F817090FD80E8182B10920F
:10412000E9008091E80083FD0E94D00E1F7010937B
:10413000E90082E084BD93E095BD9AEF97BD80933E
:104140006E000E94570A811102C00E94B30902E664
:1041500011E0F8E6EF2EF1E0FF2ED8018D918D01F0
:104160008F3F11F00E94AC05E016F106B1F787E928
:104170000E94AC0584E30E94AC0587E60E94AC0572
:1041800086E60E94AC0586E0E2E4F2E0DF01282F3B
:104190001D922A95E9F7EDE2F2E0DF011D928A9582
:1041A000E9F70E940312811102C00E94991182E076
:1041B00090E00E94352880933B020E94700A909301
:1041C0002C0280932B020E94451DEFE3FCE93197FE
:1041D000F1F700C000000E94451D8091420280FF5F
:1041E00008C06FEF7FEF90E080E00E9467280E9498
:1041F000870483E090E00E9435280E941608809191
:104200003302811133C00E940312811104C00E9445
:1042100099110E947C0E88E090E00E943D286093F6
:1042200054067093550680935606909357066E7FFA
:1042300071F40E947C0E88E090E00E943D2860931B
:1042400054067093550680935606909357060E9425
:10425000FB0410924F028091540680FF04C060E07E
:1042600086950E94CE1381E08093330228E332E0EA
:104270004EE751E0E0E8AE2EE1E0BE2E61E070E0F6
:10428000D5010D915D01802F82958F7090E0FC012A
:10429000A1A10F707B01002E01C0EE0C0A94EAF779
:1042A000FE2DF095AF23FC01A1A3A2A1AE29A2A3EC
:1042B000DA011D91AD01E12FE295EF70F0E0F1A080
:1042C0001F706B01012E01C0CC0C0A94EAF7EC2C94
:1042D000E094EF20E1A2F2A0FC28F2A2DC0190968B
:1042E0008C9190E002C0959587950A95E2F78170D0
:1042F000E0A1F0E002C0F595E7951A95E2F790E0AD
:10430000E0FD92E0892BF90181939F01F2E8AF165D
:10431000F1E0BF0609F0B4CF0E94D12581E2898384
:1043200024E630E041E050E0BE016F5F7F4F80EE59
:104330000E94C8261982F12C04E610E021E030E04A
:10434000AE014F5F5F4F6F2D80EE0E94EF26F3941A
:1043500020E1F212F1CF81E8898324E630E041E0E8
:1043600050E0BE016F5F7F4F80EE0E94C82680EA5A
:10437000898324E630E041E050E0BE016F5F7F4F6B
:1043800080EE0E94C82610E0812F806E898324E68B
:1043900030E041E050E0BE016F5F7F4F80EE0E9451
:1043A000C8266AE081E00E948C0E6BE082E00E94E9
:1043B0008C0E6CE083E00E948C0E6DE088E00E9421
:1043C0008C0E6DE089E00E948C0E60E08AE00E9415
:1043D0008C0E6AE08BE00E948C0E8FEF98EFA5E1C7
:1043E00081509040A040E1F700C000001F5F1730EF
:1043F00059F6BFEFEDE3F9E4B150E040F040E1F7EA
:1044000000C0000085E091E090935C0680935B061D
:1044100078E1272E312C82E492E026E0280F2BA7AA
:104420008091740660E4F62E00E112E1853009F413
:104430005AC10E94451D81110E949804A2E4B2E075
:10444000ECE3F2E010E000E0302F8D9191919817AD
:1044500009F458C1292F282790E0FF24F394422F14
:104460004F2109F44AC199A33AA38F2191E009F49D
:1044700090E09BA30E945E138160782F9DA38CA384
:1044800049A15AA16BA18DA10E94B51CF801E45C61
:10449000FD4F8081F826F08280914F028823D1F170
:1044A00080914E02E0915406E695E81BE0934A02A3
:1044B000823009F03EC1F0E0EF5FFD4FE4910E2F36
:1044C00010E051E6E52E5DE0F52E80914B02882349
:1044D00061F010924B020E945E1390934902809308
:1044E000480210924D0210924C020E945E13E0911D
:1044F0004802F09149028E1B9F0B8F3F9F4750F45B
:10450000E00FF11FF0934902E093480288E492E043
:10451000F701099536E3E32E32E0F32EE4E3F2E00F
:104520004CE7842E41E0942E5AE3452E52E0552E5E
:104530006EE7C62E61E0D62E70E8A72E71E0B72E8A
:1045400028E332E0612CD9011D919D01110F110F5B
:10455000D5014D915D01A42FA295AF70B0E090966A
:104560008C9190E04F7002C0959587954A95E2F73F
:1045700081709927D6016D916D01A62FA295AF701C
:10458000B0E090964C9150E06F7002C05595479501
:104590006A95E2F7BA016170772740FF02C062E0D6
:1045A00070E0862B812BD90111978C93D4014D910A
:1045B0004D01D7019D917D018F70A82FB0E0A459C6
:1045C000BE4F8C91890FD7018E938D01082E000C60
:1045D000990B642F70E0712C861797072CF040819F
:1045E0004F5F40837724739444275527461B570B0E
:1045F000481759072CF04081415040837724739429
:104600000E948F27D8018C93672831964216530653
:1046100009F099CF61100E9498040E94EA049091D9
:104620003A02891721F00E94EA0480933A028091AD
:104630007406843009F0F4CE83E08093E900809121
:10464000E80082FFEDCE8091E80090E085FF06C093
:104650000E941603882309F4D8C091E08091E800F5
:104660008B778093E800992309F4DACEE981E15051
:10467000E33108F043C1F0E0EA5FF64D0C94A32764
:1046800080917406843009F110925F060FB6F89499
:10469000A895209260000FBEF092600083B7817FE2
:1046A000846083BF83B7816083BF7894889583B724
:1046B0008E7F83BF0FB6F894A895809160008861C3
:1046C00080936000109260000FBE80917306882373
:1046D00051F00E94451DE2E4F2E08191811142C255
:1046E0008BA58E13FACF80917406853009F4C8CF5C
:1046F0000E94C50E0E94EA049CCE9F5FFF0C94307E
:1047000009F0ADCE0F5F1F4F0630110509F09CCEAA
:104710008FEF8EA38FA318A60E945E138160782F5F
:104720009AA789A74EA15FA168A58AA50E94B51C7A
:10473000B3CE863059F4F0E0E250FE4FE4910E2FF4
:1047400010E041E5E42E4DE0F42EBFCE893061F457
:10475000E695F0E0E550FE4FE4910E2F10E03DEBC2
:10476000E32E3CE0F32EB1CE8F3061F4E695F0E01D
:10477000E850FE4FE4910E2F10E02EE5E22E2CE0E3
:10478000F22EA3CE853159F4F0E0EB50FE4FE491C8
:104790000E2F10E090E1E92E9CE0F92E96CE08E273
:1047A00010E0A7E8EA2EABE0FA2E883109F48DCEAE
:1047B000833249F4E3EFF1E00591149188EFE82E9C
:1047C0008CE0F82E82CE04EF11E0FEE4EF2EFBE049
:1047D000FF2E843209F479CE853281F48E2F63E086
:1047E0000E948327E92FF0E0E051FE4FE4910E2F65
:1047F00010E0B3EBEB2EBAE0FB2E67CE00ED17E036
:10480000E2E8EE2EE4E0FE2E60CE00E210E0FE01D3
:1048100031967F018091E80085FD0AC08091E80013
:104820008B778093E8000E941603882399F315CFB5
:104830008091F100D7018D937D010150110951F74D
:104840000CCF1A8289E08B8324C08A81823009F4DC
:104850009FC1833061F0813009F050C00E949804FC
:104860000E94A9276B837C838D839E8312C08091D5
:1048700042028B83809143028C83809144028D831A
:10488000809145028E83809146028F8380914702FA
:10489000888780917406843009F0C2CD1091E900B8
:1048A0001F709091EC00892F817090FD80E8182B8B
:1048B00082E08093E9008091E80080FF0DC050E025
:1048C00040E060E270E0CE0101960E9447038091D3
:1048D000E8008E778093E8001F701093E900A0CD68
:1048E0008A81823059F46B817C818D819E810E9406
:1048F000A92786E290E00E944928CBCF8FEF8983D9
:10490000C8CF4C816B818A810E94C2099827892770
:1049100098279E838D83BDCFED80FE80FE24EF24FB
:10492000FE248A810B81B8E00B9F80011124E0E313
:104930008E9F000D111D11248C8190E0880F991F0E
:10494000080F191F6F2DC80187960E9449286E2DE8
:10495000C8018896D0CF0E9449099BCF8A818138AF
:10496000C1F060F4803809F094CF20E04B81609171
:104970005606809155060E94870D8BCF823859F1DB
:10498000833809F086CF20E0409157066C818B81F7
:10499000F2CF60E08B810E94CE139B818091540600
:1049A000911111C08E7F8093540610924F02FFEF39
:1049B00020E782E0F15020408040E1F700C0000095
:1049C0000E947E0A66CF81608093540660E08695DF
:1049D0000E94CE135ECF8B81809358065ACF8A8176
:1049E000813899F030F4803809F053CF8091570620
:1049F0002ACF823891F0833809F04BCF8091550649
:104A00008B83809156068C8344CF8091540680FF1F
:104A100002C0869518CF80E016CF8091580613CF3C
:104A200060915406709155068091560690915706F4
:104A30000E94750D2ECF80E18A832BCF83E08A837D
:104A400089E101CF0A811B81102701271027DE0190
:104A500011967D01CC80FD01EC0DF11D6F01C801A7
:104A600089519F4FCE14DF0409F413CF0931F3E0CD
:104A70001F0758F40E943528D70114968C930F5FB6
:104A80001F4FFFEFEF1AFF0AEACFF7011482F7CFAB
:104A90000A811B81102701271027CE0101966C0186
:104AA000EC80E00EF12EF11CC80189519F4FE016F9
:104AB000F10609F4EECE0931A3E01A0720F4F6015D
:104AC00064810E944928FFEFCF1ADF0A0F5F1F4F52
:104AD000EBCF0E943909DDCE84E0AECF0A811B8185
:104AE000102701271027CE0101967C01CC80DC0124
:104AF000AC0DB11D6D01C8018796CE14DF0409F419
:104B0000C8CE003C110550F40E943528F70184837B
:104B10000F5F1F4FBFEFEB1AFB0AEDCFD7011496C3
:104B20001C92F6CF0A811B81102701271027FE0156
:104B300031966F01EC80E00EF12EF11CC8018796D2
:104B4000E016F10609F4A5CE003C110528F4D601C3
:104B500014966C910E944928BFEFCB1ADB0A0F5FB5
:104B60001F4FECCF09BD19BD09B400FEFDCF8091E8
:104B7000D8008F7D8093D8008091E0008260809380
:104B8000E0008091E00081FDFCCF0E94C50EABCD1E
:104B900086E290E00E9435281B821C821D828E8353
:104BA00078CE1092B9008CE08093B80008959F925F
:104BB000AF92BF92CF92DF92EF92FF920F931F932B
:104BC000CF93DF93B82EEB010E945E136C01EE24AD
:104BD000E394F12CC431D10560F025E0E22EF12CF4
:104BE000CF3FDC0731F0CE0164E170E00E946F2717
:104BF0007B0184EAA82E94E8992E1092BC00A09222
:104C0000BC000E945E138C018091BC0087FF0DC028
:104C10008091B900887F883039F18091B900887F10
:104C2000803111F10FEF1FEF09C00E945E13801B4E
:104C3000910B8E159F0540F30EEF1FEFCF3FDC0762
:104C4000E1F2C6010E944F138C179D07B0F2C80114
:104C5000DF91CF911F910F91FF90EF90DF90CF9058
:104C6000BF90AF909F900895B092BB009092BC000F
:104C70000E945E138C018091BC0087FF0AC0809166
:104C8000B900887F883111F0803461F610E000E0CF
:104C9000DECF0E945E13801B910B8E159F0558F38B
:104CA000CBCF0F931F93CF93DF93EB018093BB0088
:104CB00084E88093BC000E945E138C018091BC004C
:104CC00087FF11C02091B900287F81E090E0283251
:104CD00011F490E080E0919581959109DF91CF9159
:104CE0001F910F910895CF3FDC0741F30E945E139F
:104CF000801B910B8C179D0708F38EEF9FEFEECF73
:104D00000F931F93CF93DF93EC0184EC8093BC004F
:104D10000E945E138C018091BC0087FF08C08091C7
:104D2000BB0090E0DF91CF911F910F910895CF3F8D
:104D3000DC0789F30E945E13801B910B8C179D0783
:104D400050F38EEF9FEFEECF0F931F93CF93DF9330
:104D5000EC0184E88093BC000E945E138C0180917A
:104D6000BC0087FF08C08091BB0090E0DF91CF912D
:104D70001F910F910895CF3FDC0789F30E945E13C6
:104D8000801B910B8C179D0750F38EEF9FEFEECF9A
:104D9000CF92DF92EF92FF920F931F93CF93DF9307
:104DA0006B018A017901B9010E94D725E6010C0D3A
:104DB0001D1DC017D10761F424E92093BC00DF91C9
:104DC000CF911F910F91FF90EF90DF90CF900895BA
:104DD00097FDF2CFB70189910E945126EACFCF9279
:104DE000DF92EF92FF920F931F93CF93DF93C62F23
:104DF0006A017901B8010E94D72597FD0CC0B8015E
:104E00008C2F0E945126E601EC0CFD1CCE15DF050F
:104E100011F097FF0CC024E92093BC00DF91CF91E3
:104E20001F910F91FF90EF90DF90CF900895B80100
:104E300089910E945126EACFCF92DF92EF92FF92A2
:104E40000F931F93CF93DF93F82EE62EEA016901AB
:104E5000B8010E94D72597FD15C0B8018E2D0E947C
:104E6000512697FD0FC0B8018F2D81600E94D72574
:104E7000F12CE12C21E0C21AD108EC14FD0400F55C
:104E800097FF11C024E92093BC001816190614F4EA
:104E900090E080E0DF91CF911F910F91FF90EF9014
:104EA000DF90CF900895C8010E94802697FD04C02E
:104EB000FE01EE0DFF1D80832FEFE21AF20ADDCF17
:104EC00097FDE0CFC8010E94A42697FDDBCFCC0D53
:104ED000DD1D8883D7CF84E98093BC000895AA1B89
:104EE000BB1B51E107C0AA1FBB1FA617B70710F0D5
:104EF000A61BB70B881F991F5A95A9F78095909507
:104F0000BC01CD010895991B79E004C0991F961743
:104F100008F0961B881F7A95C9F78095089597FB2E
:104F2000072E16F4009407D077FD09D00E946F2752
:104F300007FC05D03EF4909581959F4F089570959C
:104F400061957F4F0895EE0FFF1F0590F491E02DBE
:104F5000099469279627692778278727782708954E
:104F60000E94D128332312F48A1B9B0B0C94BA277E
:104F70000E94D128B7FF0895821B930B08958F924A
:104F80009F92AF92BF92CF92DF92EF92FF92CF9318
:104F9000DF93EC01688179818A819B8161157105BC
:104FA0008105910521F464E279ED8BE597E02DE12F
:104FB00033EF41E050E00E947D2849015A019B01F6
:104FC000AC01A7EAB1E40E949C286B017C01ACEE25
:104FD000B4EFA50194010E94AA28DC01CB018C0D3D
:104FE0009D1DAE1DBF1DB7FF03C00197A109B048AD
:104FF00088839983AA83BB839F77DF91CF91FF90AA
:10500000EF90DF90CF90BF90AF909F908F900895DA
:105010000E94BF27089580E091E00E94BF27089575
:10502000B0E0A0E08093000190930101A093020101
:10503000B09303010895FC014150504030F00190BD
:105040000616D1F73197CF0108958827992708953B
:10505000FB01DC0104C08D910190801921F44150C5
:105060005040C8F7881B990B0895F999FECF92BD5F
:1050700081BDF89A992780B50895A6E1B0E044E093
:1050800050E00C946F28A8E1B0E042E050E00C94AE
:105090006F28262FF999FECF92BD81BDF89A01970E
:1050A00000B4021639F01FBA20BD0FB6F894FA9A70
:1050B000F99A0FBE08950396272F0E944A280E944E
:1050C0004928252F0E944A28242F0C944A2801960B
:1050D000272F0E944A280C944928DC01CB01FC01AF
:1050E000F999FECF06C0F2BDE1BDF89A319600B441
:1050F0000D9241505040B8F70895052E97FB1EF4CD
:1051000000940E94942857FD07D00E94AF2807FC06
:1051100003D04EF40C9494285095409530952195E9
:105120003F4F4F4F5F4F08959095809570956195D3
:105130007F4F8F4F9F4F08950E94D128A59F900DBC
:10514000B49F900DA49F800D911D11240895B7FF69
:105150000C949C280E949C28821B930B0895A1E22A
:105160001A2EAA1BBB1BFD010DC0AA1FBB1FEE1FE1
:10517000FF1FA217B307E407F50720F0A21BB30B2C
:10518000E40BF50B661F771F881F991F1A9469F7A8
:1051900060957095809590959B01AC01BD01CF0104
:1051A0000895A29FB001B39FC001A39F700D811D00
:1051B0001124911DB29F700D811D1124911D089520
:1051C000F894FFCF420A420A4B0A4B0A4D0A4B0A97
:1051D0004B0A4B0A420A420A520A4B0A4B0A520A2B
:1051E000B60FDE0F8111DE0F811111103210811107
:1051F00030113D11DE18DE18221922195319111928
:10520000111911196D19DE19EE19EE192124252431
:10521000702481248C24AB24AE24EF2410257E241A
:105220007E241B251E252225482569256C256E25F3
:025230009225C5
:1052320001000000018404EF088304EB08E7088101
:105242000401191A1B1C1D1E1F202122010201012B
:105252003F065B4F666D7D077F6F407679387380BE
:1052620000818283E200E900EA00B500B600B700DF
:10527200CD008301CC008A01920194012102230214
:1052820024022502260227022A02B300B4006F007C
:105292007000969495C636FF9734676600FF01004A
:1052A200010000FFFF0000010001FF000404F6F707
:1052B200F4F50001020202020606060909090909BB
:1052C200090F0F0F0F0F0F151515181919191919A5
:1052D2001919191919232425252525252540223296
:0C52E2000001DE00AC00DC04F504150542
:00000001FF
