:100000000C94CF020C9416030C9416030C94160354
:100010000C9416030C9416030C9416030C941603FC
:100020000C9416030C9416030C94B01A0C946C1ACE
:100030000C948C2E0C9416030C9416030C9416033B
:100040000C9416030C9416030C9416030C941603CC
:100050000C9416030C94CB1B0C9416030C941603EF
:100060000C9416030C9416030C9416030C941603AC
:100070000C9416030C9416030C9416030C9416039C
:100080000C9416030C9416030C9416030C9416038C
:100090000C9416030C9416030C9416030C9416037C
:1000A0000C9416030C9416030C9416030631FF09E6
:1000B00074A1010975150026FF00952075088102BD
:1000C0000976150026FF00952075089102C00501EC
:1000D0000980A101850319012AB700150126B7007F
:1000E000950175108100C0050C0901A10185041955
:1000F000012AA002150126A002950175108100C0F9
:100100000660FF0961A1010962150026FF00952024
:10011000750881020963150026FF00952075089176
:1001200002C005010906A101050719E029E715002C
:100130002501950875018102950175088101050762
:10014000190029FF150026FF009506750881000596
:10015000081901290595057501910295017503910D
:1001600001C00000000000000000000000000000CE
:10017000000000000000000000000000000000007F
:100180000000000000007E0F00D4FFFFFFC700004A
:10019000007800000000000000002A2B280000006A
:1001A0000000000000000000000000000029000026
:1001B00000002C1E3420212224342627252E362D03
:1001C0003738271E1F202122232425263333362E9D
:1001D00037381F0405060708090A0B0C0D0E0F100F
:1001E0001112131415161718191A1B1C1D2F313054
:1001F000232D350405060708090A0B0C0D0E0F10F8
:100200001112131415161718191A1B1C1D2F313033
:10021000354C1E0F0500047F3F1F643214643214F6
:10022000783C1E1E140A05000101010101010101B3
:100230000102020202020202020203030303030399
:100240000303040404040404040505050505060667
:100250000606060707070707080808080909090925
:100260000A0A0A0B0B0B0C0C0C0D0D0D0E0E0E0FCB
:100270000F0F10101111111212131314141515165B
:10028000161717181819191A1A1B1B1C1D1D1E1ECC
:100290001F2020212222232424252626272829291D
:1002A0002A2B2C2D2D2E2F30313232333435363748
:1002B00038393A3B3C3D3E3F404142434445464746
:1002C00048494A4C4D4E4F50515354555658595A1F
:1002D0005B5D5E5F616264656668696B6C6D6F70C3
:1002E00072737577787A7B7D7E8082838587888A32
:1002F0008C8E8F91939596989A9C9EA0A2A3A5A769
:10030000A9ABADAFB1B3B5B7BABCBEC0C2C4C6C964
:10031000CBCDCFD1D4D6D8DBDDDFE2E4E7E9EBEE1D
:10032000F0F3F5F8FAFDFFFFAA7F554022232526BA
:1003300028292A2C2D2F3032333536383A3B3D3E92
:100340004042434547494A4C4E5051535557595ADC
:100350005C5E6062646668696B6D6F7173757779F6
:100360007B7D7F81838587898A8C8E9092949698F5
:100370009A9C9E9FA1A3A5A7A8AAACAEAFB1B3B407
:10038000B6B8B9BBBCBEBFC1C2C3C5C6C7C9CACB5C
:10039000CCCDCED0D1D2D2D3D4D5D6D7D7D8D9D927
:1003A000DADADBDBDBDCDCDCDCDCDDDDDDDDDCDC90
:1003B000DCDCDCDBDBDBDADAD9D9D8D7D7D6D5D4AD
:1003C000D3D2D2D1D0CECDCCCBCAC9C7C6C5C3C279
:1003D000C1BFBEBCBBB9B8B6B4B3B1AFAEACAAA8CE
:1003E000A7A5A3A19F9E9C9A98969492908E8C8A82
:1003F00089878583817F7D7B79777573716F6D6B5D
:100400006968666462605E5C5A5957555351504E34
:100410004C4A4947454342403E3D3B3A38363533E6
:1004200032302F2D2C2A292826252322AB005D5D72
:10043000CD5CAE002400250026002A4121002200C8
:10044000230000001E001F002000280027003700A6
:1004500000000000CA5CC95CAA00A9007300540037
:10046000550056004A0052004B0057005000510002
:100470004F0000004D0000004E00280000004C001E
:10048000000000000000000000000000000000006C
:10049000000000000000000000000000000000005C
:1004A000000000000000000000000000000000004C
:1004B000000000000000000000000000000000003C
:1004C000000000000000000000000000000000002C
:1004D000000000000000000000000000000000001C
:1004E00000000000000000000000000009027B0086
:1004F000040100A0FA090400000103010100092120
:10050000110100012240000705810308000A0904C7
:100510000100020300000009211101000122220054
:1005200007058203200001070503032000010904D9
:100530000200010300000009211101000122320024
:100540000705840320000A090403000203000000D9
:100550000921110100012222000705850320000165
:10056000070505032000011201000200000008ED4C
:10057000FE268A0100010200010E036E006F007763
:100580000070006100640000000E0355004E005230
:1005900000450041004C0000000403090400112440
:1005A0001FBECFEFDAE0DEBFCDBF04B603FE27C02B
:1005B00080918F0690919006A0919106B09192063D
:1005C0008730904BA740B04BD1F410928F06109219
:1005D0009006109291061092920614BE84B7877FFF
:1005E00084BF0FB6F894A8958091600088618093CD
:1005F0006000109260000FBEE0E0F8E3099526E08D
:10060000A4ECB1E001C01D92AF38B207E1F711E0F0
:10061000A0E0B1E0E2EFFEE602C005900D92A43C3E
:10062000B107D9F70E94B32E0C9440370C94000008
:10063000E8EDF0E080818E7F80831092E2001092DE
:10064000DA001092E100A0EEB0E08C9181608C9312
:1006500080818F77808319BCA7EDB0E08C918E7F6D
:100660008C9380818F7E80831092740608952091F0
:10067000E4003091E50095E6A9012091EC00822F7D
:10068000817020FF06C08091E80080FF06C080E0F6
:1006900008952091E80022FD1AC0809181068823E8
:1006A00089F0853089F08091EB0085FD0FC02091A5
:1006B000E4003091E50042175307F9F29150E1F65A
:1006C00084E0089582E0089583E0089581E008952C
:1006D000EF92FF920F931F93CF937C018B010E94A7
:1006E0003703C82F811117C08091E80085FD0BC02A
:1006F0008091E8008E778093E8000E94370388237A
:1007000099F3C82F08C0F70181917F018093F10010
:100710000150110949F78C2FCF911F910F91FF9034
:10072000EF9008958091830687FF13C08091E800C1
:1007300082FF06C08091E8008B778093E80004C0B8
:10074000809181068111F2CF0895809181068823DE
:10075000D9F38091E80080FFF8CF8091E8008E7790
:10076000ECCF982F9093E900242F762F50E0891733
:1007700031F07091EC002091ED005091F00021FDDE
:1007800007C09F5F973071F78093E90081E008957B
:100790003091EB003E7F3093EB003091ED003D7FD8
:1007A0003093ED003091EB0031603093EB007093AB
:1007B000EC002093ED005093F0002091EE0027FD17
:1007C000E0CF80E00895CF92DF92EF92FF920F93F7
:1007D0001F93CF93DF93C8EDD0E088818F7E88830D
:1007E000E7EDF0E080818160808384E082BF81E07A
:1007F0008093740688818E7F888302EE10E0F80172
:1008000010821092DA0081EEC82ED12CF6011082EF
:1008100088818F77888388818068888388818F7DAD
:10082000888319BC1092810610928206109280066D
:1008300010927F0690EEE92EF12CF70180818B7FDC
:10084000808388818160888342E060E080E00E944C
:10085000B103F60180818E7F8083F8018081816001
:100860008083808188608083F70180818E7F808390
:10087000888180618883DF91CF911F910F91FF90D4
:10088000EF90DF90CF900895FC01809189069091C0
:100890008A0686179707A0F06115710529F49091D3
:1008A000E8009E779093E80090E06115710551F49F
:1008B000911108C08091E80082FF34C080E0089563
:1008C000BC01F2CF809181068823C1F18530C1F14E
:1008D0008091E80083FD30C08091E80082FDEACF7E
:1008E0008091E80080FFE1CF8091F3002091F20039
:1008F000382F6115710519F02830310558F091E055
:100900002830310509F090E02091E8002E772093FF
:10091000E800CBCF81918093F100615071092F5F86
:100920003F4FE7CF80918106882341F0853041F029
:100930008091E80083FFBECF81E0089582E00895B2
:1009400083E00895089508950895809176060895A6
:1009500087E797E7909301088093000888E19AE081
:100960000FB6F894A895809360000FBE9093600036
:10097000FFCF2FB7F89460916A0670916B06809153
:100980006C0690916D062FBF0895209167063091F7
:1009900068062817390771F09093680680936706F8
:1009A000E0916506F0916606309721F00084F185AC
:1009B000E02D09940895209163063091640628176C
:1009C000390771F09093640680936306E0916506A1
:1009D000F0916606309721F00680F781E02D0994AA
:1009E0000895E0916506F0916606309721F0019038
:1009F000F081E02D099480E00895FA01811101C091
:100A0000FB01099480915E06982F9E7F61F48170AE
:100A1000826080935E06809161068F3618F08EE6C4
:100A20008093610608958635B0F381708465F1CFB7
:100A3000AF92BF92DF92EF92FF920F931F93CF93EB
:100A4000DF93182F062FE9014F3608F04EE6E42F0A
:100A5000F0E0E95DFD4F011110C0E4915E2F4E2FD3
:100A60004983E8835A83DF91CF911F910F91FF90C3
:100A7000EF90DF90BF90AF900895202F30E0449129
:100A8000D42EE42EF12C56E0159FC0011124EFEF77
:100A9000F0E0BF010E94CF35812F90E0880F991FB1
:100AA00055E5569FD001579FB00D11248A1B9B0B13
:100AB000982F990F890F5F01A21AB30AAE9CD0013B
:100AC000AF9CB00DBE9CB00D11245B2F089F800120
:100AD0001124012F11275F01A01AB10AAE9C8001D9
:100AE000AF9C100DBE9C100D11245F01A81AB10817
:100AF000A29EC001A39E900DB29E900D1124892F3D
:100B00009927E81BF90BEE9DC001EF9D900DFE9D0E
:100B1000900D1124E92F62307105A1F050F4611598
:100B2000710509F49DCF6130710581F0EB2F512FD4
:100B300097CF6430710569F080F06630710509F473
:100B40008FCFF4CFE42F4B2F592F8ACFE42F412F93
:100B500087CFEB2F542F492F83CF4B2F5D2DE12FC4
:100B60007FCFF894E82FE295EF70F0E031A1282FC5
:100B70002F7081E090E001C0880F2A95EAF7982F46
:100B80009095932391A392A1892B82A378940895A1
:100B900090912B0292FF06C0282F28712830F9F47B
:100BA000877F846093FF06C0282F28712831F1F4D5
:100BB000877E846120912C0220FF06C0382F387177
:100BC0003830D9F4877F816021FF06C0282F287133
:100BD0002831D1F4877E816194FD877E0895282F86
:100BE00024712430F9F68B7F8860DCCF282F2471A4
:100BF000243101F78B7E8861DDCF382F31713130A0
:100C000019F78E7F8860E0CF282F2171213121F7DD
:100C10008E7E8861E1CFCF93DF93EC01823891051E
:100C200081F1B0F58133910509F491C020F5893245
:100C3000910509F485C08A9709F490C0C11521E592
:100C4000D20708F0AAC0C11530E5D30708F0F2C0FA
:100C5000CF3BD10508F089C0C83AD10508F0DFC004
:100C6000C53AD10508F0D3C0C430D105F8F4C1307D
:100C7000D105E1F040C08533910509F45AC0C99708
:100C8000E9F680912B02837089F0C0EED0E00EC0AF
:100C9000833E910599F170F4803E910501F1823E09
:100CA000910561F680912B0282FD21C0CE01DF917A
:100CB000CF910895863E910561F1873E910571F1CE
:100CC000843E910509F0BACF80912C0281FFEECFCE
:100CD00080912B02C7EED0E084FD0DC0E7CF80915C
:100CE0002B0280FDF7C090912C0290FFDFCFC3EE66
:100CF000D0E084FFDBCFD0E0C0E0D8CF80912B02E2
:100D000082FDEBC090912C0290FDBFCF84FFCECF2F
:100D1000F2CF80912B0283FDDDCFC8CF80912B02D3
:100D200083FDDEC090912C0291FFF0CFC4EED0E0A5
:100D3000BDCF80912B0285FFB9CFC9E2D0E0B6CFFD
:100D400080912B0285FFB2CFC5E3D0E0AFCF809179
:100D50002B0286FFABCFCAE2D0E0A8CF80912B0256
:100D600086FFA4CFC1E3D0E0A1CFC11540E2D407F4
:100D700060F4C11581E0D80708F098CFCE01815EFC
:100D80009109079708F492CFB6CFC11590E4D9071F
:100D900008F4B1CFDF70D06A89CFC11524E5D2073E
:100DA00078F4C11533E5D30708F072C0C11542E5E8
:100DB000D40708F05CC0DC2FCC27C16FD06A76CF97
:100DC000C1158AE5D80778F4C11599E5D90708F067
:100DD00073C0C11528E5D20708F48DCFDC2FCC27CE
:100DE000C06FD06A63CFCE0190568115904208F053
:100DF00082CF8D2F8F710E94C80590E0982F882791
:100E000088279F719C012C2BE901D0624FCFC55AD6
:100E1000D0E0CD5CDE4FC881D0E0D06447CFC85A67
:100E2000D0E0CC0FDD1FCA5CDE4F0990D881C02D09
:100E3000D4643CCFCE0164E0969587956A95E1F73E
:100E400083702C2F26952695237040E2249F9001D5
:100E50001124382B8C2F8370C1E0D0E002C0CC0F5E
:100E6000DD1F8A95E2F7C22BD32BDC681FCFCE01A2
:100E70008370992721E030E002C0220F331F8A954A
:100E8000E2F7C695C69580E2C89FE0011124EBCF3A
:100E9000CE018370992721E030E002C0220F331F7A
:100EA0008A95E2F7C695C69590E2C99FE0011124A4
:100EB000C22BD32BDA68FACE8C2F8F700E94C80514
:100EC00034E0D695C7953A95E1F7CF709C2FEC01A9
:100ED000D069ECCEC9E3D0E0E9CEC2EED0E0E6CEF8
:100EE000C6EED0E0E3CE8091200290911F02892BC4
:100EF00090911E02892B8093C601E0916506F091C6
:100F00006606309731F00280F381E02D86EC91E0A7
:100F100009940895E8ECF1E09191891303C0DF0191
:100F200011971C9291E0EE3CF907B1F70895A8ECF7
:100F3000B1E0EFEF90E02D91821751F0EF3F19F4FF
:100F4000211101C0E92F9F5F9630A9F7EF3F09F407
:100F500008950E2E000CFF0BEA53FE4F8283089576
:100F600080911D029091EC01981301C008958F5F4C
:100F70008770FACF990F990F890F982F97708695E0
:100F80008695869523E0829FF0011124E352FE4F5F
:100F900050E040E080E0219130E0092E02C036951B
:100FA00027950A94E2F721703327042E01C0220FFF
:100FB0000A94EAF7822B4F5F5F4F4330510559F790
:100FC0000895990F990F890F982F977041E001C0EC
:100FD000440F9A95EAF786958695869593E0899FC2
:100FE000F0011124E352FE4F30E020E070E0519117
:100FF000DF011197CB01022E02C0969587950A94C6
:10100000E2F7817081958527842385278C932F5F54
:101010003F4F2330310559F7089590E080E00E945A
:10102000DB0490E080E00E94C50410921F02109241
:101030001E020C947307809321020C940D088823E0
:1010400041F08095909120028923809320020C9496
:1010500073070895882339F090912002982B90937C
:1010600020020C9473070895882309F452C0823833
:1010700071F40E94F10481FF4CC089E30E9497073C
:101080000E94730789E30E948A070C9473078338D0
:1010900059F40E94F10480FF3CC083E50E94970749
:1010A0000E94730783E5EFCF843859F40E94F1045E
:1010B00082FF2FC087E40E9497070E94730787E48E
:1010C000E2CF9CEF980F913AF0F290E2980F9830AF
:1010D00088F4877021E030E0A90102C0440F551F59
:1010E0008A95E2F7CA018095909120028923809326
:1010F0002002CBCF9BE5980F933020F490E080E066
:101100000C94DB04885A873120F490E080E00C9442
:10111000C5040895CF93DF9393E0899FE0011124E4
:101120009E01225A3D4F40E060E080E00E94180599
:101130009E012F593D4F40E060E080E00E9418057D
:101140009E012C593D4F40E060E080E00E94180570
:101150009E0122573D4F4FEF6FEF85E50E94180526
:101160009E012F563D4F4FEF6FEF85E50E9418050A
:101170009E012C563D4F4FEF6FEF85E50E941805FD
:101180009E0122543D4F4FEF6FEF85E50E941805F9
:101190009E012F533D4F40E060E080E00E94180523
:1011A0009E012C533D4F4FEF6FEF85E50E941805D0
:1011B0009E0122513D4F4FEF6FEF85E50E941805CC
:1011C0009E012F503D4F4FEF6FEF85E50E941805B0
:1011D0009E012C503D4F4FEF6FEF85E50E941805A3
:1011E0009E01225E3C4F40E060E080E00E941805D6
:1011F0009E012F5D3C4F40E060E080E00E941805BA
:101200009E012C5D3C4F4FEF6FEF85E50E94180566
:101210009E01225B3C4F40E060E080E00E941805A8
:101220009E012F5A3C4F40E060E080E00E9418058C
:101230009E012C5A3C4F4FEF6FEF85E50E94180539
:101240009E0122583C4F40E060E080E00E9418057B
:101250009E012F573C4F40E060E080E00E9418055F
:101260009E012C573C4F4FEF6FEF85E50E9418050C
:101270009E0122553C4F40E060E080E00E9418054E
:101280009E012F543C4F40E060E080E00E94180532
:101290009E012C543C4F40E060E080E0DF91CF9114
:1012A0000C941805CF93DF9393E0899FE0011124FC
:1012B0009E01225A3D4F40E060E080E00E94180508
:1012C0009E012F593D4F40E060E080E00E941805EC
:1012D0009E012C593D4F40E060E080E00E941805DF
:1012E0009E0122573D4F40E060E080E00E941805DB
:1012F0009E012F563D4F4FEF6FEF85E50E94180579
:101300009E012C563D4F40E060E080E00E941805B1
:101310009E0122543D4F4FEF6FEF85E50E94180567
:101320009E012F533D4F40E060E080E00E94180591
:101330009E012C533D4F4FEF6FEF85E50E9418053E
:101340009E0122513D4F40E060E080E00E94180580
:101350009E012F503D4F4FEF6FEF85E50E9418051E
:101360009E012C503D4F40E060E080E00E94180557
:101370009E01225E3C4F4FEF6FEF85E50E941805FE
:101380009E012F5D3C4F40E060E080E00E94180528
:101390009E012C5D3C4F4FEF6FEF85E50E941805D5
:1013A0009E01225B3C4F4FEF6FEF85E50E941805D1
:1013B0009E012F5A3C4F40E060E080E00E941805FB
:1013C0009E012C5A3C4F4FEF6FEF85E50E941805A8
:1013D0009E0122583C4F40E060E080E00E941805EA
:1013E0009E012F573C4F4FEF6FEF85E50E94180588
:1013F0009E012C573C4F40E060E080E00E941805C1
:101400009E0122553C4F40E060E080E00E941805BC
:101410009E012F543C4F40E060E080E00E941805A0
:101420009E012C543C4F40E060E080E0DF91CF9182
:101430000C941805CF93DF9393E0899FE00111246A
:101440009E01225A3D4F40E060E080E00E94180576
:101450009E012F593D4F40E060E080E00E9418055A
:101460009E012C593D4F40E060E080E00E9418054D
:101470009E0122573D4F4FEF6FEF85E50E94180503
:101480009E012F563D4F4FEF6FEF85E50E941805E7
:101490009E012C563D4F4FEF6FEF85E50E941805DA
:1014A0009E0122543D4F40E060E080E00E9418051C
:1014B0009E012F533D4F40E060E080E00E94180500
:1014C0009E012C533D4F4FEF6FEF85E50E941805AD
:1014D0009E0122513D4F40E060E080E00E941805EF
:1014E0009E012F503D4F40E060E080E00E941805D3
:1014F0009E012C503D4F4FEF6FEF85E50E94180580
:101500009E01225E3C4F40E060E080E00E941805B2
:101510009E012F5D3C4F4FEF6FEF85E50E94180550
:101520009E012C5D3C4F40E060E080E00E94180589
:101530009E01225B3C4F40E060E080E00E94180585
:101540009E012F5A3C4F4FEF6FEF85E50E94180523
:101550009E012C5A3C4F40E060E080E00E9418055C
:101560009E0122583C4F40E060E080E00E94180558
:101570009E012F573C4F4FEF6FEF85E50E941805F6
:101580009E012C573C4F40E060E080E00E9418052F
:101590009E0122553C4F40E060E080E00E9418052B
:1015A0009E012F543C4F40E060E080E00E9418050F
:1015B0009E012C543C4F40E060E080E0DF91CF91F1
:1015C0000C941805CF93DF9393E0899FE0011124D9
:1015D0009E01225A3D4F40E060E080E00E941805E5
:1015E0009E012F593D4F40E060E080E00E941805C9
:1015F0009E012C593D4F40E060E080E00E941805BC
:101600009E0122573D4F40E060E080E00E941805B7
:101610009E012F563D4F4FEF6FEF85E50E94180555
:101620009E012C563D4F4FEF6FEF85E50E94180548
:101630009E0122543D4F4FEF6FEF85E50E94180544
:101640009E012F533D4F40E060E080E00E9418056E
:101650009E012C533D4F40E060E080E00E94180561
:101660009E0122513D4F4FEF6FEF85E50E94180517
:101670009E012F503D4F4FEF6FEF85E50E941805FB
:101680009E012C503D4F40E060E080E00E94180534
:101690009E01225E3C4F4FEF6FEF85E50E941805DB
:1016A0009E012F5D3C4F40E060E080E00E94180505
:1016B0009E012C5D3C4F4FEF6FEF85E50E941805B2
:1016C0009E01225B3C4F4FEF6FEF85E50E941805AE
:1016D0009E012F5A3C4F40E060E080E00E941805D8
:1016E0009E012C5A3C4F4FEF6FEF85E50E94180585
:1016F0009E0122583C4F40E060E080E00E941805C7
:101700009E012F573C4F4FEF6FEF85E50E94180564
:101710009E012C573C4F40E060E080E00E9418059D
:101720009E0122553C4F40E060E080E00E94180599
:101730009E012F543C4F40E060E080E00E9418057D
:101740009E012C543C4F40E060E080E0DF91CF915F
:101750000C941805CF93DF9393E0899FE001112447
:101760009E01225A3D4F40E060E080E00E94180553
:101770009E012F593D4F40E060E080E00E94180537
:101780009E012C593D4F40E060E080E00E9418052A
:101790009E0122573D4F4FEF6FEF85E50E941805E0
:1017A0009E012F563D4F4FEF6FEF85E50E941805C4
:1017B0009E012C563D4F4FEF6FEF85E50E941805B7
:1017C0009E0122543D4F4FEF6FEF85E50E941805B3
:1017D0009E012F533D4F40E060E080E00E941805DD
:1017E0009E012C533D4F40E060E080E00E941805D0
:1017F0009E0122513D4F4FEF6FEF85E50E94180586
:101800009E012F503D4F4FEF6FEF85E50E94180569
:101810009E012C503D4F40E060E080E00E941805A2
:101820009E01225E3C4F40E060E080E00E9418058F
:101830009E012F5D3C4F40E060E080E00E94180573
:101840009E012C5D3C4F4FEF6FEF85E50E94180520
:101850009E01225B3C4F40E060E080E00E94180562
:101860009E012F5A3C4F40E060E080E00E94180546
:101870009E012C5A3C4F4FEF6FEF85E50E941805F3
:101880009E0122583C4F4FEF6FEF85E50E941805EF
:101890009E012F573C4F4FEF6FEF85E50E941805D3
:1018A0009E012C573C4F40E060E080E00E9418050C
:1018B0009E0122553C4F40E060E080E00E94180508
:1018C0009E012F543C4F40E060E080E00E941805EC
:1018D0009E012C543C4F40E060E080E0DF91CF91CE
:1018E0000C941805CF93DF9393E0899FE0011124B6
:1018F0009E01225A3D4F40E060E080E00E941805C2
:101900009E012F593D4F40E060E080E00E941805A5
:101910009E012C593D4F40E060E080E00E94180598
:101920009E0122573D4F4FEF6FEF85E50E9418054E
:101930009E012F563D4F40E060E080E00E94180578
:101940009E012C563D4F4FEF6FEF85E50E94180525
:101950009E0122543D4F4FEF6FEF85E50E94180521
:101960009E012F533D4F40E060E080E00E9418054B
:101970009E012C533D4F4FEF6FEF85E50E941805F8
:101980009E0122513D4F4FEF6FEF85E50E941805F4
:101990009E012F503D4F40E060E080E00E9418051E
:1019A0009E012C503D4F4FEF6FEF85E50E941805CB
:1019B0009E01225E3C4F4FEF6FEF85E50E941805B8
:1019C0009E012F5D3C4F4FEF6FEF85E50E9418059C
:1019D0009E012C5D3C4F4FEF6FEF85E50E9418058F
:1019E0009E01225B3C4F40E060E080E00E941805D1
:1019F0009E012F5A3C4F40E060E080E00E941805B5
:101A00009E012C5A3C4F4FEF6FEF85E50E94180561
:101A10009E0122583C4F40E060E080E00E941805A3
:101A20009E012F573C4F40E060E080E00E94180587
:101A30009E012C573C4F4FEF6FEF85E50E94180534
:101A40009E0122553C4F40E060E080E00E94180576
:101A50009E012F543C4F40E060E080E00E9418055A
:101A60009E012C543C4F40E060E080E0DF91CF913C
:101A70000C941805CF93DF9393E0899FE001112424
:101A80009E01225A3D4F40E060E080E00E94180530
:101A90009E012F593D4F40E060E080E00E94180514
:101AA0009E012C593D4F40E060E080E00E94180507
:101AB0009E0122573D4F4FEF6FEF85E50E941805BD
:101AC0009E012F563D4F4FEF6FEF85E50E941805A1
:101AD0009E012C563D4F4FEF6FEF85E50E94180594
:101AE0009E0122543D4F40E060E080E00E941805D6
:101AF0009E012F533D4F40E060E080E00E941805BA
:101B00009E012C533D4F4FEF6FEF85E50E94180566
:101B10009E0122513D4F40E060E080E00E941805A8
:101B20009E012F503D4F4FEF6FEF85E50E94180546
:101B30009E012C503D4F40E060E080E00E9418057F
:101B40009E01225E3C4F40E060E080E00E9418056C
:101B50009E012F5D3C4F40E060E080E00E94180550
:101B60009E012C5D3C4F4FEF6FEF85E50E941805FD
:101B70009E01225B3C4F40E060E080E00E9418053F
:101B80009E012F5A3C4F40E060E080E00E94180523
:101B90009E012C5A3C4F4FEF6FEF85E50E941805D0
:101BA0009E0122583C4F4FEF6FEF85E50E941805CC
:101BB0009E012F573C4F4FEF6FEF85E50E941805B0
:101BC0009E012C573C4F4FEF6FEF85E50E941805A3
:101BD0009E0122553C4F40E060E080E00E941805E5
:101BE0009E012F543C4F40E060E080E00E941805C9
:101BF0009E012C543C4F40E060E080E0DF91CF91AB
:101C00000C941805CF93DF9393E0899FE001112492
:101C10009E01225A3D4F40E060E080E00E9418059E
:101C20009E012F593D4F40E060E080E00E94180582
:101C30009E012C593D4F40E060E080E00E94180575
:101C40009E0122573D4F40E060E080E00E94180571
:101C50009E012F563D4F4FEF6FEF85E50E9418050F
:101C60009E012C563D4F40E060E080E00E94180548
:101C70009E0122543D4F4FEF6FEF85E50E941805FE
:101C80009E012F533D4F40E060E080E00E94180528
:101C90009E012C533D4F4FEF6FEF85E50E941805D5
:101CA0009E0122513D4F40E060E080E00E94180517
:101CB0009E012F503D4F40E060E080E00E941805FB
:101CC0009E012C503D4F4FEF6FEF85E50E941805A8
:101CD0009E01225E3C4F40E060E080E00E941805DB
:101CE0009E012F5D3C4F4FEF6FEF85E50E94180579
:101CF0009E012C5D3C4F40E060E080E00E941805B2
:101D00009E01225B3C4F4FEF6FEF85E50E94180567
:101D10009E012F5A3C4F40E060E080E00E94180591
:101D20009E012C5A3C4F40E060E080E00E94180584
:101D30009E0122583C4F4FEF6FEF85E50E9418053A
:101D40009E012F573C4F4FEF6FEF85E50E9418051E
:101D50009E012C573C4F4FEF6FEF85E50E94180511
:101D60009E0122553C4F40E060E080E00E94180553
:101D70009E012F543C4F40E060E080E00E94180537
:101D80009E012C543C4F40E060E080E0DF91CF9119
:101D90000C941805CF93DF9393E0899FE001112401
:101DA0009E01225A3D4F40E060E080E00E9418050D
:101DB0009E012F593D4F40E060E080E00E941805F1
:101DC0009E012C593D4F40E060E080E00E941805E4
:101DD0009E0122573D4F40E060E080E00E941805E0
:101DE0009E012F563D4F4FEF6FEF85E50E9418057E
:101DF0009E012C563D4F40E060E080E00E941805B7
:101E00009E0122543D4F4FEF6FEF85E50E9418056C
:101E10009E012F533D4F4FEF6FEF85E50E94180550
:101E20009E012C533D4F40E060E080E00E94180589
:101E30009E0122513D4F40E060E080E00E94180585
:101E40009E012F503D4F4FEF6FEF85E50E94180523
:101E50009E012C503D4F40E060E080E00E9418055C
:101E60009E01225E3C4F40E060E080E00E94180549
:101E70009E012F5D3C4F4FEF6FEF85E50E941805E7
:101E80009E012C5D3C4F40E060E080E00E94180520
:101E90009E01225B3C4F40E060E080E00E9418051C
:101EA0009E012F5A3C4F4FEF6FEF85E50E941805BA
:101EB0009E012C5A3C4F40E060E080E00E941805F3
:101EC0009E0122583C4F40E060E080E00E941805EF
:101ED0009E012F573C4F4FEF6FEF85E50E9418058D
:101EE0009E012C573C4F40E060E080E00E941805C6
:101EF0009E0122553C4F40E060E080E00E941805C2
:101F00009E012F543C4F40E060E080E00E941805A5
:101F10009E012C543C4F40E060E080E0DF91CF9187
:101F20000C941805CF93DF9393E0899FE00111246F
:101F30009E01225A3D4F40E060E080E00E9418057B
:101F40009E012F593D4F40E060E080E00E9418055F
:101F50009E012C593D4F40E060E080E00E94180552
:101F60009E0122573D4F40E060E080E00E9418054E
:101F70009E012F563D4F4FEF6FEF85E50E941805EC
:101F80009E012C563D4F40E060E080E00E94180525
:101F90009E0122543D4F4FEF6FEF85E50E941805DB
:101FA0009E012F533D4F40E060E080E00E94180505
:101FB0009E012C533D4F4FEF6FEF85E50E941805B2
:101FC0009E0122513D4F4FEF6FEF85E50E941805AE
:101FD0009E012F503D4F40E060E080E00E941805D8
:101FE0009E012C503D4F4FEF6FEF85E50E94180585
:101FF0009E01225E3C4F4FEF6FEF85E50E94180572
:102000009E012F5D3C4F40E060E080E00E9418059B
:102010009E012C5D3C4F4FEF6FEF85E50E94180548
:102020009E01225B3C4F4FEF6FEF85E50E94180544
:102030009E012F5A3C4F40E060E080E00E9418056E
:102040009E012C5A3C4F4FEF6FEF85E50E9418051B
:102050009E0122583C4F40E060E080E00E9418055D
:102060009E012F573C4F4FEF6FEF85E50E941805FB
:102070009E012C573C4F40E060E080E00E94180534
:102080009E0122553C4F40E060E080E00E94180530
:102090009E012F543C4F40E060E080E00E94180514
:1020A0009E012C543C4F40E060E080E0DF91CF91F6
:1020B0000C9418059FB7F894109272069FBF9091E8
:1020C0008106943009F048C02091E9002F703091CA
:1020D000EC00932F917030FD90E8922B25E0209337
:1020E000E9002091EB0020FF34C02091EE0027FF93
:1020F00030C020917106222321F02091E80025FFB5
:1021000028C01092710626E03091E80035FF14C017
:102110008093F1008091E80085FD27C08091E80060
:1021200080FFFCCF8091E8008E778093E8009F705D
:102130009093E90080E0089530918106343049F4AD
:102140003091EB0035FD05C0215041F481E08093D2
:1021500071069F709093E9008FEF0895EFE9FFE01B
:102160003197F1F700C00000CFCF8FB7F89421E08E
:10217000209372068FBFDBCF80936E06709370063C
:1021800060936F06809181068430F9F48093E900B2
:102190008FEF9091E800815095FD06C095ED9A95DE
:1021A000F1F700008111F5CF8091E80085FF0DC0A7
:1021B00050E040E063E070E08EE696E00E94680345
:1021C0008091E8008E778093E8000895BC0184E058
:1021D0000C94BC10BC0183E00C94BC10CF93DF9333
:1021E000EC0181E08093E9008FEF9091E80081504D
:1021F00095FD06C095ED9A95F1F700008111F5CF98
:102200008091E80085FF14C050E040E068E070E095
:10221000CE010E9468038091E8008E778093E800E9
:1022200088E0FE01A7E7B6E001900D928A95E1F7FC
:10223000DF91CF910895CF93C82F882309F488C0E8
:102240008238C1F40E94F10481FD82C089E30E94BA
:1022500097070E9473072FEF81EE94E02150804092
:102260009040E1F700C0000089E30E948A07CF9107
:102270000C9473078338A1F40E94F10480FD68C0B8
:1022800083E50E9497070E9473072FEF81EE94E089
:10229000215080409040E1F700C0000083E5E5CF89
:1022A0008438A1F40E94F10482FD52C087E40E94A8
:1022B00097070E9473072FEF81EE94E02150804032
:1022C0009040E1F700C0000087E4CFCF8CEF8C0F87
:1022D000813A68F4E8ECF1E08191C81799F121E0C6
:1022E000EE3CF207C9F78C2F0E949707C0CF80E21F
:1022F0008C0F883068F4C77021E030E001C0220FF5
:10230000CA95EAF780912002822B80932002AFCFFA
:10231000EBE5EC0FE33040F4F0E0ED5CFE4F808144
:1023200090E0CF910C94DB04C85AC73188F4EC2FAD
:10233000F0E0EE0FFF1FEA5CFE4F80819181CF91AC
:102340000C94C5048C2F0E948A070E947307CBCF80
:10235000CF9108951F93CF93DF93182FD0E0C0E063
:10236000893311F4C0E5D0E0812F0E941B11209722
:1023700031F4812FDF91CF911F910C9434088FE9B4
:102380009FE00197F1F700C000002197F0CFCF93B5
:10239000DF93C7EED0E060E0CE010E94A93621961F
:1023A000C11584E0D807B9F7DF91CF9108956F92F6
:1023B0007F928F929F92AF92BF92CF92DF92EF92D5
:1023C000FF920F931F93CF93DF938CE2C82E84E08C
:1023D000D82E0FE510E0E801E09736011CC0F501AA
:1023E00085909490692DC7010E94A936682DC70178
:1023F00001960E94A93682E0A80EB11C82E0E80E88
:10240000F11CCE15DF0559F788E0680E711C28967F
:102410000C171D0731F07E0188E0E81AF10853011E
:10242000DECF005D1F4F80E3C80ED11C0F3181E06D
:10243000180789F6DF91CF911F910F91FF90EF90D0
:10244000DF90CF90BF90AF909F908F907F906F90D4
:102450000895CF93C82F6FEF811161E283E290E07E
:102460000E94A9366FEFC11162E184E290E00E9400
:10247000A9366FEFC11167E285E290E0CF910C942D
:10248000A93680E00E94291260E086E290E00E9476
:10249000A9360E94D7110E94C71181E00C9429121D
:1024A0000F931F93CF93DF9328E0629FE0011124E5
:1024B00050E0440F551FC40FD51F30E3839FC00D5C
:1024C000D11D1124CE0187960E949536082F10E069
:1024D000102F0027CE0188960E9495369801282B50
:1024E000C901DF91CF911F910F910895462F84303C
:1024F00038F4763028F4643018F4672F0C945012B6
:1025000090E080E00895CF92DF92FF920F931F93A7
:10251000CF93DF936C0100918B0680912102082BF1
:10252000C7E0D0E010E0FC2EC8010C2E02C095954B
:1025300087950A94E2F780FD0CC02197A0F7F12C53
:102540008F2DDF91CF911F910F91FF90DF90CF9052
:102550000895B6018C2F0E9476120E940B060197F7
:1025600061F3EECFCF93DF93EC010E948312BE01A3
:102570000E947612DF91CF910C940B06FC018081B2
:1025800091810E94B212292F2F7092959F709250C4
:102590009E3078F4E92FF0E0EE5BF84C0C940336B3
:1025A000803F19F020F4883E20F481E00895843FB4
:1025B000E1F380E00895883EC0F3813FD1F7F5CF85
:1025C000822F869586958695089583E290E00E94F5
:1025D0009536813289F484E290E00E94953682310A
:1025E00059F485E290E00E94953691E0873209F037
:1025F00090E0892F8170089580E0FCCFCF9384E034
:1026000090E00E949536C82F82E290E00E949536B5
:10261000982F8C2FCF91089580915E0680FD0AC07F
:10262000EEE5F2E0118210821282339653E0EE3D25
:10263000F507C1F7809A31B33E7F21B321604FB7D0
:10264000F8948EE592E0FC015191CF0168E021BB46
:10265000000000C057FF31BB550F000000C000C094
:1026600000C031BB00C06A9591F7F3E08E3D9F0733
:1026700051F74FBF8FE594E00197F1F700C00000DC
:1026800008957F928F929F92AF92BF92CF92DF92E6
:10269000EF92FF920F931F93CF93DF93FC01A280E1
:1026A000848081E08483ECE2F3E0B490EBEAF3E031
:1026B000E491CEEDD3E05EE5E52E52E0F52E68E440
:1026C000762ECC24CA94D12C99249A94EB190E2FEF
:1026D00010E082E08A1530F080915F068883809157
:1026E0006006898381101FC01B821A8297014A816C
:1026F000698188810E941805259683E0E80EF11C07
:1027000086E0CE35D80729F7DF91CF911F910F9141
:10271000FF90EF90DF90CF90BF90AF909F908F9001
:102720007F900C940C138B818823E9F081508B836C
:10273000899DC00111246C8170E00E94CF35FB019E
:10274000FF27E45DFC4F8491E82FEB19E99DC00160
:102750001124B8010E94CF3580916106689FB001B5
:1027600011247A83C3CF0E946B362091610626958F
:102770002158279D90011124232F33278217930777
:102780000CF0B4CF82E08A1588F40E946B36B60153
:102790000E94EF3588830E946B3620916006269553
:1027A000622F70E00E94EF35280F29831A828091F2
:1027B0006106843108F484E18C838B8397CFEF9298
:1027C000FF920F931F93CF93DF938C01CEE5D2E05E
:1027D000F12CE12CF80194816091600680915F06F4
:1027E000F0E4EF16F104FCF49923F9F09E01409116
:1027F00061060E9418052FEFE21AF20A239680E87C
:10280000E816F10439F70E940C13F801848190E076
:102810000196817099278483DF91CF911F910F9149
:10282000FF90EF900895992309F39E0140E0E1CFD6
:102830008F929F92AF92BF92CF92DF92EF92FF92D0
:102840000F931F93CF93DF93EC014C81042F10E083
:102850009801D8010E9431379B01AC010E94FC36DF
:102860004B015C01E0E2F0E0E01BF10BA5E5B0E01C
:10287000AC019B010E94FC366B017C019F01DF01D2
:102880000E9410369B01AC010E9407379B01AC01EE
:10289000280D391D4A1D5B1DC701B6010E940F3767
:1028A000F22E822F90E039E23F15D8F143E0249FC9
:1028B0009001112435952795122F10959EE5C92E6C
:1028C00092E0D92E00E085E5E82EEF188E2D01FD6F
:1028D0008F2D9601412F609160060E9418050F5FB1
:1028E00053E0C50ED11C003889F70E940C139C815F
:1028F00081E0992319F0903219F48FEF8093310120
:1029000080913101890F8C83DF91CF911F910F91BD
:10291000FF90EF90DF90CF90BF90AF909F908F90FF
:10292000089525E530E0A901481B590BCA019A0119
:10293000220F331F280F391F37FFBCCF2F5F3F4FA8
:10294000B9CF0F931F93CF93DF93CEE5D2E0FE0173
:10295000118210821282339683E0EE3DF807C1F7B0
:1029600010E000E080915C02082E000C990B081723
:1029700019078CF180913001082E000C990B8017FB
:1029800091074CF19E014091610660916006809133
:102990005F060E9418050F5F1F4F23960038110530
:1029A00009F70E940C1380912F0190915C02980FFF
:1029B00090935C0220913001280F20933001121671
:1029C00014F49F3719F4819580932F01DF91CF91F3
:1029D0001F910F910895198218821A82DCCFCF922D
:1029E000DF92EF92FF920F931F93CF93DF93FC013F
:1029F0008281DD24DA9480FD02C0DD24D394CEE50B
:102A0000D2E010E000E0198218821A8294E0E92EE8
:102A1000F12CC12C80915B028C0D87FD8058082E13
:102A2000000C990B8017910791F4809161068E9D9F
:102A3000A0018F9D500D11245595479555954795AB
:102A40009E016091600680915F060E941805CD0C82
:102A5000F1E0EF1AF108F1F60F5F1F4F23960038EF
:102A6000110589F60E940C1380915B0291E0D91246
:102A700010C081110CC08FE780935B02DF91CF9172
:102A80001F910F91FF90EF90DF90CF9008958150AC
:102A9000F3CF90E001968F779927EECFEF92FF92D8
:102AA0001F93CF93DF93EC018EE5E82E82E0F82EA2
:102AB00010E08C8197014091610660916006810F62
:102AC0000E9418051F5F83E0E80EF11C103889F79B
:102AD0000E940C139A818C8190FF08C08F5F8C83B9
:102AE000DF91CF911F91FF90EF9008958150F7CF24
:102AF00090915E0690FF0CC0EEE5F2E0818360836A
:102B00004283339693E0EE3DF907C1F70C940C1322
:102B100008950F931F93CF93DF9300D00F92CDB7FB
:102B2000DEB78C0180915D0281110AC09E012F5F8A
:102B30003F4F4EE66FEF0E9418058A8180935D0239
:102B4000F8016481613069F080915D0240E06623A4
:102B500061F040E0623011F440915D0280E060E09D
:102B600004C060915D0240E080E00E947815F801A9
:102B7000848190E0019663E070E00E94EF358483E9
:102B80000F900F900F90DF91CF911F910F910895AB
:102B9000CF93DF9300D00F92CDB7DEB790915E0652
:102BA00090FF0AC09E012F5F3F4F0E9418054B8186
:102BB00069818A810E9478150F900F900F90DF91A4
:102BC000CF910895CF93DF93EC01EEE5F6E04381DA
:102BD00062818C810E94C8158C818F5F8C83DF910C
:102BE000CF910895CF93DF93EC01EC81F0E0E45DA9
:102BF000FC4F4491EEE5F6E0628181810E94C815A8
:102C00008C818F5F8C83DF91CF910895CF92DF927B
:102C1000EF92FF926B017C010E940205B701A601B1
:102C200088E090E0FF90EF90DF90CF900C94BB365F
:102C30007F928F929F92AF92BF92CF92DF92EF924C
:102C4000FF920F931F93CF93DF9300D00F92CDB7D6
:102C5000DEB7182FD62E042FC22E90915E0690FF5D
:102C600029C0E92FE695AE2FB0E0AC57BE4F8C914E
:102C7000809358029E7F923071F59E012F5F3F4FE7
:102C8000812F0E9418054B8169818A810E947815E5
:102C900010935F06D092600600936106CC2051F03D
:102CA00060915E0670915F0680916006909161066A
:102CB0000E9406160F900F900F90DF91CF911F91F9
:102CC0000F91FF90EF90DF90CF90BF90AF909F90CB
:102CD0008F907F900895823019F400916106D8CFCB
:102CE000863019F410915F06D3CF8930D9F389313A
:102CF00079F6E9512E2F2170722EE695F0E0E95D0C
:102D0000FC4F8590949099243EE5E32E32E0F32E1B
:102D1000B12CA12CC501880F892F881F990B919583
:102D2000711013C0810F9701402F6D2D0E9418055F
:102D3000A80CB91C83E0E80EF11C2EEDE21623E08E
:102D4000F20641F70E940C13A3CF212F281B822FDC
:102D5000EACFEEE5F6E0438128E0421B08F440E0CC
:102D600021E0628181810C941816EEE5F6E0438142
:102D700028E0420F08F44FEF21E0628181810C943A
:102D80001816EEE5F6E0628128E0621B08F460E0C8
:102D900021E0438181810C941816EEE5F6E0628112
:102DA00028E0620F08F46FEF21E0438181810C94E9
:102DB0001816EEE5F6E0818121E0438162818850BA
:102DC0000C941816EEE5F6E0818121E043816281E2
:102DD000885F0C94181680916206882319F0815040
:102DE0008093620660915E0670915F068091600636
:102DF000909161060C94061680916206833018F457
:102E00008F5F8093620660915E0670915F0680918D
:102E10006006909161060C940616EEE5F6E083E0FC
:102E2000808311828FEF82838EE683831482608198
:102E30007181828193810C94061610922002E8EC35
:102E4000F1E086E0DF011D928A95E9F70C940D0808
:102E50001F93CF93DF93CDB7DEB7AA970FB6F89441
:102E6000DEBF0FBECDBF83E896E02091F100DC010C
:102E70002D93CD01B6E08B389B07B9F7809184067E
:102E8000833009F472C0B8F4813009F449C082304B
:102E900009F4B3C08091E80083FF91C2809183065A
:102EA000909184069A3008F08AC2E92FF0E0E05B46
:102EB000F84C0C9403368A3009F48EC08B3009F438
:102EC00071C0893039F780918306813219F780917A
:102ED000870690918806009711F00297D9F68091A5
:102EE000E800877F8093E8008091E80082FF38C087
:102EF0009091F3008091F200029731F48091F100FB
:102F0000813011F0863021F48091F10080937606B3
:102F10008091E8008B778093E8000E949203BACFFB
:102F200080918306813A09F0B5CF8091E800877FD0
:102F30008093E8008091870690918806892B61F440
:102F400068E087E796E070E00E9444048091E80022
:102F50008B778093E8009ECF60E090E080E0F3CF35
:102F6000809181068111C0CF95CF80918306813AEF
:102F700009F090CF8091870690918806892B09F0FF
:102F800089CF8091E800877F8093E8008091E800F6
:102F900080FFFCCF809132018093F1008091E800A6
:102FA0008E77B9CF80918306813209F073CF8091FB
:102FB000870690918806892B09F06CCF8091E800F4
:102FC000877F8093E8000E9492038091850680931A
:102FD00032010E941D175ECF80918306813209F075
:102FE00059CF8091E800877F8093E8000E94920388
:102FF00080918606809375064DCF80918306813A35
:1030000009F048CF8091E800877F8093E8008091A5
:10301000E80080FFFCCF80917506BECF803899F024
:10302000823809F0CCC1809187068F70873008F014
:10303000C6C18093E9008091EB0085FB882780F969
:103040001092E90006C080917F0690918006911150
:1030500082609091E800977F9093E8008093F10060
:103060001092F1008091E8008E77A5C1882309F4C1
:1030700093C1823009F0A3C180918506811196C168
:10308000809187068F702FEF280F263008F097C1A8
:103090008093E9002091EB0020FF88C1933031F448
:1030A0008091EB0080628093EB0080C19091EB00F7
:1030B00090619093EB0021E030E001C0220F8A95EF
:1030C000EAF72093EA001092EA008091EB00886012
:1030D000EACF811174C1109185061F778091E300BA
:1030E0008078812B8093E3008091E800877F809334
:1030F000E8000E9492038091E80080FFFCCF80915D
:10310000E30080688093E30082E0111183E0809304
:10311000810655C18058823008F051C12091850642
:10312000309186062C3DE3E03E07A1F583E08A83DB
:103130008AE289834FB7F894DE01139620E03EE0DF
:1031400051E2E32FF0E050935700E49120FF03C0D9
:10315000E295EF703F5FEF708E2F90E0EA30C0F0A5
:10316000C7968D939D932F5F243159F74FBF809160
:10317000E800877F8093E8006AE270E0CE01019664
:103180000E9444048091E8008B778093E80017C187
:10319000C096E7CF8091870690918806432F5527E8
:1031A0004330510509F44AC078F54130510509F41E
:1031B0007AC08BE790E0ECEEF4E04230510509F084
:1031C000FEC02091E800277F2093E8002091890627
:1031D00030918A068217930708F49C0140E021157C
:1031E000310509F065C0411163C08091E80082FD9E
:1031F000C9CF80918106882329F2853019F2809108
:10320000E80083FFF2CFBECF4132510509F43CC044
:103210004232510509F0D3C08430910508F0CFC087
:10322000FC01EE0FFF1FED54FE4F0190F081E02DE9
:1032300081559E4FDC018C9190E01AC033272130DC
:103240003105D1F02115310561F02230310509F049
:10325000B6C0E9E7F5E0E4918E2F90E0E9E7F5E00C
:1032600007C0E9E9F5E0E4918E2F90E0E9E9F5E0A7
:10327000009709F4A4C0A5CFE9E8F5E0E4918E2F0A
:1032800090E0E9E8F5E0F4CF8430910508F097C0CC
:10329000880F991FFC01E554FE4F0190F081E02D4D
:1032A00089E090E08ECF82E190E0E7E6F5E089CF1B
:1032B00080918106882309F465CF853009F462CFB7
:1032C0008091E80083FD5ECF8091E80082FD8DCF84
:1032D0008091E80080FF83CF9091F3008091F2000D
:1032E0002115310519F08830910550F041E008971B
:1032F00009F040E08091E8008E778093E8006FCF7E
:1033000044914093F1003196215031090196E8CF64
:10331000803809F054C08091E800877F8093E800EE
:10332000809182068093F1009DCE811148C010915A
:103330008506123008F043C08091E800877F8093B3
:10334000E800109382060E949203112311F084E09A
:1033500005C08091E30087FDFACF81E0809381066C
:1033600042E061EC81E00E94B10342E261EC84E062
:103370000E94B10342E261EC82E00E94B10342E2AA
:1033800060EC83E00E94B10342E261EC85E00E94C0
:10339000B1038091810613C080918506813079F454
:1033A00081E0933009F080E0809380061092E9007C
:1033B0008091E800877F8093E8000E9492038091CB
:1033C000E80083FF0AC08091E800877F8093E800CF
:1033D0008091EB0080628093EB00AA960FB6F89480
:1033E000DEBF0FBECDBFDF91CF911F91089569EE73
:1033F0007EEF90E080E00E94C73660E082E090E0DF
:103400000E94A93660E083E090E00E94A936109205
:10341000210260E084E090E00E94A93660E082E250
:1034200090E00E94A93660E085E090E00E94A93615
:1034300060E086E090E00E94A9366FEF87E090E0C0
:103440000E94A93640E050E0BA0188E090E00E9476
:10345000BB3660E08DE090E00E94A93640E050E08D
:10346000BA0188E190E00E94BB3660E087E190E01D
:103470000E94A93640E050E0BA018CE190E00E9441
:10348000BB3670E060E080E290E00E94C73640E02A
:1034900050E0BA0188E190E00E94BB3680E00E94D3
:1034A00029120E94411240E050E0BA018FE090E002
:1034B0000E94BB3640E050E0BA0183E190E00C94FA
:1034C000BB3690E080E00E94A336893E9E4F11F407
:1034D0000C94E51280E008951F920F920FB60F92A0
:1034E00011242F933F934F935F936F937F938F9309
:1034F0009F93AF93BF93CF93DF93EF93FF93D091BD
:10350000E900DF708091EC00C82FC17080FDC0E839
:103510001092E9008091F000877F8093F00078940A
:103520000E9428171092E9008091F0008860809333
:10353000F000CD2BCF70C093E900FF91EF91DF91A8
:10354000CF91BF91AF919F918F917F916F915F913B
:103550004F913F912F910F900FBE0F901F90189594
:103560001F920F920FB60F9211242F933F934F93F8
:103570005F936F937F938F939F93AF93BF93EF93DB
:10358000FF938091E10082FF15C08091E20082FFED
:1035900011C08091E1008B7F8093E1002091730640
:1035A0002F5F822F62E30E94E335992309F4B0C0B4
:1035B000209373068091DA0080FF24C08091D800A8
:1035C00080FF20C08091DA008E7F8093DA008091A6
:1035D000D90080FFD3C080E189BD82E189BD09B4F3
:1035E00000FEFDCF81E080938106809174068111F9
:1035F00009C00E9418030E94E3038091E2008460E6
:103600008093E2008091E10080FF17C08091E2008A
:1036100080FF13C08091E2008E7F8093E200809152
:10362000E20080618093E2008091D8008062809304
:10363000D80019BC85E0809381068091E10084FF69
:103640002BC08091E20084FF27C080E189BD82E128
:1036500089BD89B5982F917080FFFBCF8091D800EC
:103660008F7D8093D8008091E1008F7E8093E10070
:103670008091E2008F7E8093E2008091E200816081
:103680008093E20080918206882309F47DC084E063
:1036900080938106809181068091E10083FF27C09D
:1036A0008091E20083FF23C08091E100877F8093B7
:1036B000E10082E080938106109282068091E10011
:1036C0008E7F8093E1008091E2008E7F8093E20004
:1036D0008091E20080618093E20042E060E080E05F
:1036E0000E94B1038091F00088608093F000FF9108
:1036F000EF91BF91AF919F918F917F916F915F916A
:103700004F913F912F910F900FBE0F901F901895E2
:103710001092730680917206882309F44BCF809132
:1037200081068430C1F49091E9009F702091EC00F3
:10373000822F817020FD80E8892B95E09093E9002D
:103740009091EB0090FF04C09091EE0097FD08C0AF
:103750008F708093E900109272062CCF1092F100C6
:103760009091E80095FDFACF9091E80090FFF0CF9E
:103770009091E8009E779093E800EACF19BC1092F0
:103780008106109274063ECF8091E30087FD93E09E
:10379000909381067FCF78941F921FB61F921124B9
:1037A0008F939F93AF93BF9380916A0690916B061E
:1037B000A0916C06B0916D060196A11DB11D80937C
:1037C0006A0690936B06A0936C06B0936D06BF914A
:1037D000AF919F918F911F901FBE1F9018959C01D4
:1037E0004FB7F89480916A0690916B06A0916C0691
:1037F000B0916D064FBF821B930B08952FB7F894BD
:1038000080916A0690916B06A0916C06B0916D064E
:103810002FBF08950F931F93CF93DF93C62FD42FFD
:10382000022FFC0182818823A1F060938E060E9402
:10383000FE1B90938D0680938C06C77081E001C0BB
:10384000880FCA95EAF7DF91CF911F910F910C94E1
:103850002A0880918E06681335C080918C0690915D
:103860008D060E94EF1B883C910560F510E21D0F4C
:10387000CD17B9F080E28C0F883040F4C77081E03A
:1038800001C0880FCA95EAF70E941F08183048F453
:1038900081E09D2F977001C0880F9A95EAF70E94EA
:1038A0002A08802F0E94AA11183098F4D77081E05E
:1038B00001C0880FDA95EAF7DF91CF911F910F9140
:1038C0000C941F08C77081E001C0880FCA95EAF701
:1038D000F3CFDF91CF911F910F91089590915E06E4
:1038E00090FF3DC09170811129C0926090935E0657
:1038F000662351F060915E0670915F0680916006CC
:10390000909161060E94061660915E06669570E0D1
:103910004BE050E084E291E00E947B36892BA9F0D5
:103920001092590281E08093550220E04091610697
:103930006091600680915F060C9418168B3210F02F
:103940009465D4CF880F982BD1CF81E08093590212
:103950000E94FE1B9093530280935202E3CF08957E
:1039600021E030E0A90102C0440F551F8A95E2F71B
:10397000CA0120915A02662369F0822B80935A0271
:1039800080915902811109C080915E0660E08695A0
:103990000C946E1C80958223F1CF0895CF93C82F8D
:1039A00061E08111682F617080E00E94B01CC1FB52
:1039B000662760F9C11101C060E081E00E94B01C7F
:1039C000C2FB662760F9C11101C060E082E00E947D
:1039D000B01CC3FB662760F9C11101C060E083E041
:1039E0000E94B01C8C2FCF9108950E94CE1C809312
:1039F0008B060C940D0880918B06982F967096304C
:103A000019F488600C94F51C877FFCCF21E030E02E
:103A100001C0220F8A95EAF7209580918B068223B8
:103A20000C94F51C21E030E001C0220F8A95EAF7E2
:103A300080918B06822B0C94F51C80915E068695F6
:103A4000815009F48AE261E00C946E1C80915E065C
:103A500086958F5F8B3208F081E061E00C946E1CDC
:103A600090915E0690FF07C09695981720F09617E4
:103A700010F40C94261D61E00C946E1C5F926F9202
:103A80007F928F929F92AF92BF92CF92DF92EF92EE
:103A9000FF920F931F93CF93DF9300D000D000D0FD
:103AA0000F92CDB7DEB76C01FC0183819481892B25
:103AB00039F08081918189238F3F11F00C94FA278E
:103AC00027960FB6F894DEBF0FBECDBFDF91CF9122
:103AD0001F910F91FF90EF90DF90CF90BF90AF902C
:103AE0009F908F907F906F905F9008950E948312B7
:103AF000182F682F89819A810E94E10769817A8154
:103B0000812F0E9476127C01F6018281882311F4B4
:103B10000C94EA27970122513F452031310510F0DE
:103B20000C9470278FEF93E00E9495361EEE1E0DC9
:103B300097EEA92EB12C8111C3CF111136C01C8272
:103B40001B82662463948AE0582E85010F5F1F4F05
:103B5000C5010E94953689831A82882309F4B0CF63
:103B60009FEF980F933080F58A83698232E0A30E2D
:103B7000B11CC8010E9495368B83882309F4A0CF1D
:103B8000AE014F5F5F4F7A01F70120812223E9F2F6
:103B9000213009F058C0918182819130B9F4F2E06E
:103BA000EF0EF11C0E94AA1118C0A114F4E0BF0688
:103BB00009F486CFC5010E949536811101C01150CC
:103BC0002FEFA21AB20AB9CF5801DACF923049F4D6
:103BD00022E0E20EF11C0E941B11FFEFEF1AFF0A18
:103BE000D3CF933031F432E0E30EF11C0E9434085D
:103BF000F4CF943021F04FEFE41AF40AEECF52E004
:103C0000E50EF11C30E020E0B7016F5F7F4FF70158
:103C100041818053990B8A30910550F02150310930
:103C2000E0F28FE99FE00197F1F700C00000F6CFC6
:103C3000529EF001539EF00D11249C012E0F3F1F48
:103C4000842F7B01E1CFE22FF0E0EE56FE4F74901F
:103C5000822F86958695869590E0FC01EE57FE4F63
:103C6000C4902770D12C022E02C0D594C7940A9418
:103C7000E2F7A1E0CA22DD24FC01EE58FE4F0491D8
:103C800010E0022E02C0159507950A94E2F7017024
:103C90001127FC01EE59FE4F8490912C02C095949F
:103CA00087942A95E2F7E1E08E229924C114D10489
:103CB00019F081EE0E941B110115110519F086EE15
:103CC0000E941B11872D0E94AA11012B19F086EE6C
:103CD0000E943408CD2819F081EE0E94340889280A
:103CE00009F47BCF8CE25ECF81E00E94121D03C0FD
:103CF00081E00E94061D0E94FB1CE2CE82E0F5CF0F
:103D000090913902992309F4D2C08111A5C03EE1F6
:103D1000E316F10410F40C94932748E2E416F1043E
:103D200008F09AC093EE9E0D57E2E516F10409F4EF
:103D300090E0E091DB0181E08E0F8093DB01F0E009
:103D4000E253FE4F90838C3009F086C01092390206
:103D50001092380281E080933A029091D8012AE0D3
:103D60008091D901929F800D11249091D601F091FC
:103D7000D701929FF00D11249091D401E091D501CB
:103D8000929FE00D11249091D2015091D301929F06
:103D9000500D11249091D0014091D101929F400D7E
:103DA00011249091CE013091CF01929F300D1124BA
:103DB000622F0E94E335A0E18A9FB0011124962B67
:103DC0009F7799838F2F622F0E94E335F0E18F9FB9
:103DD000B0011124962B9F779A838E2F622F0E9419
:103DE000E335A0E18A9FB0011124962B9F739B833A
:103DF0001C82852F622F0E94E335E0E18E9FB00187
:103E00001124962B9F739D83842F622F0E94E3358C
:103E1000F0E18F9FA0011124942B9F739E83832F29
:103E20000E94E33540E1849F90011124922B9F77FB
:103E30009F8304E610E027E030E0AE014F5F5F4F64
:103E400060E080ED0E944F350CE010E08AE20E94B5
:103E5000AA1101501109D1F7A5EAEA16ADE5FA0653
:103E600009F408C5E6EAEE16EDE5FE0609F410C50C
:103E7000F3EFEF16FCE5FF0609F42DC508F014C5B5
:103E800038EDE3163CE5F30609F421C549EDE416E7
:103E90004CE5F40609F42BC557EDE5165CE5F5068F
:103EA00011F00C94932726E241EE61EE0CC59701C8
:103EB0002E5131092A30310548F056E0E516F1045B
:103EC00029F067E3E616F10409F0A8C490913802DE
:103ED0009111A4C4882311F40C94E8288091DA018C
:103EE000811186C381E08093DA012EE532E04FEF45
:103EF00060E080E00E94180521E632E04FEF60E0CC
:103F000080E00E94180524E632E04FEF60E080E098
:103F10000E94180527E632E040E060E080E00E9461
:103F200018052AE632E04FEF60E080E00E941805B5
:103F30002DE632E04FEF60E080E00E94180520E7B8
:103F400032E04FEF60E080E00E94180523E732E0A6
:103F500040E060E080E00E94180526E732E040E0A3
:103F600060E080E00E94180529E732E040E060E070
:103F700080E00E9418052CE732E04FEF60E080E01F
:103F80000E9418052FE732E04FEF60E080E00E94CA
:103F9000180522E832E04FEF60E080E00E9418054B
:103FA00025E832E04FEF60E080E00E94180528E845
:103FB00032E04FEF60E080E00E9418052BE832E02D
:103FC0004FEF60E080E00E9418052EE832E04FEFEE
:103FD00060E080E00E94180521E932E04FEF60E0E8
:103FE00080E00E94180524E932E040E060E080E0D3
:103FF0000E94180527E932E04FEF66E684E80E9448
:1040000018052AE932E040E060E080E00E941805EF
:104010002DE932E040E060E080E00E94180520EAEF
:1040200032E040E060E080E00E94180523EA32E0E0
:104030004FEF66E684E80E94180526EA32E04FEF6B
:1040400066E684E80E94180529EA32E040E060E074
:1040500080E00E9418052CEA32E04FEF60E080E03B
:104060000E9418052FEA32E04FEF60E080E00E94E6
:10407000180522EB32E04FEF60E080E00E94180567
:1040800025EB32E04FEF60E080E00E94180528EB5E
:1040900032E04FEF60E080E00E9418052BEB32E049
:1040A0004FEF60E080E00E9418052EEB32E04FEF0A
:1040B00060E080E00E94180521EC32E04FEF60E004
:1040C00080E00E94180524EC32E040E060E080E0EF
:1040D0000E94180527EC32E04FEF66E684E80E9464
:1040E00018052AEC32E04FEF66E684E80E941805D6
:1040F0002DEC32E04FEF66E684E80E94180520EDD3
:1041000032E04FEF66E684E80E94180523ED32E0C6
:104110004FEF66E684E80E94180526ED32E04FEF87
:1041200066E684E80E94180529ED32E040E060E090
:1041300080E00E9418052CED32E04FEF60E080E057
:104140000E9418052FED32E04FEF60E080E00E9402
:10415000180522EE32E04FEF60E080E00E94180583
:1041600025EE32E04FEF60E080E00E94180528EE77
:1041700032E04FEF60E080E00E9418052BEE32E065
:104180004FEF60E080E00E9418052EEE32E04FEF26
:1041900060E080E00E94180521EF32E040E060E03E
:1041A00080E00E94180524EF32E04FEF66E684E8D5
:1041B0000E94180527EF32E040E060E080E00E94B6
:1041C00018052AEF32E04FEF66E684E80E941805F2
:1041D0002DEF32E04FEF66E684E80E94180520E0FC
:1041E00033E04FEF66E684E80E94180523E033E0F1
:1041F00040E060E080E00E94180526E033E04FEFE9
:1042000066E684E80E94180529E033E04FEF66E691
:1042100084E80E9418052CE033E040E060E080E094
:104220000E9418052FE033E04FEF60E080E00E942D
:10423000180522E133E04FEF60E080E00E941805AE
:1042400025E133E04FEF60E080E00E94180528E1AF
:1042500033E04FEF60E080E00E9418052BE133E08F
:104260004FEF60E080E00E9418052EE133E04FEF51
:1042700060E080E00E94180521E233E040E060E069
:1042800080E00E94180524E233E04FEF66E684E800
:104290000E94180527E233E04FEF66E684E80E94AB
:1042A00018052AE233E04FEF66E684E80E9418051D
:1042B0002DE233E040E060E080E00E94180520E35A
:1042C00033E04FEF66E684E80E94180523E333E00D
:1042D0004FEF66E684E80E94180526E333E04FEFCF
:1042E00066E684E80E94180529E333E04FEF66E6AE
:1042F00084E80E9418052CE333E040E060E080E0B1
:104300000E9418052FE333E040E060E080E00E9467
:10431000180522E433E040E060E080E00E941805E8
:1043200025E433E04FEF60E080E00E94180528E4C8
:1043300033E04FEF60E080E00E9418052BE433E0AB
:104340004FEF60E080E00E9418052EE433E04FEF6D
:1043500060E080E00E94180521E533E040E060E085
:1043600080E00E94180524E533E04FEF66E684E81C
:104370000E94180527E533E04FEF66E684E80E94C7
:1043800018052AE533E040E060E080E00E9418056F
:104390002DE533E04FEF66E684E80E94180520E63D
:1043A00033E040E060E080E00E94180523E633E05F
:1043B0004FEF66E684E80E94180526E633E04FEFEB
:1043C00066E684E80E94180529E633E04FEF66E6CA
:1043D00084E80E9418052CE633E04FEF66E684E897
:1043E0000E9418052FE633E04FEF66E684E80E944E
:1043F000180522E733E04FEF66E684E80E941805CF
:1044000025E733E040E060E080E00E94180528E7FF
:1044100033E04FEF60E080E00E9418052BE733E0C7
:104420004FEF60E080E00E9418052EE733E04FEF89
:1044300060E080E00E94180521E833E04FEF60E083
:1044400080E00E94180524E833E040E060E080E06E
:104450000E94180527E833E04FEF66E684E80E94E3
:1044600018052AE833E04FEF66E684E80E94180555
:104470002DE833E04FEF66E684E80E94180520E956
:1044800033E04FEF66E684E80E94180523E933E045
:104490004FEF66E684E80E94180526E933E04FEF07
:1044A00066E684E80E94180529E933E040E060E010
:1044B00080E00E9418052CE933E04FEF66E684E8BF
:1044C0000E9418052FE933E04FEF66E684E80E946A
:1044D000180522EA33E04FEF66E684E80E941805EB
:1044E00025EA33E040E060E080E00E94180528EA19
:1044F00033E04FEF60E080E00E9418052BEA33E0E4
:104500004FEF60E080E00E9418052EEA33E04FEFA5
:1045100060E080E00E94180521EB33E04FEF60E09F
:1045200080E00E94180524EB33E04FEF60E080E06C
:104530000E94180527EB33E040E060E080E00E9435
:1045400018052AEB33E040E060E080E00E941805A7
:104550002DEB33E040E060E080E00E94180520ECA5
:1045600033E040E060E080E00E94180523EC33E097
:1045700040E060E080E00E94180526EC33E040E077
:1045800060E080E00E94180529EC33E04FEF66E61A
:1045900084E80E9418052CEC33E04FEF66E684E8CF
:1045A0000E9418052FEC33E04FEF66E684E80E9486
:1045B000180522ED33E04FEF66E684E80E94180507
:1045C00025ED33E04FEF66E684E80E94180528EDFC
:1045D00033E040E060E080E00E9418052BED33E01E
:1045E0004FEF60E080E00E9418050E940C1334CC6D
:1045F0001092DA012CE732E04FEF60E080E00E9499
:1046000018052FE732E04FEF60E080E00E941805C8
:1046100022E832E04FEF60E080E00E94180525E8D4
:1046200032E04FEF60E080E00E94180528E832E0B9
:104630004FEF60E080E00E9418052CEA32E04FEF77
:1046400060E080E00E9418052FEA32E04FEF60E062
:1046500080E00E94180522EB32E040E060E080E05C
:104660000E94180525EB32E040E060E080E00E9407
:10467000180528EB32E04FEF60E080E00E9418055B
:104680002CED32E04FEF60E080E00E9418052FED46
:1046900032E040E060E080E00E94180522EE32E067
:1046A0004FEF66E684E80E94180525EE32E04FEFF2
:1046B00066E684E80E94180528EE32E040E060E0FB
:1046C00080E00E9418052CE033E040E060E080E0EC
:1046D0000E9418052FE033E04FEF66E684E80E9461
:1046E000180522E133E04FEF66E684E80E941805E2
:1046F00025E133E040E060E080E00E94180528E119
:1047000033E04FEF60E080E00E9418052CE333E0D7
:1047100040E060E080E00E9418052FE333E04FEFB7
:1047200066E684E80E94180522E433E040E060E099
:1047300080E00E94180525E433E04FEF60E080E060
:104740000E94180528E433E04FEF60E080E00E940B
:1047500018052CE633E040E060E080E00E94180598
:104760002FE633E04FEF66E684E80E94180522E763
:1047700033E040E060E080E00E94180525E733E088
:104780004FEF60E080E00E94180528E733E04FEF2C
:1047900060E080E00E9418052CE933E04FEF66E608
:1047A00084E80E9418052FE933E04FEF66E684E8BD
:1047B0000E94180522EA33E040E060E080E00E94B9
:1047C000180525EA33E04FEF60E080E00E9418050D
:1047D00028EA33E04FEF60E080E00E9418052CECFF
:1047E00033E04FEF66E684E80E9418052FEC33E0D3
:1047F0004FEF66E684E80E94180522ED33E040E0C2
:1048000060E080E00E94180525ED33E04FEF60E0A6
:1048100080E00E94180528ED33E0E2CE9EECE91618
:104820009CE5F90609F0DBC4882309F421CB81E07B
:10483000809338021092DA0110923A0274C39DEC10
:10484000E9169CE5F90609F007CB882309F46BC348
:1048500080E197E2909337028093360210923502FE
:1048600010923402109238021092DA0181E08093A3
:104870003A0259C3F6018281882309F421C961E013
:1048800083E090E00E94A93681E00E941B0818C9CD
:10489000F6018281882321F081E00E94121D10C957
:1048A00081E00E94061D0CC965EFE6166CE5F60670
:1048B000D1F0A8F027E245EE66EE96EFE9169CE50A
:1048C000F90609F030C3C6010E940A1CF9C827E2A4
:1048D00045EE65EEF8CF26E241EE60EEF4CF27E23A
:1048E00045EE64EEF0CF26E241EE62EEECCF28E238
:1048F00041E0EFCF31E6E3163DE5F30609F42CC3C2
:104900008091200266E1E6166CE5F60609F092C396
:104910008A7A91E009F490E09093DC018111FCC067
:1049200089E20E9497070E947307CAC880912B02F0
:10493000806126E0E2162CE5F20609F4A9C0809118
:104940002B02886037E0E3163CE5F30608F4A0C0CC
:1049500080912B0280629CC080912B028D7F4CE065
:10496000E4164CE5F40609F493C078F480912B0228
:104970008C606AE0E6166CE5F60609F489C008F476
:104980009CC080912B028E7F83C080912B02877FF9
:104990009EE0E9169CE5F90609F47AC080912B02A5
:1049A0008B7FAFE0EA16ACE5FA0608F471C080919F
:1049B0002B028F7E6DC0ECEFEE16ECE5FE0609F4DF
:1049C00082C0A0F524E1E2162CE5F20609F493C0BA
:1049D00098F442E1E4164CE5F40609F47CC08091B9
:1049E0002B028F7B53E1E5165CE5F50608F450C019
:1049F00080912B02837F4CC06AEFE6166CE5F606C9
:104A000009F44DC008F051C095E1E9169CE5F9069E
:104A100009F0CFC280912B0282FB992790F921E007
:104A2000922790FB82F990FB83F932C0E114ADE547
:104A3000FA0609F456C0A0F480912C028360FEEFC0
:104A4000EF16FCE5FF0671F180912C028D7F2FEFB0
:104A5000E2162CE5F20630F180912C028C7F22C008
:104A600032E0E3163DE5F30609F454C008F44CC007
:104A700051E6E5165DE5F50609F09BC290912B0223
:104A8000892F8F7E94FF806103C080912B0281600B
:104A900080932B028EC280912B028460F9CF80918B
:104AA0002C02816080932C0284C280912C0282604F
:104AB000F9CF80912B028064EBCF0E941D1780916B
:104AC0002B028068E5CF80912C028E7FEBCF809106
:104AD0002B028F7DDDCF0E941D1780912B028F77D7
:104AE000D7CF80912C02982F909591708E7F892B33
:104AF00090FB81F9D7CF0E941D1790912B02892F2F
:104B000097FB87F98058C4CF61E08EE090E00E9467
:104B1000A9364FC260E0F9CF85E303CF85E387C2B2
:104B200080915E0680FF1CC08E7F80935E06609140
:104B30005E0670915F0680916006909161060E940A
:104B40000616109259028FEF90E7A2E08150904034
:104B5000A040E1F700C000000E940C130C94601DFF
:104B6000816080935E0661E086950E946E1C0C94C5
:104B7000601D4DE15DE166E27DE10E94FD040C9463
:104B8000601D46E25DE16DE17DE1F7CF42EE56E169
:104B900069ED76E1F2CF41EC56E16DEC76E1EDCFD7
:104BA00049EA56E165EB76E1E8CF45EB56E169EA83
:104BB00076E1E3CF4CEF56E16BEE76E1DECF61E0DC
:104BC00081E0D3CF65E082E00E94301D0C94601D2F
:104BD00068E086E0F9CF64E18FE0F6CF67E185E138
:104BE000F3CF62E289E1F0CF61E083E2BECF0E94C1
:104BF0001D172FEF34E34CE0215030404040E1F7E7
:104C000000C000000E94A8040E94F7190C94601DC7
:104C1000C8010E94BA07F82E44C2092F0F70907F76
:104C200011F00295007F812F2223C9F0002369F043
:104C300090E2910F983010F011110BC0809120027A
:104C4000082B009320020E947307812F0E941B11E2
:104C500017C080911F02082B00931F02F4CF0E94FF
:104C60003408002369F00095105E183010F0B11080
:104C700014C0809120020823009320020E94730731
:104C800038E0E31AF10844E0E416F10410F00C9463
:104C9000601D0E94F1040C94601D80911F02082386
:104CA00000931F02EBCF892F8F70907F903211F00D
:104CB0008295807FF1E0BF120CC0222329F03630AC
:104CC000F8F60E942A08DCCF3530D0F60E941F0883
:104CD000D7CF222341F03323A1F340FFB6CF4F704B
:104CE000F6014583EECF332389F3193349F4FFEFFF
:104CF00027EE33E0F15020403040E1F700C00000E3
:104D0000812F0E943408BCCF892F869586958370A9
:104D100061F0813009F0B4CF812F9370211102C06E
:104D200090E080E00E94C504ABCF812F93702111E9
:104D300002C090E080E00E94DB04A2CF892F837044
:104D4000A1F521119DCF812F829586958770880FBF
:104D5000880F412F4F70082E01C0440F0A94EAF7C4
:104D6000212F207114FF07C02FE030E001C0220F77
:104D70008A95EAF72095969596959370923081F0F2
:104D8000822F842B933030F480912102913029F0CE
:104D9000242B82230E941B0873CF842B822BFACFF3
:104DA000242B809121028227F5CF8695222311F0B2
:104DB000892F8170882309F463CF812F829586958E
:104DC0008770880F880F412F4F70082E01C0440F45
:104DD0000A94EAF7212F207114FF07C02FE030E07A
:104DE00001C0220F8A95EAF72095969596959370C3
:104DF000923081F0822F842B933030F480918B0697
:104E0000913029F0242B82230E94F51C39CF842B6A
:104E1000822BFACF242B80918B068227F5CF092F86
:104E20000F70222329F0802F0E94121D812F49CF5D
:104E3000812F0E941F08802F0E94061D21CF812FE5
:104E400041EF141789F1411750F050EF1517B9F0E1
:104E50002223B1F13111F9CE892F8F7129C062EF70
:104E6000161749F1A3EF1A13F3CF80E0222361F262
:104E70009F7181E001C0880F9A95EAF7C5CF222380
:104E800079F0353008F0FCCE292F2F7181E090E0C9
:104E900001C0880F2A95EAF790918B068927B4CF35
:104EA000363008F0EDCEF0CF892F8F71222321F21A
:104EB0000E94121DE5CE892F8F712223C9F3BCCF2A
:104EC000332359F0893309F01BCFEFEFF7EE23E0DE
:104ED000E150F0402040E1F711CF892F8F71ACCF26
:104EE00050E1E5165FE5F50611F40C94741E61E1DE
:104EF000E6166FE5F60611F40C947E1E23E7E21623
:104F0000F10411F00C94801E882311F40C94801E7F
:104F100081E0809338028093390210923A02109215
:104F2000DB011092DA01F6019281992309F475C030
:104F300010928E06F3E0EF16FDE5FF0608F0DACCDE
:104F40002AEFE2162CE5F20638F4970122503C4590
:104F50002431310508F0D4CC0E94FE1290932C022B
:104F600080932B0240E1E4164CE5F40609F4AFCD42
:104F700008F021CD68E0E6166CE5F60609F499CD57
:104F800008F0EACC94E0E9169CE5F90609F483CD33
:104F900008F0CCCCE2E0EE16ECE5FE0609F475CDA7
:104FA00080912B028260F3E0EF16FCE5FF0609F426
:104FB0006FCD60912B0210912C0284E090E00E9452
:104FC000A936612F82E290E00E94A9360E941D1747
:104FD0000C94601D90E1E9169FE5F90611F40C941C
:104FE000781EA1E1EA16AFE5FA0609F087CF82E064
:104FF0000C94791E85E0DE01119601900D928A9540
:10500000E1F7F601228189819A8121110C94761DA4
:105010000E94BA07182F0C947E1DF6E1EF16FCE5EE
:10502000FF0689F58091DC01811178CD89E20E942B
:105030008A0779CC82722CECE2162CE5F20609F490
:10504000B9CD08F083C046ECE4164CE5F40609F44B
:105050009DCD08F052C063ECE6166CE5F60609F447
:1050600088CDD0F5E2ECEE16ECE5FE0609F458CD5D
:10507000E114ECE5FE0609F4BACDFEEDEF16FCE511
:10508000FF0609F4C1CDF60100811181992309F4CD
:10509000BFCDC8010E948312F82E682FC8010E945C
:1050A000E107B8018F2D0E9476120E940B06182F7F
:1050B000B82EF60122814581342F32953F70892F19
:1050C00082958F70E82EF12C8C3008F0D9CDF70145
:1050D000E65AF84C0C940336F4ECEF16FCE5FF06A8
:1050E00009F44FCD49ED56E162EE76E125ECE2168A
:1050F0002CE5F20609F441CDBBCF39ECE3163CE5D3
:10510000F30609F44DCD88F457ECE5165CE5F50699
:1051100009F441CD68ECE6166CE5F60609F0A8CF77
:105120004DEC56E161EC76E128CDAAECEA16ACE54F
:10513000FA0609F43ACD4BEE56E16CEF76E1EBEC72
:10514000EE16ECE5FE0609F418CD92CFF1EDEF1660
:10515000FCE5FF0609F43FCDB8F43EECE3163CE570
:10516000F30609F42FCD08F42ACD5FECE5165CE5D3
:10517000F50609F42DCD60EDE6166CE5F60609F0AE
:1051800077CF6EE089E020CD84EDE8168CE5F80657
:1051900009F427CD78F4E2EDEE16ECE5FE0609F40D
:1051A0001DCD61E088E1F3EDEF16FCE5FF0609F4A3
:1051B000DCCC5ECF25EDE2162CE5F20609F414CD29
:1051C0006AE285E23DE5E316F30609F4FDCC50CF33
:1051D0004EECE4164CE5F40611F40C94381FAFECD9
:1051E000EA16ACE5FA0609F41FCBE0EDEE16ECE5A5
:1051F000FE0609F419CBF1EDEF16FCE5FF0609F404
:1052000013CB22EDE2162CE5F20609F40DCB33EDBB
:10521000E3163CE5F30609F407CB44EDE4164CE550
:10522000F40609F401CB55EDE5165CE5F50609F445
:10523000FBCA6DE5E616F60609F001CB8111F7CA47
:1052400072CE1F93CF93DF938091EB01807FA9F4FF
:105250008091E801882389F080911D02D091EC01B2
:105260006091E6017091E701A091E901B091EA0136
:10527000C62FC72316E0D81304C0DF91CF911F912A
:10528000089590E0109711F0CF3F19F401968770C0
:10529000F2CF189F9001199F300D1124F901E351AD
:1052A000FE4F41814713F2CF40814613EFCF428139
:1052B0004111ECCF438154814A1B5B0B483C5105A3
:1052C00028F78091EB018F7080618093EB01F901E9
:1052D000EE50FE4F80818F708061808386EE91E07A
:1052E0000E943E1DDF91CF911F910C94B007AF92A9
:1052F000BF92CF92DF92EF92FF920F931F93CF93C3
:10530000DF93CDB7DEB761970FB6F894DEBF0FBE5F
:10531000CDBF8C0185E0F801DE011D9601900D9254
:105320008A95E1F7F801E28086EEA82E81E0B82E9A
:105330006091E9017091EA016115710509F432C1CA
:105340009091E6014091E701892F84238F3F09F472
:1053500029C120813181C380D480F090E801F60119
:10536000E61BF70BFF2009F4E8C08091EB01582FF2
:10537000507FE83CF10508F0ABC0511177C0FE2C1E
:10538000431321C092131FC0E1101DC08F708061B4
:105390008093EB01C5010E943E1D8091EB01F80155
:1053A00085838F2D61960FB6F894DEBF0FBECDBFFB
:1053B000DF91CF911F910F91FF90EF90DF90CF90F1
:1053C000BF90AF900895CD2829F0822F83238F3F7F
:1053D00009F003C180E0F82FF170DF2E80FF3CC0A0
:1053E00080911D024091EC0156E0841315C02D8779
:1053F0003E878D859E850E94B212292F22952F709F
:105400002230F0F0243018F59F70F1F0F80195810A
:10541000907FD1F4D12C1EC090E0589FF001599F8D
:10542000F00D1124E351FE4F6181361306C06081F7
:10543000261303C06281E6120FC001968770D5CF94
:105440009F7011F0882331F3805E883018F3C80113
:105450000E943E1DFD2CA5CFEE2009F4A2CF809125
:10546000EB0181608093EB01F12C9BCF431306C0CD
:10547000921304C0F801EE2009F479C0C8010E941B
:10548000BE12882309F1EE20F9F08091EB01803201
:1054900070F02091E6013091E70138872F8319865B
:1054A000DB86CA868C87CE0107960E943E1D86E069
:1054B000F801A6EEB1E001900D928A95E1F70E9405
:1054C0002129FF24F3946DCFC8010E943E1DF9CF1E
:1054D00051110AC086EE91E00E943E1D86E0F50162
:1054E00011928A95E9F7C0CF43130FC092130DC0F4
:1054F000E1100BC0F8018583C8010E943E1D86E0C3
:10550000F50111928A95E9F74CCFC8010E94BE12AD
:105510008823D1F2EE20C1F28091EB01803238F283
:105520002091E6013091E7013A8329831B82DD82D5
:10553000CC828E83CE010196B8CFE83CF105F8F617
:10554000FE2CEE2009F243131FC092131DC0809160
:10555000EB0180FD10C0982F907F69F0F8018583E2
:10556000903F31F0982F907F905F8F70892B8583CB
:10557000C8010E943E1D86E0F801A6EEB1E0019050
:105580000D928A95E1F70DCFC8010E94BE128111DC
:105590008ECF8091EB0181608093EB01C8010E9466
:1055A0003E1DFFCEEE2009F48FCFC8010E94BE122F
:1055B000F82E882309F488CF86E0F801A6EEB1E042
:1055C00001900D928A95E1F78091E6019091E701B3
:1055D0000E94B2120E942129E4CE81E08E25FBCEEA
:1055E0001F93CF93DF93CDB7DEB767970FB6F894CD
:1055F000DEBF0FBECDBF4B8B5C8B6D8B7E8B8F8BDD
:10560000611110921F021A8A198A85E0FE017396B1
:10561000DE011D9601900D928A95E1F786E0FE016C
:105620003D96DE01179601900D928A95E1F7CE0125
:1056300007960E947729882389F016E080911D0241
:105640009091EC01891349C067960FB6F894DEBFBC
:105650000FBECDBFDF91CF911F91089586E0FE016F
:105660003796DE01119601900D928A95E1F78A85B1
:105670009B85892B11F38F81988589238F3FE9F2D0
:105680002091EC0130E0C901019687709927409183
:105690001D024817190671F40E941D171092EC01A3
:1056A00010921D0286E0E6EEF1E0DF011D928A9580
:1056B000E9F7C3CF96E0929FD001939FB00D1124DC
:1056C000A351BE4FFE01319601900D929A95E1F7DC
:1056D0008093EC010E94B007B0CF819FC0011124DC
:1056E00083519E4F0E947729882309F4ADCF809182
:1056F0001D0290E001968770992780931D029ECF2E
:105700004F925F926F927F928F929F92AF92BF92D1
:10571000CF92DF92EF92FF920F931F93CF93DF937D
:10572000CDB7DEB72D970FB6F894DEBF0FBECDBF55
:105730007E0148E0E40EF11C86E0F70111928A95A3
:10574000E9F7B4E6CB2EB1E0DB2E10E000E0AA24AE
:10575000A394B12CF60181916F018F3F09F443C0EE
:10576000F894E82FE295EF70F0E021A18F70A50189
:1057700002C0440F551F8A95E2F7CA01922F982B59
:1057800091A392A18095892382A3789400C0EAE630
:10579000F1E0912C31E021912F3F09F46DC0A22F4F
:1057A000A295AF70B0E090968C9190E02F7002C0FF
:1057B000959587952A95E2F780FD5EC0832F982AFC
:1057C000330F51E0EE36F50731F7F601319780815E
:1057D0008F3F11F00E94B10580EA8A95F1F7F70139
:1057E000E00FF11F90820F5F1F4F0630110509F087
:1057F000B1CF46E050E0B7018DE292E00E948836DA
:10580000CC24C394009709F4C12C892BB9F186E00C
:10581000FE013896ADE2B2E001900D928A95E1F773
:1058200081E0809324020E94FE1B909323028093C8
:10583000220280912202909123020E94EF1B059781
:1058400008F180912D0280934C0280912E0280936A
:105850004D0280912F0280934E02809130028093FE
:105860004F028091310280935002809132028093E6
:1058700051021092240206C080E0A1CF8091240240
:105880008111D7CF80911D0190911E01892B41F08C
:1058900080911B0190911A0189238F3F09F022C248
:1058A0008091220190912301892B41F080911F0169
:1058B0009091200189238F3F09F0FAC18091130153
:1058C00090911401892B41F0809111019091100168
:1058D00089238F3F09F0D2C180911801909119015D
:1058E000892B41F0809116019091150189238F3FFA
:1058F00009F0AAC180913A02882309F4E1C080919D
:105900003602909137022091340230913502FC0129
:10591000E21BF30B9F0121343F4108F4D1C0909367
:1059200035028093340208EC10E027E030E0AE014D
:105930004F5F5F4F60E080ED0E947C350E94CB3569
:105940008981282F30E094E0359527959A95E1F7E5
:10595000922F97702AE08F70929F800D1124809370
:1059600025023A81832F90E044E0959587954A95EA
:10597000E1F787703F70F32E829FF00C1124F092B4
:1059800026023B81832F90E054E0959587955A95A8
:10599000E1F783703F70E32E829FE00C1124E092C8
:1059A00027028D81482F50E064E0559547956A9510
:1059B000E1F747708F70429F800D11248093280279
:1059C0008E81482F50E074E0559547957A95E1F720
:1059D00043708F70429F800D1124809329028F8124
:1059E000482F50E0E4E055954795EA95E1F743707C
:1059F0008F70429F800D112480932A028E2D622F7A
:105A00000E94E335782E36EF0E2D839F000D112472
:105A10008F2D0E94E335D82E1F2D839F100D11244A
:105A200040903B0250903C0260903D02FEE5AF2E5C
:105A3000F2E0BF2EAEED8A2EA3E09A2E9501442D02
:105A4000652D862D0E94180543E0A40EB11C8A1412
:105A50009B04A1F759E05E1508F450C080E00E9455
:105A6000920F011159C084E00E94920FF9E0FF15D6
:105A700008F489C089E00E94920F1111AEC08DE038
:105A80000E94920F26ED32E04FEF60E080E00E942E
:105A9000180526E033E04FEF60E080E00E94180533
:105AA00023E333E04FEF60E080E00E94180523E637
:105AB00033E04FEF60E080E00E9418050E940C1375
:105AC0000E94B90470933702609336028C2D2D9694
:105AD0000FB6F894DEBF0FBECDBFDF91CF911F91FF
