:100000000C94A8020C94EF020C94EF020C94EF02F3
:100010000C94EF020C94EF020C94EF020C94EF029C
:100020000C94EF020C94EF020C9404180C94C0177B
:100030000C94B12C0C94EF020C94EF020C94EF0290
:100040000C94EF020C94EF020C94EF020C94EF026C
:100050000C94EF020C94DD180C94EF020C94EF0258
:100060000C94EF020C94EF020C94EF020C94EF024C
:100070000C94EF020C94EF020C94EF020C94EF023C
:100080000C94EF020C94EF020C94EF020C94EF022C
:100090000C94EF020C94EF020C94EF020C94EF021C
:1000A0000C94EF020C94EF020C94EF02050109800E
:1000B000A101850319012AB700150126B700950192
:1000C00075108100C0050C0901A101850419012AE0
:1000D000A002150126A002950175108100C00660DE
:1000E000FF0961A1010962150026FF00952075082E
:1000F00081020963150026FF00952075089102C052
:1001000005010906A101050719E029E715002501E8
:10011000950875018102950175088101050719008F
:1001200029FF150026FF00950675088100050819AE
:10013000012905950575019102950175039101C08D
:1001400000000000000000000000000000000000AF
:10015000000000000000000000000000000000009F
:10016000000000007E0F00D4FFFFFFC700000078F2
:1001700000000000000000002A2B28000000000002
:100180000000000000000000000000290000000046
:100190002C1E3420212224342627252E362D3738B4
:1001A000271E1F202122232425263333362E3738BD
:1001B0001F0405060708090A0B0C0D0E0F1011127B
:1001C000131415161718191A1B1C1D2F3130232D47
:1001D000350405060708090A0B0C0D0E0F10111245
:1001E000131415161718191A1B1C1D2F3130354CF6
:1001F0001E0F05643214783C1E000101010101014B
:1002000001010102020202020202020203030303CD
:10021000030303030404040404040405050505059D
:10022000060606060607070707070808080809095B
:1002300009090A0A0A0B0B0B0C0C0C0D0D0D0E0E06
:100240000E0F0F0F10101111111212131314141599
:100250001516161717181819191A1A1B1B1C1D1D0D
:100260001E1E1F2020212222232424252626272863
:1002700029292A2B2C2D2D2E2F3031323233343593
:10028000363738393A3B3C3D3E3F40414243444596
:10029000464748494A4C4D4E4F5051535455565875
:1002A000595A5B5D5E5F616264656668696B6C6D1F
:1002B0006F7072737577787A7B7D7E808283858795
:1002C000888A8C8E8F91939596989A9C9EA0A2A3D3
:1002D000A5A7A9ABADAFB1B3B5B7BABCBEC0C2C4D8
:1002E000C6C9CBCDCFD1D4D6D8DBDDDFE2E4E7E998
:1002F000EBEEF0F3F5F8FAFDFFFFAA7F554022235D
:10030000252628292A2C2D2F3032333536383A3BF2
:100310003D3E4042434547494A4C4E505153555744
:10032000595A5C5E6062646668696B6D6F71737563
:1003300077797B7D7F81838587898A8C8E90929463
:1003400096989A9C9E9FA1A3A5A7A8AAACAEAFB170
:10035000B3B4B6B8B9BBBCBEBFC1C2C3C5C6C7C9BA
:10036000CACBCCCDCED0D1D2D2D3D4D5D6D7D7D874
:10037000D9D9DADADBDBDBDCDCDCDCDCDDDDDDDDC6
:10038000DCDCDCDCDCDBDBDBDADAD9D9D8D7D7D6CE
:10039000D5D4D3D2D2D1D0CECDCCCBCAC9C7C6C585
:1003A000C3C2C1BFBEBCBBB9B8B6B4B3B1AFAEACCB
:1003B000AAA8A7A5A3A19F9E9C9A98969492908E76
:1003C0008C8A89878583817F7D7B79777573716F4F
:1003D0006D6B6968666462605E5C5A59575553512B
:1003E000504E4C4A4947454342403E3D3B3A3836E1
:1003F000353332302F2D2C2A292826252322AB00F5
:100400005D5DCD5CAE002400250026002A41210060
:100410002200230000001E001F00200028002700EB
:10042000370000000000CA5CC95CAA00A900730084
:100430005400550056004A0052004B00570050002F
:1004400051004F0000004D0000004E002800000049
:100450004C00000000000000000000000000000050
:10046000000000000000000000000000000000008C
:10047000000000000000000000000000000000007C
:10048000000000000000000000000000000000006C
:10049000000000000000000000000000000000005C
:1004A000000000000000000000000000000000004C
:1004B0000000000000000000000000000000090231
:1004C0005B00030100A0FA09040000010301010020
:1004D0000921110100012240000705810308000ADB
:1004E000090401000203000000092111010001229A
:1004F00022000705820320000107050303200001F5
:100500000904020001030000000921110100012279
:1005100032000705840320000A12010002000000D7
:1005200008EDFE268A0100010200010E036E006F35
:1005300000770070006100640000000E0355004E5B
:10054000005200450041004C000000040309040073
:1005500011241FBECFEFDAE0DEBFCDBF04B603FE2D
:1005600027C080916D0690916E06A0916F06B091A4
:1005700070068730904BA740B04BD1F410926D06B7
:1005800010926E0610926F061092700614BE84B719
:10059000877F84BF0FB6F894A8958091600088612A
:1005A00080936000109260000FBEE0E0F8E30995D0
:1005B00026E0ACEAB1E001C01D92AD36B207E1F72A
:1005C00011E0A0E0B1E0EAE9FAE602C005900D9280
:1005D000AC3AB107D9F70E94D82C0C9414350C947E
:1005E0000000E8EDF0E080818E7F80831092E200D1
:1005F0001092DA001092E100A0EEB0E08C918160E0
:100600008C9380818F77808319BCA7EDB0E08C91AB
:100610008E7F8C9380818F7E808310925506089503
:100620002091E4003091E50095E6A9012091EC00CD
:10063000822F817020FF06C08091E80080FF06C0F5
:1006400080E008952091E80022FD1AC080916206A2
:10065000882389F0853089F08091EB0085FD0FC0FB
:100660002091E4003091E50042175307F9F29150D0
:10067000E1F684E0089582E0089583E0089581E042
:100680000895EF92FF920F931F93CF937C018B01FC
:100690000E941003C82F811117C08091E80085FDCA
:1006A0000BC08091E8008E778093E8000E941003D1
:1006B000882399F3C82F08C0F70181917F018093A7
:1006C000F1000150110949F78C2FCF911F910F9123
:1006D000FF90EF9008958091640687FF13C080918A
:1006E000E80082FF06C08091E8008B778093E800E5
:1006F00004C0809162068111F2CF08958091620654
:100700008823D9F38091E80080FFF8CF8091E8003A
:100710008E77ECCF982F9093E900242F762F50E01E
:10072000891731F07091EC002091ED005091F000AC
:1007300021FD07C09F5F973071F78093E90081E04A
:1007400008953091EB003E7F3093EB003091ED0047
:100750003D7F3093ED003091EB0031603093EB0042
:100760007093EC002093ED005093F0002091EE0088
:1007700027FDE0CF80E00895CF92DF92EF92FF92C5
:100780000F931F93CF93DF93C8EDD0E088818F7EC6
:100790008883E7EDF0E080818160808384E082BF20
:1007A00081E08093550688818E7F888302EE10E079
:1007B000F80110821092DA0081EEC82ED12CF601D9
:1007C000108288818F778883888180688883888178
:1007D0008F7D888319BC1092620610926306109276
:1007E00061061092600690EEE92EF12CF7018081EF
:1007F0008B7F808388818160888342E060E080E035
:100800000E948A03F60180818E7F8083F8018081B7
:1008100081608083808188608083F70180818E7F02
:100820008083888180618883DF91CF911F910F91B0
:10083000FF90EF90DF90CF900895FC0180916A06C1
:1008400090916B0686179707A0F06115710529F442
:100850009091E8009E779093E80090E06115710513
:1008600051F4911108C08091E80082FF34C080E00B
:100870000895BC01F2CF809162068823C1F18530D2
:10088000C1F18091E80083FD30C08091E80082FDD5
:10089000EACF8091E80080FFE1CF8091F3002091C2
:1008A000F200382F6115710519F02830310558F024
:1008B00091E02830310509F090E02091E8002E7792
:1008C0002093E800CBCF81918093F10061507109B2
:1008D0002F5F3F4FE7CF80916206882341F085303C
:1008E00041F08091E80083FFBECF81E0089582E06F
:1008F000089583E008950895089508958091570616
:10090000089587E797E7909301088093000888E1AE
:100910009AE00FB6F894A895809360000FBE90936C
:100920006000FFCF2FB7F89460914E0670914F068C
:1009300080915006909151062FBF089520914B064B
:1009400030914C062817390771F090934C0680932C
:100950004B06E0914906F0914A06309721F0008459
:10096000F185E02D099408952091470630914806BD
:100970002817390771F09093480680934706E09155
:100980004906F0914A06309721F00680F781E02D64
:1009900009940895E0914906F0914A06309721F0B4
:1009A0000190F081E02D099480E00895FA01811111
:1009B00001C0FB01099480914206982F9E7F61F44B
:1009C0008170826080934206809145068F3618F0D0
:1009D0008EE68093450608958633B0F38170846374
:1009E000F1CFAF92BF92DF92EF92FF920F931F93DE
:1009F000CF93DF93082F162FE901E42FF0E0E750A3
:100A0000FE4F611110C0E4915E2F4E2F4983E883A1
:100A10005A83DF91CF911F910F91FF90EF90DF905C
:100A2000BF90AF900895E62EF12C4491D42EE42F80
:100A3000F0E026E0829FC00111242FEF30E0B901E1
:100A40000E94B233802F90E0880F991F55E5569F82
:100A5000D001579FB00D11248A1B9B0B982F990F23
:100A6000890F5901AE18BF08AE9ED001AF9EB00DE0
:100A7000BE9EB00D11245B2F189F80011124012F01
:100A800011275901A01AB10AAE9E8001AF9E100D28
:100A9000BE9E100D11245901A81AB108AE9CC001C8
:100AA000AF9C900DBE9C900D1124892F9927281B77
:100AB000390B2E9FC0012F9F900D3E9F900D11244A
:100AC000E92F62307105A1F050F46115710509F448
:100AD0009DCF6130710581F0EB2F512F97CF64309E
:100AE000710569F080F06630710509F48FCFF4CF9D
:100AF000E42F4B2F592F8ACFE42F412F87CFEB2F95
:100B0000542F492F83CF4B2F5D2DE12F7FCF80E0D6
:100B10000895F894E82FE295EF70F0E031A1282FC6
:100B20002F7081E090E001C0880F2A95EAF7982F96
:100B30009095932391A392A1892B82A378940895F1
:100B40009091120292FF06C0282F28712830F9F4E4
:100B5000877F846093FF06C0282F28712831F1F425
:100B6000877E84612091130220FF06C0382F3871E0
:100B70003830D9F4877F816021FF06C0282F287183
:100B80002831D1F4877E816194FD877E0895282FD6
:100B900024712430F9F68B7F8860DCCF282F2471F4
:100BA000243101F78B7E8861DDCF382F31713130F0
:100BB00019F78E7F8860E0CF282F2171213121F72E
:100BC0008E7E8861E1CFCF93DF93EC01823891056F
:100BD00081F1B0F58133910509F491C020F5893296
:100BE000910509F485C08A9709F490C0C11521E5E3
:100BF000D20708F0AAC0C11530E5D30708F0F2C04B
:100C0000CF3BD10508F089C0C83AD10508F0DFC054
:100C1000C53AD10508F0D3C0C430D105F8F4C130CD
:100C2000D105E1F040C08533910509F45AC0C99758
:100C3000E9F680911202837089F0C0EED0E00EC018
:100C4000833E910599F170F4803E910501F1823E59
:100C5000910561F68091120282FD21C0CE01DF91E3
:100C6000CF910895863E910561F1873E910571F11E
:100C7000843E910509F0BACF8091130281FFEECF37
:100C800080911202C7EED0E084FD0DC0E7CF8091C5
:100C9000120280FDF7C09091130290FFDFCFC3EEE8
:100CA000D0E084FFDBCFD0E0C0E0D8CF809112024B
:100CB00082FDEBC09091130290FDBFCF84FFCECF99
:100CC000F2CF8091120283FDDDCFC8CF8091120256
:100CD00083FDDEC09091130291FFF0CFC4EED0E00F
:100CE000BDCF8091120285FFB9CFC9E2D0E0B6CF67
:100CF0008091120285FFB2CFC5E3D0E0AFCF8091E3
:100D0000120286FFABCFCAE2D0E0A8CF80911202D8
:100D100086FFA4CFC1E3D0E0A1CFC11540E2D40744
:100D200060F4C11581E0D80708F098CFCE01815E4C
:100D30009109079708F492CFB6CFC11590E4D9076F
:100D400008F4B1CFDF70D06A89CFC11524E5D2078E
:100D500078F4C11533E5D30708F072C0C11542E538
:100D6000D40708F05CC0DC2FCC27C16FD06A76CFE7
:100D7000C1158AE5D80778F4C11599E5D90708F0B7
:100D800073C0C11528E5D20708F48DCFDC2FCC271E
:100D9000C06FD06A63CFCE0190568115904208F0A3
:100DA00082CF8D2F8F710E94A00590E0982F882709
:100DB00088279F719C012C2BE901D0624FCFC55A27
:100DC000D0E0C05DDE4FC881D0E0D06447CFC85AC4
:100DD000D0E0CC0FDD1FCD5CDE4F0990D881C02D57
:100DE000D4643CCFCE0164E0969587956A95E1F78F
:100DF00083702C2F26952695237040E2249F900126
:100E00001124382B8C2F8370C1E0D0E002C0CC0FAE
:100E1000DD1F8A95E2F7C22BD32BDC681FCFCE01F2
:100E20008370992721E030E002C0220F331F8A959A
:100E3000E2F7C695C69580E2C89FE0011124EBCF8A
:100E4000CE018370992721E030E002C0220F331FCA
:100E50008A95E2F7C695C69590E2C99FE0011124F4
:100E6000C22BD32BDA68FACE8C2F8F700E94A0058C
:100E700034E0D695C7953A95E1F7CF709C2FEC01F9
:100E8000D069ECCEC9E3D0E0E9CEC2EED0E0E6CE48
:100E9000C6EED0E0E3CE8091060290910502892B48
:100EA00090910402892B8093AE01E0914906F09164
:100EB0004A06309731F00280F381E02D8EEA91E00E
:100EC00009940895809103029091D201981301C072
:100ED00008958F5F8770FACF990F990F890F982F18
:100EE000977086958695869523E0829FF001112460
:100EF000ED53FE4F50E040E080E0219130E0092EBC
:100F000002C0369527950A94E2F721703327042E04
:100F100001C0220F0A94EAF7822B4F5F5F4F4330E4
:100F2000510559F70895990F990F890F982F9770C8
:100F300041E001C0440F9A95EAF78695869586951B
:100F400093E0899FF0011124ED53FE4F30E020E043
:100F500070E05191DF011197CB01022E02C09695EE
:100F600087950A94E2F781708195852784238527E8
:100F70008C932F5F3F4F2330310559F7089590E050
:100F800080E00E94B40490E080E00E949E041092F1
:100F90000502109204020C944B07809307020C94F4
:100FA000BF07882341F080959091060289238093A2
:100FB00006020C944B070895882339F0909106029D
:100FC000982B909306020C944B0708958823B1F157
:100FD0009CEF980F913A70F4E0EBF1E09191891356
:100FE00003C0DF0111971C9241E0E63BF407B1F723
:100FF0000C944B0790E2980F983088F4877021E0AA
:1010000030E0A90102C0440F551F8A95E2F7CA01DA
:10101000809590910602892380930602E9CF9BE593
:10102000980F933020F490E080E00C94B404885A38
:10103000873120F490E080E00C949E0408950F9393
:101040001F93CF93C82F882309F469C08CEF8C0FAE
:10105000813AB0F500EB11E086EB91E0F8012191C7
:10106000C21701F121E0E63BF207C9F7EFEF80E09C
:10107000D8019D918D01C91781F0EF3F19F49111AD
:1010800001C0E82F8F5F863099F7EF3F31F00E2EC9
:10109000000CFF0BE255FE4FC283CF911F910F91C1
:1010A0000C944B07E0EBF1E02191C21303C0DF0188
:1010B00011971C928E179F07B9F70E944B07D6CF46
:1010C00080E28C0F883068F4C77021E030E001C006
:1010D000220FCA95EAF780910602822B80930602BE
:1010E000DCCFEBE5EC0FE33050F4F0E0E05DFE4FD9
:1010F000808190E0CF911F910F910C94B404C85A55
:10110000C73168F4EC2FF0E0EE0FFF1FED5CFE4FEF
:1011100080819181CF911F910F910C949E04CF916A
:101120001F910F910895CF93DF9393E0899FE00182
:1011300011249E012E5B3D4F40E060E080E00E9464
:10114000F1049E012B5B3D4F40E060E080E00E9497
:10115000F1049E01285B3D4F40E060E080E00E948A
:10116000F1049E012E583D4F4EE66FEF85E50E943B
:10117000F1049E012B583D4F4EE66FEF85E50E942E
:10118000F1049E0128583D4F4EE66FEF85E50E9421
:10119000F1049E012E553D4F4EE66FEF85E50E940E
:1011A000F1049E012B553D4F40E060E080E00E943D
:1011B000F1049E0128553D4F4EE66FEF85E50E94F4
:1011C000F1049E012E523D4F4EE66FEF85E50E94E1
:1011D000F1049E012B523D4F4EE66FEF85E50E94D4
:1011E000F1049E0128523D4F4EE66FEF85E50E94C7
:1011F000F1049E012E5F3C4F40E060E080E00E94E1
:10120000F1049E012B5F3C4F40E060E080E00E94D3
:10121000F1049E01285F3C4F4EE66FEF85E50E948A
:10122000F1049E012E5C3C4F40E060E080E00E94B3
:10123000F1049E012B5C3C4F40E060E080E00E94A6
:10124000F1049E01285C3C4F4EE66FEF85E50E945D
:10125000F1049E012E593C4F40E060E080E00E9486
:10126000F1049E012B593C4F40E060E080E00E9479
:10127000F1049E0128593C4F4EE66FEF85E50E9430
:10128000F1049E012E563C4F40E060E080E00E9459
:10129000F1049E012B563C4F40E060E080E00E944C
:1012A000F1049E0128563C4F40E060E080E0DF9171
:1012B000CF910C94F104CF93DF9393E0899FE001E9
:1012C00011249E012E5B3D4F40E060E080E00E94D3
:1012D000F1049E012B5B3D4F40E060E080E00E9406
:1012E000F1049E01285B3D4F40E060E080E00E94F9
:1012F000F1049E012E583D4F40E060E080E00E94E6
:10130000F1049E012B583D4F4EE66FEF85E50E949C
:10131000F1049E0128583D4F40E060E080E00E94CB
:10132000F1049E012E553D4F4EE66FEF85E50E947C
:10133000F1049E012B553D4F40E060E080E00E94AB
:10134000F1049E0128553D4F4EE66FEF85E50E9462
:10135000F1049E012E523D4F40E060E080E00E948B
:10136000F1049E012B523D4F4EE66FEF85E50E9442
:10137000F1049E0128523D4F40E060E080E00E9471
:10138000F1049E012E5F3C4F4EE66FEF85E50E9413
:10139000F1049E012B5F3C4F40E060E080E00E9442
:1013A000F1049E01285F3C4F4EE66FEF85E50E94F9
:1013B000F1049E012E5C3C4F4EE66FEF85E50E94E6
:1013C000F1049E012B5C3C4F40E060E080E00E9415
:1013D000F1049E01285C3C4F4EE66FEF85E50E94CC
:1013E000F1049E012E593C4F40E060E080E00E94F5
:1013F000F1049E012B593C4F4EE66FEF85E50E94AC
:10140000F1049E0128593C4F40E060E080E00E94DA
:10141000F1049E012E563C4F40E060E080E00E94C7
:10142000F1049E012B563C4F40E060E080E00E94BA
:10143000F1049E0128563C4F40E060E080E0DF91DF
:10144000CF910C94F104CF93DF9393E0899FE00157
:1014500011249E012E5B3D4F40E060E080E00E9441
:10146000F1049E012B5B3D4F40E060E080E00E9474
:10147000F1049E01285B3D4F40E060E080E00E9467
:10148000F1049E012E583D4F4EE66FEF85E50E9418
:10149000F1049E012B583D4F4EE66FEF85E50E940B
:1014A000F1049E0128583D4F4EE66FEF85E50E94FE
:1014B000F1049E012E553D4F40E060E080E00E9427
:1014C000F1049E012B553D4F40E060E080E00E941A
:1014D000F1049E0128553D4F4EE66FEF85E50E94D1
:1014E000F1049E012E523D4F40E060E080E00E94FA
:1014F000F1049E012B523D4F40E060E080E00E94ED
:10150000F1049E0128523D4F4EE66FEF85E50E94A3
:10151000F1049E012E5F3C4F40E060E080E00E94BD
:10152000F1049E012B5F3C4F4EE66FEF85E50E9474
:10153000F1049E01285F3C4F40E060E080E00E94A3
:10154000F1049E012E5C3C4F40E060E080E00E9490
:10155000F1049E012B5C3C4F4EE66FEF85E50E9447
:10156000F1049E01285C3C4F40E060E080E00E9476
:10157000F1049E012E593C4F40E060E080E00E9463
:10158000F1049E012B593C4F4EE66FEF85E50E941A
:10159000F1049E0128593C4F40E060E080E00E9449
:1015A000F1049E012E563C4F40E060E080E00E9436
:1015B000F1049E012B563C4F40E060E080E00E9429
:1015C000F1049E0128563C4F40E060E080E0DF914E
:1015D000CF910C94F104CF93DF9393E0899FE001C6
:1015E00011249E012E5B3D4F40E060E080E00E94B0
:1015F000F1049E012B5B3D4F40E060E080E00E94E3
:10160000F1049E01285B3D4F40E060E080E00E94D5
:10161000F1049E012E583D4F40E060E080E00E94C2
:10162000F1049E012B583D4F4EE66FEF85E50E9479
:10163000F1049E0128583D4F4EE66FEF85E50E946C
:10164000F1049E012E553D4F4EE66FEF85E50E9459
:10165000F1049E012B553D4F40E060E080E00E9488
:10166000F1049E0128553D4F40E060E080E00E947B
:10167000F1049E012E523D4F4EE66FEF85E50E942C
:10168000F1049E012B523D4F4EE66FEF85E50E941F
:10169000F1049E0128523D4F40E060E080E00E944E
:1016A000F1049E012E5F3C4F4EE66FEF85E50E94F0
:1016B000F1049E012B5F3C4F40E060E080E00E941F
:1016C000F1049E01285F3C4F4EE66FEF85E50E94D6
:1016D000F1049E012E5C3C4F4EE66FEF85E50E94C3
:1016E000F1049E012B5C3C4F40E060E080E00E94F2
:1016F000F1049E01285C3C4F4EE66FEF85E50E94A9
:10170000F1049E012E593C4F40E060E080E00E94D1
:10171000F1049E012B593C4F4EE66FEF85E50E9488
:10172000F1049E0128593C4F40E060E080E00E94B7
:10173000F1049E012E563C4F40E060E080E00E94A4
:10174000F1049E012B563C4F40E060E080E00E9497
:10175000F1049E0128563C4F40E060E080E0DF91BC
:10176000CF910C94F104CF93DF9393E0899FE00134
:1017700011249E012E5B3D4F40E060E080E00E941E
:10178000F1049E012B5B3D4F40E060E080E00E9451
:10179000F1049E01285B3D4F40E060E080E00E9444
:1017A000F1049E012E583D4F4EE66FEF85E50E94F5
:1017B000F1049E012B583D4F4EE66FEF85E50E94E8
:1017C000F1049E0128583D4F4EE66FEF85E50E94DB
:1017D000F1049E012E553D4F4EE66FEF85E50E94C8
:1017E000F1049E012B553D4F40E060E080E00E94F7
:1017F000F1049E0128553D4F40E060E080E00E94EA
:10180000F1049E012E523D4F4EE66FEF85E50E949A
:10181000F1049E012B523D4F4EE66FEF85E50E948D
:10182000F1049E0128523D4F40E060E080E00E94BC
:10183000F1049E012E5F3C4F40E060E080E00E949A
:10184000F1049E012B5F3C4F40E060E080E00E948D
:10185000F1049E01285F3C4F4EE66FEF85E50E9444
:10186000F1049E012E5C3C4F40E060E080E00E946D
:10187000F1049E012B5C3C4F40E060E080E00E9460
:10188000F1049E01285C3C4F4EE66FEF85E50E9417
:10189000F1049E012E593C4F4EE66FEF85E50E9404
:1018A000F1049E012B593C4F4EE66FEF85E50E94F7
:1018B000F1049E0128593C4F40E060E080E00E9426
:1018C000F1049E012E563C4F40E060E080E00E9413
:1018D000F1049E012B563C4F40E060E080E00E9406
:1018E000F1049E0128563C4F40E060E080E0DF912B
:1018F000CF910C94F104CF93DF9393E0899FE001A3
:1019000011249E012E5B3D4F40E060E080E00E948C
:10191000F1049E012B5B3D4F40E060E080E00E94BF
:10192000F1049E01285B3D4F40E060E080E00E94B2
:10193000F1049E012E583D4F4EE66FEF85E50E9463
:10194000F1049E012B583D4F40E060E080E00E9492
:10195000F1049E0128583D4F4EE66FEF85E50E9449
:10196000F1049E012E553D4F4EE66FEF85E50E9436
:10197000F1049E012B553D4F40E060E080E00E9465
:10198000F1049E0128553D4F4EE66FEF85E50E941C
:10199000F1049E012E523D4F4EE66FEF85E50E9409
:1019A000F1049E012B523D4F40E060E080E00E9438
:1019B000F1049E0128523D4F4EE66FEF85E50E94EF
:1019C000F1049E012E5F3C4F4EE66FEF85E50E94CD
:1019D000F1049E012B5F3C4F4EE66FEF85E50E94C0
:1019E000F1049E01285F3C4F4EE66FEF85E50E94B3
:1019F000F1049E012E5C3C4F40E060E080E00E94DC
:101A0000F1049E012B5C3C4F40E060E080E00E94CE
:101A1000F1049E01285C3C4F4EE66FEF85E50E9485
:101A2000F1049E012E593C4F40E060E080E00E94AE
:101A3000F1049E012B593C4F40E060E080E00E94A1
:101A4000F1049E0128593C4F4EE66FEF85E50E9458
:101A5000F1049E012E563C4F40E060E080E00E9481
:101A6000F1049E012B563C4F40E060E080E00E9474
:101A7000F1049E0128563C4F40E060E080E0DF9199
:101A8000CF910C94F104CF93DF9393E0899FE00111
:101A900011249E012E5B3D4F40E060E080E00E94FB
:101AA000F1049E012B5B3D4F40E060E080E00E942E
:101AB000F1049E01285B3D4F40E060E080E00E9421
:101AC000F1049E012E583D4F4EE66FEF85E50E94D2
:101AD000F1049E012B583D4F4EE66FEF85E50E94C5
:101AE000F1049E0128583D4F4EE66FEF85E50E94B8
:101AF000F1049E012E553D4F40E060E080E00E94E1
:101B0000F1049E012B553D4F40E060E080E00E94D3
:101B1000F1049E0128553D4F4EE66FEF85E50E948A
:101B2000F1049E012E523D4F40E060E080E00E94B3
:101B3000F1049E012B523D4F4EE66FEF85E50E946A
:101B4000F1049E0128523D4F40E060E080E00E9499
:101B5000F1049E012E5F3C4F40E060E080E00E9477
:101B6000F1049E012B5F3C4F40E060E080E00E946A
:101B7000F1049E01285F3C4F4EE66FEF85E50E9421
:101B8000F1049E012E5C3C4F40E060E080E00E944A
:101B9000F1049E012B5C3C4F40E060E080E00E943D
:101BA000F1049E01285C3C4F4EE66FEF85E50E94F4
:101BB000F1049E012E593C4F4EE66FEF85E50E94E1
:101BC000F1049E012B593C4F4EE66FEF85E50E94D4
:101BD000F1049E0128593C4F4EE66FEF85E50E94C7
:101BE000F1049E012E563C4F40E060E080E00E94F0
:101BF000F1049E012B563C4F40E060E080E00E94E3
:101C0000F1049E0128563C4F40E060E080E0DF9107
:101C1000CF910C94F104CF93DF9393E0899FE0017F
:101C200011249E012E5B3D4F40E060E080E00E9469
:101C3000F1049E012B5B3D4F40E060E080E00E949C
:101C4000F1049E01285B3D4F40E060E080E00E948F
:101C5000F1049E012E583D4F40E060E080E00E947C
:101C6000F1049E012B583D4F4EE66FEF85E50E9433
:101C7000F1049E0128583D4F40E060E080E00E9462
:101C8000F1049E012E553D4F4EE66FEF85E50E9413
:101C9000F1049E012B553D4F40E060E080E00E9442
:101CA000F1049E0128553D4F4EE66FEF85E50E94F9
:101CB000F1049E012E523D4F40E060E080E00E9422
:101CC000F1049E012B523D4F40E060E080E00E9415
:101CD000F1049E0128523D4F4EE66FEF85E50E94CC
:101CE000F1049E012E5F3C4F40E060E080E00E94E6
:101CF000F1049E012B5F3C4F4EE66FEF85E50E949D
:101D0000F1049E01285F3C4F40E060E080E00E94CB
:101D1000F1049E012E5C3C4F4EE66FEF85E50E947C
:101D2000F1049E012B5C3C4F40E060E080E00E94AB
:101D3000F1049E01285C3C4F40E060E080E00E949E
:101D4000F1049E012E593C4F4EE66FEF85E50E944F
:101D5000F1049E012B593C4F4EE66FEF85E50E9442
:101D6000F1049E0128593C4F4EE66FEF85E50E9435
:101D7000F1049E012E563C4F40E060E080E00E945E
:101D8000F1049E012B563C4F40E060E080E00E9451
:101D9000F1049E0128563C4F40E060E080E0DF9176
:101DA000CF910C94F104CF93DF9393E0899FE001EE
:101DB00011249E012E5B3D4F40E060E080E00E94D8
:101DC000F1049E012B5B3D4F40E060E080E00E940B
:101DD000F1049E01285B3D4F40E060E080E00E94FE
:101DE000F1049E012E583D4F40E060E080E00E94EB
:101DF000F1049E012B583D4F4EE66FEF85E50E94A2
:101E0000F1049E0128583D4F40E060E080E00E94D0
:101E1000F1049E012E553D4F4EE66FEF85E50E9481
:101E2000F1049E012B553D4F4EE66FEF85E50E9474
:101E3000F1049E0128553D4F40E060E080E00E94A3
:101E4000F1049E012E523D4F40E060E080E00E9490
:101E5000F1049E012B523D4F4EE66FEF85E50E9447
:101E6000F1049E0128523D4F40E060E080E00E9476
:101E7000F1049E012E5F3C4F40E060E080E00E9454
:101E8000F1049E012B5F3C4F4EE66FEF85E50E940B
:101E9000F1049E01285F3C4F40E060E080E00E943A
:101EA000F1049E012E5C3C4F40E060E080E00E9427
:101EB000F1049E012B5C3C4F4EE66FEF85E50E94DE
:101EC000F1049E01285C3C4F40E060E080E00E940D
:101ED000F1049E012E593C4F40E060E080E00E94FA
:101EE000F1049E012B593C4F4EE66FEF85E50E94B1
:101EF000F1049E0128593C4F40E060E080E00E94E0
:101F0000F1049E012E563C4F40E060E080E00E94CC
:101F1000F1049E012B563C4F40E060E080E00E94BF
:101F2000F1049E0128563C4F40E060E080E0DF91E4
:101F3000CF910C94F104CF93DF9393E0899FE0015C
:101F400011249E012E5B3D4F40E060E080E00E9446
:101F5000F1049E012B5B3D4F40E060E080E00E9479
:101F6000F1049E01285B3D4F40E060E080E00E946C
:101F7000F1049E012E583D4F40E060E080E00E9459
:101F8000F1049E012B583D4F4EE66FEF85E50E9410
:101F9000F1049E0128583D4F40E060E080E00E943F
:101FA000F1049E012E553D4F4EE66FEF85E50E94F0
:101FB000F1049E012B553D4F40E060E080E00E941F
:101FC000F1049E0128553D4F4EE66FEF85E50E94D6
:101FD000F1049E012E523D4F4EE66FEF85E50E94C3
:101FE000F1049E012B523D4F40E060E080E00E94F2
:101FF000F1049E0128523D4F4EE66FEF85E50E94A9
:10200000F1049E012E5F3C4F4EE66FEF85E50E9486
:10201000F1049E012B5F3C4F40E060E080E00E94B5
:10202000F1049E01285F3C4F4EE66FEF85E50E946C
:10203000F1049E012E5C3C4F4EE66FEF85E50E9459
:10204000F1049E012B5C3C4F40E060E080E00E9488
:10205000F1049E01285C3C4F4EE66FEF85E50E943F
:10206000F1049E012E593C4F40E060E080E00E9468
:10207000F1049E012B593C4F4EE66FEF85E50E941F
:10208000F1049E0128593C4F40E060E080E00E944E
:10209000F1049E012E563C4F40E060E080E00E943B
:1020A000F1049E012B563C4F40E060E080E00E942E
:1020B000F1049E0128563C4F40E060E080E0DF9153
:1020C000CF910C94F1048093520670935406609360
:1020D0005306809162068430F9F48093E9008FEF13
:1020E0009091E800815095FD06C095ED9A95F1F725
:1020F00000008111F5CF8091E80085FF0DC050E010
:1021000040E063E070E082E596E00E944103809148
:10211000E8008E778093E8000895BC0184E00C9479
:102120006310BC0183E00C946310CF93DF93EC0148
:1021300081E08093E9008FEF9091E800815095FD58
:1021400006C095ED9A95F1F700008111F5CF8091C9
:10215000E80085FF14C050E040E068E070E0CE0188
:102160000E9441038091E8008E778093E80088E028
:10217000FE01A8E5B6E001900D928A95E1F7DF91A6
:10218000CF9108951F93CF93DF93182FEB010E94F7
:102190001F08209731F4812FDF91CF911F910C946C
:1021A000E6078FE99FE00197F1F700C00000219753
:1021B000F0CFCF93DF93C7EED0E060E0CE010E9476
:1021C0007D342196C11584E0D807B9F7DF91CF910E
:1021D00008956F927F928F929F92AF92BF92CF920B
:1021E000DF92EF92FF920F931F93CF93DF938EEFC7
:1021F000C82E83E0D82E0FE510E0E801E097360105
:102200001CC0F50185909490692DC7010E947D3412
:10221000682DC70101960E947D3482E0A80EB11C92
:1022200082E0E80EF11CCE15DF0559F788E0680E54
:10223000711C28960C171D0731F07E0188E0E81A02
:10224000F1085301DECF005D1F4F80E3C80ED11CA3
:102250000F3181E0180789F6DF91CF911F910F911F
:10226000FF90EF90DF90CF90BF90AF909F908F90B6
:102270007F906F900895CF93C82F6FEF811162E226
:1022800083E290E00E947D346FEFC11161E084E24F
:1022900090E00E947D346FEFC11160E385E290E031
:1022A000CF910C947D3480E00E943B1160E086E287
:1022B00090E00E947D340E94E9100E94D91081E0D4
:1022C0000C943B110F931F93CF93DF9328E0629FF1
:1022D000E001112450E0440F551FC40FD51F30E317
:1022E000839FC00DD11D1124CE0187960E946934B1
:1022F000082F10E0102F0027CE0188960E94693425
:102300009801282BC901DF91CF911F910F9108955A
:10231000462F843038F4763028F4643018F4672F70
:102320000C94621190E080E00895CF92DF92FF92CA
:102330000F931F93CF93DF936C0100916C068091F4
:102340000702082BC7E0D0E010E0FC2EC8010C2EDD
:1023500002C0959587950A94E2F780FD0CC02197FD
:10236000A0F7F12C8F2DDF91CF911F910F91FF904E
:10237000DF90CF900895B6018C2F0E9488110E94A3
:10238000E305019761F3EECFCF93DF93EC010E9459
:102390009511BE010E948811DF91CF910C94E30545
:1023A000FC01808191810E94C411292F2F70929588
:1023B0009F7092509E3078F4E92FF0E0EA5EFA4C7C
:1023C0000C94E633803F19F020F4883E20F481E03D
:1023D0000895843FE1F380E00895883EC0F3813F93
:1023E000D1F7F5CF822F869586958695089583E25D
:1023F00090E00E946934823289F484E290E00E9485
:102400006934813059F485E290E00E94693491E0AA
:10241000803309F090E0892F8170089580E0FCCF2F
:10242000CF9384E090E00E946934C82F82E290E06C
:102430000E946934982F8C2FCF9108958091420685
:1024400080FD0AC0E2E4F2E011821082128233962B
:1024500053E0E23CF507C1F7809A31B33E7F21B3E8
:1024600021604FB7F89482E492E0FC015191CF01D2
:1024700068E021BB000000C057FF31BB550F0000D2
:1024800000C000C000C031BB00C06A9591F7F3E006
:10249000823C9F0751F74FBF8FE594E00197F1F71A
:1024A00000C0000008957F928F929F92AF92BF92DA
:1024B000CF92DF92EF92FF920F931F93CF93DF9310
:1024C000FC01A280848081E08483EEEFF2E0B4908E
:1024D000EDE7F3E0E491C2ECD3E052E4E52E52E004
:1024E000F52E61E4762ECC24CA94D12C99249A94AA
:1024F000EB190E2F10E082E08A1530F08091430630
:102500008883809144068983811022C01B821A82AD
:102510004A814F3608F04EE69701698188810E9412
:10252000F104259683E0E80EF11C86E0C234D8075A
:1025300011F7DF91CF911F910F91FF90EF90DF90F6
:10254000CF90BF90AF909F908F907F900C941E1271
:102550008B818823E9F081508B83899DC0011124F0
:102560006C8170E00E94B233FB01FF27E250FD4F07
:102570008491E82FEB19E99DC0011124B8010E9454
:10258000B23380914506689FB00111247A83C0CF91
:102590000E943F342091450626952158279D9001A1
:1025A0001124232F3327821793070CF0B1CF82E039
:1025B0008A1588F40E943F34B6010E94D233888382
:1025C0000E943F34209144062695622F70E00E94BD
:1025D000D233280F29831A8280914506843108F46A
:1025E00084E18C838B8394CFEF92FF921F93CF93E0
:1025F000DF93EC0182E4E82E82E0F82E10E04091B7
:1026000045064F3608F04EE68C81970160914406EE
:10261000810F0E94F1041F5F83E0E80EF11C103867
:1026200071F70E941E129A818C8190FF08C08F5F03
:102630008C83DF91CF911F91FF90EF90089581508F
:10264000F7CF9091420690FF0CC0E2E4F2E0818364
:1026500060834283339693E0E23CF907C1F70C9420
:102660001E1208950F931F93CF93DF9300D00F9204
:10267000CDB7DEB78C018091420680FF13C0409138
:1026800045064F3608F04EE69E012F5F3F4F6091A2
:102690004406F80184810E94F1044B8169818A819A
:1026A0000E942113F80184818F5F84830F900F9023
:1026B0000F90DF91CF911F910F910895CF92DF92EC
:1026C000EF92FF926B017C010E94DB04B701A6012F
:1026D00088E090E0FF90EF90DF90CF900C948F34E3
:1026E0007F928F929F92AF92BF92CF92DF92EF92A2
:1026F000FF920F931F93CF93DF9300D00F92CDB72C
:10270000DEB7082FD62E142FC22E8091420680FFEE
:102710002DC0E82FE695AE2FB0E0AF57BE4F9C918D
:1027200090933F028E7F823091F54F3608F04EE64F
:102730009E012F5F3F4F6D2D802F0E94F1044B8132
:1027400069818A810E94211300934306D092440636
:1027500010934506CC2051F06091420670914306DB
:1027600080914406909145060E945E130F900F9051
:102770000F90DF91CF911F910F91FF90EF90DF901D
:10278000CF90BF90AF909F908F907F9008959230A0
:1027900019F400914306D8CF9530D9F39B30A1F6B8
:1027A000EB502E2F2170722EE695F0E0E750FD4F92
:1027B00085909490992432E4E32E32E0F32EB12CEC
:1027C000A12CC501880F892F881F990B9195711035
:1027D00016C0800F412F1F3608F04EE697016D2D71
:1027E0000E94F104A80CB91C83E0E80EF11C22EC55
:1027F000E21623E0F20629F70E941E12A5CF202F31
:10280000281B822FE7CFE2E4F6E0438128E0421B59
:1028100008F440E021E0628181810C947013E2E4CD
:10282000F6E0438128E0420F08F44FEF21E0628197
:1028300081810C947013E2E4F6E0628128E0621B6F
:1028400008F460E021E0438181810C947013E2E49C
:10285000F6E0628128E0620F08F46FEF21E0438127
:1028600081810C947013E2E4F6E0818121E04381E0
:10287000628188500C947013E2E4F6E0818121E0DB
:1028800043816281885F0C9470138091460688238F
:1028900019F081508093460660914206709143067C
:1028A00080914406909145060C945E1380914606F3
:1028B000833018F48F5F80934606609142067091D2
:1028C000430680914406909145060C945E13E2E421
:1028D000F6E083E0808311828FEF82838EE683832C
:1028E000148260817181828193810C945E131092B5
:1028F0000602E0EBF1E086E0DF011D928A95E9F740
:102900000C94BF071F93CF93DF93CDB7DEB7AA9781
:102910000FB6F894DEBF0FBECDBF84E696E02091DF
:10292000F100DC012D93CD01B6E08C369B07B9F7A1
:1029300080916506833009F472C0B8F4813009F4DF
:1029400049C0823009F4B3C08091E80083FF8BC294
:1029500080916406909165069A3008F084C2E92F50
:10296000F0E0EC5DFA4C0C94E6338A3009F48EC04A
:102970008B3009F471C0893039F780916406813257
:1029800019F78091680690916906009711F00297F7
:10299000D9F68091E800877F8093E8008091E80075
:1029A00082FF38C09091F3008091F200029731F4D9
:1029B0008091F100813011F0863021F48091F10096
:1029C000809357068091E8008B778093E8000E94FF
:1029D0006B03BACF80916406813A09F0B5CF80913C
:1029E000E800877F8093E8008091680690916906EF
:1029F000892B61F468E088E596E070E00E941D0490
:102A00008091E8008B778093E8009ECF60E090E0B3
:102A100080E0F3CF809162068111C0CF95CF809185
:102A20006406813A09F090CF80916806909169061A
:102A3000892B09F089CF8091E800877F8093E80097
:102A40008091E80080FFFCCF80912F018093F100FE
:102A50008091E8008E77B9CF80916406813209F0C9
:102A600073CF8091680690916906892B09F06CCF2D
:102A70008091E800877F8093E8000E946B0380913B
:102A8000660680932F010E9477145ECF80916406C2
:102A9000813209F059CF8091E800877F8093E80068
:102AA0000E946B0380916706809356064DCF8091FC
:102AB0006406813A09F048CF8091E800877F8093CF
:102AC000E8008091E80080FFFCCF80915606BECFE1
:102AD000803899F0823809F0C6C1809168068F70FD
:102AE000873008F0C0C18093E9008091EB0085FB3E
:102AF000882780F91092E90006C0809160069091C5
:102B00006106911182609091E800977F9093E800B0
:102B10008093F1001092F1008091E8008E779FC1C0
:102B2000882309F48DC1823009F09DC18091660629
:102B3000811190C1809168068F702FEF280F263089
:102B400008F091C18093E9002091EB0020FF82C141
:102B5000933031F48091EB0080628093EB007AC176
:102B60009091EB0090619093EB0021E030E001C088
:102B7000220F8A95EAF72093EA001092EA008091EA
:102B8000EB008860EACF81116EC1109166061F7755
:102B90008091E3008078812B8093E3008091E800AE
:102BA000877F8093E8000E946B038091E80080FF9C
:102BB000FCCF8091E30080688093E30082E01111F4
:102BC00083E0809362064FC18058823008F04BC189
:102BD00020916606309167062C3DE3E03E07A1F5A3
:102BE00083E08A838AE289834FB7F894DE011396E3
:102BF00020E03EE051E2E32FF0E050935700E491F3
:102C000020FF03C0E295EF703F5FEF708E2F90E0E2
:102C1000EA30C0F0C7968D939D932F5F243159F70A
:102C20004FBF8091E800877F8093E8006AE270E000
:102C3000CE0101960E941D048091E8008B7780935D
:102C4000E80011C1C096E7CF8091680690916906AF
:102C5000432F55274330510509F44AC078F54130D8
:102C6000510509F47AC08BE590E0EEEBF4E04230D8
:102C7000510509F0F8C02091E800277F2093E80073
:102C800020916A0630916B068217930708F49C0125
:102C900040E02115310509F065C0411163C0809104
:102CA000E80082FDC9CF80916206882329F2853031
:102CB00019F28091E80083FFF2CFBECF4132510577
:102CC00009F43CC04232510509F0CDC08330910572
:102CD00008F0C9C0FC01EE0FFF1FE156FE4F019046
:102CE000F081E02D84569E4FDC018C9190E01AC05B
:102CF000332721303105D1F02115310561F0223023
:102D0000310509F0B0C0EBE2F5E0E4918E2F90E0E0
:102D1000EBE2F5E007C0EBE4F5E0E4918E2F90E004
:102D2000EBE4F5E0009709F49EC0A5CFEBE3F5E0F6
:102D3000E4918E2F90E0EBE3F5E0F4CF8330910542
:102D400008F091C0880F991FFC01EB55FE4F0190D0
:102D5000F081E02D89E090E08ECF82E190E0E9E122
:102D6000F5E089CF80916206882309F465CF85302C
:102D700009F462CF8091E80083FD5ECF8091E80086
:102D800082FD8DCF8091E80080FF83CF9091F3008A
:102D90008091F2002115310519F08830910550F02D
:102DA00041E0089709F040E08091E8008E77809339
:102DB000E8006FCF44914093F100319621503109E2
:102DC0000196E8CF803809F04EC08091E800877FF7
:102DD0008093E800809163068093F1009DCE81117D
:102DE00042C0109166061230F0F58091E800877FAE
:102DF0008093E800109363060E946B03112311F087
:102E000084E005C08091E30087FDFACF81E08093E4
:102E1000620642E061EC81E00E948A0342E261ECDA
:102E200084E00E948A0342E261EC82E00E948A030D
:102E300042E260EC83E00E948A038091620613C044
:102E400080916606813079F481E0933009F080E06A
:102E5000809361061092E9008091E800877F80935B
:102E6000E8000E946B038091E80083FF0AC0809114
:102E7000E800877F8093E8008091EB008062809378
:102E8000EB00AA960FB6F894DEBF0FBECDBFDF9160
:102E9000CF911F91089569EE7EEF90E080E00E944F
:102EA0009B3460E082E090E00E947D3460E083E04B
:102EB00090E00E947D341092070260E084E090E090
:102EC0000E947D3460E082E290E00E947D3460E008
:102ED00085E090E00E947D3460E086E090E00E9412
:102EE0007D346FEF87E090E00E947D3440E050E059
:102EF000BA0188E090E00E948F3460E08DE090E0BD
:102F00000E947D3440E050E0BA0188E190E00E94E8
:102F10008F3460E087E190E00E947D3440E050E033
:102F2000BA018CE190E00E948F3470E060E080E2B2
:102F300090E00E949B3440E050E0BA0188E190E0CC
:102F40000E948F3480E00E943B110E94531140E0A8
:102F500050E0BA018FE090E00E948F3440E050E0F2
:102F6000BA0183E190E00C948F3490E080E00E94FD
:102F70007734893E9E4F11F40C94F71180E0089548
:102F80001F920F920FB60F9211242F933F934F93DE
:102F90005F936F937F938F939F93AF93BF93CF93E1
:102FA000DF93EF93FF93D091E900DF708091EC0005
:102FB000C82FC17080FDC0E81092E9008091F00038
:102FC000877F8093F00078940E9482141092E90029
:102FD0008091F00088608093F000CD2BCF70C0937B
:102FE000E900FF91EF91DF91CF91BF91AF919F9158
:102FF0008F917F916F915F914F913F912F910F90A2
:103000000FBE0F901F9018951F920F920FB60F9240
:1030100011242F933F934F935F936F937F938F93DD
:103020009F93AF93BF93EF93FF938091E10082FF53
:1030300009C08091E20082FF05C08091E1008B7F92
:103040008093E1008091DA0080FF24C08091D80055
:1030500080FF20C08091DA008E7F8093DA0080911B
:10306000D90080FF9DC080E189BD82E189BD09B49E
:1030700000FEFDCF81E080936206809155068111AC
:1030800009C00E94F1020E94BC038091E2008460AA
:103090008093E2008091E10080FF17C08091E20000
:1030A00080FF13C08091E2008E7F8093E2008091C8
:1030B000E20080618093E2008091D800806280937A
:1030C000D80019BC85E0809362068091E10084FFFE
:1030D0002BC08091E20084FF27C080E189BD82E19E
:1030E00089BD89B5982F917080FFFBCF8091D80062
:1030F0008F7D8093D8008091E1008F7E8093E100E6
:103100008091E2008F7E8093E2008091E2008160F6
:103110008093E20080916306882309F447C084E02D
:1031200080936206809162068091E10083FF27C050
:103130008091E20083FF23C08091E100877F80932C
:10314000E10082E080936206109263068091E100C4
:103150008E7F8093E1008091E2008E7F8093E20079
:103160008091E20080618093E20042E060E080E0D4
:103170000E948A038091F00088608093F000FF91A4
:10318000EF91BF91AF919F918F917F916F915F91DF
:103190004F913F912F910F900FBE0F901F90189558
:1031A00019BC109262061092550674CF8091E3000C
:1031B00087FD93E090936206B5CF78941F921FB677
:1031C0001F9211248F939F93AF93BF9380914E06CC
:1031D00090914F06A0915006B09151060196A11D05
:1031E000B11D80934E0690934F06A0935006B09366
:1031F0005106BF91AF919F918F911F901FBE1F905D
:1032000018959C014FB7F89480914E0690914F0607
:10321000A0915006B09151064FBF821B930B0895A9
:103220002FB7F89480914E0690914F06A0915006CA
:10323000B09151062FBF08959091420690FF3DC076
:103240009170811129C0926090934206662351F0DB
:103250006091420670914306809144069091450624
:103260000E945E1360914206669570E04BE050E06C
:1032700084E291E00E944F34892BA9F01092400221
:1032800081E080933C0220E0409145066091440635
:10329000809143060C9470138B3110F09463D4CF5B
:1032A000880F982BD1CF81E0809340020E941019A3
:1032B00090933A0280933902E3CF089521E030E001
:1032C000A90102C0440F551F8A95E2F7CA01209157
:1032D0004102662369F0822B809341028091400273
:1032E000811109C08091420660E086950C941C19FA
:1032F00080958223F1CF0895CF93C82F61E081118B
:10330000682F617080E00E945E19C1FB662760F93A
:10331000C11101C060E081E00E945E19C2FB662716
:1033200060F9C11101C060E082E00E945E19C3FB38
:10333000662760F9C11101C060E083E00E945E1958
:103340008C2FCF9108950E947C1980936C060C9469
:10335000BF0780916C06982F9670963019F488609C
:103360000C94A319877FFCCF21E030E001C0220F2D
:103370008A95EAF7209580916C0682230C94A31914
:1033800021E030E001C0220F8A95EAF780916C06B7
:10339000822B0C94A319809142068695815009F4E2
:1033A0008AE161E00C941C198091420686958F5F3A
:1033B0008B3108F081E061E00C941C199091420679
:1033C00090FF07C09695981720F0961710F40C946C
:1033D000D41961E00C941C195F926F927F928F92C6
:1033E0009F92AF92BF92CF92DF92EF92FF920F9394
:1033F0001F93CF93DF9300D000D000D00F92CDB7B2
:10340000DEB76C01FC0183819481892B39F08081C6
:10341000918189238F3F11F00C94F42627960FB6E3
:10342000F894DEBF0FBECDBFDF91CF911F910F91FA
:10343000FF90EF90DF90CF90BF90AF909F908F90D4
:103440007F906F905F9008950E949511182F682FBC
:1034500089819A810E94930769817A81812F0E94D4
:1034600088117C01F6018281882311F40C94E426F2
:10347000970122513F452031310510F00C946C2604
:103480008FEF93E00E9469341EEE1E0D97EEA92E79
:10349000B12C8111C3CF11113CC01C821B82662448
:1034A00063948AE0582E85010F5F1F4FC5010E946B
:1034B000693489831A82882309F4B0CF9FEF980F6B
:1034C0009330B0F58A83698232E0A30EB11CC80143
:1034D0000E9469348B83882309F4A0CFAE014F5F2B
:1034E0005F4F7A01F70120812223E9F2213009F0B0
:1034F0005EC0918182819130E9F4F2E0EF0EF11C1F
:1035000070E060E0893311F460E570E00E94C21061
:1035100018C0A114F4E0BF0609F480CFC5010E94D1
:103520006934811101C011502FEFA21AB20AB3CF32
:103530005801D4CF923049F422E0E20EF11C0E94EF
:103540001F082FEFE21AF20ACDCF933031F432E0A8
:10355000E30EF11C0E94E607F4CF943021F04FEF08
:10356000E41AF40AEECF52E0E50EF11C30E020E060
:10357000B7016F5F7F4FF70141818053990B8A300C
:10358000910550F021503109E0F28FE99FE0019759
:10359000F1F700C00000F6CF529EF001539EF00DEF
:1035A00011249C012E0F3F1F842F7B01E1CFE22FBE
:1035B000F0E0E059FE4F7490822F869586958695AF
:1035C00090E0FC01E05AFE4FC4902770D12C022EEF
:1035D00002C0D594C7940A94E2F7A1E0CA22DD2480
:1035E000FC01E05BFE4F049110E0022E02C0159535
:1035F00007950A94E2F701701127FC01E05CFE4F89
:103600008490912C02C0959487942A95E2F7E1E08A
:103610008E229924C114D10419F081EE0E941F0852
:103620000115110519F086EE0E941F08F9E370E0FC
:1036300060E07F1202C060E570E0872D0E94C2103A
:10364000012B19F086EE0E94E607CD2819F081EED5
:103650000E94E607892809F474CF70E060E08CE2EC
:1036600055CF81E00E94C01903C081E00E94B419C7
:103670000E94A919D3CE82E0F5CF90912002992320
:1036800009F4BFC08111A7C04EE1E416F10410F4A3
:103690000C948F2658E2E516F10408F09CC093EED6
:1036A0009E0D67E2E616F10409F490E0E091C20194
:1036B00081E08E0F8093C201F0E0EA54FE4F9083C8
:1036C0008C3009F088C01092200210921F0281E015
:1036D000809321029091C0012AE08091C101929FC4
:1036E000800D11249091BE01F091BF01929FF00DC9
:1036F00011249091BC01E091BD01929FE00D112435
:103700009091BA015091BB01929F500D112490915C
:10371000B8014091B901929F400D11249091B601DA
:103720003091B701929F300D1124622F0E94C63351
:10373000A0E18A9FB0011124962B9F7799838F2F48
:10374000622F0E94C633F0E18F9FB0011124962BA7
:103750009F779A838E2F622F0E94C633A0E18A9FA3
:10376000B0011124962B9F739B831C82852F622F9F
:103770000E94C633E0E18E9FB0011124962B9F7307
:103780009D83842F622F0E94C633F0E18F9FA0019A
:103790001124942B9F739E83832F0E94C63340E194
:1037A000849F90011124922B9F779F8304E610E061
:1037B00027E030E0AE014F5F5F4F60E080ED0E9498
:1037C00032330CE010E070E060E08AE20E94C21048
:1037D00001501109C1F7F6018281F5EAEF16FDE506
:1037E000FF0609F4DCC626EAE2162DE5F20611F022
:1037F0000C948F26882309F4E0C681E00E94C0194A
:103800000DCE97012E5131092A30310548F056E08E
:10381000E516F10429F067E3E616F10409F093C612
:1038200090911F0291118FC6882311F40C940727E1
:1038300080911102811186C381E08093110222E4FC
:1038400032E040E060E080E00E94F10425E432E0F4
:1038500040E060E080E00E94F10428E432E040E0D3
:1038600060E080E00E94F1042BE432E040E060E0A0
:1038700080E00E94F1042EE432E040E060E080E06D
:103880000E94F10421E532E040E060E080E00E9427
:10389000F10424E532E040E060E080E00E94F104C1
:1038A00027E532E040E060E080E00E94F1042AE594
:1038B00032E040E060E080E00E94F1042DE532E07B
:1038C00040E060E080E00E94F10420E632E040E069
:1038D00060E080E00E94F10423E632E040E060E036
:1038E00080E00E94F10426E632E040E060E080E003
:1038F0000E94F10429E632E040E060E080E00E94AE
:10390000F1042CE632E040E060E080E00E94F10447
:103910002FE632E040E060E080E00E94F10422E720
:1039200032E040E060E080E00E94F10425E732E010
:1039300040E060E080E00E94F10428E732E040E0EF
:1039400060E080E00E94F1042BE732E040E060E0BC
:1039500080E00E94F1042EE732E040E060E080E089
:103960000E94F10421E832E040E060E080E00E9443
:10397000F10424E832E040E060E080E00E94F104DD
:1039800027E832E040E060E080E00E94F1042AE8AD
:1039900032E040E060E080E00E94F1042DE832E097
:1039A00040E060E080E00E94F10420E932E040E085
:1039B00060E080E00E94F10423E932E040E060E052
:1039C00080E00E94F10426E932E040E060E080E01F
:1039D0000E94F10429E932E040E060E080E00E94CA
:1039E000F1042CE932E04EE66FEF80E00E94F10432
:1039F0002FE932E040E060E080E00E94F10422EA3A
:103A000032E04EE660E080E00E94F10425EA32E018
:103A10004EE660E080E00E94F10428EA32E04EE6E3
:103A200060E080E00E94F1042BEA32E040E060E0D8
:103A300080E00E94F1042EEA32E04EE660E080E091
:103A40000E94F10421EB32E04EE660E080E00E944B
:103A5000F10424EB32E040E060E080E00E94F104F9
:103A600027EB32E040E060E080E00E94F1042AEBC6
:103A700032E040E060E080E00E94F1042DEB32E0B3
:103A800040E060E080E00E94F10420EC32E040E0A1
:103A900060E080E00E94F10423EC32E040E060E06E
:103AA00080E00E94F10426EC32E040E060E080E03B
:103AB0000E94F10429EC32E040E060E080E00E94E6
:103AC000F1042CEC32E04EE66FEF80E00E94F1044E
:103AD0002FEC32E04EE66FEF80E00E94F10422ED21
:103AE00032E040E060E080E00E94F10425ED32E049
:103AF00040E060E080E00E94F10428ED32E04EE614
:103B000060E080E00E94F1042BED32E040E060E0F4
:103B100080E00E94F1042EED32E040E060E080E0C1
:103B20000E94F10421EE32E040E060E080E00E947B
:103B3000F10424EE32E040E060E080E00E94F10415
:103B400027EE32E040E060E080E00E94F1042AEEDF
:103B500032E040E060E080E00E94F1042DEE32E0CF
:103B60004EE663EA8CE10E94F10420EF32E04EE67B
:103B70006FEF80E00E94F10423EF32E04EE663EA4B
:103B80008CE10E94F10426EF32E04EE66FEF80E018
:103B90000E94F10429EF32E04EE663EA8CE10E94D4
:103BA000F1042CEF32E04EE66FEF80E00E94F1046A
:103BB0002FEF32E040E060E080E00E94F10422E07C
:103BC00033E040E060E080E00E94F10425E033E073
:103BD00040E060E080E00E94F10428E033E04EE63F
:103BE00060E080E00E94F1042BE033E040E060E020
:103BF00080E00E94F1042EE033E04EE660E080E0D9
:103C00000E94F10421E133E04EE660E080E00E9492
:103C1000F10424E133E040E060E080E00E94F10440
:103C200027E133E04EE660E080E00E94F1042AE103
:103C300033E040E060E080E00E94F1042DE133E0F9
:103C40004EE663EA8CE10E94F10420E233E04EE6A6
:103C50006FEF80E00E94F10423E233E04EE663EA76
:103C60008CE10E94F10426E233E04EE66FEF80E043
:103C70000E94F10429E233E04EE663EA8CE10E94FF
:103C8000F1042CE233E04EE66FEF80E00E94F10495
:103C90002FE233E040E060E080E00E94F10422E3A4
:103CA00033E040E060E080E00E94F10425E333E08F
:103CB0004EE660E080E00E94F10428E333E040E05B
:103CC00060E080E00E94F1042BE333E040E060E03C
:103CD00080E00E94F1042EE333E040E060E080E009
:103CE0000E94F10421E433E040E060E080E00E94C3
:103CF000F10424E433E04EE660E080E00E94F10449
:103D000027E433E040E060E080E00E94F1042AE430
:103D100033E040E060E080E00E94F1042DE433E015
:103D200040E060E080E00E94F10420E533E04EE6F0
:103D300060E080E00E94F10423E533E04EE660E0BD
:103D400080E00E94F10426E533E04EE660E080E08A
:103D50000E94F10429E533E04EE660E080E00E9435
:103D6000F1042CE533E040E060E080E00E94F104E3
:103D70002FE533E040E060E080E00E94F10422E6BD
:103D800033E04EE660E080E00E94F10425E633E097
:103D900040E060E080E00E94F10428E633E04EE677
:103DA00060E080E00E94F1042BE633E040E060E058
:103DB00080E00E94F1042EE633E04EE660E080E011
:103DC0000E94F10421E733E04EE660E080E00E94CB
:103DD000F10424E733E040E060E080E00E94F10479
:103DE00027E733E040E060E080E00E94F1042AE74A
:103DF00033E040E060E080E00E94F1042DE733E032
:103E000040E060E080E00E94F10420E833E04EE60C
:103E100060E080E00E94F10423E833E04EE660E0D9
:103E200080E00E94F10426E833E04EE660E080E0A6
:103E30000E94F10429E833E04EE660E080E00E9451
:103E4000F1042CE833E040E060E080E00E94F104FF
:103E50002FE833E040E060E080E00E94F10422E9D6
:103E600033E040E060E080E00E94F10425E933E0C7
:103E700040E060E080E00E94F10428E933E040E0A7
:103E800060E080E00E94F1042BE933E040E060E074
:103E900080E00E94F1042EE933E040E060E080E041
:103EA0000E94F10421EA33E040E060E080E00E94FB
:103EB000F10424EA33E040E060E080E00E94F10495
:103EC00027EA33E040E060E080E00E94F1042AEA63
:103ED00033E040E060E080E00E94F1042DEA33E04E
:103EE00040E060E080E00E94F10420EB33E040E03D
:103EF00060E080E00E94F10423EB33E040E060E00A
:103F000080E00E94F10426EB33E040E060E080E0D6
:103F10000E94F10429EB33E040E060E080E00E9481
:103F2000F1042CEB33E040E060E080E00E94F1041B
:103F30002FEB33E040E060E080E00E94F1040E945B
:103F40001E1249CC1092110222E432E040E060E0FF
:103F500080E00E94F10425E432E040E060E080E08F
:103F60000E94F10428E432E040E060E080E00E943A
:103F7000F1042BE432E040E060E080E00E94F104D4
:103F80002EE432E040E060E080E00E94F10421E5B0
:103F900032E040E060E080E00E94F10424E532E09D
:103FA00040E060E080E00E94F10427E532E040E07C
:103FB00060E080E00E94F1042AE532E040E060E049
:103FC00080E00E94F1042DE532E040E060E080E016
:103FD0000E94F10420E632E040E060E080E00E94D0
:103FE000F10423E632E040E060E080E00E94F1046A
:103FF00026E632E040E060E080E00E94F10429E63D
:1040000032E040E060E080E00E94F1042CE632E023
:1040100040E060E080E00E94F1042FE632E040E002
:1040200060E080E00E94F10422E732E040E060E0DE
:1040300080E00E94F10425E732E040E060E080E0AB
:104040000E94F10428E732E040E060E080E00E9456
:10405000F1042BE732E040E060E080E00E94F104F0
:104060002EE732E040E060E080E00E94F10421E8C9
:1040700032E040E060E080E00E94F10424E832E0B9
:1040800040E060E080E00E94F10427E832E040E098
:1040900060E080E00E94F1042AE832E040E060E065
:1040A00080E00E94F1042DE832E040E060E080E032
:1040B0000E94F10420E932E040E060E080E00E94EC
:1040C000F10423E932E040E060E080E00E94F10486
:1040D00026E932E040E060E080E00E94F10429E956
:1040E00032E040E060E080E00E94F1042CE932E040
:1040F00040E060E080E00E94F1042FE932E04EE60B
:104100006FEF80E00E94F10422EA32E04EE660E0C8
:1041100080E00E94F10425EA32E04EE660E080E0B3
:104120000E94F10428EA32E04EE660E080E00E945E
:10413000F1042BEA32E040E060E080E00E94F1040C
:104140002EEA32E04EE660E080E00E94F10421EBCE
:1041500032E04EE660E080E00E94F10424EB32E0C1
:1041600040E060E080E00E94F10427EB32E040E0B4
:1041700060E080E00E94F1042AEB32E040E060E081
:1041800080E00E94F1042DEB32E04EE663EA8CE120
:104190000E94F10420EC32E04EE66FEF80E00E94D6
:1041A000F10423EC32E04EE663EA8CE10E94F10474
:1041B00026EC32E04EE66FEF80E00E94F10429EC3D
:1041C00032E04EE663EA8CE10E94F1042CEC32E02E
:1041D0004EE66FEF80E00E94F1042FEC32E04EE6F5
:1041E0006FEF80E00E94F10422ED32E040E060E0F9
:1041F00080E00E94F10425ED32E040E060E080E0E4
:104200000E94F10428ED32E04EE660E080E00E947A
:10421000F1042BED32E040E060E080E00E94F10428
:104220002EED32E040E060E080E00E94F10421EEFB
:1042300032E040E060E080E00E94F10424EE32E0F1
:1042400040E060E080E00E94F10427EE32E040E0D0
:1042500060E080E00E94F1042AEE32E040E060E09D
:1042600080E00E94F1042DEE32E04EE663EA8CE13C
:104270000E94F10420EF32E04EE66FEF80E00E94F2
:10428000F10423EF32E04EE663EA8CE10E94F10490
:1042900026EF32E04EE66FEF80E00E94F10429EF56
:1042A00032E04EE663EA8CE10E94F1042CEF32E04A
:1042B0004EE66FEF80E00E94F1042FEF32E040E025
:1042C00060E080E00E94F10422E033E040E060E042
:1042D00080E00E94F10425E033E040E060E080E00F
:1042E0000E94F10428E033E04EE660E080E00E94A6
:1042F000F1042BE033E040E060E080E00E94F10454
:104300002EE033E04EE660E080E00E94F10421E11F
:1043100033E04EE660E080E00E94F10424E133E007
:1043200040E060E080E00E94F10427E133E04EE6E7
:1043300060E080E00E94F1042AE133E040E060E0C8
:1043400080E00E94F1042DE133E040E060E080E095
:104350000E94F10420E233E04EE660E080E00E943B
:10436000F10423E233E04EE660E080E00E94F104D5
:1043700026E233E04EE660E080E00E94F10429E2AC
:1043800033E04EE660E080E00E94F1042CE233E08E
:1043900040E060E080E00E94F1042FE233E040E082
:1043A00060E080E00E94F10422E333E040E060E05E
:1043B00080E00E94F10425E333E04EE660E080E017
:1043C0000E94F10428E333E040E060E080E00E94D6
:1043D000F1042BE333E040E060E080E00E94F10470
:1043E0002EE333E040E060E080E00E94F10421E44D
:1043F00033E040E060E080E00E94F10424E433E038
:104400004EE660E080E00E94F10427E433E040E003
:1044100060E080E00E94F1042AE433E040E060E0E4
:1044200080E00E94F1042DE433E040E060E080E0B1
:104430000E94F10420E533E04EE660E080E00E9457
:10444000F10423E533E04EE660E080E00E94F104F1
:1044500026E533E04EE660E080E00E94F10429E5C5
:1044600033E04EE660E080E00E94F1042CE533E0AA
:1044700040E060E080E00E94F1042FE533E040E09E
:1044800060E080E00E94F10422E633E04EE660E066
:1044900080E00E94F10425E633E040E060E080E047
:1044A0000E94F10428E633E04EE660E080E00E94DE
:1044B000F1042BE633E040E060E080E00E94F1048C
:1044C0002EE633E04EE660E080E00E94F10421E752
:1044D00033E04EE660E080E00E94F10424E733E040
:1044E00040E060E080E00E94F10427E733E040E034
:1044F00060E080E00E94F1042AE733E040E060E001
:1045000080E00E94F1042DE733E040E060E080E0CD
:104510000E94F10420E833E040E060E080E00E9487
:10452000F10423E833E040E060E080E00E94F10421
:1045300026E833E040E060E080E00E94F10429E8F2
:1045400033E040E07ACC9EECE9169CE5F90609F0F0
:1045500065C4882309F43FC981E080931F0210924B
:10456000110210922102DBC39DECE9169CE5F906CD
:1045700009F031C9882309F4D2C380E197E290930E
:104580001E0280931D0210921C0210921B021092B8
:104590001F021092110281E080932102C0C3882380
:1045A00011F40C940E1A61E083E090E00E947D34D7
:1045B00081E00E94CD070C940E1A81E00E94B4198C
:1045C0000C940E1A31E6E3163DE5F30609F4BEC37A
:1045D0008091060282726BECE6166CE5F60609F431
:1045E000EFC108F06DC1E6ECEE16ECE5FE0609F44D
:1045F000D3C108F049C123ECE2162CE5F20609F418
:10460000C1C108F030C142ECE4164CE5F40609F4EF
:1046100090C1E1148CE5F80609F4E5C1AEEDEA16A7
:10462000ACE5FA0609F4ECC1F60100811181992389
:1046300009F4EAC1C8010E949511F82E682FC8013B
:104640000E949307B8018F2D0E9488110E94E305F4
:10465000182FB82EF60122814581342F32953F70F4
:10466000892F82958F70E82EF12C8C3008F004C2CF
:10467000F701E25DFA4C0C94E633809112028061FE
:1046800026E0E2162CE5F20609F4A9C08091120298
:10469000886037E0E3163CE5F30608F4A0C080919B
:1046A000120280629CC0809112028D7F4CE0E41661
:1046B0004CE5F40609F493C078F4809112028C6002
:1046C0006AE0E6166CE5F60609F489C008F49CC0B9
:1046D000809112028E7F83C080911202877F9EE0BC
:1046E000E9169CE5F90609F47AC0809112028B7FE5
:1046F000AFE0EA16ACE5FA0608F471C08091120248
:104700008F7E6DC0ECEFEE16ECE5FE0609F482C07C
:10471000A0F524E1E2162CE5F20609F493C098F422
:1047200042E1E4164CE5F40609F47CC080911202E3
:104730008F7B53E1E5165CE5F50608F450C08091E7
:104740001202837F4CC06AEFE6166CE5F60609F4A8
:104750004DC008F051C095E1E9169CE5F90609F055
:1047600022C38091120282FB992790F921E09227BF
:1047700090FB82F990FB83F932C0E114ADE5FA06B3
:1047800009F456C0A0F4809113028360FEEFEF1687
:10479000FCE5FF0671F1809113028D7F2FEFE21689
:1047A0002CE5F20630F1809113028C7F22C032E0BA
:1047B000E3163DE5F30609F454C008F44CC051E695
:1047C000E5165DE5F50609F0EEC290911202892F1B
:1047D0008F7E94FF806103C080911202816080937C
:1047E0001202E1C2809112028460F9CF809113021B
:1047F000816080931302D7C2809113028260F9CF47
:10480000809112028064EBCF0E9477148091120293
:104810008068E5CF809113028E7FEBCF80911202EA
:104820008F7DDDCF0E947714809112028F77D7CFD2
:1048300080911302982F909591708E7F892B90FB19
:1048400081F9D7CF0E94771490911202892F97FB9C
:1048500087F98058C4CF61E08EE090E00E947D34FB
:10486000A2C260E0F9CF54ECE5165CE5F50609F468
:104870008EC065ECE6166CE5F60609F0CACE43E399
:1048800054E16CE374E118C0A8ECEA16ACE5FA0652
:1048900009F48CC008F485C0F9ECEF16FCE5FF06BE
:1048A00009F489C04FE054E163E074E12AECE216B8
:1048B0002CE5F20609F0ADCE0E94D6040C940E1A37
:1048C00030EDE3163CE5F30609F487C0D8F45DEC5F
:1048D000E5165CE5F50609F47DC008F476C08EECBB
:1048E000E8168CE5F80611F40C940E1A64E082E0E8
:1048F000AFECEA16ACE5FA0609F08BCE0E94DE19A1
:104900000C940E1AE4EDEE16ECE5FE0609F468C010
:1049100010F40C940E1A25EDE2162CE5F20611F4B3
:104920000C940E1A6AE185E13DE5E316F30631F3D6
:1049300070CE8091420680FF1CC08E7F809342061D
:10494000609142067091430680914406909145061D
:104950000E945E13109240024FEF50E762E0415018
:1049600050406040E1F700C000000E941E120C940D
:104970000E1A81608093420661E086950E941C19A0
:104980000C940E1A4BEC59E164ED79E195CF44EDAE
:1049900059E16BEC79E190CF4CE354E163E374E1CE
:1049A0008BCF4BE154E167E274E186CF47E254E1FB
:1049B0006BE174E181CF43E054E16FE074E17CCFBF
:1049C00045E454E166E574E177CF46E554E165E4FA
:1049D00074E172CF61E081E0D1CF6AE085E08ECFF3
:1049E00064E18BE08BCF0E947714EFEFF4E32CE0CF
:1049F000E150F0402040E1F700C000000E94810437
:104A00000E944B170C940E1AC8010E946C07F82ED6
:104A100019CE092F0F70907F11F00295007F812F22
:104A20002223C9F0002369F090E2910F983010F032
:104A300011110BC080910602082B009306020E9400
:104A40004B07812F0E941F0817C080910502082B79
:104A500000930502F4CF0E94E607002369F0009559
:104A6000105E183010F0B11014C0809106020823B7
:104A7000009306020E944B0738E0E31AF10844E075
:104A8000E416F10410F00C940E1A0E94CA040C945F
:104A90000E1A80910502082300930502EBCF892F9F
:104AA0008F70907F903211F08295807FF1E0BF127D
:104AB0000CC0222329F03630F8F60E94DC07DCCF48
:104AC0003530D0F60E94D107D7CF222341F03323CF
:104AD000A1F340FFB6CF4F70F6014583EECF3323ED
:104AE00089F3193349F4FFEF27EE33E0F15020400A
:104AF0003040E1F700C00000812F0E94E607BCCFE4
:104B0000892F86958695837061F0813009F0B4CF46
:104B1000812F9370211102C090E080E00E949E04DA
:104B2000ABCF812F9370211102C090E080E00E94F2
:104B3000B404A2CF892F8370A1F521119DCF812FBD
:104B4000829586958770880F880F412F4F70082EA9
:104B500001C0440F0A94EAF7212F207114FF07C007
:104B60002FE030E001C0220F8A95EAF72095969554
:104B700096959370923081F0822F842B933030F48D
:104B800080910702913029F0242B82230E94CD07C7
:104B900073CF842B822BFACF242B8091070282279C
:104BA000F5CF8695222311F0892F8170882309F48F
:104BB00063CF812F829586958770880F880F412F4C
:104BC0004F70082E01C0440F0A94EAF7212F20717C
:104BD00014FF07C02FE030E001C0220F8A95EAF7EA
:104BE0002095969596959370923081F0822F842B24
:104BF000933030F480916C06913029F0242B82237D
:104C00000E94A31939CF842B822BFACF242B8091B9
:104C10006C068227F5CF092F0F70222329F0802FF1
:104C20000E94C019812F49CF812F0E94D107802F68
:104C30000E94B41921CF812F41EF141789F1411738
:104C400050F050EF1517B9F02223B1F13111F9CE20
:104C5000892F8F7129C062EF161749F1A3EF1A133C
:104C6000F3CF80E0222361F29F7181E001C0880FC1
:104C70009A95EAF7C5CF222379F0353008F0FCCEBB
:104C8000292F2F7181E090E001C0880F2A95EAF763
:104C900090916C068927B4CF363008F0EDCEF0CF76
:104CA000892F8F71222321F20E94C019E5CE892F0E
:104CB0008F712223C9F3BCCF332359F0893309F014
:104CC0001BCFEFEFF7EE23E0E150F0402040E1F79B
:104CD00011CF892F8F71ACCF50E1E5165FE5F50656
:104CE00011F40C94311B61E1E6166FE5F60611F440
:104CF0000C943B1B33E7E316F10411F00C943D1BBD
:104D0000882311F40C943D1B81E080931F02809353
:104D10002002109221021092C20110921102F6019B
:104D20009281992309F480CCF3E0EF16FDE5FF06AC
:104D300008F048CC2AEFE2162CE5F20638F4970189
:104D400022503C452431310508F042CC0E9410121B
:104D5000909313028093120240E1E4164CE5F406AE
:104D600009F45CCD08F0CECC68E0E6166CE5F606FA
:104D700009F446CD08F097CC94E0E9169CE5F906D5
:104D800009F430CD08F079CCE2E0EE16ECE5FE0651
:104D900009F422CD809112028260F3E0EF16FCE567
:104DA000FF0609F41CCD609112021091130284E0F9
:104DB00090E00E947D34612F82E290E00E947D3479
:104DC0000E9477140C940E1A90E1E9169FE5F906FB
:104DD00011F40C94351BA1E1EA16AFE5FA0609F0CF
:104DE00089CF82E00C94361B85E0DE01119601909C
:104DF0000D928A95E1F7F601228189819A8121112C
:104E00000C94241A0E946C07182F0C942C1AFEEC98
:104E1000EF16FCE5FF0611F40C94EB1BAFECEA1661
:104E2000ACE5FA0609F495CBE0EDEE16ECE5FE06EE
:104E300009F48FCBF1EDEF16FCE5FF0609F489CB01
:104E400022EDE2162CE5F20609F483CB33EDE316EE
:104E50003CE5F30609F47DCB44EDE4164CE5F4069D
:104E600009F477CB55EDE5165CE5F50609F471CB51
:104E70006DE5E616F60609F077CB81116DCB4FCFC5
:104E80001F93CF93DF938091D101807FA9F480910C
:104E9000CE01882389F080910302D091D2016091E4
:104EA000CC017091CD01A091CF01B091D001C62F5E
:104EB000C72316E0D81304C0DF91CF911F91089546
:104EC00090E0109711F0CF3F19F401968770F2CF60
:104ED000189F9001199F300D1124F901ED52FE4FDA
:104EE00041814713F2CF40814613EFCF42814111F8
:104EF000ECCF438154814A1B5B0B483C510528F79A
:104F00008091D1018F7080618093D101F901E852C5
:104F1000FE4F80818F70806180838CEC91E00E94D5
:104F2000EC19DF91CF911F910C946207AF92BF9261
:104F3000CF92DF92EF92FF920F931F93CF93DF9365
:104F4000CDB7DEB761970FB6F894DEBF0FBECDBF09
:104F50008C0185E0F801DE011D9601900D928A9585
:104F6000E1F7F801E2808CECA82E81E0B82E609188
:104F7000CF017091D0016115710509F432C1909192
:104F8000CC014091CD01892F84238F3F09F429C1A1
:104F900020813181C380D480F090CE01F601E61BE0
:104FA000F70BFF2009F4E8C08091D101582F507F02
:104FB000E83CF10508F0ABC0511177C0FE2C43135B
:104FC00021C092131FC0E1101DC08F7080618093BB
:104FD000D101C5010E94EC198091D101F8018583AE
:104FE0008F2D61960FB6F894DEBF0FBECDBFDF9157
:104FF000CF911F910F91FF90EF90DF90CF90BF90D6
:10500000AF900895CD2829F0822F83238F3F09F098
:1050100003C180E0F82FF170DF2E80FF3CC080914B
:1050200003024091D20156E0841315C02D873E87BC
:105030008D859E850E94C411292F22952F702230C4
:10504000F0F0243018F59F70F1F0F8019581907F11
:10505000D1F4D12C1EC090E0589FF001599FF00D63
:105060001124ED52FE4F6181361306C06081261374
:1050700003C06281E6120FC001968770D5CF9F7082
:1050800011F0882331F3805E883018F3C8010E9444
:10509000EC19FD2CA5CFEE2009F4A2CF8091D1010F
:1050A00081608093D101F12C9BCF431306C09213F2
:1050B00004C0F801EE2009F479C0C8010E94D011A3
:1050C000882309F1EE20F9F08091D101803270F04F
:1050D0002091CC013091CD0138872F831986DB8652
:1050E000CA868C87CE0107960E94EC1986E0F801EB
:1050F000ACECB1E001900D928A95E1F70E94402757
:10510000FF24F3946DCFC8010E94EC19F9CF51111F
:105110000AC08CEC91E00E94EC1986E0F501119236
:105120008A95E9F7C0CF43130FC092130DC0E11069
:105130000BC0F8018583C8010E94EC1986E0F501D7
:1051400011928A95E9F74CCFC8010E94D0118823AB
:10515000D1F2EE20C1F28091D101803238F220915B
:10516000CC013091CD013A8329831B82DD82CC8230
:105170008E83CE010196B8CFE83CF105F8F6FE2CFF
:10518000EE2009F243131FC092131DC08091D1017C
:1051900080FD10C0982F907F69F0F8018583903FC3
:1051A00031F0982F907F905F8F70892B8583C80195
:1051B0000E94EC1986E0F801ACECB1E001900D9290
:1051C0008A95E1F70DCFC8010E94D01181118ECFD1
:1051D0008091D10181608093D101C8010E94EC19B6
:1051E000FFCEEE2009F48FCFC8010E94D011F82E17
:1051F000882309F488CF86E0F801ACECB1E0019097
:105200000D928A95E1F78091CC019091CD010E9499
:10521000C4110E944027E4CE81E08E25FBCE1F936F
:10522000CF93DF93CDB7DEB767970FB6F894DEBFA5
:105230000FBECDBF4B8B5C8B6D8B7E8B8F8B6111CB
:10524000109205021A8A198A85E0FE017396DE0122
:105250001D9601900D928A95E1F786E0FE013D963C
:10526000DE01179601900D928A95E1F7CE0107961F
:105270000E949627882389F016E08091030290917E
:10528000D201891349C067960FB6F894DEBF0FBEEE
:10529000CDBFDF91CF911F91089586E0FE01379633
:1052A000DE01119601900D928A95E1F78A859B8522
:1052B000892B11F38F81988589238F3FE9F2209103
:1052C000D20130E0C901019687709927409103020D
:1052D0004817190671F40E9477141092D2011092A7
:1052E000030286E0ECECF1E0DF011D928A95E9F71C
:1052F000C3CF96E0929FD001939FB00D1124AD5281
:10530000BE4FFE01319601900D929A95E1F7809380
:10531000D2010E946207B0CF819FC00111248D523B
:105320009E4F0E949627882309F4ADCF80910302F7
:1053300090E0019687709927809303029ECF4F9249
:105340005F926F927F928F929F92AF92BF92CF9215
:10535000DF92EF92FF920F931F93CF93DF93CDB71E
:10536000DEB72D970FB6F894DEBF0FBECDBF7E011E
:1053700048E0E40EF11C86E0F70111928A95E9F706
:10538000B1E6CB2EB1E0DB2E10E000E0AA24A3941E
:10539000B12CF60181916F018F3F09F443C0F8945D
:1053A000E82FE295EF70F0E021A18F70A50102C017
:1053B000440F551F8A95E2F7CA01922F982B91A3AB
:1053C00092A18095892382A3789400C0E7E6F1E05A
:1053D000912C31E021912F3F09F46DC0A22FA295AD
:1053E000AF70B0E090968C9190E02F7002C09595D0
:1053F00087952A95E2F780FD5EC0832F982A330FA8
:1054000051E0EB36F50731F7F601319780818F3F98
:1054100011F00E94890580EA8A95F1F7F701E00F03
:10542000F11F90820F5F1F4F0630110509F0B1CFB9
:1054300046E050E0B70184E192E00E945C34CC2465
:10544000C394009709F4C12C892BB9F186E0FE01C1
:105450003896A4E1B2E001900D928A95E1F781E0DF
:1054600080930A020E941019909309028093080207
:1054700080910802909109020E940119059708F194
:10548000809114028093330280911502809334023C
:105490008091160280933502809117028093360224
:1054A000809118028093370280911902809338020C
:1054B00010920A0206C080E0A1CF80910A028111F9
:1054C000D7CF80911D0190911E01892B41F08091D1
:1054D0001B0190911A0189238F3F09F028C2809106
:1054E000220190912301892B41F080911F0190911D
:1054F000200189238F3F09F000C280911301909110
:105500001401892B41F080911101909110018923A0
:105510008F3F09F0D8C18091180190911901892B12
:1055200041F0809116019091150189238F3F09F078
:10553000B0C180912102882309F4E7C080911D0247
:1055400090911E0220911B0230911C02FC01E21B73
:10555000F30B9F0121343F4108F4D7C090931C0204
:1055600080931B021092110208EC10E027E030E05B
:10557000AE014F5F5F4F60E080ED0E945F330E949D
:10558000AE338981282F30E094E0359527959A95A0
:10559000E1F7922F97702AE08F70929F800D11246F
:1055A00080930B023A81832F90E044E09595879594
:1055B0004A95E1F787703F70F32E829FF00C11241B
:1055C000F0920C023B81832F90E054E095958795F3
:1055D0005A95E1F783703F70E32E829FE00C11240F
:1055E000E0920D028D81482F50E064E0559547957B
:1055F0006A95E1F747708F70429F800D1124809368
:105600000E028E81482F50E074E0559547957A95AB
:10561000E1F743708F70429F800D112480930F0239
:105620008F81482F50E0E4E055954795EA95E1F7E2
:1056300043708F70429F800D1124809310028E2D35
:10564000622F0E94C633782E36EF0E2D839F000DF9
:1056500011248F2D0E94C633D82E1F2D839F100D2D
:105660001124609022024090230250902402F2E420
:10567000AF2EF2E0BF2EA2EC8A2EA3E09A2E462D8A
:105680005EE6561508F44EE69501642D852D0E94C0
:10569000F10483E0A80EB11C8A149B0481F7E9E0B1
:1056A000EE1508F450C080E00E949B0F011159C014
:1056B00084E00E949B0F59E05F1508F489C089E0DF
:1056C0000E949B0F1111AEC08DE00E949B0F2AEB30
:1056D00032E04EE660E080E00E94F1042AEE32E023
:1056E0004EE660E080E00E94F10427E133E04EE600
:1056F00060E080E00E94F10427E433E04EE660E0E1
:1057000080E00E94F1040E941E120E949204709395
:105710001E0260931D028C2D2D960FB6F894DEBFED
:105720000FBECDBFDF91CF911F910F91FF90EF90F2
:10573000DF90CF90BF90AF909F908F907F906F90B1
:105740005F904F900895F1E07F1204C080E00E94C6
:10575000D30EACCF42E07412A9CF80E00E940B0EB2
:10576000A5CF013021F484E00E94D30EA4CF0230F3
:1057700021F484E00E940B0E9ECF033021F484E0DC
:105780000E94430D98CF043021F484E00E947B0CEA
:1057900092CF053021F484E00E94B30B8CCF063009
:1057A00021F484E00E94EB0A86CF073021F484E0E4
:1057B0000E94230A80CF083021F484E00E945B0914
:1057C0007ACF093009F077CF84E00E94930873CF35
:1057D00081E0D81204C089E00E94D30E73CFE2E0CA
:1057E000DE1204C089E00E940B0E6CCFF3E0DF12E2
:1057F00004C089E00E94430D65CF44E0D41204C088
:1058000089E00E947B0C5ECF55E0D51204C089E090
:105810000E94B30B57CF86E0D81254CF89E00E9484
:10582000EB0A50CF113021F48DE00E94D30E4FCF00
:10583000123021F48DE00E940B0E49CF133021F479
:105840008DE00E94430D43CF143021F48DE00E947F
:105850007B0C3DCF153021F48DE00E94B30B37CF88
:10586000163021F48DE00E94EB0A31CF173021F47D
:105870008DE00E94230A2BCF183021F48DE00E9486
:105880005B0925CF193009F022CF8DE00E949308E3
:105890001ECF80911701882309F44BCE1092170177
:1058A0000E9410198160782F90931901809318013C
:1058B00040911501509116016091170180911901D5
:1058C0000E940F2936CE80911201882309F423CE3D
:1058D000109212010E9410198160782F9093140188
:1058E00080931301409110015091110160911201B8
:1058F000809114010E940F290ECE809121018823EE
:1059000009F4FBCD109221010E9410198160782FBB
:10591000909323018093220140911F015091200117
:1059200060912101809123010E940F29E6CD809191
:105930001C01882309F4D3CD10921C010E94101978
:105940008160782F90931E0180931D0140911A0170
:1059500050911B0160911C0180911E010E940F2932
:10596000BECD1F921FB61F9211248F939F93AF93AA
:10597000BF9380914D06811113C080914E06909186
:105980004F06A0915006B09151064196A11DB11D40
:1059900080934E0690934F06A0935006B093510605
:1059A000BF91AF919F918F911F901FBE1F9018952F
:1059B000CDB7DEB7AD970FB6F894DEBF0FBECDBF43
:1059C00084B7877F84BF0FB6F894A8958091600054
:1059D000886180936000109260000FBE80E890E0C4
:1059E0000FB6F89480936100909361000FBE85B765
:1059F000806885BF85B7806885BF87E895E090930C
:105A0000AD018093AC010E94F1020E94BC03809121
:105A1000E20084608093E20078948091620688239B
:105A2000A1F01091E9001F709091EC00892F817016
:105A300090FD80E8182B1092E9008091E80083FD2A
:105A40000E9482141F701093E90082E084BD93E0ED
:105A500095BD9AEF97BD80936E000E94F71181115A
:105A600002C00E94531101E611E027E6E22E21E078
:105A7000F22ED8018D918D018F3F11F00E94890582
:105A8000E016F106B1F787E90E94890584E30E94D8
:105A9000890587E60E94890586E60E94890586E0D9
:105AA000E3E3F2E0DF01282F1D922A95E9F7E4E114
:105AB000F2E0DF011D928A95E9F70E94B517811186
:105AC00002C00E944B1782E090E00E9469348093EC
:105AD0002C020E94101290931302809312020E94D3
