:100000000C94AE020C94F5020C94F5020C94F502DB
:100010000C94F5020C94F5020C94F5020C94F50284
:100020000C94F5020C94F5020C94C3190C947F19EE
:100030000C946A2D0C94F5020C94F5020C94F502C4
:100040000C94F5020C94F5020C94F5020C94F50254
:100050000C94F5020C949C1A0C94F5020C94F50285
:100060000C94F5020C94F5020C94F5020C94F50234
:100070000C94F5020C94F5020C94F5020C94F50224
:100080000C94F5020C94F5020C94F5020C94F50214
:100090000C94F5020C94F5020C94F5020C94F50204
:1000A0000C94F5020C94F5020C94F50205010980FC
:1000B000A101850319012AB700150126B700950192
:1000C00075108100C0050C0901A101850419012AE0
:1000D000A002150126A002950175108100C00660DE
:1000E000FF0961A1010962150026FF00952075082E
:1000F00081020963150026FF00952075089102C052
:1001000005010906A101050719E029E715002501E8
:10011000950875018102950175088101050719008F
:1001200029FF150026FF00950675088100050819AE
:10013000012905950575019102950175039101C08D
:1001400000000000000000000000000000000000AF
:10015000000000000000000000000000000000009F
:10016000000000007E0F00D4FFFFFFC700000078F2
:1001700000000000000000002A2B28000000000002
:100180000000000000000000000000290000000046
:100190002C1E3420212224342627252E362D3738B4
:1001A000271E1F202122232425263333362E3738BD
:1001B0001F0405060708090A0B0C0D0E0F1011127B
:1001C000131415161718191A1B1C1D2F3130232D47
:1001D000350405060708090A0B0C0D0E0F10111245
:1001E000131415161718191A1B1C1D2F3130354CF6
:1001F0001E0F0500047F3F1F643214643214783CE4
:100200001E1E140A05000101010101010101010284
:1002100002020202020202020303030303030303B6
:100220000404040404040405050505050606060681
:1002300006070707070708080808090909090A0A3D
:100240000A0B0B0B0C0C0C0D0D0D0E0E0E0F0F0FE1
:10025000101011111112121313141415151616176C
:1002600017181819191A1A1B1B1C1D1D1E1E1F20DA
:1002700020212222232424252626272829292A2B27
:100280002C2D2D2E2F30313232333435363738394C
:100290003A3B3C3D3E3F4041424344454647484946
:1002A0004A4C4D4E4F50515354555658595A5B5D18
:1002B0005E5F616264656668696B6C6D6F707273B6
:1002C0007577787A7B7D7E8082838587888A8C8E1D
:1002D0008F91939596989A9C9EA0A2A3A5A7A9AB4F
:1002E000ADAFB1B3B5B7BABCBEC0C2C4C6C9CBCD41
:1002F000CFD1D4D6D8DBDDDFE2E4E7E9EBEEF0F3F3
:10030000F5F8FAFDFFFFAA7F55402223252628296C
:100310002A2C2D2F3032333536383A3B3D3E404281
:10032000434547494A4C4E5051535557595A5C5EC4
:100330006062646668696B6D6F71737577797B7DD8
:100340007F81838587898A8C8E90929496989A9CD7
:100350009E9FA1A3A5A7A8AAACAEAFB1B3B4B6B8EF
:10036000B9BBBCBEBFC1C2C3C5C6C7C9CACBCCCD51
:10037000CED0D1D2D2D3D4D5D6D7D7D8D9D9DADA2C
:10038000DBDBDBDCDCDCDCDCDDDDDDDDDCDCDCDCAC
:10039000DCDBDBDBDADAD9D9D8D7D7D6D5D4D3D2E0
:1003A000D2D1D0CECDCCCBCAC9C7C6C5C3C2C1BFBE
:1003B000BEBCBBB9B8B6B4B3B1AFAEACAAA8A7A522
:1003C000A3A19F9E9C9A98969492908E8C8A8987DE
:1003D0008583817F7D7B79777573716F6D6B6968BC
:1003E000666462605E5C5A5957555351504E4C4A90
:1003F0004947454342403E3D3B3A3836353332303B
:100400002F2D2C2A292826252322AB005D5DCD5CCB
:10041000AE002400250026002A41210022002300EE
:1004200000001E001F0020002800270037000000E9
:100430000000CA5CC95CAA00A90073005400550002
:1004400056004A0052004B005700500051004F0028
:1004500000004D0000004E00280000004C0000008D
:10046000000000000000000000000000000000008C
:10047000000000000000000000000000000000007C
:10048000000000000000000000000000000000006C
:10049000000000000000000000000000000000005C
:1004A000000000000000000000000000000000004C
:1004B000000000000000000000000000000000003C
:1004C0000000000000000000000009025B000301C2
:1004D00000A0FA0904000001030101000921110133
:1004E00000012240000705810308000A09040100F9
:1004F000020300000009211101000122220007056A
:100500008203200001070503032000010904020003
:10051000010300000009211101000122320007053A
:10052000840320000A1201000200000008EDFE26EC
:100530008A0100010200010E036E006F0077007057
:10054000006100640000000E0355004E005200459B
:100550000041004C000000040309040011241FBEE8
:10056000CFEFDAE0DEBFCDBF04B603FE27C0809137
:10057000860690918706A0918806B09189068730FB
:10058000904BA740B04BD1F410928606109287068C
:10059000109288061092890614BE84B7877F84BFA4
:1005A0000FB6F894A89580916000886180936000F0
:1005B000109260000FBEE0E0F8E3099526E0AEEB94
:1005C000B1E001C01D92A638B207E1F711E0A0E04A
:1005D000B1E0EEEAFCE602C005900D92AE3BB10739
:1005E000D9F70E94912D0C941E360C940000E8ED72
:1005F000F0E080818E7F80831092E2001092DA001A
:100600001092E100A0EEB0E08C9181608C9380812B
:100610008F77808319BCA7EDB0E08C918E7F8C938F
:1006200080818F7E808310926B0608952091E40074
:100630003091E50095E6A9012091EC00822F8170B0
:1006400020FF06C08091E80080FF06C080E008958A
:100650002091E80022FD1AC080917806882389F055
:10066000853089F08091EB0085FD0FC02091E4007A
:100670003091E50042175307F9F29150E1F684E01A
:10068000089582E0089583E0089581E00895EF924F
:10069000FF920F931F93CF937C018B010E9416034F
:1006A000C82F811117C08091E80085FD0BC0809193
:1006B000E8008E778093E8000E941603882399F360
:1006C000C82F08C0F70181917F018093F10001508C
:1006D000110949F78C2FCF911F910F91FF90EF9047
:1006E000089580917A0687FF13C08091E80082FF09
:1006F00006C08091E8008B778093E80004C0809169
:1007000078068111F2CF0895809178068823D9F375
:100710008091E80080FFF8CF8091E8008E77ECCFE1
:10072000982F9093E900242F762F50E0891731F00D
:100730007091EC002091ED005091F00021FD07C078
:100740009F5F973071F78093E90081E008953091C1
:10075000EB003E7F3093EB003091ED003D7F309316
:10076000ED003091EB0031603093EB007093EC00C2
:100770002093ED005093F0002091EE0027FDE0CF94
:1007800080E00895CF92DF92EF92FF920F931F9334
:10079000CF93DF93C8EDD0E088818F7E8883E7ED2B
:1007A000F0E080818160808384E082BF81E080937B
:1007B0006B0688818E7F888302EE10E0F80110823C
:1007C0001092DA0081EEC82ED12CF60110828881B9
:1007D0008F77888388818068888388818F7D8883EC
:1007E00019BC109278061092790610927706109232
:1007F000760690EEE92EF12CF70180818B7F8083C5
:1008000088818160888342E060E080E00E949003FC
:10081000F60180818E7F8083F801808181608083F2
:10082000808188608083F70180818E7F80838881CA
:1008300080618883DF91CF911F910F91FF90EF909E
:10084000DF90CF900895FC01809180069091810601
:1008500086179707A0F06115710529F49091E800BB
:100860009E779093E80090E06115710551F4911125
:1008700008C08091E80082FF34C080E00895BC0188
:10088000F2CF809178068823C1F18530C1F1809143
:10089000E80083FD30C08091E80082FDEACF8091BE
:1008A000E80080FFE1CF8091F3002091F200382F23
:1008B0006115710519F02830310558F091E02830A4
:1008C000310509F090E02091E8002E772093E800B0
:1008D000CBCF81918093F100615071092F5F3F4F21
:1008E000E7CF80917806882341F0853041F08091F0
:1008F000E80083FFBECF81E0089582E0089583E0A1
:10090000089508950895089580916D06089587E7E4
:1009100097E7909301088093000888E19AE00FB66A
:10092000F894A895809360000FBE90936000FFCF6D
:100930002FB7F89460916406709165068091660601
:10094000909167062FBF08959C01FC0132969FEF9E
:1009500080E04191461751F09F3F19F4411101C0C9
:10096000982F8F5F8630A9F79F3F09F40895290FCC
:10097000311D97FD3A95F901628308952091610632
:10098000309162062817390771F0909362068093C0
:100990006106E0915F06F0916006309721F00084D7
:1009A000F185E02D0994089520915D0630915E0651
:1009B0002817390771F090935E0680935D06E091E9
:1009C0005F06F0916006309721F00680F781E02DF8
:1009D00009940895E0915F06F0916006309721F048
:1009E0000190F081E02D099480E00895FA018111D1
:1009F00001C0FB01099480915806982F9E7F61F4F5
:100A0000817082608093580680915B068F3618F063
:100A10008EE680935B0608958635B0F38170846519
:100A2000F1CFAF92BF92DF92EF92FF920F931F939D
:100A3000CF93DF93182F062FE9014F3608F04EE6CB
:100A4000E42FF0E0EB5FFD4F011110C0E4915E2F49
:100A50004E2F4983E8835A83DF91CF911F910F91E5
:100A6000FF90EF90DF90BF90AF900895202F30E07F
:100A70004491D42EE42EF12C56E0159FC001112490
:100A8000EFEFF0E0BF010E94AD34812F90E0880FBE
:100A9000991F55E5569FD001579FB00D11248A1B11
:100AA0009B0B982F990F890F5F01A21AB30AAE9C76
:100AB000D001AF9CB00DBE9CB00D11245B2F089FE0
:100AC00080011124012F11275F01A01AB10AAE9CE9
:100AD0008001AF9C100DBE9C100D11245F01A81A5F
:100AE000B108A29EC001A39E900DB29E900D11244C
:100AF000892F9927E81BF90BEE9DC001EF9D900D02
:100B0000FE9D900D1124E92F62307105A1F050F483
:100B10006115710509F49DCF6130710581F0EB2FEE
:100B2000512F97CF6430710569F080F06630710500
:100B300009F48FCFF4CFE42F4B2F592F8ACFE42F16
:100B4000412F87CFEB2F542F492F83CF4B2F5D2D74
:100B5000E12F7FCF80E00895F894E82FE295EF70C1
:100B6000F0E031A1282F2F7081E090E001C0880FC4
:100B70002A95EAF7982F9095932391A392A1892B18
:100B800082A3789408959091250292FF06C0282FA1
:100B900028712830F9F4877F846093FF06C0282FDE
:100BA00028712831F1F4877E84612091260220FF8C
:100BB00006C0382F38713830D9F4877F816021FF23
:100BC00006C0282F28712831D1F4877E816194FDD9
:100BD000877E0895282F24712430F9F68B7F886052
:100BE000DCCF282F2471243101F78B7E8861DDCF83
:100BF000382F3171313019F78E7F8860E0CF282F80
:100C00002171213121F78E7E8861E1CFCF93DF936F
:100C1000EC018238910581F1B0F58133910509F439
:100C200091C020F58932910509F485C08A9709F4AD
:100C300090C0C11521E5D20708F0AAC0C11530E562
:100C4000D30708F0F2C0CF3BD10508F089C0C83AFD
:100C5000D10508F0DFC0C53AD10508F0D3C0C430D3
:100C6000D105F8F4C130D105E1F040C085339105DC
:100C700009F45AC0C997E9F680912502837089F07A
:100C8000C0EED0E00EC0833E910599F170F4803E35
:100C9000910501F1823E910561F68091250282FD68
:100CA00021C0CE01DF91CF910895863E910561F17B
:100CB000873E910571F1843E910509F0BACF80918C
:100CC000260281FFEECF80912502C7EED0E084FDA1
:100CD0000DC0E7CF8091250280FDF7C090912602DC
:100CE00090FFDFCFC3EED0E084FFDBCFD0E0C0E0E9
:100CF000D8CF8091250282FDEBC09091260290FD15
:100D0000BFCF84FFCECFF2CF8091250283FDDDCF10
:100D1000C8CF8091250283FDDEC09091260291FF0D
:100D2000F0CFC4EED0E0BDCF8091250285FFB9CFD2
:100D3000C9E2D0E0B6CF8091250285FFB2CFC5E3EE
:100D4000D0E0AFCF8091250286FFABCFCAE2D0E0E2
:100D5000A8CF8091250286FFA4CFC1E3D0E0A1CF28
:100D6000C11540E2D40760F4C11581E0D80708F04E
:100D700098CFCE01815E9109079708F492CFB6CF44
:100D8000C11590E4D90708F4B1CFDF70D06A89CFDC
:100D9000C11524E5D20778F4C11533E5D30708F06F
:100DA00072C0C11542E5D40708F05CC0DC2FCC2727
:100DB000C16FD06A76CFC1158AE5D80778F4C1151E
:100DC00099E5D90708F073C0C11528E5D20708F4E2
:100DD0008DCFDC2FCC27C06FD06A63CFCE01905669
:100DE0008115904208F082CF8D2F8F710E94C3052C
:100DF00090E0982F882788279F719C012C2BE90170
:100E0000D0624FCFC55AD0E0CD5CDE4FC881D0E074
:100E1000D06447CFC85AD0E0CC0FDD1FCA5CDE4F8C
:100E20000990D881C02DD4643CCFCE0164E0969562
:100E300087956A95E1F783702C2F26952695237068
:100E400040E2249F90011124382B8C2F8370C1E045
:100E5000D0E002C0CC0FDD1F8A95E2F7C22BD32B66
:100E6000DC681FCFCE018370992721E030E002C0FB
:100E7000220F331F8A95E2F7C695C69580E2C89F78
:100E8000E0011124EBCFCE018370992721E030E0FF
:100E900002C0220F331F8A95E2F7C695C69590E2ED
:100EA000C99FE0011124C22BD32BDA68FACE8C2F14
:100EB0008F700E94C30534E0D695C7953A95E1F747
:100EC000CF709C2FEC01D069ECCEC9E3D0E0E9CE25
:100ED000C2EED0E0E6CEC6EED0E0E3CE80911902BD
:100EE00090911802892B90911702892B8093C00151
:100EF000E0915F06F0916006309731F00280F38157
:100F0000E02D80EC91E00994089580911602909173
:100F1000E501981301C008958F5F8770FACF990F8C
:100F2000990F890F982F977086958695869523E05F
:100F3000829FF0011124EA52FE4F50E040E080E031
:100F4000219130E0092E02C0369527950A94E2F7E8
:100F500021703327042E01C0220F0A94EAF7822B56
:100F60004F5F5F4F4330510559F70895990F990F1F
:100F7000890F982F977041E001C0440F9A95EAF7C6
:100F800086958695869593E0899FF0011124EA5213
:100F9000FE4F30E020E070E05191DF011197CB016E
:100FA000022E02C0969587950A94E2F7817081958A
:100FB0008527842385278C932F5F3F4F233031056E
:100FC00059F7089590E080E00E94D40490E080E01A
:100FD0000E94BE0410921802109217020C946E0721
:100FE00080931A020C94E207882341F08095909137
:100FF00019028923809319020C946E07089588239F
:1010000039F090911902982B909319020C946E0765
:1010100008958823B1F19CEF980F913A70F4E2ECB7
:10102000F1E09191891303C0DF0111971C9241E017
:10103000E83CF407B1F70C946E0790E2980F9830F3
:1010400088F4877021E030E0A90102C0440F551FE9
:101050008A95E2F7CA0180959091190289238093BD
:101060001902E9CF9BE5980F933020F490E080E0DF
:101070000C94D404885A873120F490E080E00C94DA
:10108000BE040895CF93C82F882309F44EC08CEF77
:101090008C0F813AF8F4E2ECF1E088EC91E0DF01AA
:1010A0002D91C21759F08A179B07D1F76C2F80EC4E
:1010B00091E00E94A404CF910C946E072191C21379
:1010C00003C0DF0111971C928E179F07B9F70E948A
:1010D0006E07ECCF80E28C0F883068F4C77021E097
:1010E00030E001C0220FCA95EAF780911902822BE5
:1010F00080931902E0CFEBE5EC0FE33040F4F0E031
:10110000ED5CFE4F808190E0CF910C94D404C85ADE
:10111000C73158F4EC2FF0E0EE0FFF1FEA5CFE4FF2
:1011200080819181CF910C94BE04CF910895CF938B
:10113000DF9393E0899FE00111249E01285A3D4FDF
:1011400040E060E080E00E9411059E01255A3D4F7D
:1011500040E060E080E00E9411059E01225A3D4F70
:1011600040E060E080E00E9411059E0128573D4F5D
:101170004FEF6FEF85E50E9411059E0125573D4F0A
:101180004FEF6FEF85E50E9411059E0122573D4FFD
:101190004FEF6FEF85E50E9411059E0128543D4FEA
:1011A0004FEF6FEF85E50E9411059E0125543D4FDD
:1011B00040E060E080E00E9411059E0122543D4F16
:1011C0004FEF6FEF85E50E9411059E0128513D4FBD
:1011D0004FEF6FEF85E50E9411059E0125513D4FB0
:1011E0004FEF6FEF85E50E9411059E0122513D4FA3
:1011F0004FEF6FEF85E50E9411059E01285E3C4F81
:1012000040E060E080E00E9411059E01255E3C4FB9
:1012100040E060E080E00E9411059E01225E3C4FAC
:101220004FEF6FEF85E50E9411059E01285B3C4F53
:1012300040E060E080E00E9411059E01255B3C4F8C
:1012400040E060E080E00E9411059E01225B3C4F7F
:101250004FEF6FEF85E50E9411059E0128583C4F26
:1012600040E060E080E00E9411059E0125583C4F5F
:1012700040E060E080E00E9411059E0122583C4F52
:101280004FEF6FEF85E50E9411059E0128553C4FF9
:1012900040E060E080E00E9411059E0125553C4F32
:1012A00040E060E080E00E9411059E0122553C4F25
:1012B00040E060E080E0DF91CF910C941105CF9386
:1012C000DF9393E0899FE00111249E01285A3D4F4E
:1012D00040E060E080E00E9411059E01255A3D4FEC
:1012E00040E060E080E00E9411059E01225A3D4FDF
:1012F00040E060E080E00E9411059E0128573D4FCC
:1013000040E060E080E00E9411059E0125573D4FBE
:101310004FEF6FEF85E50E9411059E0122573D4F6B
:1013200040E060E080E00E9411059E0128543D4F9E
:101330004FEF6FEF85E50E9411059E0125543D4F4B
:1013400040E060E080E00E9411059E0122543D4F84
:101350004FEF6FEF85E50E9411059E0128513D4F2B
:1013600040E060E080E00E9411059E0125513D4F64
:101370004FEF6FEF85E50E9411059E0122513D4F11
:1013800040E060E080E00E9411059E01285E3C4F35
:101390004FEF6FEF85E50E9411059E01255E3C4FE2
:1013A00040E060E080E00E9411059E01225E3C4F1B
:1013B0004FEF6FEF85E50E9411059E01285B3C4FC2
:1013C0004FEF6FEF85E50E9411059E01255B3C4FB5
:1013D00040E060E080E00E9411059E01225B3C4FEE
:1013E0004FEF6FEF85E50E9411059E0128583C4F95
:1013F00040E060E080E00E9411059E0125583C4FCE
:101400004FEF6FEF85E50E9411059E0122583C4F7A
:1014100040E060E080E00E9411059E0128553C4FAD
:1014200040E060E080E00E9411059E0125553C4FA0
:1014300040E060E080E00E9411059E0122553C4F93
:1014400040E060E080E0DF91CF910C941105CF93F4
:10145000DF9393E0899FE00111249E01285A3D4FBC
:1014600040E060E080E00E9411059E01255A3D4F5A
:1014700040E060E080E00E9411059E01225A3D4F4D
:1014800040E060E080E00E9411059E0128573D4F3A
:101490004FEF6FEF85E50E9411059E0125573D4FE7
:1014A0004FEF6FEF85E50E9411059E0122573D4FDA
:1014B0004FEF6FEF85E50E9411059E0128543D4FC7
:1014C00040E060E080E00E9411059E0125543D4F00
:1014D00040E060E080E00E9411059E0122543D4FF3
:1014E0004FEF6FEF85E50E9411059E0128513D4F9A
:1014F00040E060E080E00E9411059E0125513D4FD3
:1015000040E060E080E00E9411059E0122513D4FC5
:101510004FEF6FEF85E50E9411059E01285E3C4F5D
:1015200040E060E080E00E9411059E01255E3C4F96
:101530004FEF6FEF85E50E9411059E01225E3C4F43
:1015400040E060E080E00E9411059E01285B3C4F76
:1015500040E060E080E00E9411059E01255B3C4F69
:101560004FEF6FEF85E50E9411059E01225B3C4F16
:1015700040E060E080E00E9411059E0128583C4F49
:1015800040E060E080E00E9411059E0125583C4F3C
:101590004FEF6FEF85E50E9411059E0122583C4FE9
:1015A00040E060E080E00E9411059E0128553C4F1C
:1015B00040E060E080E00E9411059E0125553C4F0F
:1015C00040E060E080E00E9411059E0122553C4F02
:1015D00040E060E080E0DF91CF910C941105CF9363
:1015E000DF9393E0899FE00111249E01285A3D4F2B
:1015F00040E060E080E00E9411059E01255A3D4FC9
:1016000040E060E080E00E9411059E01225A3D4FBB
:1016100040E060E080E00E9411059E0128573D4FA8
:1016200040E060E080E00E9411059E0125573D4F9B
:101630004FEF6FEF85E50E9411059E0122573D4F48
:101640004FEF6FEF85E50E9411059E0128543D4F35
:101650004FEF6FEF85E50E9411059E0125543D4F28
:1016600040E060E080E00E9411059E0122543D4F61
:1016700040E060E080E00E9411059E0128513D4F4E
:101680004FEF6FEF85E50E9411059E0125513D4FFB
:101690004FEF6FEF85E50E9411059E0122513D4FEE
:1016A00040E060E080E00E9411059E01285E3C4F12
:1016B0004FEF6FEF85E50E9411059E01255E3C4FBF
:1016C00040E060E080E00E9411059E01225E3C4FF8
:1016D0004FEF6FEF85E50E9411059E01285B3C4F9F
:1016E0004FEF6FEF85E50E9411059E01255B3C4F92
:1016F00040E060E080E00E9411059E01225B3C4FCB
:101700004FEF6FEF85E50E9411059E0128583C4F71
:1017100040E060E080E00E9411059E0125583C4FAA
:101720004FEF6FEF85E50E9411059E0122583C4F57
:1017300040E060E080E00E9411059E0128553C4F8A
:1017400040E060E080E00E9411059E0125553C4F7D
:1017500040E060E080E00E9411059E0122553C4F70
:1017600040E060E080E0DF91CF910C941105CF93D1
:10177000DF9393E0899FE00111249E01285A3D4F99
:1017800040E060E080E00E9411059E01255A3D4F37
:1017900040E060E080E00E9411059E01225A3D4F2A
:1017A00040E060E080E00E9411059E0128573D4F17
:1017B0004FEF6FEF85E50E9411059E0125573D4FC4
:1017C0004FEF6FEF85E50E9411059E0122573D4FB7
:1017D0004FEF6FEF85E50E9411059E0128543D4FA4
:1017E0004FEF6FEF85E50E9411059E0125543D4F97
:1017F00040E060E080E00E9411059E0122543D4FD0
:1018000040E060E080E00E9411059E0128513D4FBC
:101810004FEF6FEF85E50E9411059E0125513D4F69
:101820004FEF6FEF85E50E9411059E0122513D4F5C
:1018300040E060E080E00E9411059E01285E3C4F80
:1018400040E060E080E00E9411059E01255E3C4F73
:1018500040E060E080E00E9411059E01225E3C4F66
:101860004FEF6FEF85E50E9411059E01285B3C4F0D
:1018700040E060E080E00E9411059E01255B3C4F46
:1018800040E060E080E00E9411059E01225B3C4F39
:101890004FEF6FEF85E50E9411059E0128583C4FE0
:1018A0004FEF6FEF85E50E9411059E0125583C4FD3
:1018B0004FEF6FEF85E50E9411059E0122583C4FC6
:1018C00040E060E080E00E9411059E0128553C4FF9
:1018D00040E060E080E00E9411059E0125553C4FEC
:1018E00040E060E080E00E9411059E0122553C4FDF
:1018F00040E060E080E0DF91CF910C941105CF9340
:10190000DF9393E0899FE00111249E01285A3D4F07
:1019100040E060E080E00E9411059E01255A3D4FA5
:1019200040E060E080E00E9411059E01225A3D4F98
:1019300040E060E080E00E9411059E0128573D4F85
:101940004FEF6FEF85E50E9411059E0125573D4F32
:1019500040E060E080E00E9411059E0122573D4F6B
:101960004FEF6FEF85E50E9411059E0128543D4F12
:101970004FEF6FEF85E50E9411059E0125543D4F05
:1019800040E060E080E00E9411059E0122543D4F3E
:101990004FEF6FEF85E50E9411059E0128513D4FE5
:1019A0004FEF6FEF85E50E9411059E0125513D4FD8
:1019B00040E060E080E00E9411059E0122513D4F11
:1019C0004FEF6FEF85E50E9411059E01285E3C4FA9
:1019D0004FEF6FEF85E50E9411059E01255E3C4F9C
:1019E0004FEF6FEF85E50E9411059E01225E3C4F8F
:1019F0004FEF6FEF85E50E9411059E01285B3C4F7C
:101A000040E060E080E00E9411059E01255B3C4FB4
:101A100040E060E080E00E9411059E01225B3C4FA7
:101A20004FEF6FEF85E50E9411059E0128583C4F4E
:101A300040E060E080E00E9411059E0125583C4F87
:101A400040E060E080E00E9411059E0122583C4F7A
:101A50004FEF6FEF85E50E9411059E0128553C4F21
:101A600040E060E080E00E9411059E0125553C4F5A
:101A700040E060E080E00E9411059E0122553C4F4D
:101A800040E060E080E0DF91CF910C941105CF93AE
:101A9000DF9393E0899FE00111249E01285A3D4F76
:101AA00040E060E080E00E9411059E01255A3D4F14
:101AB00040E060E080E00E9411059E01225A3D4F07
:101AC00040E060E080E00E9411059E0128573D4FF4
:101AD0004FEF6FEF85E50E9411059E0125573D4FA1
:101AE0004FEF6FEF85E50E9411059E0122573D4F94
:101AF0004FEF6FEF85E50E9411059E0128543D4F81
:101B000040E060E080E00E9411059E0125543D4FB9
:101B100040E060E080E00E9411059E0122543D4FAC
:101B20004FEF6FEF85E50E9411059E0128513D4F53
:101B300040E060E080E00E9411059E0125513D4F8C
:101B40004FEF6FEF85E50E9411059E0122513D4F39
:101B500040E060E080E00E9411059E01285E3C4F5D
:101B600040E060E080E00E9411059E01255E3C4F50
:101B700040E060E080E00E9411059E01225E3C4F43
:101B80004FEF6FEF85E50E9411059E01285B3C4FEA
:101B900040E060E080E00E9411059E01255B3C4F23
:101BA00040E060E080E00E9411059E01225B3C4F16
:101BB0004FEF6FEF85E50E9411059E0128583C4FBD
:101BC0004FEF6FEF85E50E9411059E0125583C4FB0
:101BD0004FEF6FEF85E50E9411059E0122583C4FA3
:101BE0004FEF6FEF85E50E9411059E0128553C4F90
:101BF00040E060E080E00E9411059E0125553C4FC9
:101C000040E060E080E00E9411059E0122553C4FBB
:101C100040E060E080E0DF91CF910C941105CF931C
:101C2000DF9393E0899FE00111249E01285A3D4FE4
:101C300040E060E080E00E9411059E01255A3D4F82
:101C400040E060E080E00E9411059E01225A3D4F75
:101C500040E060E080E00E9411059E0128573D4F62
:101C600040E060E080E00E9411059E0125573D4F55
:101C70004FEF6FEF85E50E9411059E0122573D4F02
:101C800040E060E080E00E9411059E0128543D4F35
:101C90004FEF6FEF85E50E9411059E0125543D4FE2
:101CA00040E060E080E00E9411059E0122543D4F1B
:101CB0004FEF6FEF85E50E9411059E0128513D4FC2
:101CC00040E060E080E00E9411059E0125513D4FFB
:101CD00040E060E080E00E9411059E0122513D4FEE
:101CE0004FEF6FEF85E50E9411059E01285E3C4F86
:101CF00040E060E080E00E9411059E01255E3C4FBF
:101D00004FEF6FEF85E50E9411059E01225E3C4F6B
:101D100040E060E080E00E9411059E01285B3C4F9E
:101D20004FEF6FEF85E50E9411059E01255B3C4F4B
:101D300040E060E080E00E9411059E01225B3C4F84
:101D400040E060E080E00E9411059E0128583C4F71
:101D50004FEF6FEF85E50E9411059E0125583C4F1E
:101D60004FEF6FEF85E50E9411059E0122583C4F11
:101D70004FEF6FEF85E50E9411059E0128553C4FFE
:101D800040E060E080E00E9411059E0125553C4F37
:101D900040E060E080E00E9411059E0122553C4F2A
:101DA00040E060E080E0DF91CF910C941105CF938B
:101DB000DF9393E0899FE00111249E01285A3D4F53
:101DC00040E060E080E00E9411059E01255A3D4FF1
:101DD00040E060E080E00E9411059E01225A3D4FE4
:101DE00040E060E080E00E9411059E0128573D4FD1
:101DF00040E060E080E00E9411059E0125573D4FC4
:101E00004FEF6FEF85E50E9411059E0122573D4F70
:101E100040E060E080E00E9411059E0128543D4FA3
:101E20004FEF6FEF85E50E9411059E0125543D4F50
:101E30004FEF6FEF85E50E9411059E0122543D4F43
:101E400040E060E080E00E9411059E0128513D4F76
:101E500040E060E080E00E9411059E0125513D4F69
:101E60004FEF6FEF85E50E9411059E0122513D4F16
:101E700040E060E080E00E9411059E01285E3C4F3A
:101E800040E060E080E00E9411059E01255E3C4F2D
:101E90004FEF6FEF85E50E9411059E01225E3C4FDA
:101EA00040E060E080E00E9411059E01285B3C4F0D
:101EB00040E060E080E00E9411059E01255B3C4F00
:101EC0004FEF6FEF85E50E9411059E01225B3C4FAD
:101ED00040E060E080E00E9411059E0128583C4FE0
:101EE00040E060E080E00E9411059E0125583C4FD3
:101EF0004FEF6FEF85E50E9411059E0122583C4F80
:101F000040E060E080E00E9411059E0128553C4FB2
:101F100040E060E080E00E9411059E0125553C4FA5
:101F200040E060E080E00E9411059E0122553C4F98
:101F300040E060E080E0DF91CF910C941105CF93F9
:101F4000DF9393E0899FE00111249E01285A3D4FC1
:101F500040E060E080E00E9411059E01255A3D4F5F
:101F600040E060E080E00E9411059E01225A3D4F52
:101F700040E060E080E00E9411059E0128573D4F3F
:101F800040E060E080E00E9411059E0125573D4F32
:101F90004FEF6FEF85E50E9411059E0122573D4FDF
:101FA00040E060E080E00E9411059E0128543D4F12
:101FB0004FEF6FEF85E50E9411059E0125543D4FBF
:101FC00040E060E080E00E9411059E0122543D4FF8
:101FD0004FEF6FEF85E50E9411059E0128513D4F9F
:101FE0004FEF6FEF85E50E9411059E0125513D4F92
:101FF00040E060E080E00E9411059E0122513D4FCB
:102000004FEF6FEF85E50E9411059E01285E3C4F62
:102010004FEF6FEF85E50E9411059E01255E3C4F55
:1020200040E060E080E00E9411059E01225E3C4F8E
:102030004FEF6FEF85E50E9411059E01285B3C4F35
:102040004FEF6FEF85E50E9411059E01255B3C4F28
:1020500040E060E080E00E9411059E01225B3C4F61
:102060004FEF6FEF85E50E9411059E0128583C4F08
:1020700040E060E080E00E9411059E0125583C4F41
:102080004FEF6FEF85E50E9411059E0122583C4FEE
:1020900040E060E080E00E9411059E0128553C4F21
:1020A00040E060E080E00E9411059E0125553C4F14
:1020B00040E060E080E00E9411059E0122553C4F07
:1020C00040E060E080E0DF91CF910C9411058093B7
:1020D000680670936A06609369068091780684307A
:1020E000F9F48093E9008FEF9091E800815095FD1D
:1020F00006C095ED9A95F1F700008111F5CF80911A
:10210000E80085FF0DC050E040E063E070E088E645
:1021100096E00E9447038091E8008E778093E80064
:102120000895BC0184E00C946710BC0183E00C941A
:102130006710CF93DF93EC0181E08093E9008FEF8C
:102140009091E800815095FD06C095ED9A95F1F7C4
:1021500000008111F5CF8091E80085FF14C050E0A8
:1021600040E068E070E0CE010E9447038091E80003
:102170008E778093E80088E0FE01AEE6B6E001903D
:102180000D928A95E1F7DF91CF9108951F93CF9338
:10219000DF93182FD0E0C0E0893311F4C0E5D0E020
:1021A000812F0E944208209731F4812FDF91CF9137
:1021B0001F910C9409088FE99FE00197F1F700C087
:1021C00000002197F0CFCF93DF93C7EED0E060E01F
:1021D000CE010E9487352196C11584E0D807B9F752
:1021E000DF91CF9108956F927F928F929F92AF92DD
:1021F000BF92CF92DF92EF92FF920F931F93CF93F4
:10220000DF938AE0C82E84E0D82E0FE510E0E801C5
:10221000E09736011CC0F50185909490692DC701A7
:102220000E948735682DC70101960E94873582E09C
:10223000A80EB11C82E0E80EF11CCE15DF0559F79F
:1022400088E0680E711C28960C171D0731F07E017E
:1022500088E0E81AF1085301DECF005D1F4F80E3EC
:10226000C80ED11C0F3181E0180789F6DF91CF919C
:102270001F910F91FF90EF90DF90CF90BF90AF90A4
:102280009F908F907F906F900895CF93C82F6FEF9E
:10229000811162E283E290E00E9487356FEFC11105
:1022A00061E084E290E00E9487356FEFC11166E142
:1022B00085E290E0CF910C94873580E00E94451133
:1022C00060E086E290E00E9487350E94F3100E9451
:1022D000E31081E00C9445110F931F93CF93DF938C
:1022E00028E0629FE001112450E0440F551FC40F05
:1022F000D51F30E3839FC00DD11D1124CE018796D9
:102300000E947335082F10E0102F0027CE01889609
:102310000E9473359801282BC901DF91CF911F913D
:102320000F910895462F843038F4763028F46430C5
:1023300018F4672F0C946C1190E080E00895CF9210
:10234000DF92FF920F931F93CF93DF936C01009165
:10235000820680911A02082BC7E0D0E010E0FC2E24
:10236000C8010C2E02C0959587950A94E2F780FD6E
:102370000CC02197A0F7F12C8F2DDF91CF911F91E9
:102380000F91FF90DF90CF900895B6018C2F0E949F
:1023900092110E940606019761F3EECFCF93DF936F
:1023A000EC010E949F11BE010E949211DF91CF911A
:1023B0000C940606FC01808191810E94CE11292F88
:1023C0002F7092959F7092509E3078F4E92FF0E034
:1023D000E05EF94C0C94E134803F19F020F4883E23
:1023E00020F481E00895843FE1F380E00895883E81
:1023F000C0F3813FD1F7F5CF822F869586958695DC
:10240000089583E290E00E947335823289F484E279
:1024100090E00E947335813059F485E290E00E948B
:10242000733591E0863109F090E0892F817008952D
:1024300080E0FCCFCF9384E090E00E947335C82FFA
:1024400082E290E00E947335982F8C2FCF910895EF
:102450008091580680FD0AC0E8E5F2E01182108202
:102460001282339653E0E83DF507C1F7809A31B305
:102470003E7F21B321604FB7F89488E592E0FC01DC
:102480005191CF0168E021BB000000C057FF31BB74
:10249000550F000000C000C000C031BB00C06A95ED
:1024A00091F7F3E0883D9F0751F74FBF8FE594E028
:1024B0000197F1F700C0000008958F929F92AF92AC
:1024C000BF92CF92DF92EF92FF920F931F93CF9321
:1024D000DF93FC01A280848081E08483EAE0F3E062
:1024E000B490E9E8F3E0E491C8EDD3E058E5E52ED7
:1024F00052E0F52ECC24CA94D12C99249A94EB194D
:102500000E2F10E042E04A1530F080915906888382
:1025100080915A06898381101EC01B821A829701FE
:102520004A81698188810E941105259643E0E40E65
:10253000F11C86E0C835D80729F7DF91CF911F91AC
:102540000F91FF90EF90DF90CF90BF90AF909F9052
:102550008F900C9428128B818823E9F081508B8313
:10256000899DC00111246C8170E00E94AD34FB0193
:10257000FF27E65FFC4F8491E82FEB19E99DC0012E
:102580001124B8010E94AD3480915B06689FB001B0
:1025900011247A83C4CF0E94493520915B06269589
:1025A000215840E2249F90011124232F33278217C2
:1025B00093070CF0B4CF82E08A1588F40E94493565
:1025C000B6010E94CD3488830E94493520915A0675
:1025D0002695622F70E00E94CD34280F29831A823D
:1025E00080915B06843108F484E18C838B8397CFE0
:1025F000EF92FF920F931F93CF93DF938C01C8E567
:10260000D2E0F12CE12CF801948160915A0680917E
:102610005906F0E4EF16F104FCF49923F9F09E0159
:1026200040915B060E9411052FEFE21AF20A2396F1
:1026300080E8E816F10439F70E942812F801848135
:1026400090E00196817099278483DF91CF911F914B
:102650000F91FF90EF900895992309F39E0140E0B8
:10266000E1CF8F929F92AF92BF92CF92DF92EF9283
:10267000FF920F931F93CF93DF93EC014C81042FB4
:1026800010E09801D8010E940F369B01AC010E9416
:10269000DA354B015C01E0E2F0E0E01BF10BA5E56F
:1026A000B0E0AC019B010E94DA356B017C019F0117
:1026B000DF010E94EE349B01AC010E94E5359B01D5
:1026C000AC01280D391D4A1D5B1DC701B6010E94D2
:1026D000ED35F22E822F90E039E23F15D8F143E03C
:1026E000249F9001112435952795122F109598E578
:1026F000C92E92E0D92E00E085E5E82EEF188E2D48
:1027000001FD8F2D9601412F60915A060E941105FF
:102710000F5F53E0C50ED11C003889F70E942812C4
:102720009C8181E0992319F0903219F48FEF809306
:10273000310180913101890F8C83DF91CF911F91FD
:102740000F91FF90EF90DF90CF90BF90AF909F9050
:102750008F90089525E530E0A901481B590BCA0167
:102760009A01220F331F280F391F37FFBCCF2F5F6D
:102770003F4FB9CF0F931F93CF93DF93C8E5D2E0BC
:10278000FE01118210821282339683E0E83DF80741
:10279000C1F710E000E080915602082E000C990B62
:1027A000081719078CF180913001082E000C990B45
:1027B000801791074CF19E0140915B0660915A068B
:1027C000809159060E9411050F5F1F4F2396003814
:1027D000110509F70E94281280912F01909156024D
:1027E000980F9093560220913001280F20933001CA
:1027F000121614F49F3719F4819580932F01DF91FD
:10280000CF911F910F910895198218821A82DCCFFF
:10281000CF92DF92EF92FF920F931F93CF93DF93AC
:10282000FC018281DD24DA9480FD02C0DD24D39492
:10283000C8E5D2E010E000E0198218821A8294E024
:10284000E92EF12CC12C809155028C0D87FD80580A
:10285000082E000C990B8017910791F480915B066C
:102860008E9DA0018F9D500D11245595479555952E
:1028700047959E0160915A06809159060E94110564
:10288000CD0CF1E0EF1AF108F1F60F5F1F4F239620
:102890000038110589F60E9428128091550291E0B6
:1028A000D91210C081110CC08FE780935502DF91BF
:1028B000CF911F910F91FF90EF90DF90CF900895EF
:1028C0008150F3CF90E001968F779927EECFEF926A
:1028D000FF921F93CF93DF93EC0188E5E82E82E00F
:1028E000F82E10E08C81970140915B0660915A06AA
:1028F000810F0E9411051F5F83E0E80EF11C103864
:1029000089F70E9428129A818C8190FF08C08F5FFE
:102910008C83DF91CF911F91FF90EF9008958150AC
:10292000F7CF9091580690FF0CC0E8E5F2E0818364
:1029300060834283339693E0E83DF907C1F70C9436
:10294000281208950F931F93CF93DF9300D00F9217
:10295000CDB7DEB78C018091570281110AC09E016C
:102960002F5F3F4F4EE66FEF0E9411058A818093E3
:102970005702F8016481613069F08091570240E0AC
:10298000662361F040E0623011F44091570280E02C
:1029900060E004C06091570240E080E00E94911422
:1029A000F801848190E0019663E070E00E94CD34EC
:1029B00084830F900F900F90DF91CF911F910F9113
:1029C0000895CF93DF9300D00F92CDB7DEB79091EB
:1029D000580690FF0AC09E012F5F3F4F0E941105CD
:1029E0004B8169818A810E9491140F900F900F9002
:1029F000DF91CF910895CF93DF93EC01E8E5F6E006
:102A0000438162818C810E94E1148C818F5F8C8371
:102A1000DF91CF910895CF93DF93EC01EC81F0E04B
:102A2000E65FFC4F4491E8E5F6E0628181810E9417
:102A3000E1148C818F5F8C83DF91CF910895CF92C9
:102A4000DF92EF92FF926B017C010E94FB04B701C1
:102A5000A60188E090E0FF90EF90DF90CF900C947B
:102A600099357F928F929F92AF92BF92CF92DF92D1
:102A7000EF92FF920F931F93CF93DF9300D00F92AB
:102A8000CDB7DEB7182FD62E042FC22E9091580640
:102A900090FF29C0E92FE695AE2FB0E0AC57BE4FAE
:102AA0008C91809352029E7F923071F59E012F5F30
:102AB0003F4F812F0E9411054B8169818A810E94BD
:102AC000911410935906D0925A0600935B06CC20BD
:102AD00051F0609158067091590680915A06909174
:102AE0005B060E941F150F900F900F90DF91CF9102
:102AF0001F910F91FF90EF90DF90CF90BF90AF901C
:102B00009F908F907F900895823019F400915B061A
:102B1000D8CF863019F410915906D3CF8930D9F324
:102B2000893179F6E9512E2F2170722EE695F0E069
:102B3000EB5FFC4F85909490992438E5E32E32E0CA
:102B4000F32EB12CA12CC501880F892F881F990B5A
:102B50009195711013C0810F9701402F6D2D0E9428
:102B60001105A80CB91C83E0E80EF11C28EDE21653
:102B700023E0F20641F70E942812A3CF212F281B41
:102B8000822FEACFE8E5F6E0438128E0421B08F413
:102B900040E021E0628181810C943115E8E5F6E0A6
:102BA000438128E0420F08F44FEF21E062818181E8
:102BB0000C943115E8E5F6E0628128E0621B08F428
:102BC00060E021E0438181810C943115E8E5F6E075
:102BD000628128E0620F08F46FEF21E04381818178
:102BE0000C943115E8E5F6E0818121E043816281B2
:102BF00088500C943115E8E5F6E0818121E04381AD
:102C00006281885F0C94311580915C06882319F0ED
:102C1000815080935C0660915806709159068091AE
:102C20005A0690915B060C941F1580915C068330C8
:102C300018F48F5F80935C06609158067091590676
:102C400080915A0690915B060C941F15E8E5F6E01A
:102C500083E0808311828FEF82838EE683831482E8
:102C600060817181828193810C941F1510921902E9
:102C7000E2ECF1E086E0DF011D928A95E9F70C9421
:102C8000E2071F93CF93DF93CDB7DEB7AA970FB6B6
:102C9000F894DEBF0FBECDBF8AE796E02091F10029
:102CA000DC012D93CD01B6E082389B07B9F7809106
:102CB0007B06833009F472C0B8F4813009F449C04E
:102CC000823009F4B3C08091E80083FF8BC2809109
:102CD0007A0690917B069A3008F084C2E92FF0E0E2
:102CE000E25DF94C0C94E1348A3009F48EC08B30EB
:102CF00009F471C0893039F780917A06813219F769
:102D000080917E0690917F06009711F00297D9F688
:102D10008091E800877F8093E8008091E80082FF3F
:102D200038C09091F3008091F200029731F48091C5
:102D3000F100813011F0863021F48091F100809310
:102D40006D068091E8008B778093E8000E94710304
:102D5000BACF80917A06813A09F0B5CF8091E80028
:102D6000877F8093E80080917E0690917F06892B73
:102D700061F468E08EE696E070E00E9423048091A2
:102D8000E8008B778093E8009ECF60E090E080E0E1
:102D9000F3CF809178068111C0CF95CF80917A06CC
:102DA000813A09F090CF80917E0690917F06892B21
:102DB00009F089CF8091E800877F8093E8008091B7
:102DC000E80080FFFCCF809132018093F100809178
:102DD000E8008E77B9CF80917A06813209F073CFFF
:102DE00080917E0690917F06892B09F06CCF8091AF
:102DF000E800877F8093E8000E94710380917C0641
:102E0000809332010E9436165ECF80917A0681321D
:102E100009F059CF8091E800877F8093E8000E94F5
:102E2000710380917D0680936C064DCF80917A0668
:102E3000813A09F048CF8091E800877F8093E800CD
:102E40008091E80080FFFCCF80916C06BECF803877
:102E500099F0823809F0C6C180917E068F70873064
:102E600008F0C0C18093E9008091EB0085FB8827C2
:102E700080F91092E90006C080917606909177065D
:102E8000911182609091E800977F9093E800809381
:102E9000F1001092F1008091E8008E779FC18823A5
:102EA00009F48DC1823009F09DC180917C068111A9
:102EB00090C180917E068F702FEF280F263008F08A
:102EC00091C18093E9002091EB0020FF82C19330F3
:102ED00031F48091EB0080628093EB007AC1909195
:102EE000EB0090619093EB0021E030E001C0220FF5
:102EF0008A95EAF72093EA001092EA008091EB00AD
:102F00008860EACF81116EC110917C061F77809195
:102F1000E3008078812B8093E3008091E800877F35
:102F20008093E8000E9471038091E80080FFFCCF4D
:102F30008091E30080688093E30082E0111183E0D8
:102F4000809378064FC18058823008F04BC12091A1
:102F50007C0630917D062C3DE3E03E07A1F583E041
:102F60008A838AE289834FB7F894DE01139620E0C2
:102F70003EE051E2E32FF0E050935700E49120FF50
:102F800003C0E295EF703F5FEF708E2F90E0EA3064
:102F9000C0F0C7968D939D932F5F243159F74FBF93
:102FA0008091E800877F8093E8006AE270E0CE01BC
:102FB00001960E9423048091E8008B778093E800BB
:102FC00011C1C096E7CF80917E0690917F06432F76
:102FD00055274330510509F44AC078F54130510571
:102FE00009F47AC08BE590E0EAECF4E04230510558
:102FF00009F0F8C02091E800277F2093E800209195
:103000008006309181068217930708F49C0140E006
:103010002115310509F065C0411163C08091E800B8
:1030200082FDC9CF80917806882329F2853019F274
:103030008091E80083FFF2CFBECF4132510509F401
:103040003CC04232510509F0CDC08330910508F0F3
:10305000C9C0FC01EE0FFF1FEE54FE4F0190F0813E
:10306000E02D81559E4FDC018C9190E01AC03327F2
:1030700021303105D1F02115310561F022303105C3
:1030800009F0B0C0E7E3F5E0E4918E2F90E0E7E3CC
:10309000F5E007C0E7E5F5E0E4918E2F90E0E7E585
:1030A000F5E0009709F49EC0A5CFE7E4F5E0E491D0
:1030B0008E2F90E0E7E4F5E0F4CF8330910508F03F
:1030C00091C0880F991FFC01E854FE4F0190F081D8
:1030D000E02D89E090E08ECF82E190E0E5E2F5E03E
:1030E00089CF80917806882309F465CF853009F46B
:1030F00062CF8091E80083FD5ECF8091E80082FD81
:103100008DCF8091E80080FF83CF9091F300809174
:10311000F2002115310519F08830910550F041E099
:10312000089709F040E08091E8008E778093E800EE
:103130006FCF44914093F1003196215031090196AF
:10314000E8CF803809F04EC08091E800877F8093F7
:10315000E800809179068093F1009DCE811142C0F4
:1031600010917C061230F0F58091E800877F809303
:10317000E800109379060E947103112311F084E096
:1031800005C08091E30087FDFACF81E08093780647
:1031900042E061EC81E00E94900342E261EC84E055
:1031A0000E94900342E261EC82E00E94900342E2BE
:1031B00060EC83E00E9490038091780613C08091B8
:1031C0007C06813079F481E0933009F080E08093CF
:1031D00077061092E9008091E800877F8093E800ED
:1031E0000E9471038091E80083FF0AC08091E8008B
:1031F000877F8093E8008091EB0080628093EB00F2
:10320000AA960FB6F894DEBF0FBECDBFDF91CF9167
:103210001F91089569EE7EEF90E080E00E94A53551
:1032200060E082E090E00E94873560E083E090E01B
:103230000E94873510921A0260E084E090E00E94BC
:10324000873560E082E290E00E94873560E085E0AB
:1032500090E00E94873560E086E090E00E9487352C
:103260006FEF87E090E00E94873540E050E0BA01C0
:1032700088E090E00E94993560E08DE090E00E9447
:10328000873540E050E0BA0188E190E00E9499352E
:1032900060E087E190E00E94873540E050E0BA01AD
:1032A0008CE190E00E94993570E060E080E290E06F
:1032B0000E94A53540E050E0BA0188E190E00E940C
:1032C000993580E00E9445110E945D1140E050E078
:1032D000BA018FE090E00E94993540E050E0BA01D9
:1032E00083E190E00C94993590E080E00E94813574
:1032F000893E9E4F11F40C94011280E008951F92B4
:103300000F920FB60F9211242F933F934F935F9319
:103310006F937F938F939F93AF93BF93CF93DF93DD
:10332000EF93FF93D091E900DF708091EC00C82FFC
:10333000C17080FDC0E81092E9008091F000877FA5
:103340008093F00078940E9441161092E9008091D9
:10335000F00088608093F000CD2BCF70C093E9001F
:10336000FF91EF91DF91CF91BF91AF919F918F919D
:103370007F916F915F914F913F912F910F900FBE71
:103380000F901F9018951F920F920FB60F92112455
:103390002F933F934F935F936F937F938F939F935D
:1033A000AF93BF93EF93FF938091E10082FF09C039
:1033B0008091E20082FF05C08091E1008B7F8093C5
:1033C000E1008091DA0080FF24C08091D80080FF66
:1033D00020C08091DA008E7F8093DA008091D9003E
:1033E00080FF9DC080E189BD82E189BD09B400FEF6
:1033F000FDCF81E08093780680916B06811109C032
:103400000E94F7020E94C2038091E20084608093D0
:10341000E2008091E10080FF17C08091E20080FF10
:1034200013C08091E2008E7F8093E2008091E200E1
:1034300080618093E2008091D80080628093D80000
:1034400019BC85E0809378068091E10084FF2BC051
:103450008091E20084FF27C080E189BD82E189BDBF
:1034600089B5982F917080FFFBCF8091D8008F7D18
:103470008093D8008091E1008F7E8093E10080915D
:10348000E2008F7E8093E2008091E2008160809371
:10349000E20080917906882309F447C084E0809394
:1034A0007806809178068091E10083FF27C08091A3
:1034B000E20083FF23C08091E100877F8093E100D9
:1034C00082E080937806109279068091E1008E7FE9
:1034D0008093E1008091E2008E7F8093E2008091F2
:1034E000E20080618093E20042E060E080E00E94C0
:1034F00090038091F00088608093F000FF91EF913D
:10350000BF91AF919F918F917F916F915F914F91FB
:103510003F912F910F900FBE0F901F90189519BCDF
:103520001092780610926B0674CF8091E30087FDAD
:1035300093E090937806B5CF78941F921FB61F92B0
:1035400011248F939F93AF93BF93809164069091C2
:103550006506A0916606B09167060196A11DB11D92
:103560008093640690936506A0936606B093670601
:10357000BF91AF919F918F911F901FBE1F90189583
:103580009C014FB7F8948091640690916506A091D4
:103590006606B09167064FBF821B930B08952FB745
:1035A000F8948091640690916506A0916606B091AA
:1035B00067062FBF08950F931F93CF93DF93C62FF6
:1035C000D42F022FFC0182818823A1F0609385060D
:1035D0000E94CF1A9093840680938306C77081E07F
:1035E00001C0880FCA95EAF7DF91CF911F910F9123
:1035F0000C94FF0780918506681335C0809183067F
:10360000909184060E94C01A883C910560F510E2F2
:103610001D0FCD17B9F080E28C0F883040F4C770D1
:1036200081E001C0880FCA95EAF70E94F4071830BC
:1036300048F481E09D2F977001C0880F9A95EAF7B2
:103640000E94FF07802F0E94C610183098F4D77090
:1036500081E001C0880FDA95EAF7DF91CF911F91E1
:103660000F910C94F407C77081E001C0880FCA95D0
:10367000EAF7F3CFDF91CF911F910F9108959091C9
:10368000580690FF3DC09170811129C092609093BF
:103690005806662351F06091580670915906809142
:1036A0005A0690915B060E941F1560915806669518
:1036B00070E04BE050E084E291E00E945935892BA4
:1036C000A9F01092530281E080934F0220E04091D4
:1036D0005B0660915A06809159060C9431158B3225
:1036E00010F09465D4CF880F982BD1CF81E08093D0
:1036F00053020E94CF1A90934D0280934C02E3CF65
:10370000089521E030E0A90102C0440F551F8A95B9
:10371000E2F7CA0120915402662369F0822B80935C
:10372000540280915302811109C08091580660E0D3
:1037300086950C943F1B80958223F1CF0895CF93FB
:10374000C82F61E08111682F617080E00E94811BA9
:10375000C1FB662760F9C11101C060E081E00E94F1
:10376000811BC2FB662760F9C11101C060E082E0E5
:103770000E94811BC3FB662760F9C11101C060E094
:1037800083E00E94811B8C2FCF9108950E949F1B84
:10379000809382060C94E20780918206982F96709F
:1037A000963019F488600C94C61B877FFCCF21E00B
:1037B00030E001C0220F8A95EAF7209580918206B9
:1037C00082230C94C61B21E030E001C0220F8A95B1
:1037D000EAF780918206822B0C94C61B80915806D2
:1037E0008695815009F48AE261E00C943F1B809138
:1037F000580686958F5F8B3208F081E061E00C946B
:103800003F1B9091580690FF07C09695981720F09F
:10381000961710F40C94F71B61E00C943F1B5F9219
:103820006F927F928F929F92AF92BF92CF92DF92D0
:10383000EF92FF920F931F93CF93DF9300D000D0AE
:1038400000D00F92CDB7DEB76C01FC01838194816B
:10385000892B39F08081918189238F3F11F00C945D
:10386000CB2627960FB6F894DEBF0FBECDBFDF91F3
:10387000CF911F910F91FF90EF90DF90CF90BF906D
:10388000AF909F908F907F906F905F9008950E946F
:103890009F11182F682F89819A810E94B60769812C
:1038A0007A81812F0E9492117C01F6018281882306
:1038B00011F40C94BB26970122513F45203131056C
:1038C00010F00C9441268FEF93E00E9473351EEEAA
:1038D0001E0D97EEA92EB12C8111C3CF111136C048
:1038E0001C821B82662463948AE0582E85010F5F38
:1038F0001F4FC5010E94733589831A82882309F4FA
:10390000B0CF9FEF980F933080F58A83698232E0C1
:10391000A30EB11CC8010E9473358B83882309F460
:10392000A0CFAE014F5F5F4F7A01F70120812223C4
:10393000E9F2213009F058C0918182819130B9F4C7
:10394000F2E0EF0EF11C0E94C61018C0A114F4E0C2
:10395000BF0609F486CFC5010E947335811101C0ED
:1039600011502FEFA21AB20AB9CF5801DACF923014
:1039700049F422E0E20EF11C0E944208FFEFEF1A28
:10398000FF0AD3CF933031F432E0E30EF11C0E94F2
:103990000908F4CF943021F04FEFE41AF40AEECF87
:1039A00052E0E50EF11C30E020E0B7016F5F7F4F81
:1039B000F70141818053990B8A30910550F02150D5
:1039C0003109E0F28FE99FE00197F1F700C00000B4
:1039D000F6CF529EF001539EF00D11249C012E0F44
:1039E0003F1F842F7B01E1CFE22FF0E0E059FE4F33
:1039F0007490822F86958695869590E0FC01E05A1A
:103A0000FE4FC4902770D12C022E02C0D594C794CB
:103A10000A94E2F7A1E0CA22DD24FC01E05BFE4F3C
:103A2000049110E0022E02C0159507950A94E2F762
:103A300001701127FC01E05CFE4F8490912C02C0C4
:103A4000959487942A95E2F7E1E08E229924C11497
:103A5000D10419F081EE0E9442080115110519F0F8
:103A600086EE0E944208872D0E94C610012B19F095
:103A700086EE0E940908CD2819F081EE0E940908FF
:103A8000892809F47BCF8CE25ECF81E00E94E31BA2
:103A900003C081E00E94D71B0E94CC1BE2CE82E0D3
:103AA000F5CF90913302992309F4D2C08111A5C0BA
:103AB0003EE1E316F10410F40C94642648E2E416A7
:103AC000F10408F09AC093EE9E0D57E2E516F1045A
:103AD00009F490E0E091D40181E08E0F8093D4014D
:103AE000F0E0E853FE4F90838C3009F086C01092CE
:103AF00033021092320281E0809334029091D2011D
:103B00002AE08091D301929F800D11249091D001E1
:103B1000F091D101929FF00D11249091CE01E0918E
:103B2000CF01929FE00D11249091CC015091CD01D5
:103B3000929F500D11249091CA014091CB01929F08
:103B4000400D11249091C8013091C901929F300D10
:103B50001124622F0E94C134A0E18A9FB001112478
:103B6000962B9F7799838F2F622F0E94C134F0E1AB
:103B70008F9FB0011124962B9F779A838E2F622FEF
:103B80000E94C134A0E18A9FB0011124962B9F733B
:103B90009B831C82852F622F0E94C134E0E18E9F9F
:103BA000B0011124962B9F739D83842F622F0E9456
:103BB000C134F0E18F9FA0011124942B9F739E8349
:103BC000832F0E94C13440E1849F90011124922BE5
:103BD0009F779F8304E610E027E030E0AE014F5F5F
:103BE0005F4F60E080ED0E942D340CE010E08AE22F
:103BF0000E94C61001501109D1F7A5EAEA16ADE5F9
:103C0000FA0609F408C5E6EAEE16EDE5FE0609F443
:103C100010C5F3EFEF16FCE5FF0609F42DC508F01B
:103C200014C538EDE3163CE5F30609F421C549ED6A
:103C3000E4164CE5F40609F42BC557EDE5165CE5F2
:103C4000F50611F00C94642626E241EE61EE0CC5F7
:103C500097012E5131092A30310548F056E0E5161A
:103C6000F10429F067E3E616F10409F0A8C4909185
:103C700032029111A4C4882311F40C94C4278091BA
:103C80002402811186C381E08093240228E532E07A
:103C90004FEF60E080E00E9411052BE532E04FEF2E
:103CA00060E080E00E9411052EE532E04FEF60E019
:103CB00080E00E94110521E632E040E060E080E013
:103CC0000E94110524E632E04FEF60E080E00E94A0
:103CD000110527E632E04FEF60E080E00E94110519
:103CE0002AE632E04FEF60E080E00E9411052DE609
:103CF00032E040E060E080E00E94110520E732E021
:103D000040E060E080E00E94110523E732E040E0FF
:103D100060E080E00E94110526E732E04FEF60E0AE
:103D200080E00E94110529E732E04FEF60E080E07B
:103D30000E9411052CE732E04FEF60E080E00E9426
:103D400011052FE732E04FEF60E080E00E9411059F
:103D500022E832E04FEF60E080E00E94110525E8A4
:103D600032E04FEF60E080E00E94110528E832E089
:103D70004FEF60E080E00E9411052BE832E04FEF4A
:103D800060E080E00E9411052EE832E040E060E053
:103D900080E00E94110521E932E04FEF66E684E8F9
:103DA0000E94110524E932E040E060E080E00E94DA
:103DB000110527E932E040E060E080E00E94110553
:103DC0002AE932E040E060E080E00E9411052DE940
:103DD00032E04FEF66E684E80E94110520EA32E007
:103DE0004FEF66E684E80E94110523EA32E040E0E6
:103DF00060E080E00E94110526EA32E04FEF60E0CB
:103E000080E00E94110529EA32E04FEF60E080E097
:103E10000E9411052CEA32E04FEF60E080E00E9442
:103E200011052FEA32E04FEF60E080E00E941105BB
:103E300022EB32E04FEF60E080E00E94110525EBBD
:103E400032E04FEF60E080E00E94110528EB32E0A5
:103E50004FEF60E080E00E9411052BEB32E04FEF66
:103E600060E080E00E9411052EEB32E040E060E06F
:103E700080E00E94110521EC32E04FEF66E684E815
:103E80000E94110524EC32E04FEF66E684E80E94C0
:103E9000110527EC32E04FEF66E684E80E94110539
:103EA0002AEC32E04FEF66E684E80E9411052DEC23
:103EB00032E04FEF66E684E80E94110520ED32E023
:103EC0004FEF66E684E80E94110523ED32E040E002
:103ED00060E080E00E94110526ED32E04FEF60E0E7
:103EE00080E00E94110529ED32E04FEF60E080E0B4
:103EF0000E9411052CED32E04FEF60E080E00E945F
:103F000011052FED32E04FEF60E080E00E941105D7
:103F100022EE32E04FEF60E080E00E94110525EED6
:103F200032E04FEF60E080E00E94110528EE32E0C1
:103F30004FEF60E080E00E9411052BEE32E040E0A0
:103F400060E080E00E9411052EEE32E04FEF66E661
:103F500084E80E94110521EF32E040E060E080E05B
:103F60000E94110524EF32E04FEF66E684E80E94DC
:103F7000110527EF32E04FEF66E684E80E94110555
:103F80002AEF32E04FEF66E684E80E9411052DEF3C
:103F900032E040E060E080E00E94110520E033E084
:103FA0004FEF66E684E80E94110523E033E04FEF0F
:103FB00066E684E80E94110526E033E040E060E018
:103FC00080E00E94110529E033E04FEF60E080E0DF
:103FD0000E9411052CE033E04FEF60E080E00E948A
:103FE00011052FE033E04FEF60E080E00E94110503
:103FF00022E133E04FEF60E080E00E94110525E10F
:1040000033E04FEF60E080E00E94110528E133E0EB
:104010004FEF60E080E00E9411052BE133E040E0CB
:1040200060E080E00E9411052EE133E04FEF66E68C
:1040300084E80E94110521E233E04FEF66E684E850
:104040000E94110524E233E04FEF66E684E80E9407
:10405000110527E233E040E060E080E00E941105B6
:104060002AE233E04FEF66E684E80E9411052DE274
:1040700033E04FEF66E684E80E94110520E333E069
:104080004FEF66E684E80E94110523E333E04FEF2B
:1040900066E684E80E94110526E333E040E060E034
:1040A00080E00E94110529E333E040E060E080E019
:1040B0000E9411052CE333E040E060E080E00E94C4
:1040C00011052FE333E04FEF60E080E00E9411051F
:1040D00022E433E04FEF60E080E00E94110525E428
:1040E00033E04FEF60E080E00E94110528E433E008
:1040F0004FEF60E080E00E9411052BE433E040E0E8
:1041000060E080E00E9411052EE433E04FEF66E6A8
:1041100084E80E94110521E533E04FEF66E684E86C
:104120000E94110524E533E040E060E080E00E9459
:10413000110527E533E04FEF66E684E80E9411059C
:104140002AE533E040E060E080E00E9411052DE5C3
:1041500033E04FEF66E684E80E94110520E633E085
:104160004FEF66E684E80E94110523E633E04FEF47
:1041700066E684E80E94110526E633E04FEF66E626
:1041800084E80E94110529E633E04FEF66E684E8F3
:104190000E9411052CE633E04FEF66E684E80E94AA
:1041A00011052FE633E040E060E080E00E94110559
:1041B00022E733E04FEF60E080E00E94110525E741
:1041C00033E04FEF60E080E00E94110528E733E024
:1041D0004FEF60E080E00E9411052BE733E04FEFE6
:1041E00060E080E00E9411052EE733E040E060E0EF
:1041F00080E00E94110521E833E04FEF66E684E895
:104200000E94110524E833E04FEF66E684E80E943F
:10421000110527E833E04FEF66E684E80E941105B8
:104220002AE833E04FEF66E684E80E9411052DE8A6
:1042300033E04FEF66E684E80E94110520E933E0A1
:104240004FEF66E684E80E94110523E933E040E081
:1042500060E080E00E94110526E933E04FEF66E65A
:1042600084E80E94110529E933E04FEF66E684E80F
:104270000E9411052CE933E04FEF66E684E80E94C6
:1042800011052FE933E040E060E080E00E94110575
:1042900022EA33E04FEF60E080E00E94110525EA5A
:1042A00033E04FEF60E080E00E94110528EA33E040
:1042B0004FEF60E080E00E9411052BEA33E04FEF02
:1042C00060E080E00E9411052EEA33E04FEF60E0ED
:1042D00080E00E94110521EB33E040E060E080E0E7
:1042E0000E94110524EB33E040E060E080E00E9492
:1042F000110527EB33E040E060E080E00E9411050B
:104300002AEB33E040E060E080E00E9411052DEBF5
:1043100033E040E060E080E00E94110520EC33E0F3
:1043200040E060E080E00E94110523EC33E04FEFB5
:1043300066E684E80E94110526EC33E04FEF66E65E
:1043400084E80E94110529EC33E04FEF66E684E82B
:104350000E9411052CEC33E04FEF66E684E80E94E2
:1043600011052FEC33E04FEF66E684E80E9411055B
:1043700022ED33E040E060E080E00E94110525ED91
:1043800033E04FEF60E080E00E9411050E942812A8
:1043900034CC1092240226E732E04FEF60E080E058
:1043A0000E94110529E732E04FEF60E080E00E94B3
:1043B00011052CE732E04FEF60E080E00E9411052C
:1043C0002FE732E04FEF60E080E00E94110522E825
:1043D00032E04FEF60E080E00E94110526EA32E013
:1043E0004FEF60E080E00E94110529EA32E04FEFD4
:1043F00060E080E00E9411052CEA32E040E060E0DD
:1044000080E00E9411052FEA32E040E060E080E0A9
:104410000E94110522EB32E04FEF60E080E00E9445
:10442000110526ED32E04FEF60E080E00E941105BB
:1044300029ED32E040E060E080E00E9411052CEDC3
:1044400032E04FEF66E684E80E9411052FED32E07E
:104450004FEF66E684E80E94110522EE32E040E06C
:1044600060E080E00E94110526E033E040E060E07B
:1044700080E00E94110529E033E04FEF66E684E812
:104480000E9411052CE033E04FEF66E684E80E94BD
:1044900011052FE033E040E060E080E00E9411056C
:1044A00022E133E04FEF60E080E00E94110526E357
:1044B00033E040E060E080E00E94110529E333E052
:1044C0004FEF66E684E80E9411052CE333E040E0FC
:1044D00060E080E00E9411052FE333E04FEF60E0E1
:1044E00080E00E94110522E433E04FEF60E080E0BD
:1044F0000E94110526E633E040E060E080E00E9483
:10450000110529E633E04FEF66E684E80E941105C5
:104510002CE633E040E060E080E00E9411052FE6E9
:1045200033E04FEF60E080E00E94110522E733E0C6
:104530004FEF60E080E00E94110526E933E04FEF85
:1045400066E684E80E94110529E933E04FEF66E64C
:1045500084E80E9411052CE933E040E060E080E04F
:104560000E9411052FE933E04FEF60E080E00E94E8
:10457000110522EA33E04FEF60E080E00E94110570
:1045800026EC33E04FEF66E684E80E94110529EC43
:1045900033E04FEF66E684E80E9411052CEC33E02F
:1045A00040E060E080E00E9411052FEC33E04FEF27
:1045B00060E080E00E94110522ED33E0E2CE9EEC47
:1045C000E9169CE5F90609F0E6C4882309F421CB35
:1045D00081E080933202109224021092340274C35C
:1045E0009DECE9169CE5F90609F007CB882309F450
:1045F0006BC380E197E29093310280933002109276
:104600002F0210922E02109232021092240281E0A8
:104610008093340259C3F6018281882309F421C9A9
:1046200061E083E090E00E94873581E00E94F0071E
:1046300018C9F6018281882321F081E00E94E31BE2
:1046400010C981E00E94D71B0CC965EFE6166CE526
:10465000F606D1F0A8F027E245EE66EE96EFE916F1
:104660009CE5F90609F030C3C6010E94DB1AF9C8BF
:1046700027E245EE65EEF8CF26E241EE60EEF4CF9C
:1046800027E245EE64EEF0CF26E241EE62EEECCF9B
:1046900028E241E0EFCF31E6E3163DE5F30609F409
:1046A0002CC38091190266E1E6166CE5F60609F066
:1046B0009DC38A7A91E009F490E09093D50169E274
:1046C000811165E380EC91E00E94A4040E946E07D2
:1046D000C8C880912502806126E0E2162CE5F2062A
:1046E00009F4A9C080912502886037E0E3163CE513
:1046F000F30608F4A0C08091250280629CC08091DE
:1047000025028D7F4CE0E4164CE5F40609F493C0D5
:1047100078F4809125028C606AE0E6166CE5F60676
:1047200009F489C008F49CC0809125028E7F83C063
:1047300080912502877F9EE0E9169CE5F90609F441
:104740007AC0809125028B7FAFE0EA16ACE5FA06CD
:1047500008F471C0809125028F7E6DC0ECEFEE16DB
:10476000ECE5FE0609F482C0A0F524E1E2162CE592
:10477000F20609F493C098F442E1E4164CE5F4061D
:1047800009F47CC0809125028F7B53E1E5165CE53E
:10479000F50608F450C080912502837F4CC06AEF73
:1047A000E6166CE5F60609F44DC008F051C095E137
:1047B000E9169CE5F90609F0CDC28091250282FB3D
:1047C000992790F921E0922790FB82F990FB83F9D9
:1047D00032C0E114ADE5FA0609F456C0A0F48091A8
:1047E00026028360FEEFEF16FCE5FF0671F1809173
:1047F00026028D7F2FEFE2162CE5F20630F1809134
:1048000026028C7F22C032E0E3163DE5F30609F470
:1048100054C008F44CC051E6E5165DE5F50609F014
:1048200099C290912502892F8F7E94FF806103C0E9
:10483000809125028160809325028CC2809125029F
:104840008460F9CF8091260281608093260282C223
:10485000809126028260F9CF809125028064EBCF9F
:104860000E943616809125028068E5CF809126024D
:104870008E7FEBCF809125028F7DDDCF0E94361693
:10488000809125028F77D7CF80912602982F90951F
:1048900091708E7F892B90FB81F9D7CF0E943616BD
:1048A00090912502892F97FB87F98058C4CF61E04A
:1048B0008EE090E00E9487354DC260E0F9CF85E33D
:1048C00087C28091580680FF1CC08E7F8093580657
:1048D000609158067091590680915A0690915B0636
:1048E0000E941F15109253028FEF90E7A2E08150B3
:1048F0009040A040E1F700C000000E9428120C94F4
:10490000311C81608093580661E086950E943F1BB0
:104910000C94311C4EEE5BE167EF7BE10E94F604E4
:104920000C94311C47EF5BE16EEE7BE1F7CF4BEF70
:1049300055E162EF75E1F2CF4AED55E166EE75E1C2
:10494000EDCF42EC55E16EEC75E1E8CF4EEC55E170
:1049500062EC75E1E3CF45E156E164E076E1DECF5C
:1049600061E081E0D3CF65E082E00E94011C0C94FD
:10497000311C68E086E0F9CF64E18FE0F6CF67E1B3
:1049800085E1F3CF62E289E1F0CF61E083E2BECF5F
:104990000E9436162FEF34E34CE021503040404067
:1049A000E1F700C000000E9487040E940A190C94DD
:1049B000311CC8010E948F07F82E4FC2092F0F70BB
:1049C000907F11F00295007F812F2223C9F00023F0
:1049D00069F090E2910F983010F011110BC08091A6
:1049E0001902082B009319020E946E07812F0E9462
:1049F000420817C080911802082B00931802F4CFC8
:104A00000E940908002369F00095105E183010F02C
:104A1000B11014C0809119020823009319020E945A
:104A20006E0738E0E31AF10844E0E416F10410F0F0
:104A30000C94311C0E94EA040C94311C80911802E1
:104A4000082300931802EBCF892F8F70907F90324C
:104A500011F08295807FF1E0BF120CC0222329F073
:104A60003630F8F60E94FF07DCCF3530D0F60E94D2
:104A7000F407D7CF222341F03323A1F340FFB6CF71
:104A80004F70F6014583EECF332389F3193349F490
:104A9000FFEF27EE33E0F15020403040E1F700C057
:104AA0000000812F0E940908BCCF892F869586952A
:104AB000837061F0813009F0B4CF812F93702111A0
:104AC00002C090E080E00E94BE04ABCF812F9370C3
:104AD000211102C090E080E00E94D404A2CF892F6F
:104AE0008370A1F521119DCF812F829586958770C6
:104AF000880F880F412F4F70082E01C0440F0A9471
:104B0000EAF7212F207114FF07C02FE030E001C029
:104B1000220F8A95EAF72095969596959370923094
:104B200081F0822F842B933030F480911A029130DF
:104B300029F0242B82230E94F00773CF842B822B31
:104B4000FACF242B80911A028227F5CF8695222353
:104B500011F0892F8170882309F463CF812F82950A
:104B600086958770880F880F412F4F70082E01C0DF
:104B7000440F0A94EAF7212F207114FF07C02FE099
:104B800030E001C0220F8A95EAF720959695969518
:104B90009370923081F0822F842B933030F4809187
:104BA0008206913029F0242B82230E94C61B39CF24
:104BB000842B822BFACF242B809182068227F5CF7B
:104BC000092F0F70222329F0802F0E94E31B812FD1
:104BD00049CF812F0E94F407802F0E94D71B21CF3D
:104BE000812F41EF141789F1411750F050EF15173D
:104BF000B9F02223B1F13111F9CE892F8F7129C07B
:104C000062EF161749F1A3EF1A13F3CF80E02223C6
:104C100061F29F7181E001C0880F9A95EAF7C5CFD4
:104C2000222379F0353008F0FCCE292F2F7181E056
:104C300090E001C0880F2A95EAF7909182068927B3
:104C4000B4CF363008F0EDCEF0CF892F8F7122230C
:104C500021F20E94E31BE5CE892F8F712223C9F335
:104C6000BCCF332359F0893309F01BCFEFEFF7EEB8
:104C700023E0E150F0402040E1F711CF892F8F7100
:104C8000ACCF50E1E5165FE5F50611F40C94451D37
:104C900061E1E6166FE5F60611F40C944F1D23E76B
:104CA000E216F10411F00C94511D882311F40C94B8
:104CB000511D81E0809332028093330210923402BE
:104CC0001092D40110922402F6019281992309F4E2
:104CD00075C010928506F3E0EF16FDE5FF0608F0BB
:104CE000DACC2AEFE2162CE5F20638F497012250CE
:104CF0003C452431310508F0D4CC0E941A1290931F
:104D000026028093250240E1E4164CE5F40609F4FE
:104D1000B1CD08F023CD68E0E6166CE5F60609F49F
:104D20009BCD08F0ECCC94E0E9169CE5F90609F47B
:104D300085CD08F0CECCE2E0EE16ECE5FE0609F4F7
:104D400077CD809125028260F3E0EF16FCE5FF0647
:104D500009F471CD609125021091260284E090E063
:104D60000E948735612F82E290E00E9487350E9481
:104D700036160C94311C90E1E9169FE5F90611F402
:104D80000C94491DA1E1EA16AFE5FA0609F087CFB8
:104D900082E00C944A1D85E0DE01119601900D928F
:104DA0008A95E1F7F601228189819A8121110C947B
:104DB000471C0E948F07182F0C944F1CF6E1EF162A
:104DC000FCE5FF06E1F58091D501811178CD89E2FE
:104DD000E2ECF1E028EC31E09191891303C0DF01AE
:104DE00011971C922E173F07B9F770CC82722CECEA
:104DF000E2162CE5F20609F4AECD08F083C046ECCD
:104E0000E4164CE5F40609F492CD08F052C063ECC8
:104E1000E6166CE5F60609F47DCDD0F5E2ECEE166B
:104E2000ECE5FE0609F44DCDE114ECE5FE0609F4CF
:104E3000AFCDFEEDEF16FCE5FF0609F4B6CDF601A9
:104E400000811181992309F4B4CDC8010E949F11FA
:104E5000F82E682FC8010E94B607B8018F2D0E9456
:104E600092110E940606182FB82EF6012281458164
:104E7000342F32953F70892F82958F70E82EF12C58
:104E80008C3008F0CECDF701E85CF94C0C94E1349D
:104E9000F4ECEF16FCE5FF0609F444CD42EF55E1D2
:104EA0006BEF75E125ECE2162CE5F20609F436CD40
:104EB000BBCF39ECE3163CE5F30609F442CD88F4A8
:104EC00057ECE5165CE5F50609F436CD68ECE61618
:104ED0006CE5F60609F0A8CF46EE55E16AED75E1FE
:104EE0001DCDAAECEA16ACE5FA0609F42FCD44E094
:104EF00056E165E176E1EBECEE16ECE5FE0609F431
:104F00000DCD92CFF1EDEF16FCE5FF0609F434CD9F
:104F1000B8F43EECE3163CE5F30609F424CD08F4BE
:104F20001FCD5FECE5165CE5F50609F422CD60EDDA
:104F3000E6166CE5F60609F077CF6EE089E015CD50
:104F400084EDE8168CE5F80609F41CCD78F4E2ED62
:104F5000EE16ECE5FE0609F412CD61E088E1F3ED12
:104F6000EF16FCE5FF0609F4D1CC5ECF25EDE21685
:104F70002CE5F20609F409CD6AE285E23DE5E31687
:104F8000F30609F4F2CC50CF4EECE4164CE5F406EF
:104F900011F40C94091EAFECEA16ACE5FA0609F41C
:104FA00014CBE0EDEE16ECE5FE0609F40ECBF1EDC8
:104FB000EF16FCE5FF0609F408CB22EDE2162CE51E
:104FC000F20609F402CB33EDE3163CE5F30609F4EF
:104FD000FCCA44EDE4164CE5F40609F4F6CA55EDB6
:104FE000E5165CE5F50609F4F0CA6DE5E616F60689
:104FF00009F0F6CA8111ECCA67CE1F93CF93DF93F5
:105000008091E401807FA9F48091E101882389F0F7
:1050100080911602D091E5016091DF017091E0016D
:10502000A091E201B091E301C62FC72316E0D81387
:1050300004C0DF91CF911F91089590E0109711F077
:10504000CF3F19F401968770F2CF189F9001199FF6
:10505000300D1124F901EA51FE4F41814713F2CF7F
:1050600040814613EFCF42814111ECCF43815481FF
:105070004A1B5B0B483C510528F78091E4018F7077
:1050800080618093E401F901E551FE4F80818F70CA
:10509000806180838FED91E00E940F1CDF91CF91A2
:1050A0001F910C948507AF92BF92CF92DF92EF923F
:1050B000FF920F931F93CF93DF93CDB7DEB7619726
:1050C0000FB6F894DEBF0FBECDBF8C0185E0F801AE
:1050D000DE011D9601900D928A95E1F7F801E280BC
:1050E0008FEDA82E81E0B82E6091E2017091E3016E
:1050F0006115710509F432C19091DF014091E00121
:10510000892F84238F3F09F429C120813181C380F5
:10511000D480F090E101F601E61BF70BFF2009F4C3
:10512000E8C08091E401582F507FE83CF10508F079
:10513000ABC0511177C0FE2C431321C092131FC086
:10514000E1101DC08F7080618093E401C5010E9451
:105150000F1C8091E401F80185838F2D61960FB6B5
:10516000F894DEBF0FBECDBFDF91CF911F910F919D
:10517000FF90EF90DF90CF90BF90AF900895CD2833
:1051800029F0822F83238F3F09F003C180E0F82F9D
:10519000F170DF2E80FF3CC0809116024091E50146
:1051A00056E0841315C02D873E878D859E850E940D
:1051B000CE11292F22952F702230F0F0243018F5CF
:1051C0009F70F1F0F8019581907FD1F4D12C1EC031
:1051D00090E0589FF001599FF00D1124EA51FE4FC5
:1051E0006181361306C06081261303C06281E61216
:1051F0000FC001968770D5CF9F7011F0882331F3CF
:10520000805E883018F3C8010E940F1CFD2CA5CFCA
:10521000EE2009F4A2CF8091E40181608093E40143
:10522000F12C9BCF431306C0921304C0F801EE206B
:1052300009F479C0C8010E94DA11882309F1EE202F
:10524000F9F08091E401803270F02091DF0130911B
:10525000E00138872F831986DB86CA868C87CE01CA
:1052600007960E940F1C86E0F801AFEDB1E00190B7
:105270000D928A95E1F70E94FD27FF24F3946DCFEC
:10528000C8010E940F1CF9CF51110AC08FED91E0A7
:105290000E940F1C86E0F50111928A95E9F7C0CFB4
:1052A00043130FC092130DC0E1100BC0F8018583AA
:1052B000C8010E940F1C86E0F50111928A95E9F75A
:1052C0004CCFC8010E94DA118823D1F2EE20C1F23E
:1052D0008091E401803238F22091DF013091E001C9
:1052E0003A8329831B82DD82CC828E83CE01019694
:1052F000B8CFE83CF105F8F6FE2CEE2009F2431396
:105300001FC092131DC08091E40180FD10C0982F32
:10531000907F69F0F8018583903F31F0982F907F5E
:10532000905F8F70892B8583C8010E940F1C86E0D7
:10533000F801AFEDB1E001900D928A95E1F70DCF44
:10534000C8010E94DA1181118ECF8091E401816041
:105350008093E401C8010E940F1CFFCEEE2009F4E7
:105360008FCFC8010E94DA11F82E882309F488CF64
:1053700086E0F801AFEDB1E001900D928A95E1F77A
:105380008091DF019091E0010E94CE110E94FD27E3
:10539000E4CE81E08E25FBCE1F93CF93DF93CDB774
:1053A000DEB767970FB6F894DEBF0FBECDBF4B8B4D
:1053B0005C8B6D8B7E8B8F8B6111109218021A8A19
:1053C000198A85E0FE017396DE011D9601900D920B
:1053D0008A95E1F786E0FE013D96DE011796019081
:1053E0000D928A95E1F7CE0107960E9453288823F3
:1053F00089F016E0809116029091E501891349C069
:1054000067960FB6F894DEBF0FBECDBFDF91CF9188
:105410001F91089586E0FE013796DE0111960190F6
:105420000D928A95E1F78A859B85892B11F38F81EF
:10543000988589238F3FE9F22091E50130E0C90189
:10544000019687709927409116024817190671F442
:105450000E9436161092E5011092160286E0EFEDDA
:10546000F1E0DF011D928A95E9F7C3CF96E0929FA4
:10547000D001939FB00D1124AA51BE4FFE01319669
:1054800001900D929A95E1F78093E5010E948507BE
:10549000B0CF819FC00111248A519E4F0E94532892
:1054A000882309F4ADCF8091160290E001968770B1
:1054B0009927809316029ECF4F925F926F927F92B0
:1054C0008F929F92AF92BF92CF92DF92EF92FF9214
:1054D0000F931F93CF93DF93CDB7DEB72D970FB602
:1054E000F894DEBF0FBECDBF7E0148E0E40EF11C94
:1054F00086E0F70111928A95E9F7B4E6CB2EB1E088
:10550000DB2E10E000E0AA24A394B12CF6018191D7
:105510006F018F3F09F443C0F894E82FE295EF70D4
:10552000F0E021A18F70A50102C0440F551F8A959C
:10553000E2F7CA01922F982B91A392A1809589231B
:1055400082A3789400C0EAE6F1E0912C31E0219149
:105550002F3F09F46DC0A22FA295AF70B0E09096D6
:105560008C9190E02F7002C0959587952A95E2F76F
:1055700080FD5EC0832F982A330F51E0EE36F50789
:1055800031F7F601319780818F3F11F00E94AC0511
:1055900080EA8A95F1F7F701E00FF11F90820F5F23
:1055A0001F4F0630110509F0B1CF46E050E0B701BA
:1055B00087E292E00E946635CC24C394009709F4F8
:1055C000C12C892BB9F186E0FE013896A7E2B2E042
:1055D00001900D928A95E1F781E080931D020E946F
:1055E000CF1A90931C0280931B0280911B02909112
:1055F0001C020E94C01A059708F18091270280932F
:10560000460280912802809347028091290280936C
:10561000480280912A028093490280912B02809354
:105620004A0280912C0280934B0210921D0206C008
:1056300080E0A1CF80911D028111D7CF80911D0103
:1056400090911E01892B41F080911B0190911A01CC
:1056500089238F3F09F024C2809122019091230178
:10566000892B41F080911F019091200189238F3F68
:1056700009F0FCC18091130190911401892B41F034
:10568000809111019091100189238F3F09F0D4C1BD
:105690008091180190911901892B41F08091160198
:1056A0009091150189238F3F09F0ACC1809134029C
:1056B000882309F4E3C08091300290913102209157
:1056C0002E0230912F02FC01E21BF30B9F012134CB
:1056D0003F4108F4D3C090932F0280932E02109282
:1056E000240208EC10E027E030E0AE014F5F5F4F8E
:1056F00060E080ED0E945A340E94A9348981282FED
:1057000030E094E0359527959A95E1F7922F9770C0
:105710002AE08F70929F800D112480931E023A819F
:10572000832F90E044E0959587954A95E1F787703F
:105730003F70F32E829FF00C1124F0921F023B81E8
:10574000832F90E054E0959587955A95E1F7837003
:105750003F70E32E829FE00C1124E09220028D81A5
:10576000482F50E064E0559547956A95E1F74770FA
:105770008F70429F800D1124809321028E81482FCB
:1057800050E074E0559547957A95E1F743708F7036
:10579000429F800D1124809322028F81482F50E078
:1057A000E4E055954795EA95E1F743708F70429F85
:1057B000800D1124809323028E2D622F0E94C1340C
:1057C000782E36EF0E2D839F000D11248F2D0E9411
:1057D000C134D82E1F2D839F100D11244090350207
:1057E0005090360260903702F8E5AF2EF2E0BF2EFF
:1057F000A8ED8A2EA3E09A2E9501442D652D862DC5
:105800000E94110543E0A40EB11C8A149B04A1F769
:1058100059E05E1508F450C080E00E949F0F01110E
:1058200059C084E00E949F0FF9E0FF1508F489C079
:1058300089E00E949F0F1111AEC08DE00E949F0F62
:1058400020ED32E04FEF60E080E00E94110520E0A3
:1058500033E04FEF60E080E00E9411052DE233E07D
:105860004FEF60E080E00E9411052DE533E04FEF3F
:1058700060E080E00E9411050E9428120E949804B6
:1058800070933102609330028C2D2D960FB6F894F0
:10589000DEBF0FBECDBFDF91CF911F910F91FF9063
:1058A000EF90DF90CF90BF90AF909F908F907F90C0
:1058B0006F905F904F90089581E0781204C080E06F
:1058C0000E94D70EACCFE2E07E12A9CF80E00E940A
:1058D0000F0EA5CF013021F484E00E94D70EA4CF93
:1058E000023021F484E00E940F0E9ECF033021F499
:1058F00084E00E94470D98CF043021F484E00E9498
:105900007F0C92CF053021F484E00E94B70B8CCF3E
:10591000063021F484E00E94EF0A86CF073021F49C
:1059200084E00E94270A80CF083021F484E00E949E
:105930005F097ACF093009F077CF84E00E94970899
:1059400073CF41E0D41204C089E00E94D70E73CF18
:1059500052E0D51204C089E00E940F0E6CCF83E0A4
:10596000D81204C089E00E94470D65CFE4E0DE1242
:1059700004C089E00E947F0C5ECFF5E0DF1204C016
:1059800089E00E94B70B57CF46E0D41254CF89E08C
:105990000E94EF0A50CF113021F48DE00E94D70E03
:1059A0004FCF123021F48DE00E940F0E49CF1330FB
:1059B00021F48DE00E94470D43CF143021F48DE097
:1059C0000E947F0C3DCF153021F48DE00E94B70B73
:1059D00037CF163021F48DE00E94EF0A31CF173017
:1059E00021F48DE00E94270A2BCF183021F48DE09E
:1059F0000E945F0925CF193009F022CF8DE00E9467
:105A000097081ECF80911701882309F44FCE10927A
:105A100017010E94CF1A8160782F9093190180930B
:105A20001801409115015091160160911701809164
:105A300019010E94CC293ACE80911201882309F4E1
:105A400027CE109212010E94CF1A8160782F909376
:105A50001401809313014091100150911101609144
:105A60001201809114010E94CC2912CE8091210153
:105A7000882309F4FFCD109221010E94CF1A816082
:105A8000782F909323018093220140911F01509120
:105A9000200160912101809123010E94CC29EACD4F
:105AA00080911C01882309F4D7CD10921C010E941B
:105AB000CF1A8160782F90931E0180931D01409131
:105AC0001A0150911B0160911C0180911E010E94DE
:105AD000CC29C2CD1F921FB61F9211248F939F9382
