:100000000C94CF020C9416030C9416030C94160354
:100010000C9416030C9416030C9416030C941603FC
:100020000C9416030C9416030C94C91A0C94851A9C
:100030000C94F02D0C9416030C9416030C941603D8
:100040000C9416030C9416030C9416030C941603CC
:100050000C9416030C94E21B0C9416030C941603D8
:100060000C9416030C9416030C9416030C941603AC
:100070000C9416030C9416030C9416030C9416039C
:100080000C9416030C9416030C9416030C9416038C
:100090000C9416030C9416030C9416030C9416037C
:1000A0000C9416030C9416030C9416030631FF09E6
:1000B00074A1010975150026FF00952075088102BD
:1000C0000976150026FF00952075089102C00501EC
:1000D0000980A101850319012AB700150126B7007F
:1000E000950175108100C0050C0901A10185041955
:1000F000012AA002150126A002950175108100C0F9
:100100000660FF0961A1010962150026FF00952024
:10011000750881020963150026FF00952075089176
:1001200002C005010906A101050719E029E715002C
:100130002501950875018102950175088101050762
:10014000190029FF150026FF009506750881000596
:10015000081901290595057501910295017503910D
:1001600001C00000000000000000000000000000CE
:10017000000000000000000000000000000000007F
:100180000000000000007E0F00D4FFFFFFC700004A
:10019000007800000000000000002A2B280000006A
:1001A0000000000000000000000000000029000026
:1001B00000002C1E3420212224342627252E362D03
:1001C0003738271E1F202122232425263333362E9D
:1001D00037381F0405060708090A0B0C0D0E0F100F
:1001E0001112131415161718191A1B1C1D2F313054
:1001F000232D350405060708090A0B0C0D0E0F10F8
:100200001112131415161718191A1B1C1D2F313033
:10021000354C1E0F0500047F3F1F643214643214F6
:10022000783C1E1E140A05000101010101010101B3
:100230000102020202020202020203030303030399
:100240000303040404040404040505050505060667
:100250000606060707070707080808080909090925
:100260000A0A0A0B0B0B0C0C0C0D0D0D0E0E0E0FCB
:100270000F0F10101111111212131314141515165B
:10028000161717181819191A1A1B1B1C1D1D1E1ECC
:100290001F2020212222232424252626272829291D
:1002A0002A2B2C2D2D2E2F30313232333435363748
:1002B00038393A3B3C3D3E3F404142434445464746
:1002C00048494A4C4D4E4F50515354555658595A1F
:1002D0005B5D5E5F616264656668696B6C6D6F70C3
:1002E00072737577787A7B7D7E8082838587888A32
:1002F0008C8E8F91939596989A9C9EA0A2A3A5A769
:10030000A9ABADAFB1B3B5B7BABCBEC0C2C4C6C964
:10031000CBCDCFD1D4D6D8DBDDDFE2E4E7E9EBEE1D
:10032000F0F3F5F8FAFDFFFFAA7F554022232526BA
:1003300028292A2C2D2F3032333536383A3B3D3E92
:100340004042434547494A4C4E5051535557595ADC
:100350005C5E6062646668696B6D6F7173757779F6
:100360007B7D7F81838587898A8C8E9092949698F5
:100370009A9C9E9FA1A3A5A7A8AAACAEAFB1B3B407
:10038000B6B8B9BBBCBEBFC1C2C3C5C6C7C9CACB5C
:10039000CCCDCED0D1D2D2D3D4D5D6D7D7D8D9D927
:1003A000DADADBDBDBDCDCDCDCDCDDDDDDDDDCDC90
:1003B000DCDCDCDBDBDBDADAD9D9D8D7D7D6D5D4AD
:1003C000D3D2D2D1D0CECDCCCBCAC9C7C6C5C3C279
:1003D000C1BFBEBCBBB9B8B6B4B3B1AFAEACAAA8CE
:1003E000A7A5A3A19F9E9C9A98969492908E8C8A82
:1003F00089878583817F7D7B79777573716F6D6B5D
:100400006968666462605E5C5A5957555351504E34
:100410004C4A4947454342403E3D3B3A38363533E6
:1004200032302F2D2C2A292826252322AB005D5D72
:10043000CD5CAE002400250026002A4121002200C8
:10044000230000001E001F002000280027003700A6
:1004500000000000CA5CC95CAA00A9007300540037
:10046000550056004A0052004B0057005000510002
:100470004F0000004D0000004E00280000004C001E
:10048000000000000000000000000000000000006C
:10049000000000000000000000000000000000005C
:1004A000000000000000000000000000000000004C
:1004B000000000000000000000000000000000003C
:1004C000000000000000000000000000000000002C
:1004D000000000000000000000000000000000001C
:1004E00000000000000000000000000009027B0086
:1004F000040100A0FA090400000103010100092120
:10050000110100012240000705810308000A0904C7
:100510000100020300000009211101000122220054
:1005200007058203200001070503032000010904D9
:100530000200010300000009211101000122320024
:100540000705840320000A090403000203000000D9
:100550000921110100012222000705850320000165
:10056000070505032000011201000200000008ED4C
:10057000FE268A0100010200010E036E006F007763
:100580000070006100640000000E0355004E005230
:1005900000450041004C0000000403090400112440
:1005A0001FBECFEFDAE0DEBFCDBF04B603FE27C02B
:1005B0008091900690919106A0919206B091930639
:1005C0008730904BA740B04BD1F410929006109218
:1005D0009106109292061092930614BE84B7877FFC
:1005E00084BF0FB6F894A8958091600088618093CD
:1005F0006000109260000FBEE0E0F8E3099526E08D
:10060000A6ECB1E001C01D92A039B207E1F711E0FC
:10061000A0E0B1E0ECE8FDE602C005900D92A63C3A
:10062000B107D9F70E94172E0C948D360C94000058
:10063000E8EDF0E080818E7F80831092E2001092DE
:10064000DA001092E100A0EEB0E08C9181608C9312
:1006500080818F77808319BCA7EDB0E08C918E7F6D
:100660008C9380818F7E80831092750608952091EF
:10067000E4003091E50095E6A9012091EC00822F7D
:10068000817020FF06C08091E80080FF06C080E0F6
:1006900008952091E80022FD1AC0809182068823E7
:1006A00089F0853089F08091EB0085FD0FC02091A5
:1006B000E4003091E50042175307F9F29150E1F65A
:1006C00084E0089582E0089583E0089581E008952C
:1006D000EF92FF920F931F93CF937C018B010E94A7
:1006E0003703C82F811117C08091E80085FD0BC02A
:1006F0008091E8008E778093E8000E94370388237A
:1007000099F3C82F08C0F70181917F018093F10010
:100710000150110949F78C2FCF911F910F91FF9034
:10072000EF9008958091840687FF13C08091E800C0
:1007300082FF06C08091E8008B778093E80004C0B8
:10074000809182068111F2CF0895809182068823DC
:10075000D9F38091E80080FFF8CF8091E8008E7790
:10076000ECCF982F9093E900242F762F50E0891733
:1007700031F07091EC002091ED005091F00021FDDE
:1007800007C09F5F973071F78093E90081E008957B
:100790003091EB003E7F3093EB003091ED003D7FD8
:1007A0003093ED003091EB0031603093EB007093AB
:1007B000EC002093ED005093F0002091EE0027FD17
:1007C000E0CF80E00895CF92DF92EF92FF920F93F7
:1007D0001F93CF93DF93C8EDD0E088818F7E88830D
:1007E000E7EDF0E080818160808384E082BF81E07A
:1007F0008093750688818E7F888302EE10E0F80171
:1008000010821092DA0081EEC82ED12CF6011082EF
:1008100088818F77888388818068888388818F7DAD
:10082000888319BC1092820610928306109281066A
:100830001092800690EEE92EF12CF70180818B7FDB
:10084000808388818160888342E060E080E00E944C
:10085000B103F60180818E7F8083F8018081816001
:100860008083808188608083F70180818E7F808390
:10087000888180618883DF91CF911F910F91FF90D4
:10088000EF90DF90CF900895FC0180918A069091BF
:100890008B0686179707A0F06115710529F49091D2
:1008A000E8009E779093E80090E06115710551F49F
:1008B000911108C08091E80082FF34C080E0089563
:1008C000BC01F2CF809182068823C1F18530C1F14D
:1008D0008091E80083FD30C08091E80082FDEACF7E
:1008E0008091E80080FFE1CF8091F3002091F20039
:1008F000382F6115710519F02830310558F091E055
:100900002830310509F090E02091E8002E772093FF
:10091000E800CBCF81918093F100615071092F5F86
:100920003F4FE7CF80918206882341F0853041F028
:100930008091E80083FFBECF81E0089582E00895B2
:1009400083E00895089508958091770608952FB75C
:10095000F89460916B0670916C0680916D06909191
:100960006E062FBF089520916806309169062817FA
:10097000390771F09093690680936806E0916606E6
:10098000F0916706309721F00084F185E02D0994FD
:10099000089520916406309165062817390771F093
:1009A0009093650680936406E0916606F091670671
:1009B000309721F00680F781E02D09940895E091A9
:1009C0006606F0916706309721F00190F081E02DE6
:1009D000099480E00895FA01811101C0FB01099496
:1009E00080915F06982F9E7F61F481708260809372
:1009F0005F06809162068F3618F08EE6809362065D
:100A000008958635B0F381708465F1CFAF92BF92BF
:100A1000DF92EF92FF920F931F93CF93DF93182FE4
:100A2000062FE9014F3608F04EE6E42FF0E0E95DCD
:100A3000FD4F011110C0E4915E2F4E2F4983E883D2
:100A40005A83DF91CF911F910F91FF90EF90DF902C
:100A5000BF90AF900895202F30E04491D42EE42E23
:100A6000F12C56E0159FC0011124EFEFF0E0BF011B
:100A70000E941C35812F90E0880F991F55E5569FE5
:100A8000D001579FB00D11248A1B9B0B982F990FF3
:100A9000890F5F01A21AB30AAE9CD001AF9CB00DC2
:100AA000BE9CB00D11245B2F089F80011124012FE3
:100AB00011275F01A01AB10AAE9C8001AF9C100DF6
:100AC000BE9C100D11245F01A81AB108A29EC0019E
:100AD000A39E900DB29E900D1124892F9927E81B9B
:100AE000F90BEE9DC001EF9D900DFE9D900D112420
:100AF000E92F62307105A1F050F46115710509F418
:100B00009DCF6130710581F0EB2F512F97CF64306D
:100B1000710569F080F06630710509F48FCFF4CF6C
:100B2000E42F4B2F592F8ACFE42F412F87CFEB2F64
:100B3000542F492F83CF4B2F5D2DE12F7FCFF8947A
:100B4000E82FE295EF70F0E031A1282F2F7081E0BF
:100B500090E001C0880F2A95EAF7982F909593238B
:100B600091A392A1892B82A3789408959091330246
:100B700092FF06C0282F28712830F9F4877F8460FF
:100B800093FF06C0282F28712831F1F4877E8461F5
:100B90002091340220FF06C0382F38713830D9F444
:100BA000877F816021FF06C0282F28712831D1F46A
:100BB000877E816194FD877E0895282F24712430DB
:100BC000F9F68B7F8860DCCF282F2471243101F760
:100BD0008B7E8861DDCF382F3171313019F78E7FF0
:100BE0008860E0CF282F2171213121F78E7E886126
:100BF000E1CFCF93DF93EC018238910581F1B0F51D
:100C00008133910509F491C020F58932910509F4E9
:100C100085C08A9709F490C0C11521E5D20708F074
:100C2000AAC0C11530E5D30708F0F2C0CF3BD1050B
:100C300008F089C0C83AD10508F0DFC0C53AD1052F
:100C400008F0D3C0C430D105F8F4C130D105E1F0CB
:100C500040C08533910509F45AC0C997E9F68091DF
:100C60003302837089F0C0EED0E00EC0833E910560
:100C700099F170F4803E910501F1823E910561F693
:100C80008091330282FD21C0CE01DF91CF91089582
:100C9000863E910561F1873E910571F1843E910593
:100CA00009F0BACF8091340281FFEECF80913302F8
:100CB000C7EED0E084FD0DC0E7CF8091330280FD08
:100CC000F7C09091340290FFDFCFC3EED0E084FFF5
:100CD000DBCFD0E0C0E0D8CF8091330282FDEBC003
:100CE0009091340290FDBFCF84FFCECFF2CF8091A0
:100CF000330283FDDDCFC8CF8091330283FDDEC098
:100D00009091340291FFF0CFC4EED0E0BDCF80913E
:100D1000330285FFB9CFC9E2D0E0B6CF809133026C
:100D200085FFB2CFC5E3D0E0AFCF8091330286FF1D
:100D3000ABCFCAE2D0E0A8CF8091330286FFA4CF28
:100D4000C1E3D0E0A1CFC11540E2D40760F4C115E2
:100D500081E0D80708F098CFCE01815E910907970E
:100D600008F492CFB6CFC11590E4D90708F4B1CFFB
:100D7000DF70D06A89CFC11524E5D20778F4C11598
:100D800033E5D30708F072C0C11542E5D40708F077
:100D90005CC0DC2FCC27C16FD06A76CFC1158AE545
:100DA000D80778F4C11599E5D90708F073C0C115C3
:100DB00028E5D20708F48DCFDC2FCC27C06FD06A8E
:100DC00063CFCE0190568115904208F082CF8D2FCF
:100DD0008F710E94B60590E0982F882788279F7111
:100DE0009C012C2BE901D0624FCFC55AD0E0CA5CE0
:100DF000DE4FC881D0E0D06447CFC85AD0E0CC0FD6
:100E0000DD1FC75CDE4F0990D881C02DD4643CCF74
:100E1000CE0164E0969587956A95E1F783702C2F53
:100E200026952695237040E2249F90011124382BAB
:100E30008C2F8370C1E0D0E002C0CC0FDD1F8A95FB
:100E4000E2F7C22BD32BDC681FCFCE01837099272A
:100E500021E030E002C0220F331F8A95E2F7C695E9
:100E6000C69580E2C89FE0011124EBCFCE018370CC
:100E7000992721E030E002C0220F331F8A95E2F764
:100E8000C695C69590E2C99FE0011124C22BD32BD1
:100E9000DA68FACE8C2F8F700E94B60534E0D695B2
:100EA000C7953A95E1F7CF709C2FEC01D069ECCE55
:100EB000C9E3D0E0E9CEC2EED0E0E6CEC6EED0E0A7
:100EC000E3CE8091220290912102892B9091200201
:100ED000892B8093C801E0916606F09167063097F0
:100EE00031F00280F381E02D88EC91E009940895BF
:100EF000EAECF1E09191891303C0DF0111971C9294
:100F000091E0E03DF907B1F70895AAECB1E0EFEF09
:100F100090E02D91821751F0EF3F19F4211101C09B
:100F2000E92F9F5F9630A9F7EF3F09F408950E2E41
:100F3000000CFF0BE853FE4F8283089580911F023F
:100F40009091EE01981301C008958F5F8770FACFDA
:100F5000990F990F890F982F97708695869586958A
:100F600023E0829FF0011124E152FE4F50E040E067
:100F700080E0219130E0092E02C0369527950A9431
:100F8000E2F721703327042E01C0220F0A94EAF7FA
:100F9000822B4F5F5F4F4330510559F70895990FEA
:100FA000990F890F982F977041E001C0440F9A95CF
:100FB000EAF786958695869593E0899FF00111243E
:100FC000E152FE4F30E020E070E05191DF011197D7
:100FD000CB01022E02C0969587950A94E2F78170A4
:100FE00081958527842385278C932F5F3F4F23305E
:100FF000310559F7089590E080E00E94C90490E01F
:1010000080E00E94B30410922102109220020C94FE
:101010006107809323020C94FB07882341F080959D
:10102000909122028923809322020C9461070895F3
:10103000882339F090912202982B909322020C94ED
:1010400061070895882309F452C0823871F40E9420
:10105000DF0481FF4CC089E30E9485070E9461077D
:1010600089E30E9478070C946107833859F40E9441
:10107000DF0480FF3CC083E50E9485070E94610772
:1010800083E5EFCF843859F40E94DF0482FF2FC03C
:1010900087E40E9485070E94610787E4E2CF9CEF06
:1010A000980F913AF0F290E2980F983088F4877098
:1010B00021E030E0A90102C0440F551F8A95E2F7F4
:1010C000CA01809590912202892380932202CBCF7E
:1010D0009BE5980F933020F490E080E00C94C904D5
:1010E000885A873120F490E080E00C94B30408958E
:1010F000CF93DF9393E0899FE00111249E01215A51
:101100003D4F40E060E080E00E9406059E012E59C0
:101110003D4F40E060E080E00E9406059E012B59B3
:101120003D4F40E060E080E00E9406059E012157AF
:101130003D4F4FEF6FEF85E50E9406059E012E564D
:101140003D4F4FEF6FEF85E50E9406059E012B5640
:101150003D4F4FEF6FEF85E50E9406059E0121543C
:101160003D4F4FEF6FEF85E50E9406059E012E5320
:101170003D4F40E060E080E00E9406059E012B5359
:101180003D4F4FEF6FEF85E50E9406059E0121510F
:101190003D4F4FEF6FEF85E50E9406059E012E50F3
:1011A0003D4F4FEF6FEF85E50E9406059E012B50E6
:1011B0003D4F4FEF6FEF85E50E9406059E01215ED2
:1011C0003C4F40E060E080E00E9406059E012E5DFD
:1011D0003C4F40E060E080E00E9406059E012B5DF0
:1011E0003C4F4FEF6FEF85E50E9406059E01215BA6
:1011F0003C4F40E060E080E00E9406059E012E5AD0
:101200003C4F40E060E080E00E9406059E012B5AC2
:101210003C4F4FEF6FEF85E50E9406059E01215878
:101220003C4F40E060E080E00E9406059E012E57A2
:101230003C4F40E060E080E00E9406059E012B5795
:101240003C4F4FEF6FEF85E50E9406059E0121554B
:101250003C4F40E060E080E00E9406059E012E5475
:101260003C4F40E060E080E00E9406059E012B5468
:101270003C4F40E060E080E0DF91CF910C940605A8
:10128000CF93DF9393E0899FE00111249E01215ABF
:101290003D4F40E060E080E00E9406059E012E592F
:1012A0003D4F40E060E080E00E9406059E012B5922
:1012B0003D4F40E060E080E00E9406059E0121571E
:1012C0003D4F40E060E080E00E9406059E012E5602
:1012D0003D4F4FEF6FEF85E50E9406059E012B56AF
:1012E0003D4F40E060E080E00E9406059E012154F1
:1012F0003D4F4FEF6FEF85E50E9406059E012E538F
:101300003D4F40E060E080E00E9406059E012B53C7
:101310003D4F4FEF6FEF85E50E9406059E0121517D
:101320003D4F40E060E080E00E9406059E012E50A7
:101330003D4F4FEF6FEF85E50E9406059E012B5054
:101340003D4F40E060E080E00E9406059E01215E86
:101350003C4F4FEF6FEF85E50E9406059E012E5D25
:101360003C4F40E060E080E00E9406059E012B5D5E
:101370003C4F4FEF6FEF85E50E9406059E01215B14
:101380003C4F4FEF6FEF85E50E9406059E012E5AF8
:101390003C4F40E060E080E00E9406059E012B5A31
:1013A0003C4F4FEF6FEF85E50E9406059E012158E7
:1013B0003C4F40E060E080E00E9406059E012E5711
:1013C0003C4F4FEF6FEF85E50E9406059E012B57BE
:1013D0003C4F40E060E080E00E9406059E01215500
:1013E0003C4F40E060E080E00E9406059E012E54E4
:1013F0003C4F40E060E080E00E9406059E012B54D7
:101400003C4F40E060E080E0DF91CF910C94060516
:10141000CF93DF9393E0899FE00111249E01215A2D
:101420003D4F40E060E080E00E9406059E012E599D
:101430003D4F40E060E080E00E9406059E012B5990
:101440003D4F40E060E080E00E9406059E0121578C
:101450003D4F4FEF6FEF85E50E9406059E012E562A
:101460003D4F4FEF6FEF85E50E9406059E012B561D
:101470003D4F4FEF6FEF85E50E9406059E01215419
:101480003D4F40E060E080E00E9406059E012E5343
:101490003D4F40E060E080E00E9406059E012B5336
:1014A0003D4F4FEF6FEF85E50E9406059E012151EC
:1014B0003D4F40E060E080E00E9406059E012E5016
:1014C0003D4F40E060E080E00E9406059E012B5009
:1014D0003D4F4FEF6FEF85E50E9406059E01215EAF
:1014E0003C4F40E060E080E00E9406059E012E5DDA
:1014F0003C4F4FEF6FEF85E50E9406059E012B5D87
:101500003C4F40E060E080E00E9406059E01215BC8
:101510003C4F40E060E080E00E9406059E012E5AAC
:101520003C4F4FEF6FEF85E50E9406059E012B5A59
:101530003C4F40E060E080E00E9406059E0121589B
:101540003C4F40E060E080E00E9406059E012E577F
:101550003C4F4FEF6FEF85E50E9406059E012B572C
:101560003C4F40E060E080E00E9406059E0121556E
:101570003C4F40E060E080E00E9406059E012E5452
:101580003C4F40E060E080E00E9406059E012B5445
:101590003C4F40E060E080E0DF91CF910C94060585
:1015A000CF93DF9393E0899FE00111249E01215A9C
:1015B0003D4F40E060E080E00E9406059E012E590C
:1015C0003D4F40E060E080E00E9406059E012B59FF
:1015D0003D4F40E060E080E00E9406059E012157FB
:1015E0003D4F40E060E080E00E9406059E012E56DF
:1015F0003D4F4FEF6FEF85E50E9406059E012B568C
:101600003D4F4FEF6FEF85E50E9406059E01215487
:101610003D4F4FEF6FEF85E50E9406059E012E536B
:101620003D4F40E060E080E00E9406059E012B53A4
:101630003D4F40E060E080E00E9406059E012151A0
:101640003D4F4FEF6FEF85E50E9406059E012E503E
:101650003D4F4FEF6FEF85E50E9406059E012B5031
:101660003D4F40E060E080E00E9406059E01215E63
:101670003C4F4FEF6FEF85E50E9406059E012E5D02
:101680003C4F40E060E080E00E9406059E012B5D3B
:101690003C4F4FEF6FEF85E50E9406059E01215BF1
:1016A0003C4F4FEF6FEF85E50E9406059E012E5AD5
:1016B0003C4F40E060E080E00E9406059E012B5A0E
:1016C0003C4F4FEF6FEF85E50E9406059E012158C4
:1016D0003C4F40E060E080E00E9406059E012E57EE
:1016E0003C4F4FEF6FEF85E50E9406059E012B579B
:1016F0003C4F40E060E080E00E9406059E012155DD
:101700003C4F40E060E080E00E9406059E012E54C0
:101710003C4F40E060E080E00E9406059E012B54B3
:101720003C4F40E060E080E0DF91CF910C940605F3
:10173000CF93DF9393E0899FE00111249E01215A0A
:101740003D4F40E060E080E00E9406059E012E597A
:101750003D4F40E060E080E00E9406059E012B596D
:101760003D4F40E060E080E00E9406059E01215769
:101770003D4F4FEF6FEF85E50E9406059E012E5607
:101780003D4F4FEF6FEF85E50E9406059E012B56FA
:101790003D4F4FEF6FEF85E50E9406059E012154F6
:1017A0003D4F4FEF6FEF85E50E9406059E012E53DA
:1017B0003D4F40E060E080E00E9406059E012B5313
:1017C0003D4F40E060E080E00E9406059E0121510F
:1017D0003D4F4FEF6FEF85E50E9406059E012E50AD
:1017E0003D4F4FEF6FEF85E50E9406059E012B50A0
:1017F0003D4F40E060E080E00E9406059E01215ED2
:101800003C4F40E060E080E00E9406059E012E5DB6
:101810003C4F40E060E080E00E9406059E012B5DA9
:101820003C4F4FEF6FEF85E50E9406059E01215B5F
:101830003C4F40E060E080E00E9406059E012E5A89
:101840003C4F40E060E080E00E9406059E012B5A7C
:101850003C4F4FEF6FEF85E50E9406059E01215832
:101860003C4F4FEF6FEF85E50E9406059E012E5716
:101870003C4F4FEF6FEF85E50E9406059E012B5709
:101880003C4F40E060E080E00E9406059E0121554B
:101890003C4F40E060E080E00E9406059E012E542F
:1018A0003C4F40E060E080E00E9406059E012B5422
:1018B0003C4F40E060E080E0DF91CF910C94060562
:1018C000CF93DF9393E0899FE00111249E01215A79
:1018D0003D4F40E060E080E00E9406059E012E59E9
:1018E0003D4F40E060E080E00E9406059E012B59DC
:1018F0003D4F40E060E080E00E9406059E012157D8
:101900003D4F4FEF6FEF85E50E9406059E012E5675
:101910003D4F40E060E080E00E9406059E012B56AE
:101920003D4F4FEF6FEF85E50E9406059E01215464
:101930003D4F4FEF6FEF85E50E9406059E012E5348
:101940003D4F40E060E080E00E9406059E012B5381
:101950003D4F4FEF6FEF85E50E9406059E01215137
:101960003D4F4FEF6FEF85E50E9406059E012E501B
:101970003D4F40E060E080E00E9406059E012B5054
:101980003D4F4FEF6FEF85E50E9406059E01215EFA
:101990003C4F4FEF6FEF85E50E9406059E012E5DDF
:1019A0003C4F4FEF6FEF85E50E9406059E012B5DD2
:1019B0003C4F4FEF6FEF85E50E9406059E01215BCE
:1019C0003C4F40E060E080E00E9406059E012E5AF8
:1019D0003C4F40E060E080E00E9406059E012B5AEB
:1019E0003C4F4FEF6FEF85E50E9406059E012158A1
:1019F0003C4F40E060E080E00E9406059E012E57CB
:101A00003C4F40E060E080E00E9406059E012B57BD
:101A10003C4F4FEF6FEF85E50E9406059E01215573
:101A20003C4F40E060E080E00E9406059E012E549D
:101A30003C4F40E060E080E00E9406059E012B5490
:101A40003C4F40E060E080E0DF91CF910C940605D0
:101A5000CF93DF9393E0899FE00111249E01215AE7
:101A60003D4F40E060E080E00E9406059E012E5957
:101A70003D4F40E060E080E00E9406059E012B594A
:101A80003D4F40E060E080E00E9406059E01215746
:101A90003D4F4FEF6FEF85E50E9406059E012E56E4
:101AA0003D4F4FEF6FEF85E50E9406059E012B56D7
:101AB0003D4F4FEF6FEF85E50E9406059E012154D3
:101AC0003D4F40E060E080E00E9406059E012E53FD
:101AD0003D4F40E060E080E00E9406059E012B53F0
:101AE0003D4F4FEF6FEF85E50E9406059E012151A6
:101AF0003D4F40E060E080E00E9406059E012E50D0
:101B00003D4F4FEF6FEF85E50E9406059E012B507C
:101B10003D4F40E060E080E00E9406059E01215EAE
:101B20003C4F40E060E080E00E9406059E012E5D93
:101B30003C4F40E060E080E00E9406059E012B5D86
:101B40003C4F4FEF6FEF85E50E9406059E01215B3C
:101B50003C4F40E060E080E00E9406059E012E5A66
:101B60003C4F40E060E080E00E9406059E012B5A59
:101B70003C4F4FEF6FEF85E50E9406059E0121580F
:101B80003C4F4FEF6FEF85E50E9406059E012E57F3
:101B90003C4F4FEF6FEF85E50E9406059E012B57E6
:101BA0003C4F4FEF6FEF85E50E9406059E012155E2
:101BB0003C4F40E060E080E00E9406059E012E540C
:101BC0003C4F40E060E080E00E9406059E012B54FF
:101BD0003C4F40E060E080E0DF91CF910C9406053F
:101BE000CF93DF9393E0899FE00111249E01215A56
:101BF0003D4F40E060E080E00E9406059E012E59C6
:101C00003D4F40E060E080E00E9406059E012B59B8
:101C10003D4F40E060E080E00E9406059E012157B4
:101C20003D4F40E060E080E00E9406059E012E5698
:101C30003D4F4FEF6FEF85E50E9406059E012B5645
:101C40003D4F40E060E080E00E9406059E01215487
:101C50003D4F4FEF6FEF85E50E9406059E012E5325
:101C60003D4F40E060E080E00E9406059E012B535E
:101C70003D4F4FEF6FEF85E50E9406059E01215114
:101C80003D4F40E060E080E00E9406059E012E503E
:101C90003D4F40E060E080E00E9406059E012B5031
:101CA0003D4F4FEF6FEF85E50E9406059E01215ED7
:101CB0003C4F40E060E080E00E9406059E012E5D02
:101CC0003C4F4FEF6FEF85E50E9406059E012B5DAF
:101CD0003C4F40E060E080E00E9406059E01215BF1
:101CE0003C4F4FEF6FEF85E50E9406059E012E5A8F
:101CF0003C4F40E060E080E00E9406059E012B5AC8
:101D00003C4F40E060E080E00E9406059E012158C3
:101D10003C4F4FEF6FEF85E50E9406059E012E5761
:101D20003C4F4FEF6FEF85E50E9406059E012B5754
:101D30003C4F4FEF6FEF85E50E9406059E01215550
:101D40003C4F40E060E080E00E9406059E012E547A
:101D50003C4F40E060E080E00E9406059E012B546D
:101D60003C4F40E060E080E0DF91CF910C940605AD
:101D7000CF93DF9393E0899FE00111249E01215AC4
:101D80003D4F40E060E080E00E9406059E012E5934
:101D90003D4F40E060E080E00E9406059E012B5927
:101DA0003D4F40E060E080E00E9406059E01215723
:101DB0003D4F40E060E080E00E9406059E012E5607
:101DC0003D4F4FEF6FEF85E50E9406059E012B56B4
:101DD0003D4F40E060E080E00E9406059E012154F6
:101DE0003D4F4FEF6FEF85E50E9406059E012E5394
:101DF0003D4F4FEF6FEF85E50E9406059E012B5387
:101E00003D4F40E060E080E00E9406059E012151C8
:101E10003D4F40E060E080E00E9406059E012E50AC
:101E20003D4F4FEF6FEF85E50E9406059E012B5059
:101E30003D4F40E060E080E00E9406059E01215E8B
:101E40003C4F40E060E080E00E9406059E012E5D70
:101E50003C4F4FEF6FEF85E50E9406059E012B5D1D
:101E60003C4F40E060E080E00E9406059E01215B5F
:101E70003C4F40E060E080E00E9406059E012E5A43
:101E80003C4F4FEF6FEF85E50E9406059E012B5AF0
:101E90003C4F40E060E080E00E9406059E01215832
:101EA0003C4F40E060E080E00E9406059E012E5716
:101EB0003C4F4FEF6FEF85E50E9406059E012B57C3
:101EC0003C4F40E060E080E00E9406059E01215505
:101ED0003C4F40E060E080E00E9406059E012E54E9
:101EE0003C4F40E060E080E00E9406059E012B54DC
:101EF0003C4F40E060E080E0DF91CF910C9406051C
:101F0000CF93DF9393E0899FE00111249E01215A32
:101F10003D4F40E060E080E00E9406059E012E59A2
:101F20003D4F40E060E080E00E9406059E012B5995
:101F30003D4F40E060E080E00E9406059E01215791
:101F40003D4F40E060E080E00E9406059E012E5675
:101F50003D4F4FEF6FEF85E50E9406059E012B5622
:101F60003D4F40E060E080E00E9406059E01215464
:101F70003D4F4FEF6FEF85E50E9406059E012E5302
:101F80003D4F40E060E080E00E9406059E012B533B
:101F90003D4F4FEF6FEF85E50E9406059E012151F1
:101FA0003D4F4FEF6FEF85E50E9406059E012E50D5
:101FB0003D4F40E060E080E00E9406059E012B500E
:101FC0003D4F4FEF6FEF85E50E9406059E01215EB4
:101FD0003C4F4FEF6FEF85E50E9406059E012E5D99
:101FE0003C4F40E060E080E00E9406059E012B5DD2
:101FF0003C4F4FEF6FEF85E50E9406059E01215B88
:102000003C4F4FEF6FEF85E50E9406059E012E5A6B
:102010003C4F40E060E080E00E9406059E012B5AA4
:102020003C4F4FEF6FEF85E50E9406059E0121585A
:102030003C4F40E060E080E00E9406059E012E5784
:102040003C4F4FEF6FEF85E50E9406059E012B5731
:102050003C4F40E060E080E00E9406059E01215573
:102060003C4F40E060E080E00E9406059E012E5457
:102070003C4F40E060E080E00E9406059E012B544A
:102080003C4F40E060E080E0DF91CF910C9406058A
:102090009FB7F894109273069FBF90918206943078
:1020A00009F048C02091E9002F703091EC00932F87
:1020B000917030FD90E8922B25E02093E90020916B
:1020C000EB0020FF34C02091EE0027FF30C02091AC
:1020D0007206222321F02091E80025FF28C01092EB
:1020E000720626E03091E80035FF14C08093F100BD
:1020F0008091E80085FD27C08091E80080FFFCCF3B
:102100008091E8008E778093E8009F709093E900BB
:1021100080E0089530918206343049F43091EB002C
:1021200035FD05C0215041F481E0809372069F7017
:102130009093E9008FEF0895EFE9FFE03197F1F711
:1021400000C00000CFCF8FB7F89421E02093730632
:102150008FBFDBCF90918206943029F580936F0674
:1021600070937106609370069093E9008FEF9091E1
:10217000E800815095FD06C095ED9A95F1F70000B5
:102180008111F5CF8091E80085FF0DC050E040E05F
:1021900063E070E08FE696E00E9468038091E800BB
:1021A0008E778093E8000895BC0184E00C94AA1017
:1021B000BC0183E00C94AA10CF93DF93EC0181E083
:1021C0008093E9008FEF9091E800815095FD06C063
:1021D00095ED9A95F1F700008111F5CF8091E80017
:1021E00085FF14C050E040E068E070E0CE010E943E
:1021F00068038091E8008E778093E80088E0FE0114
:10220000A8E7B6E001900D928A95E1F7DF91CF91B2
:10221000089581E08093E00080E28093D8001092DE
:10222000C9008FE19EE40197F1F700C0000087E04C
:1022300090EBDC018093900690939106A093920618
:10224000B093930688E19CE00FB6F894A89580932C
:1022500060000FBE90936000FFCFCF93C82F8823FC
:1022600009F488C08238C1F40E94DF0481FD82C075
:1022700089E30E9485070E9461072FEF81EE94E0B9
:10228000215080409040E1F700C0000089E30E94A7
:102290007807CF910C9461078338A1F40E94DF0482
:1022A00080FD68C083E50E9485070E9461072FEFCB
:1022B00081EE94E0215080409040E1F700C00000A2
:1022C00083E5E5CF8438A1F40E94DF0482FD52C08B
:1022D00087E40E9485070E9461072FEF81EE94E05A
:1022E000215080409040E1F700C0000087E4CFCF4C
:1022F0008CEF8C0F813A68F4EAECF1E08191C81719
:1023000099F121E0E03DF207C9F78C2F0E94850783
:10231000C0CF80E28C0F883068F4C77021E030E0D5
:1023200001C0220FCA95EAF780912202822B809386
:102330002202AFCFEBE5EC0FE33040F4F0E0EA5CD3
:10234000FE4F808190E0CF910C94C904C85AC731E8
:1023500088F4EC2FF0E0EE0FFF1FE75CFE4F80816A
:102360009181CF910C94B3048C2F0E9478070E9426
:102370006107CBCFCF9108951F93CF93DF93182F91
:10238000D0E0C0E0893311F4C0E5D0E0812F0E9495
:102390002D11209731F4812FDF91CF911F910C9453
:1023A00022088FE99FE00197F1F700C00000219714
:1023B000F0CFCF93DF93C7EED0E060E0CE010E9474
:1023C000F6352196C11584E0D807B9F7DF91CF9192
:1023D00008956F927F928F929F92AF92BF92CF9209
:1023E000DF92EF92FF920F931F93CF93DF938CE2D4
:1023F000C82E84E0D82E0FE510E0E801E097360102
:102400001CC0F50185909490692DC7010E94F63596
:10241000682DC70101960E94F63582E0A80EB11C16
:1024200082E0E80EF11CCE15DF0559F788E0680E52
:10243000711C28960C171D0731F07E0188E0E81A00
:10244000F1085301DECF005D1F4F80E3C80ED11CA1
:102450000F3181E0180789F6DF91CF911F910F911D
:10246000FF90EF90DF90CF90BF90AF909F908F90B4
:102470007F906F900895CF93C82F6FEF811161E225
:1024800083E290E00E94F6356FEFC11162E184E2D1
:1024900090E00E94F6356FEFC11164E185E290E0B3
:1024A000CF910C94F63580E00E943B1260E086E20A
:1024B00090E00E94F6350E94E9110E94D91181E056
:1024C0000C943B120F931F93CF93DF9328E0629FEE
:1024D000E001112450E0440F551FC40FD51F30E315
:1024E000839FC00DD11D1124CE0187960E94E23535
:1024F000082F10E0102F0027CE0188960E94E235A9
:102500009801282BC901DF91CF911F910F91089558
:10251000462F843038F4763028F4643018F4672F6E
:102520000C94621290E080E00895CF92DF92FF92C7
:102530000F931F93CF93DF936C0100918C068091D2
:102540002302082BC7E0D0E010E0FC2EC8010C2EBF
:1025500002C0959587950A94E2F780FD0CC02197FB
:10256000A0F7F12C8F2DDF91CF911F910F91FF904C
:10257000DF90CF900895B6018C2F0E9488120E94A0
:10258000F905019761F3EECFCF93DF93EC010E9441
:102590009512BE010E948812DF91CF910C94F9052B
:1025A000FC01808191810E94C412292F2F70929585
:1025B0009F7092509E3078F4E92FF0E0E157F94C8B
:1025C0000C945035803F19F020F4883E20F481E0CF
:1025D0000895843FE1F380E00895883EC0F3813F91
:1025E000D1F7F5CF822F869586958695089583E25B
:1025F00090E00E94E235813289F484E290E00E940A
:10260000E235823159F485E290E00E94E23591E0B2
:10261000843109F090E0892F8170089580E0FCCF2B
:10262000CF9384E090E00E94E235C82F82E290E0F0
:102630000E94E235982F8C2FCF91089580915F06EC
:1026400080FD0AC0EFE5F2E011821082128233961B
:1026500053E0EF3DF507C1F7809A31B33E7F21B3D8
:1026600021604FB7F8948FE592E0FC015191CF01C2
:1026700068E021BB000000C057FF31BB550F0000D0
:1026800000C000C000C031BB00C06A9591F7F3E004
:102690008F3D9F0751F74FBF8FE594E00197F1F70A
:1026A00000C0000008956F927F928F929F92AF9228
:1026B000BF92CF92DF92EF92FF920F931F93CF932F
:1026C000DF93FC018280648081E08483ECE2F3E0AC
:1026D0009490EBEAF3E0E491CFEDD3E03FE5E32E15
:1026E00032E0F32E42E0C42EDD24D394AA24AA942F
:1026F000B12C77247A94E9190E2F10E082E0881526
:1027000030F0809160068883809161068983611032
:1027100020C01B821A8297014A81698188810E94A8
:102720000605259683E0E80EF11C86E0CF35D80734
:1027300029F7DF91CF911F910F91FF90EF90DF90DC
:10274000CF90BF90AF909F908F907F906F900C94A0
:102750001E138B818823E9F081508B83879DC001F4
:1027600011246C8170E00E941C35FB01FF27E45DA1
:10277000FC4F8491E82FE919E79DC0011124B801AD
:102780000E941C3580916206689FB00111247A83F3
:10279000C2CF0E94B83520916206269521582C9D03
:1027A000A0012D9D500D1124452F55278417950705
:1027B0000CF0B1CF82E0881588F40E94B835B501DD
:1027C0000E943C3588830E94B83520916106269589
:1027D000622F70E00E943C35280F29831A82809175
:1027E0006206893C20F088EC8C838B8394CF843103
:1027F000D8F784E1F9CFEF92FF920F931F93CF9315
:10280000DF938C01CFE5D2E0F12CE12CF80194812B
:102810006091610680916006F0E4EF16F104FCF42B
:102820009923F9F09E01409162060E9406052FEF60
:10283000E21AF20A239680E8E816F10439F70E94BA
:102840001E13F801848190E001968170992784839A
:10285000DF91CF911F910F91FF90EF9008959923F1
:1028600009F39E0140E0E1CF8F929F92AF92BF9219
:10287000CF92DF92EF92FF920F931F93CF93DF934C
:10288000EC014C81042F10E09801D8010E947E36A3
:102890009B01AC010E9449364B015C01E0E2F0E093
:1028A000E01BF10BA5E5B0E0AC019B010E944936AD
:1028B0006B017C019F01DF010E945D359B01AC0132
:1028C0000E9454369B01AC01280D391D4A1D5B1D29
:1028D000C701B6010E945C36F22E822F90E039E2E9
:1028E0003F15D8F143E0249F900111243595279599
:1028F000122F10959FE5C92E92E0D92E00E085E5B4
:10290000E82EEF188E2D01FD8F2D9601412F60913D
:1029100061060E9406050F5F53E0C50ED11C00380A
:1029200089F70E941E139C8181E0992319F090324F
:1029300019F48FEF8093340180913401890F8C83D7
:10294000DF91CF911F910F91FF90EF90DF90CF908B
:10295000BF90AF909F908F90089525E530E0A9013A
:10296000481B590BCA019A01220F331F280F391F28
:1029700037FFBCCF2F5F3F4FB9CF0F931F93CF933C
:10298000DF93CFE5D2E0FE011182108212823396EE
:1029900083E0EF3DF807C1F710E000E080915D02B1
:1029A000082E000C990B081719078CF18091330140
:1029B000082E000C990B801791074CF19E01409155
:1029C000620660916106809160060E9406050F5FB5
:1029D0001F4F23960038110509F70E941E1380919E
:1029E000320190915D02980F90935D022091330126
:1029F000280F20933301121614F49F3719F4819590
:102A000080933201DF91CF911F910F910895198228
:102A100018821A82DCCFCF92DF92EF92FF920F934F
:102A20001F93CF93DF93FC018281DD24DA9480FD34
:102A300002C0DD24D394CFE5D2E010E000E019829B
:102A400018821A8294E0E92EF12CC12C80915C024C
:102A50008C0D87FD8058082E000C990B801791076C
:102A600091F4809162068E9DA0018F9D500D1124DE
:102A700055954795559547959E01609161068091C2
:102A800060060E940605CD0CF1E0EF1AF108F1F6A0
:102A90000F5F1F4F23960038110589F60E941E1301
:102AA00080915C0291E0D91210C081110CC08FE7B7
:102AB00080935C02DF91CF911F910F91FF90EF9077
:102AC000DF90CF9008958150F3CF90E001968F77FB
:102AD0009927EECFEF92FF921F93CF93DF93EC01F4
:102AE0008FE5E82E82E0F82E10E08C81970140916E
:102AF000620660916106810F0E9406051F5F83E0F8
:102B0000E80EF11C103889F70E941E139A818C81FF
:102B100090FF08C08F5F8C83DF91CF911F91FF9052
:102B2000EF9008958150F7CF90915F0690FF0CC011
:102B3000EFE5F2E0818360834283339693E0EF3DDB
:102B4000F907C1F70C941E1308950F931F93CF93A9
:102B5000DF9300D00F92CDB7DEB78C0180915E027B
:102B600081110AC09E012F5F3F4F4EE66FEF0E941A
:102B700006058A8180935E02F8016481613069F004
:102B800080915E0240E0662361F040E0623011F423
:102B900040915E0280E060E004C060915E0240E02F
:102BA00080E00E949415F801848190E0019663E032
:102BB00070E00E943C3584830F900F900F90DF915E
:102BC000CF911F910F910895CF93DF9300D00F9273
:102BD000CDB7DEB790915F0690FF0AC09E012F5FD0
:102BE0003F4F0E9406054B8169818A810E9494159E
:102BF0000F900F900F90DF91CF910895CF93DF93B7
:102C0000EC01EFE5F6E0438162818C810E94E415DE
:102C10008C818F5F8C83DF91CF910895CF93DF9369
:102C2000EC01EC81F0E0E45DFC4F4491EFE5F6E06F
:102C3000628181810E94E4158C818F5F8C83DF919A
:102C4000CF910895CF92DF92EF92FF926B017C01BA
:102C50000E94F004B701A60188E090E0FF90EF9099
:102C6000DF90CF900C9408367F928F929F92AF9214
:102C7000BF92CF92DF92EF92FF920F931F93CF9369
:102C8000DF9300D00F92CDB7DEB7182FD62E042FCA
:102C9000C22E90915F0690FF29C0E92FE695AE2FD6
:102CA000B0E0A957BE4F8C91809359029E7F92301D
:102CB00071F59E012F5F3F4F812F0E9406054B81CA
:102CC00069818A810E94941510936006D0926106F2
:102CD00000936206CC2051F060915F06709160060F
:102CE00080916106909162060E9422160F900F90CB
:102CF0000F90DF91CF911F910F91FF90EF90DF9098
:102D0000CF90BF90AF909F908F907F90089582302A
:102D100019F400916206D8CF863019F4109160063C
:102D2000D3CF8930D9F3893179F6E9512E2F21702B
:102D3000722EE695F0E0E95DFC4F85909490992421
:102D40003FE5E32E32E0F32EB12CA12CC501880F14
:102D5000892F881F990B9195711013C0810F9701CE
:102D6000402F6D2D0E940605A80CB91C83E0E80ECB
:102D7000F11C2FEDE21623E0F20641F70E941E132C
:102D8000A3CF212F281B822FEACFEFE5F6E0438166
:102D900028E0421B08F440E021E0628181810C942C
:102DA0003416EFE5F6E0438128E0420F08F44FEFD8
:102DB00021E0628181810C943416EFE5F6E06281B6
:102DC00028E0621B08F460E021E0438181810C94DB
:102DD0003416EFE5F6E0628128E0620F08F46FEF49
:102DE00021E0438181810C943416EFE5F6E0818186
:102DF00021E04381628188500C943416EFE5F6E0BF
:102E0000818121E043816281885F0C943416809136
:102E10006306882319F081508093630660915F06F2
:102E20007091600680916106909162060C94221662
:102E300080916306833018F48F5F809363066091FE
:102E40005F067091600680916106909162060C9415
:102E50002216EFE5F6E083E0808311828FEF828314
:102E60008EE68383148260817181828193810C94C8
:102E7000221669EE7EEF90E080E00E94143660E05A
:102E800082E090E00E94F63560E083E090E00E94EE
:102E9000F6351092230260E084E090E00E94F6355F
:102EA00060E082E290E00E94F63560E085E090E02C
:102EB0000E94F63560E086E090E00E94F6356FEF04
:102EC00087E090E00E94F63540E050E0BA0188E0EB
:102ED00090E00E94083660E08DE090E00E94F635B8
:102EE00040E050E0BA0188E190E00E94083660E0DE
:102EF00087E190E00E94F63540E050E0BA018CE1B5
:102F000090E00E94083670E060E080E290E00E946D
:102F1000143640E050E0BA0188E190E00E940836A3
:102F200080E00E943B120E94531240E050E0BA0140
:102F30008FE090E00E94083640E050E0BA0183E163
:102F400090E00C94083690E080E00E94F035893ED5
:102F50009E4F11F40C94F71280E008951092220213
:102F6000EAECF1E086E0DF011D928A95E9F70C9426
:102F7000FB071F93CF93DF93CDB7DEB7AA970FB6AA
:102F8000F894DEBF0FBECDBF84E896E02091F1003B
:102F9000DC012D93CD01B6E08C389B07B9F7809109
:102FA0008506833009F471C0B8F4813009F448C053
:102FB000823009F4B2C08091E80083FF3AC1809169
:102FC0008406909185069A3008F033C1E92FF0E02D
:102FD000E356F94C0C9450358A3009F48DC08B308F
:102FE00009F470C0893039F780918406813219F76D
:102FF0008091880690918906009711F00297D9F682
:103000008091E800877F8093E8008091E80082FF4C
:1030100037C09091F3008091F200029729F48091DB
:10302000F1008B7F813021F48091F100809377064D
:103030008091E8008B778093E8000E949203BBCFD9
:1030400080918406813A09F0B6CF8091E800877FAD
:103050008093E8008091880690918906892B61F41D
:1030600068E088E796E070E00E9444048091E80000
:103070008B778093E8009FCF60E090E080E0F3CF13
:10308000809182068111C1CF96CF80918406813ACA
:1030900009F091CF8091880690918906892B09F0DB
:1030A0008ACF8091E800877F8093E8008091E800D4
:1030B00080FFFCCF809135018093F1008091E80082
:1030C0008E77B9CF80918406813209F074CF8091D8
:1030D000880690918906892B09F06DCF8091E800D0
:1030E000877F8093E8000E949203809186068093F8
:1030F00035010E94AE175FCF80918406813209F0BE
:103100005ACF8091E800877F8093E8000E94920365
:1031100080918706809376064ECF80918406813A0F
:1031200009F049CF8091E800877F8093E800809183
:10313000E80080FFFCCF80917606BECF803899F002
:10314000823809F076C0809188068F70873008F049
:1031500070C08093E9008091EB0085FB882780F99F
:103160001092E90006C0809180069091810691112D
:1031700082609091E800977F9093E8008093F1003F
:103180001092F1008091E8008E77BAC1882309F48B
:10319000A7C1823009F04DC0809186068111ABC174
:1031A000809188068F702FEF280F263008F041C0DD
:1031B0008093E9002091EB0020FF9DC1933031F412
:1031C0008091EB0080628093EB0095C19091EB00C1
:1031D00090619093EB0021E030E001C0220F8A95CE
:1031E000EAF72093EA001092EA008091EB008860F1
:1031F000EACF81111EC0109186061F778091E300EF
:103200008078812B8093E3008091E800877F809312
:10321000E8000E9492038091E80080FFFCCF80913B
:10322000E30080688093E30082E0111183E08093E3
:1032300082068091E80083FF0AC08091E800877FC2
:103240008093E8008091EB0080628093EB00AA9667
:103250000FB6F894DEBF0FBECDBFDF91CF911F91A7
:1032600008958058823028F720918606309187068D
:103270002C3DE3E03E07A1F583E08A838AE289835F
:103280004FB7F894DE01139620E03EE051E2E32FC1
:10329000F0E050935700E49120FF03C0E295EF70F7
:1032A0003F5FEF708E2F90E0EA30C0F0C7968D93AD
:1032B0009D932F5F243159F74FBF8091E800877F9E
:1032C0008093E8006AE270E0CE0101960E94440417
:1032D0008091E8008B778093E800ABCFC096E7CF72
:1032E0008091880690918906432F552743305105D8
:1032F00009F44AC078F54130510509F47AC08BE7EA
:1033000090E0ECEEF4E04230510509F092CF2091CC
:10331000E800277F2093E80020918A0630918B06F1
:103320008217930708F49C0140E02115310509F04C
:1033300065C0411163C08091E80082FDC9CF8091D2
:103340008206882329F2853019F28091E80083FFF4
:10335000F2CFBECF4132510509F43CC04232510593
:1033600009F067CF8430910508F063CFFC01EE0FC0
:10337000FF1FEA54FE4F0190F081E02D8E549E4FC6
:10338000DC018C9190E01AC0332721303105D1F057
:103390002115310561F02230310509F04ACFE9E706
:1033A000F5E0E4918E2F90E0E9E7F5E007C0E9E968
:1033B000F5E0E4918E2F90E0E9E9F5E0009709F45B
:1033C00038CFA5CFE9E8F5E0E4918E2F90E0E9E869
:1033D000F5E0F4CF8430910508F02BCF880F991FCA
:1033E000FC01E254FE4F0190F081E02D89E090E075
:1033F0008ECF82E190E0E7E6F5E089CF809182060A
:10340000882309F465CF853009F462CF8091E80004
:1034100083FD5ECF8091E80082FD8DCF8091E80032
:1034200080FF83CF9091F3008091F2002115310548
:1034300019F08830910550F041E0089709F040E01C
:103440008091E8008E778093E8006FCF449140939D
:10345000F1003196215031090196E8CF803809F00A
:10346000E8CE8091E800877F8093E8008091830612
:103470008093F10087CE8111DCCE10918606123048
:1034800008F0D7CE8091E800877F8093E800109302
:1034900083060E949203112311F084E005C08091FD
:1034A000E30087FDFACF81E08093820642E061EC81
:1034B00081E00E94B10342E261EC84E00E94B1032A
:1034C00042E261EC82E00E94B10342E260EC83E000
:1034D0000E94B10342E261EC85E00E94B103A9CEF3
:1034E00080918606813009F0A4CE81E0933009F006
:1034F00080E0809381061092E9008091E800877F48
:103500008093E8000E94920394CE1F920F920FB610
:103510000F9211242F933F934F935F936F937F9359
:103520008F939F93AF93BF93CF93DF93EF93FF93CB
:10353000D091E900DF708091EC00C82FC17080FD50
:10354000C0E81092E9008091F000877F8093F0003E
:1035500078940E94B9171092E9008091F000886079
:103560008093F000CD2BCF70C093E900FF91EF91D5
:10357000DF91CF91BF91AF919F918F917F916F918B
:103580005F914F913F912F910F900FBE0F901F9021
:1035900018951F920F920FB60F9211242F933F93FD
:1035A0004F935F936F937F938F939F93AF93BF934B
:1035B000EF93FF938091E10082FF15C08091E200BC
:1035C00082FF11C08091E1008B7F8093E100209108
:1035D00074062F5F822F62E30E943035992309F42D
:1035E000AEC0209374068091DA0080FF24C08091E1
:1035F000D80080FF20C08091DA008E7F8093DA00AF
:103600008091D90080FFD1C080E189BD82E189BD70
:1036100009B400FEFDCF81E080938206809175069B
:10362000811109C00E9418030E94E3038091E20007
:1036300084608093E2008091E10080FF17C0809158
:10364000E20080FF13C08091E2008E7F8093E20051
:103650008091E20080618093E2008091D8008062D6
:103660008093D80019BC85E0809382068091E100A8
:1036700084FF29C08091E20084FF25C080E189BDDC
:1036800082E189BD89B5982F917080FFFBCF809131
:10369000D8008F7D8093D8008091E1008F7E809349
:1036A000E1008091E2008F7E8093E2008091E20051
:1036B00081608093E20080918306882309F47BC0B7
:1036C00084E0809382068091E10083FF27C080918F
:1036D000E20083FF23C08091E100877F8093E100B7
:1036E00082E080938206109283068091E1008E7FB3
:1036F0008093E1008091E2008E7F8093E2008091D0
:10370000E20080618093E20042E060E080E00E949D
:10371000B1038091F00088608093F000FF91EF91F9
:10372000BF91AF919F918F917F916F915F914F91D9
:103730003F912F910F900FBE0F901F9018951092F0
:10374000740680917306882309F44DCF8091820618
:103750008430C1F49091E9009F702091EC00822F99
:10376000817020FD80E8892B95E09093E90090918D
:10377000EB0090FF04C09091EE0097FD08C08F70A1
:103780008093E900109273062ECF1092F100909171
:10379000E80095FDFACF9091E80090FFF0CF90916E
:1037A000E8009E779093E800EACF19BC1092820659
:1037B0001092750640CF8091E30087FD93E09093CF
:1037C000820681CF78941F921FB61F9211248F9387
:1037D0009F93AF93BF9380916B0690916C06A091DD
:1037E0006D06B0916E060196A11DB11D80936B060A
:1037F00090936C06A0936D06B0936E06BF91AF9147
:103800009F918F911F901FBE1F9018959C014FB7DD
:10381000F89480916B0690916C06A0916D06B09122
:103820006E064FBF821B930B08952FB7F8948091BB
:103830006B0690916C06A0916D06B0916E062FBF3D
:1038400008950F931F93CF93DF93C62FD42F022F8A
:10385000FC0182818823A1F060938F060E94151CD1
:1038600090938E0680938D06C77081E001C0880F0B
:10387000CA95EAF7DF91CF911F910F910C94180828
:1038800080918F06681335C080918D0690918E06C9
:103890000E94061C883C910560F510E21D0FCD17B3
:1038A000B9F080E28C0F883040F4C77081E001C02D
:1038B000880FCA95EAF70E940D08183048F481E095
:1038C0009D2F977001C0880F9A95EAF70E941808FB
:1038D000802F0E94BC11183098F4D77081E001C08D
:1038E000880FDA95EAF7DF91CF911F910F910C9431
:1038F0000D08C77081E001C0880FCA95EAF7F3CFC1
:10390000DF91CF911F910F91089590915F0690FFE5
:103910003DC09170811129C0926090935F0666232B
:1039200051F060915F067091600680916106909100
:1039300062060E94221660915F06669570E04BE079
:1039400050E087E291E00E94C835892BA9F01092DF
:103950005A0281E08093560220E040916206609115
:103960006106809160060C9434168B3210F09465D9
:10397000D4CF880F982BD1CF81E080935A020E9438
:10398000151C9093540280935302E3CF089521E0D5
:1039900030E0A90102C0440F551F8A95E2F7CA0121
:1039A00020915B02662369F0822B80935B028091F9
:1039B0005A02811109C080915F0660E086950C94DF
:1039C000851C80958223F1CF0895CF93C82F61E0A5
:1039D0008111682F617080E00E94C71CC1FB6627BF
:1039E00060F9C11101C060E081E00E94C71CC2FB08
:1039F000662760F9C11101C060E082E00E94C71C27
:103A0000C3FB662760F9C11101C060E083E00E943A
:103A1000C71C8C2FCF9108950E94E51C80938C06C3
:103A20000C94FB0780918C06982F9670963019F4B1
:103A300088600C940C1D877FFCCF21E030E001C032
:103A4000220F8A95EAF7209580918C0682230C94A8
:103A50000C1D21E030E001C0220F8A95EAF7809129
:103A60008C06822B0C940C1D80915F0686958150EC
:103A700009F48AE261E00C94851C80915F068695CA
:103A80008F5F8B3208F081E061E00C94851C90918F
:103A90005F0690FF07C09695981720F0961710F4D0
:103AA0000C943D1D61E00C94851C5F926F927F9297
:103AB0008F929F92AF92BF92CF92DF92EF92FF923E
:103AC0000F931F93CF93DF9300D000D000D00F92BD
:103AD000CDB7DEB76C01FC0183819481892B39F06D
:103AE0008081918189238F3F11F00C94E7262796DE
:103AF0000FB6F894DEBF0FBECDBFDF91CF911F91FF
:103B00000F91FF90EF90DF90CF90BF90AF909F907C
:103B10008F907F906F905F9008950E949512182F5C
:103B2000682F89819A810E94CF0769817A81812FCC
:103B30000E9488127C01F6018281882311F40C9482
:103B4000D726970122513F452031310510F00C94C2
:103B500065268FEF93E00E94E2351EEE1E0D97EE74
:103B6000A92EB12C8111C3CF111136C01C821B822A
:103B7000662463948AE0582E85010F5F1F4FC501AC
:103B80000E94E23589831A82882309F4B0CF9FEF1F
:103B9000980F933080F58A83698232E0A30EB11CBE
:103BA000C8010E94E2358B83882309F4A0CFAE01BF
:103BB0004F5F5F4F7A01F70120812223E9F2213024
:103BC00009F058C0918182819130B9F4F2E0EF0E92
:103BD000F11C0E94BC1118C0A114F4E0BF0609F446
:103BE00086CFC5010E94E235811101C011502FEF2F
:103BF000A21AB20AB9CF5801DACF923049F422E0C2
:103C0000E20EF11C0E942D11FFEFEF1AFF0AD3CF35
:103C1000933031F432E0E30EF11C0E942208F4CF1D
:103C2000943021F04FEFE41AF40AEECF52E0E50EA3
:103C3000F11C30E020E0B7016F5F7F4FF701418159
:103C40008053990B8A30910550F021503109E0F2F0
:103C50008FE99FE00197F1F700C00000F6CF529E78
:103C6000F001539EF00D11249C012E0F3F1F842F55
:103C70007B01E1CFE22FF0E0EE56FE4F7490822FF1
:103C800086958695869590E0FC01EE57FE4FC49090
:103C90002770D12C022E02C0D594C7940A94E2F763
:103CA000A1E0CA22DD24FC01EE58FE4F049110E091
:103CB000022E02C0159507950A94E2F701701127AC
:103CC000FC01EE59FE4F8490912C02C0959487948C
:103CD0002A95E2F7E1E08E229924C114D10419F06B
:103CE00081EE0E942D110115110519F086EE0E943A
:103CF0002D11872D0E94BC11012B19F086EE0E9418
:103D00002208CD2819F081EE0E942208892809F4A2
:103D10007BCF8CE25ECF81E00E94291D03C081E051
:103D20000E941D1D0E94121DE2CE82E0F5CF9091EF
:103D30002E02992309F4CBC081119FC03EE1E31606
:103D4000F10408F4DDC748E2E416F10408F095C078
:103D500093EE9E0D57E2E516F10409F490E0E09130
:103D6000DD0181E08E0F8093DD01F0E0EF52FE4F28
:103D700090838C3009F081C010922E029091DB016B
:103D80002AE08091DC01929F800D11249091D9014D
:103D9000F091DA01929FF00D11249091D701E091FA
:103DA000D801929FE00D11249091D5015091D60138
:103DB000929F500D11249091D3014091D401929F74
:103DC000400D11249091D1013091D201929F300D7C
:103DD0001124622F0E943035A0E18A9FB001112486
:103DE000962B9F7799838F2F622F0E943035F0E1B9
:103DF0008F9FB0011124962B9F779A838E2F622F6D
:103E00000E943035A0E18A9FB0011124962B9F7348
:103E10009B831C82852F622F0E943035E0E18E9FAC
:103E2000B0011124962B9F739D83842F622F0E94D3
:103E30003035F0E18F9FA0011124942B9F739E8356
:103E4000832F0E94303540E1849F90011124922BF2
:103E50009F779F8304E610E027E030E0AE014F5FDC
:103E60005F4F60E080ED0E949C340CE010E08AE23D
:103E70000E94BC1101501109D1F7A2E6EA16ADE586
:103E8000FA0609F4F3C3E3E6EE16EDE5FE0609F4DF
:103E9000FBC3F3EFEF16FCE5FF0609F418C408F0C6
:103EA000FFC338EDE3163CE5F30609F40CC449ED15
:103EB000E4164CE5F40609F416C457EDE5165CE586
:103EC000F50609F01DC726E241EE61EEF8C3970141
:103ED0002E5131092A30310548F056E0E516F1043B
:103EE00029F067E3E616F10409F096C390912D02DC
:103EF000911192C3882311F40C94D5278091D0019D
:103F0000882309F485C31092D0012FE532E04FEFEA
:103F100060E080E00E94060522E632E04FEF60E0BC
:103F200080E00E94060525E632E04FEF60E080E089
:103F30000E94060528E632E040E060E080E00E9452
:103F400006052BE632E04FEF60E080E00E940605B8
:103F50002EE632E04FEF60E080E00E94060521E7A8
:103F600032E04FEF60E080E00E94060524E732E097
:103F700040E060E080E00E94060527E732E040E094
:103F800060E080E00E9406052AE732E040E060E061
:103F900080E00E9406052DE732E04FEF60E080E010
:103FA0000E94060520E832E04FEF60E080E00E94CA
:103FB000060523E832E04FEF60E080E00E9406054E
:103FC00026E832E04FEF60E080E00E94060529E835
:103FD00032E04FEF60E080E00E9406052CE832E01E
:103FE0004FEF60E080E00E9406052FE832E04FEFDF
:103FF00060E080E00E94060522E932E04FEF60E0D9
:1040000080E00E94060525E932E040E060E080E0C3
:104010000E94060528E932E04FEF66E684E80E9438
:1040200006052BE932E040E060E080E00E940605F2
:104030002EE932E040E060E080E00E94060521EADF
:1040400032E040E060E080E00E94060524EA32E0D1
:104050004FEF66E684E80E94060527EA32E04FEF5C
:1040600066E684E80E9406052AEA32E040E060E065
:1040700080E00E9406052DEA32E04FEF60E080E02C
:104080000E94060520EB32E04FEF60E080E00E94E6
:10409000060523EB32E04FEF60E080E00E9406056A
:1040A00026EB32E04FEF60E080E00E94060529EB4E
:1040B00032E04FEF60E080E00E9406052CEB32E03A
:1040C0004FEF60E080E00E9406052FEB32E04FEFFB
:1040D00060E080E00E94060522EC32E04FEF60E0F5
:1040E00080E00E94060525EC32E040E060E080E0E0
:1040F0000E94060528EC32E04FEF66E684E80E9455
:1041000006052BEC32E04FEF66E684E80E940605D8
:104110002EEC32E04FEF66E684E80E94060521EDC2
:1041200032E04FEF66E684E80E94060524ED32E0B7
:104130004FEF66E684E80E94060527ED32E04FEF78
:1041400066E684E80E9406052AED32E040E060E081
:1041500080E00E9406052DED32E04FEF60E080E048
:104160000E94060520EE32E04FEF60E080E00E9402
:10417000060523EE32E04FEF60E080E00E94060586
:1041800026EE32E04FEF60E080E00E94060529EE67
:1041900032E04FEF60E080E00E9406052CEE32E056
:1041A0004FEF60E080E00E9406052FEE32E04FEF17
:1041B00060E080E00E94060522EF32E040E060E02F
:1041C00080E00E94060525EF32E04FEF66E684E8C6
:1041D0000E94060528EF32E040E060E080E00E94A7
:1041E00006052BEF32E04FEF66E684E80E940605F5
:1041F0002EEF32E04FEF66E684E80E94060521E0EC
:1042000033E04FEF66E684E80E94060524E033E0E1
:1042100040E060E080E00E94060527E033E04FEFD9
:1042200066E684E80E9406052AE033E04FEF66E682
:1042300084E80E9406052DE033E040E060E080E085
:104240000E94060520E133E04FEF60E080E00E942D
:10425000060523E133E04FEF60E080E00E940605B1
:1042600026E133E04FEF60E080E00E94060529E19F
:1042700033E04FEF60E080E00E9406052CE133E080
:104280004FEF60E080E00E9406052FE133E04FEF42
:1042900060E080E00E94060522E233E040E060E05A
:1042A00080E00E94060525E233E04FEF66E684E8F1
:1042B0000E94060528E233E04FEF66E684E80E949C
:1042C00006052BE233E04FEF66E684E80E94060520
:1042D0002EE233E040E060E080E00E94060521E34A
:1042E00033E04FEF66E684E80E94060524E333E0FE
:1042F0004FEF66E684E80E94060527E333E04FEFC0
:1043000066E684E80E9406052AE333E04FEF66E69E
:1043100084E80E9406052DE333E040E060E080E0A1
:104320000E94060520E433E040E060E080E00E9467
:10433000060523E433E040E060E080E00E940605EB
:1043400026E433E04FEF60E080E00E94060529E4B8
:1043500033E04FEF60E080E00E9406052CE433E09C
:104360004FEF60E080E00E9406052FE433E04FEF5E
:1043700060E080E00E94060522E533E040E060E076
:1043800080E00E94060525E533E04FEF66E684E80D
:104390000E94060528E533E04FEF66E684E80E94B8
:1043A00006052BE533E040E060E080E00E94060572
:1043B0002EE533E04FEF66E684E80E94060521E62D
:1043C00033E040E060E080E00E94060524E633E050
:1043D0004FEF66E684E80E94060527E633E04FEFDC
:1043E00066E684E80E9406052AE633E04FEF66E6BB
:1043F00084E80E9406052DE633E04FEF66E684E888
:104400000E94060520E733E04FEF66E684E80E944D
:10441000060523E733E04FEF66E684E80E940605D1
:1044200026E733E040E060E080E00E94060529E7EF
:1044300033E04FEF60E080E00E9406052CE733E0B8
:104440004FEF60E080E00E9406052FE733E04FEF7A
:1044500060E080E00E94060522E833E04FEF60E074
:1044600080E00E94060525E833E040E060E080E05F
:104470000E94060528E833E04FEF66E684E80E94D4
:1044800006052BE833E04FEF66E684E80E94060558
:104490002EE833E04FEF66E684E80E94060521E946
:1044A00033E04FEF66E684E80E94060524E933E036
:1044B0004FEF66E684E80E94060527E933E04FEFF8
:1044C00066E684E80E9406052AE933E040E060E001
:1044D00080E00E9406052DE933E04FEF66E684E8B0
:1044E0000E94060520EA33E04FEF66E684E80E946A
:1044F000060523EA33E04FEF66E684E80E940605EE
:1045000026EA33E040E060E080E00E94060529EA08
:1045100033E04FEF60E080E00E9406052CEA33E0D4
:104520004FEF60E080E00E9406052FEA33E04FEF96
:1045300060E080E00E94060522EB33E04FEF60E090
:1045400080E00E94060525EB33E04FEF60E080E05D
:104550000E94060528EB33E040E060E080E00E9426
:1045600006052BEB33E040E060E080E00E940605AA
:104570002EEB33E040E060E080E00E94060521EC95
:1045800033E040E060E080E00E94060524EC33E088
:1045900040E060E080E00E94060527EC33E040E068
:1045A00060E080E00E9406052AEC33E04FEF66E60B
:1045B00084E80E9406052DEC33E04FEF66E684E8C0
:1045C0000E94060520ED33E04FEF66E684E80E9486
:1045D000060523ED33E04FEF66E684E80E9406050A
:1045E00026ED33E04FEF66E684E80E94060529EDEC
:1045F00033E040E060E080E00E9406052CED33E00F
:104600004FEF60E080E00E9406050E941E1335CC4B
:1046100081E08093D001F9CF9EECE9169CE5F90684
:1046200009F0CAC4882309F434CC81E080932D02B8
:104630001092080165C39DECE9169CE5F90609F0A6
:104640001CCC882309F45CC380E197E2A0E0B0E0D1
:104650008093040190930501A0930601B093070194
:1046600010922D0281E0809308014AC3F6018281F5
:10467000882309F43CCA61E083E090E00E94F635AB
:1046800081E00E94090833CAF6018281882321F063
:1046900081E00E94291D2BCA81E00E941D1D27CAAE
:1046A00065EFE6166CE5F606D1F0A8F027E245EED8
:1046B00066EE96EFE9169CE5F90609F021C3C601FE
:1046C0000E94211C14CA27E245EE65EEF8CF26E2CF
:1046D00041EE60EEF4CF27E245EE64EEF0CF26E245
:1046E00041EE62EEECCF28E241E0EFCF31E6E31697
:1046F0003DE5F30609F41DC38091220266E1E6164A
:104700006CE5F60609F083C38A7A91E009F490E03B
:104710009093DE018111FCC089E20E9485070E940E
:104720006107E5C980913302806126E0E2162CE53D
:10473000F20609F4A9C080913302886037E0E316DD
:104740003CE5F30608F4A0C08091330280629CC06F
:10475000809133028D7F4CE0E4164CE5F40609F4B9
:1047600093C078F4809133028C606AE0E6166CE5C1
:10477000F60609F489C008F49CC0809133028E7F4C
:1047800083C080913302877F9EE0E9169CE5F9069D
:1047900009F47AC0809133028B7FAFE0EA16ACE572
:1047A000FA0608F471C0809133028F7E6DC0ECEF81
:1047B000EE16ECE5FE0609F482C0A0F524E1E2164F
:1047C0002CE5F20609F493C098F442E1E4164CE5B6
:1047D000F40609F47CC0809133028F7B53E1E51627
:1047E0005CE5F50608F450C080913302837F4CC02D
:1047F0006AEFE6166CE5F60609F44DC008F051C004
:1048000095E1E9169CE5F90609F0C0C280913302F2
:1048100082FB992790F921E0922790FB82F990FB87
:1048200083F932C0E114ADE5FA0609F456C0A0F4EC
:10483000809134028360FEEFEF16FCE5FF0671F114
:10484000809134028D7F2FEFE2162CE5F20630F1D5
:10485000809134028C7F22C032E0E3163DE5F306FE
:1048600009F454C008F44CC051E6E5165DE5F506C0
:1048700009F08CC290913302892F8F7E94FF806162
:1048800003C0809133028160809333027FC28091A4
:1048900033028460F9CF80913402816080933402C6
:1048A00075C2809134028260F9CF809133028064B6
:1048B000EBCF0E94AE17809133028068E5CF8091E4
:1048C00034028E7FEBCF809133028F7DDDCF0E944B
:1048D000AE17809133028F77D7CF80913402982F13
:1048E000909591708E7F892B90FB81F9D7CF0E9494
:1048F000AE1790913302892F97FB87F98058C4CF68
:1049000061E08EE090E00E94F63540C260E0F9CFB1
:1049100085E303CF85E378C280915F0680FF1BC0EB
:104920008E7F80935F0660915F0670916006809134
:104930006106909162060E94221610925A028FEF31
:1049400090E7A2E081509040A040E1F700C0000055
:104950000E941E13CCC8816080935F0661E086953B
:104960000E94851CC4C844E35DE16DE37DE10E94C3
:10497000EB04BDC84DE35DE164E37DE1F8CF4EEFAC
:1049800056E165EF76E1F3CF4DED56E169EE76E164
:10499000EECF45EC56E161ED76E1E9CF41ED56E130
:1049A00065EC76E1E4CF48E157E167E077E1DFCFFE
:1049B00061E081E0D5CF65E082E00E94471D97C8A5
:1049C00068E086E0FACF64E18FE0F7CF67E185E148
:1049D000F4CF62E289E1F1CF61E083E2C1CF0E94CE
:1049E000AE172FEF34E34CE0215030404040E1F768
:1049F00000C000000E9409110E94391778C8C80140
:104A00000E94A807F82E3AC2092F0F70907F11F06C
:104A10000295007F812F2223C9F0002369F090E2E4
:104A2000910F983010F011110BC080912202082BC9
:104A3000009322020E946107812F0E942D1117C04E
:104A400080912102082B00932102F4CF0E942208BA
:104A5000002369F00095105E183010F0B11012C0FC
:104A6000809122020823009322020E94610738E00D
:104A7000E31AF10844E0E416F10408F038C80E9493
:104A8000DF0435C880912102082300932102EDCF75
:104A9000892F8F70907F903211F08295807FF1E0A6
:104AA000BF120CC0222329F0363008F70E941808E4
:104AB000DECF3530E0F60E940D08D9CF222341F039
:104AC0003323A1F340FFB8CF4F70F6014583EECFFB
:104AD000332389F3193349F4FFEF27EE33E0F15024
:104AE00020403040E1F700C00000812F0E942208E2
:104AF000BECF892F86958695837061F0813009F04D
:104B0000B6CF812F9370211102C090E080E00E9407
:104B1000B304ADCF812F9370211102C090E080E0EB
:104B20000E94C904A4CF892F8370A1F521119FCFC2
:104B3000812F829586958770880F880F412F4F703F
:104B4000082E01C0440F0A94EAF7212F207114FFA8
:104B500007C02FE030E001C0220F8A95EAF72095C8
:104B6000969596959370923081F0822F842B933096
:104B700030F480912302913029F0242B82230E946B
:104B8000090875CF842B822BFACF242B8091230226
:104B90008227F5CF8695222311F0892F81708823F3
:104BA00009F465CF812F829586958770880F880FCD
:104BB000412F4F70082E01C0440F0A94EAF7212FAD
:104BC000207114FF07C02FE030E001C0220F8A954A
:104BD000EAF72095969596959370923081F0822F02
:104BE000842B933030F480918C06913029F0242B63
:104BF00082230E940C1D3BCF842B822BFACF242BC7
:104C000080918C068227F5CF092F0F70222329F07F
:104C1000802F0E94291D812F49CF812F0E940D08CE
:104C2000802F0E941D1D23CF812F41EF141789F182
:104C3000411750F050EF1517B9F02223B1F131119F
:104C4000FBCE892F8F7129C062EF161749F1A3EFB0
:104C50001A13F3CF80E0222361F29F7181E001C03B
:104C6000880F9A95EAF7C5CF222379F0353008F0FE
:104C7000FECE292F2F7181E090E001C0880F2A9588
:104C8000EAF790918C068927B4CF363008F0EFCE42
:104C9000F0CF892F8F71222321F20E94291DE7CEA8
:104CA000892F8F712223C9F3BCCF332359F0893365
:104CB00009F01BCFEFEFF7EE23E0E150F04020408A
:104CC000E1F711CF892F8F71ACCF50E1E5165FE589
:104CD000F50609F420C861E1E6166FE5F60609F469
:104CE00024C823E7E216F10409F021C8882309F457
:104CF0001EC881E080932D0280932E021092DD0168
:104D0000F6019281992309F475C010928F06F3E0A1
:104D1000EF16FDE5FF0608F0E9CC2AEFE2162CE5D8
:104D2000F20638F4970122503C452431310508F051
:104D3000E3CC0E941013909334028093330240E13D
:104D4000E4164CE5F40609F4BECD08F030CD68E079
:104D5000E6166CE5F60609F4A8CD08F0F9CC94E067
:104D6000E9169CE5F90609F492CD08F0DBCCE2E007
:104D7000EE16ECE5FE0609F484CD809133028260E4
:104D8000F3E0EF16FCE5FF0609F47ECD60913302F7
:104D90001091340284E090E00E94F635612F82E2A7
:104DA00090E00E94F6350E94AE170C94771D90E1BA
:104DB000E9169FE5F90611F40C948F1EA1E1EA169D
:104DC000AFE5FA0609F08DCF82E00C94901E85E0E5
:104DD000DE01119601900D928A95E1F7F60122818C
:104DE00089819A8121110C948D1D0E94A807182F8A
:104DF0000C94951DF6E1EF16FCE5FF0689F5809110
:104E0000DE01811187CD89E20E94780788CC827209
:104E10002CECE2162CE5F20609F4C5CD08F083C0AF
:104E200046ECE4164CE5F40609F4A9CD08F052C0AE
:104E300063ECE6166CE5F60609F495CDD0F5E2ECE8
:104E4000EE16ECE5FE0609F467CDE114ECE5FE068E
:104E500009F4C5CDFEEDEF16FCE5FF0609F4CCCD57
:104E6000F60100811181992309F4C9CDC8010E947E
:104E70009512F82E682FC8010E94CF07B8018F2D18
:104E80000E9488120E94F905182FB82EF60122817F
:104E90004581342F32953F70892F82958F70E82E8F
:104EA000F12C8C3008F0E3CDF701E955F94C0C9466
:104EB0005035F4ECEF16FCE5FF0609F45BCD45EF49
:104EC00056E16EEF76E125ECE2162CE5F20609F4E8
:104ED0004ECDBBCF39ECE3163CE5F30609F459CDD2
:104EE00088F457ECE5165CE5F50609F44DCD68EC61
:104EF000E6166CE5F60609F0A8CF49EE56E16DED31
:104F000076E135CDAAECEA16ACE5FA0609F446CD11
:104F100047E057E168E177E1EBECEE16ECE5FE06E1
:104F200009F425CD92CFF1EDEF16FCE5FF0609F46B
:104F30004ACDB8F43EECE3163CE5F30609F43BCD6C
:104F400008F436CD5FECE5165CE5F50609F438CDDE
:104F500060EDE6166CE5F60609F077CF6EE089E0C5
:104F60002CCD84EDE8168CE5F80609F432CD78F402
:104F7000E2EDEE16ECE5FE0609F428CD61E088E1ED
:104F8000F3EDEF16FCE5FF0609F4EACC5ECF25ED64
:104F9000E2162CE5F20609F41FCD6AE285E23DE552
:104FA000E316F30609F409CD50CF4EECE4164CE5B8
:104FB000F40611F40C94491FAFECEA16ACE5FA06BE
:104FC00009F430CBE0EDEE16ECE5FE0609F42ACB51
:104FD000F1EDEF16FCE5FF0609F424CB22EDE21615
:104FE0002CE5F20609F41ECB33EDE3163CE5F3069F
:104FF00009F418CB44EDE4164CE5F40609F412CBA1
:1050000055EDE5165CE5F50609F40CCB6DE5E61605
:10501000F60609F010CB811108CB72CE1F93CF9307
:10502000DF938091ED01807FA9F48091EA018823CC
:1050300089F080911F02D091EE016091E80170919A
:10504000E901A091EB01B091EC01C62FC72316E056
:10505000D81304C0DF91CF911F91089590E010976D
:1050600011F0CF3F19F401968770F2CF189F90018D
:10507000199F300D1124F901E151FE4F4181471371
:10508000F2CF40814613EFCF42814111ECCF4381F3
:1050900054814A1B5B0B483C510528F78091ED0178
:1050A0008F7080618093ED01F901EC50FE4F80819B
:1050B0008F708061808388EE91E00E94551DDF91A2
:1050C000CF911F910C949E07AF92BF92CF92DF9227
:1050D000EF92FF920F931F93CF93DF93CDB7DEB77D
:1050E00061970FB6F894DEBF0FBECDBF8C0185E08F
:1050F000F801DE011D9601900D928A95E1F7F80105
:10510000E28088EEA82E81E0B82E6091EB017091CC
:10511000EC016115710509F432C19091E8014091EB
:10512000E901892F84238F3F09F429C1208131812E
:10513000C380D480F090EA01F601E61BF70BFF2054
:1051400009F4E8C08091ED01582F507FE83CF1054B
:1051500008F0ABC0511177C0FE2C431321C092134D
:105160001FC0E1101DC08F7080618093ED01C501EB
:105170000E94551D8091ED01F80185838F2D619668
:105180000FB6F894DEBF0FBECDBFDF91CF911F9158
:105190000F91FF90EF90DF90CF90BF90AF90089568
:1051A000CD2829F0822F83238F3F09F003C180E0AF
:1051B000F82FF170DF2E80FF3CC080911F024091DC
:1051C000EE0156E0841315C02D873E878D859E85A0
:1051D0000E94C412292F22952F702230F0F0243023
:1051E00018F59F70F1F0F8019581907FD1F4D12CE2
:1051F0001EC090E0589FF001599FF00D1124E1511D
:10520000FE4F6181361306C06081261303C06281A0
:10521000E6120FC001968770D5CF9F7011F08823DA
:1052200031F3805E883018F3C8010E94551DFD2CB3
:10523000A5CFEE2009F4A2CF8091ED01816080938B
:10524000ED01F12C9BCF431306C0921304C0F8016B
:10525000EE2009F479C0C8010E94D012882309F118
:10526000EE20F9F08091ED01803270F02091E8019C
:105270003091E90138872F831986DB86CA868C87AF
:10528000CE0107960E94551D86E0F801A8EEB1E018
:1052900001900D928A95E1F70E940E28FF24F39465
:1052A0006DCFC8010E94551DF9CF51110AC088EE7B
:1052B00091E00E94551D86E0F50111928A95E9F76B
:1052C000C0CF43130FC092130DC0E1100BC0F80103
:1052D0008583C8010E94551D86E0F50111928A95CB
:1052E000E9F74CCFC8010E94D0128823D1F2EE20FA
:1052F000C1F28091ED01803238F22091E8013091C5
:10530000E9013A8329831B82DD82CC828E83CE0120
:105310000196B8CFE83CF105F8F6FE2CEE2009F234
:1053200043131FC092131DC08091ED0180FD10C07A
:10533000982F907F69F0F8018583903F31F0982F86
:10534000907F905F8F70892B8583C8010E94551DC7
:1053500086E0F801A8EEB1E001900D928A95E1F7A0
:105360000DCFC8010E94D01281118ECF8091ED0126
:1053700081608093ED01C8010E94551DFFCEEE2093
:1053800009F48FCFC8010E94D012F82E882309F4A7
:1053900088CF86E0F801A8EEB1E001900D928A95E1
:1053A000E1F78091E8019091E9010E94C4120E9406
:1053B0000E28E4CE81E08E25FBCE1F93CF93DF93A2
:1053C000CDB7DEB767970FB6F894DEBF0FBECDBF7F
:1053D0004B8B5C8B6D8B7E8B8F8B611110922102BE
:1053E0001A8A198A85E0FE017396DE011D960190E6
:1053F0000D928A95E1F786E0FE013D96DE01179653
:1054000001900D928A95E1F7CE0107960E946428DB
:10541000882389F016E080911F029091EE01891394
:1054200049C067960FB6F894DEBF0FBECDBFDF91BF
:10543000CF911F91089586E0FE013796DE01119607
:1054400001900D928A95E1F78A859B85892B11F34E
:105450008F81988589238F3FE9F22091EE0130E01A
:10546000C90101968770992740911F0248171906B4
:1054700071F40E94AE171092EE0110921F0286E0A6
:10548000E8EEF1E0DF011D928A95E9F7C3CF96E0DF
:10549000929FD001939FB00D1124A151BE4FFE01E8
:1054A000319601900D929A95E1F78093EE010E945A
:1054B0009E07B0CF819FC001112481519E4F0E9451
:1054C0006428882309F4ADCF80911F0290E00196F3
:1054D0008770992780931F029ECF4F925F926F92A1
:1054E0007F928F929F92AF92BF92CF92DF92EF9274
:1054F000FF920F931F93CF93DF93CDB7DEB72D9716
:105500000FB6F894DEBF0FBECDBF7E0108E0E00EFF
:10551000F11C86E0F70111928A95E9F7B7E6CB2EE8
:10552000B1E0DB2E10E000E0AA24A394B12CF60138
:1055300081916F018F3F09F449C0F894E82FE295FB
:10554000EF70F0E021A18F70A50102C0440F551F3C
:105550008A95E2F7CA01922F982B91A392A1809588
:10556000892382A3789400C0EDE6F1E030E020E0EA
:10557000912C41914F3F09F472C0A42FA295AF70B6
:10558000B0E090968C9190E04F7002C09595879511
:105590004A95E2F780FD63C08A2D022E01C0880F74
:1055A0000A94EAF7982A2F5F3F4F2430310509F714
:1055B000F601319780818F3F11F00E949F0550EADC
:1055C0005A95F1F7F701E00FF11F90820F5F1F4F1F
:1055D0000630110509F0ABCF46E050E0B70185E396
:1055E00092E00E94D535CC24C394009709F4C12CD5
:1055F000892BB9F186E0FE013896A5E3B2E001906F
:105600000D928A95E1F781E0809326020E94151C95
:105610009093250280932402809124029091250288
:105620000E94061C059708F18091350280934D0277
:105630008091360280934E028091370280934F0210
:1056400080913802809350028091390280935102F8
:1056500080913A02809352021092260206C080E0A6
:10566000A1CF809126028111D7CF80912001909106
:105670002101892B41F080911E0190911D01892308
:105680008F3F09F093C28091250190912601892BCB
:1056900041F0809123019091220189238F3F09F0ED
:1056A0006BC28091160190911701892B41F0809176
:1056B00014019091130189238F3F09F043C2809117
:1056C0001B0190911C01892B41F08091190190914F
:1056D000180189238F3F09F01BC28091080188239C
:1056E00009F44EC18091040190910501A091060139
:1056F000B091070140912F02509130026091310228
:10570000709132028C019D01041B150B260B370B87
:10571000B901A80141345F416105710508F430C148
:1057200020912E02222321F020912D02211128C147
:1057300080932F0290933002A0933102B0933202F3
:1057400008EC10E027E030E0AE014F5F5F4F60E013
:1057500080ED0E94C9340E9418358981282F30E0DD
:1057600094E0359527959A95E1F7922F97702AE066
:105770008F70929F800D1124809327023A81832F8E
:1057800090E044E0959587954A95E1F787703F70E2
:10579000F32E829FF00C1124F09228023B81832F7C
:1057A00090E054E0959587955A95E1F783703F70A6
:1057B000E32E829FE00C1124E09229028D81482F74
:1057C00050E064E0559547956A95E1F747708F7012
:1057D000429F800D112480932A028E81482F50E031
:1057E00074E0559547957A95E1F743708F70429F25
:1057F000800D112480932B028F81482F50E0E4E02C
:1058000055954795EA95E1F743708F70429F800D5B
:10581000112480932C028E2D622F0E943035782E19
:1058200036EF0E2D839F000D11248F2D0E943035F1
:10583000D82E1F2D839F100D112440903C025090B4
:105840003D0260903E02FFE5AF2EF2E0BF2EAFEDCD
:105850008A2EA3E09A2E9501442D652D862D0E9457
:10586000060523E0A20EB11C8A149B04A1F739E0BF
:105870003E1508F4A7C080E00E94800F0111B0C05F
:1058800084E00E94800F89E08F1508F4E0C00E9438
:10589000800F111106C18DE00E94800F24E732E0D5
:1058A00040E060E080E00E94060527E732E040E04B
:1058B00060E080E00E94060524EA32E040E060E01B
:1058C00080E00E94060527EA32E040E060E080E0E8
:1058D0000E94060524ED32E040E060E080E00E9496
:1058E000060527ED32E04FEF60E080E00E940605FC
:1058F00024E033E040E060E080E00E94060527E01D
:1059000033E04FEF60E080E00E94060524E333E0DF
:105910004FEF60E080E00E94060527E333E040E0BF
:1059200060E080E00E94060524E633E04FEF60E08F
:1059300080E00E94060527E633E040E060E080E07A
:105940000E94060524E933E040E060E080E00E9428
:10595000060527E933E040E060E080E00E940605AC
:1059600024EC33E040E060E080E00E94060527EC94
:1059700033E040E060E080E00E9406050E941E13D4
:105980000E94A704609304017093050180930601AF
:10599000909307018C2D2D960FB6F894DEBF0FBEA5
:1059A000CDBFDF91CF911F910F91FF90EF90DF90CE
:1059B000CF90BF90AF909F908F907F906F905F90AF
:1059C0004F90089541E0741204C080E00E94B80E28
:1059D00055CF52E0751252CF80E00E94F00D4ECFAD
:1059E000013021F484E00E94B80E4DCF023021F442
:1059F00084E00E94F00D47CF033021F484E00E9440
:105A0000280D41CF043021F484E00E94600C3BCF8C
:105A1000053021F484E00E94980B35CF063021F444
:105A200084E00E94D00A2FCF073021F484E00E9446
:105A3000080A29CF083021F484E00E94400923CFCE
:105A4000093009F020CF84E00E9478081CCFE1E003
:105A5000DE1204C089E00E94B80E1BCFF2E0DF1214
:105A600004C089E00E94F00D14CF03E0D01204C0FE
:105A700089E00E94280D0DCF24E0D21204C089E0F5
:105A80000E94600C06CF35E0D31204C089E00E946A
:105A9000980BFFCE46E0D412FCCE89E00E94D00ADB
:105AA000F8CE113021F48DE00E94B80EF7CE1230FE
:105AB00021F48DE00E94F00DF1CE133021F48DE041
:105AC0000E94280DEBCE143021F48DE00E94600C72
:105AD000E5CE153021F48DE00E94980BDFCE163014
